{"contracts/SmartWalletFixed.sol":{"SmartWalletFixed":{"abi":[{"inputs":[],"stateMutability":"nonpayable","type":"constructor"},{"inputs":[],"name":"EnforcedPause","type":"error"},{"inputs":[],"name":"ExpectedPause","type":"error"},{"inputs":[{"internalType":"address","name":"owner","type":"address"}],"name":"OwnableInvalidOwner","type":"error"},{"inputs":[{"internalType":"address","name":"account","type":"address"}],"name":"OwnableUnauthorizedAccount","type":"error"},{"inputs":[],"name":"ReentrancyGuardReentrantCall","type":"error"},{"inputs":[{"internalType":"address","name":"token","type":"address"}],"name":"SafeERC20FailedOperation","type":"error"},{"anonymous":false,"inputs":[{"indexed":true,"internalType":"address","name":"wallet","type":"address"},{"indexed":true,"internalType":"address","name":"guardian","type":"address"}],"name":"GuardianAdded","type":"event"},{"anonymous":false,"inputs":[{"indexed":true,"internalType":"address","name":"wallet","type":"address"},{"indexed":true,"internalType":"address","name":"guardian","type":"address"}],"name":"GuardianRemoved","type":"event"},{"anonymous":false,"inputs":[{"indexed":true,"internalType":"address","name":"wallet","type":"address"},{"indexed":false,"internalType":"uint256","name":"dailyLimit","type":"uint256"},{"indexed":false,"internalType":"uint256","name":"monthlyLimit","type":"uint256"}],"name":"LimitsUpdated","type":"event"},{"anonymous":false,"inputs":[{"indexed":true,"internalType":"address","name":"from","type":"address"},{"indexed":true,"internalType":"address","name":"to","type":"address"},{"indexed":false,"internalType":"uint256","name":"amount","type":"uint256"}],"name":"NativeTokenTransferred","type":"event"},{"anonymous":false,"inputs":[{"indexed":true,"internalType":"address","name":"previousOwner","type":"address"},{"indexed":true,"internalType":"address","name":"newOwner","type":"address"}],"name":"OwnershipTransferred","type":"event"},{"anonymous":false,"inputs":[{"indexed":false,"internalType":"address","name":"account","type":"address"}],"name":"Paused","type":"event"},{"anonymous":false,"inputs":[{"indexed":true,"internalType":"string","name":"eventType","type":"string"},{"indexed":true,"internalType":"address","name":"user","type":"address"},{"indexed":false,"internalType":"string","name":"details","type":"string"}],"name":"SecurityEvent","type":"event"},{"anonymous":false,"inputs":[{"indexed":true,"internalType":"address","name":"from","type":"address"},{"indexed":true,"internalType":"address","name":"to","type":"address"},{"indexed":false,"internalType":"address","name":"token","type":"address"},{"indexed":false,"internalType":"uint256","name":"amount","type":"uint256"}],"name":"TokensTransferred","type":"event"},{"anonymous":false,"inputs":[{"indexed":false,"internalType":"address","name":"account","type":"address"}],"name":"Unpaused","type":"event"},{"anonymous":false,"inputs":[{"indexed":true,"internalType":"address","name":"owner","type":"address"},{"indexed":false,"internalType":"address","name":"wallet","type":"address"}],"name":"WalletCreated","type":"event"},{"inputs":[],"name":"MAX_GUARDIANS","outputs":[{"internalType":"uint256","name":"","type":"uint256"}],"stateMutability":"view","type":"function"},{"inputs":[],"name":"MAX_TRANSACTIONS_PER_PERIOD","outputs":[{"internalType":"uint256","name":"","type":"uint256"}],"stateMutability":"view","type":"function"},{"inputs":[],"name":"RATE_LIMIT_PERIOD","outputs":[{"internalType":"uint256","name":"","type":"uint256"}],"stateMutability":"view","type":"function"},{"inputs":[{"internalType":"address","name":"guardian","type":"address"}],"name":"addGuardian","outputs":[],"stateMutability":"nonpayable","type":"function"},{"inputs":[{"internalType":"uint256","name":"initialLimit","type":"uint256"}],"name":"createWallet","outputs":[],"stateMutability":"nonpayable","type":"function"},{"inputs":[],"name":"emergencyWithdraw","outputs":[],"stateMutability":"nonpayable","type":"function"},{"inputs":[],"name":"owner","outputs":[{"internalType":"address","name":"","type":"address"}],"stateMutability":"view","type":"function"},{"inputs":[],"name":"pause","outputs":[],"stateMutability":"nonpayable","type":"function"},{"inputs":[],"name":"paused","outputs":[{"internalType":"bool","name":"","type":"bool"}],"stateMutability":"view","type":"function"},{"inputs":[{"internalType":"address","name":"guardian","type":"address"}],"name":"removeGuardian","outputs":[],"stateMutability":"nonpayable","type":"function"},{"inputs":[{"internalType":"address","name":"token","type":"address"}],"name":"removeTokenFromWhitelist","outputs":[],"stateMutability":"nonpayable","type":"function"},{"inputs":[],"name":"renounceOwnership","outputs":[],"stateMutability":"nonpayable","type":"function"},{"inputs":[{"internalType":"address payable","name":"to","type":"address"}],"name":"transferNative","outputs":[],"stateMutability":"payable","type":"function"},{"inputs":[{"internalType":"address","name":"newOwner","type":"address"}],"name":"transferOwnership","outputs":[],"stateMutability":"nonpayable","type":"function"},{"inputs":[{"internalType":"address","name":"token","type":"address"},{"internalType":"address","name":"to","type":"address"},{"internalType":"uint256","name":"amount","type":"uint256"}],"name":"transferTokens","outputs":[],"stateMutability":"nonpayable","type":"function"},{"inputs":[],"name":"unpause","outputs":[],"stateMutability":"nonpayable","type":"function"},{"inputs":[{"internalType":"address","name":"wallet","type":"address"},{"internalType":"uint256","name":"newDailyLimit","type":"uint256"},{"internalType":"uint256","name":"newMonthlyLimit","type":"uint256"}],"name":"updateLimits","outputs":[],"stateMutability":"nonpayable","type":"function"},{"inputs":[{"internalType":"bytes32","name":"","type":"bytes32"}],"name":"usedSignatures","outputs":[{"internalType":"bool","name":"","type":"bool"}],"stateMutability":"view","type":"function"},{"inputs":[{"internalType":"address","name":"","type":"address"}],"name":"wallets","outputs":[{"internalType":"bool","name":"exists","type":"bool"},{"internalType":"uint256","name":"dailyLimit","type":"uint256"},{"internalType":"uint256","name":"monthlyLimit","type":"uint256"},{"internalType":"uint256","name":"dailySpent","type":"uint256"},{"internalType":"uint256","name":"monthlySpent","type":"uint256"},{"internalType":"uint256","name":"lastDayReset","type":"uint256"},{"internalType":"uint256","name":"lastMonthReset","type":"uint256"},{"internalType":"uint256","name":"guardiansCount","type":"uint256"},{"internalType":"uint256","name":"nonce","type":"uint256"},{"internalType":"uint256","name":"lastTransactionTime","type":"uint256"},{"internalType":"uint256","name":"transactionCount","type":"uint256"}],"stateMutability":"view","type":"function"},{"inputs":[{"internalType":"address","name":"token","type":"address"}],"name":"whitelistToken","outputs":[],"stateMutability":"nonpayable","type":"function"},{"inputs":[{"internalType":"address","name":"","type":"address"}],"name":"whitelistedTokens","outputs":[{"internalType":"bool","name":"","type":"bool"}],"stateMutability":"view","type":"function"},{"stateMutability":"payable","type":"receive"}],"evm":{"bytecode":{"linkReferences":{},"object":"608080604052346100d15733156100bb5760008054336001600160a01b03198216811783556040519290916001600160a01b0316907f8be0079c531659141344cd1fd0a4f28419497f9722a3daafe3b4186f6b6457e09080a3600180556002549060ff82166100ac5760018260ff1916176002557f62e78cea01bee320cd4e420270b5ea74000d11b0c9f74754ebdbfc544b05a2586020604051338152a1604051611a3190816100d78239f35b63d93c066560e01b8152600490fd5b631e4fbdf760e01b815260006004820152602490fd5b600080fdfe604060808152600480361015610098575b50361561001c57600080fd5b6b11551217d49150d15255915160a21b8151527f45544820726563656976656420627920636f6e7472616374000000000000000081519160208352601860208401528201527fc4db6327b7dcf3f68e7a6e33449805e04bf36498e9cec875a8c1c95f410bbf886000805160206119dc83398151915260603393a3005b90600091823560e01c8063306275be146114845780633f4ba83a146113a9578063422c1d371461138d57806358abfbdf146113715780635c975abb1461134d5780636247f6f21461127457806371404156146110ec578063715018a61461108f5780637a675bb614610eaa5780638456cb5914610de057806389b08f1114610d355780638da5cb5b14610d0d578063a526c5f014610b30578063a526d83b14610914578063a64b6e5f1461057a578063b7b188d11461055a578063cf4c34a6146103b4578063daf9c21014610378578063db2e21bc14610243578063f2fde38b146101bd5763f978fd611461018e575090610010565b346101b95760203660031901126101b9578160209360ff923581526005855220541690519015158152f35b8280fd5b50346101b95760203660031901126101b9576101d761157c565b906101e06117cd565b6001600160a01b0391821692831561022d57505082546001600160a01b0319811683178455167f8be0079c531659141344cd1fd0a4f28419497f9722a3daafe3b4186f6b6457e08380a380f35b51631e4fbdf760e01b8152908101849052602490fd5b50346101b957826003193601126101b95761025c6117cd565b47801561034057835484918291829182916001600160a01b03165af1610280611768565b501561030a575071454d455247454e43595f574954484452415760701b8151527f456d657267656e6379207769746864726177616c20657865637574656400000081519160208352601d60208401528201527f9150a740663a4e1de34dbd521c62e5c53cb2abbf658e99a95c994501a4c8ad726000805160206119dc83398151915260603393a380f35b6020606492519162461bcd60e51b8352820152601160248201527015da5d1a191c985dd85b0819985a5b1959607a1b6044820152fd5b506020606492519162461bcd60e51b835282015260126024820152714e6f2045544820746f20776974686472617760701b6044820152fd5b50346101b95760203660031901126101b95760209260ff918391906001600160a01b036103a361157c565b168252855220541690519015158152f35b50346101b95760603660031901126101b9576103ce61157c565b91602435604435936103de6117cd565b60018060a01b0316938486526020936003855261040060ff8589205416611621565b821561052157601e8302838104601e0361050e5782106104d35750927415d85b1b195d081b1a5b5a5d1cc81d5c19185d1959605a1b83867fdc679119ed8c7f3e58938f78968a044a7d8f8ab9d80398506c4289c318a5e3ee82606096897fcfac7405d92dc11bc0a73cafd982d7ddcd68ca5f7fb1f8acb13d9a015b652a729a60026000805160206119dc8339815191529b8f88815260038c52208460018201550155825191825287820152a26d131253525514d7d554111055115160921b8151526015815193808552840152820152a380f35b835162461bcd60e51b81529081018590526015602482015274125b9d985b1a59081b5bdb9d1a1b1e481b1a5b5a5d605a1b6044820152606490fd5b634e487b7160e01b885260118252602488fd5b835162461bcd60e51b81529081018590526013602482015272125b9d985b1a590819185a5b1e481b1a5b5a5d606a1b6044820152606490fd5b50503461057657816003193601126105765760209051603c8152f35b5080fd5b509190346105765760603660031901126105765761059661157c565b9060249384359060018060a01b03808316809303610910576044918235916105bc6117f9565b6105c461181c565b338852602096600388526105dd60ff888b205416611621565b6105ef6105ea8533611847565b611665565b6106006105fb3361191c565b6116b1565b61060b861515611597565b610617308714156115d5565b169283885281875260ff8689205416156108d7576106368315156116f3565b85516370a0823160e01b8152338382015287818b81885afa908115610864579084918a916108a6575b501061086e578551636eb1769f60e11b81523383820152308a82015287818381885afa908115610864579084918a9161082f575b50106107f5578790865186898201926323b872dd60e01b8452338d8401528201528460648201526064815260a0810181811067ffffffffffffffff8211176107e35788525188929182875af1156107d95786513d6107d05750823b155b6107ba57507f546f6b656e207472616e7366657220657865637574656400000000000000000094959650610724813361195b565b61072d33611993565b8351918252858201527f70c5f97fd0068e96984b8116fe83eefbff3b91244565bf311a3cba619b4ecbc7833392a36d2a27a5a2a72faa2920a729a322a960911b81515260178151938085528401528201527f60f91c4983cd584ea4c48485b610cc900d867e1f806ae08ae922a90379466d356000805160206119dc83398151915260603393a36001805580f35b8451635274afe760e01b81529081018390528790fd5b600114156106f0565b84513d88823e3d90fd5b634e487b7160e01b8452604185528b84fd5b855162461bcd60e51b81529182018790526016828a015275496e73756666696369656e7420616c6c6f77616e636560501b90820152606490fd5b809250898092503d831161085d575b6108488183611730565b810103126108595783905138610693565b8880fd5b503d61083e565b87513d8b823e3d90fd5b855162461bcd60e51b81529182018790526014828a015273496e73756666696369656e742062616c616e636560601b90820152606490fd5b809250898092503d83116108d0575b6108bf8183611730565b81010312610859578390513861065f565b503d6108b5565b855162461bcd60e51b81529182018790526015828a015274151bdad95b881b9bdd081dda1a5d195b1a5cdd1959605a1b90820152606490fd5b8580fd5b5091903461057657602090816003193601126101b95761093261157c565b33845260039081845261094a60ff8487205416611621565b6001600160a01b03169461095f861515611597565b61096b308714156115d5565b338614610aed57338552818452600783862001868652845260ff8386205416610aaa5733855281845281600884872001541015610a6f5750906d11d550549112505397d05111115160921b856d11dd585c991a585b88185919195960921b933387528086526007848820018288528652838720600160ff1982541617905533875285526008838720016109fe81546117a8565b9055825190337fbc3292102fa77e083913064b282926717cdfaede4d35f553d66366c0a3da755a8880a352600e8151938085528401528201527f96bcc56cfe8f348520fc140868e4e66e54e67f50264202f57635528b6af9077f6000805160206119dc83398151915260603393a380f35b825162461bcd60e51b8152908101849052601560248201527413585e0819dd585c991a585b9cc81c995858da1959605a1b6044820152606490fd5b825162461bcd60e51b8152908101849052601760248201527f477561726469616e20616c7265616479206578697374730000000000000000006044820152606490fd5b825162461bcd60e51b8152908101849052601b60248201527f43616e6e6f74206164642073656c6620617320677561726469616e00000000006044820152606490fd5b509190602090816003193601126101b95783356001600160a01b0381169490859003610d0957610b5e6117f9565b610b6661181c565b33845260038352610b7c60ff8386205416611621565b610b896105ea3433611847565b610b956105fb3361191c565b610ba0851515611597565b610bac308614156115d5565b610bb73415156116f3565b344710610cc8578380808034895af1610bce611768565b5015610c9557507f4e617469766520746f6b656e207472616e7366657220657865637574656400009084610c02343361195b565b610c0b33611993565b81513481527f011c182fcc25e52151bf452608f627a605269882587c25b326e9eb16819557b6853392a36e2720aa24ab22afaa2920a729a322a960891b815152601e8151938085528401528201527fef56a5615f8bbcee22a92e99498b521e2ea125732645878882b5cd32f413d28f6000805160206119dc83398151915260603393a36001805580f35b82606492519162461bcd60e51b8352820152600f60248201526e151c985b9cd9995c8819985a5b1959608a1b6044820152fd5b82606492519162461bcd60e51b8352820152601d60248201527f496e73756666696369656e7420636f6e74726163742062616c616e63650000006044820152fd5b8380fd5b505034610576578160031936011261057657905490516001600160a01b039091168152602090f35b50346101b95760203660031901126101b9576101609282906001600160a01b03610d5d61157c565b16815260036020522060ff81541692600182015492600283015490600384015490840154600585015490600686015492600887015494600988015496600b600a8a01549901549981519b15158c5260208c01528a01526060890152608088015260a087015260c086015260e0850152610100840152610120830152610140820152f35b505034610576578160031936011261057657610dfa6117cd565b610e0261181c565b600160ff1960025416176002557f62e78cea01bee320cd4e420270b5ea74000d11b0c9f74754ebdbfc544b05a25860208251338152a16e10d3d395149050d517d4105554d151608a1b8151526e10dbdb9d1c9858dd081c185d5cd959608a1b81519160208352600f60208401528201527f147b5a380f6f0270a2f69850af8b14ad13a2da1ab5eeb54ef942363f06fef7e36000805160206119dc83398151915260603393a380f35b5091903461057657602090816003193601126101b9578335323303611054573384526003835260ff8285205416611019578015610fde573384526003835281842090600160ff19835416178255806001830155601e8102908104601e03610fcb57600b82869260027113995dc81dd85b1b195d0818dc99585d195960721b9695015542600582015542600682015582600982015582600a820155015580513381527f5b03bfed1c14a02bdeceb5fa582eb1a5765fc0bc64ca0e6af4c20afc9487f081843392a26d15d05313115517d0d4915055115160921b81515260128151938085528401528201527faff2cd6171b22fca754208fc501edec111c0d535478c34266a231917a70b258b6000805160206119dc83398151915260603393a380f35b634e487b7160e01b855260118652602485fd5b815162461bcd60e51b81528086018490526015602482015274125b9d985b1a59081a5b9a5d1a585b081b1a5b5a5d605a1b6044820152606490fd5b815162461bcd60e51b8152808601849052601560248201527457616c6c657420616c72656164792065786973747360581b6044820152606490fd5b815162461bcd60e51b8152808601849052601560248201527410dbdb9d1c9858dd1cc81b9bdd08185b1b1bddd959605a1b6044820152606490fd5b83346110e957806003193601126110e9576110a86117cd565b80546001600160a01b03198116825581906001600160a01b03167f8be0079c531659141344cd1fd0a4f28419497f9722a3daafe3b4186f6b6457e08280a380f35b80fd5b5091903461057657602090816003193601126101b95761110a61157c565b3384526003835261112060ff8386205416611621565b338452600383528184206001600160a01b0390911680855260079190910183528184205460ff16156112315733845260038352600782852001818552835281842060ff198154169055338452600383526008828520018054801561121e5760001901905581516f11dd585c991a585b881c995b5bdd995960821b92916f11d550549112505397d4915353d5915160821b9190337fee943cdb81826d5909c559c6b1ae6908fcaf2dbc16c4b730346736b486283e8b8880a35260108151938085528401528201527f4c58f73c287819f5cc633b6e04f6310c01b3e3880c34c4f2b4b2f7c2883c5a206000805160206119dc83398151915260603393a380f35b634e487b7160e01b865260118752602486fd5b815162461bcd60e51b8152808601849052601760248201527f477561726469616e20646f6573206e6f742065786973740000000000000000006044820152606490fd5b5090346101b95760203660031901126101b9576000805160206119dc83398151915260607f3d121eb71d15c143f13fb275138cc1d25f61306c933bc6b832818ddabe9942b8926112c261157c565b6112ca6117cd565b6001600160a01b0316946112df861515611597565b6112eb308714156115d5565b858752602052808620600160ff19825416179055701513d2d15397d5d2125511531254d51151607a1b8151527f546f6b656e20616464656420746f2077686974656c69737400000000000000008151916020835260186020840152820152a380f35b50503461057657816003193601126105765760209060ff6002541690519015158152f35b50503461057657816003193601126105765760209051600a8152f35b5050346105765781600319360112610576576020905160038152f35b50346101b957826003193601126101b9576113c26117cd565b6002549060ff821615611476575060ff19166002557f5db9ee0a495bf2e6ff9c91a7834c1ba4fdd244a5e8aa4e537bd38aeae4b073aa60208251338152a17010d3d395149050d517d55394105554d151607a1b8151527010dbdb9d1c9858dd081d5b9c185d5cd959607a1b81519160208352601160208401528201527ffb1c428812a427ca46d176c2bc29db1f567ecdf9104f28f2e57efccdcc6d0e526000805160206119dc83398151915260603393a380f35b8251638dfc202b60e01b8152fd5b5090346101b95760203660031901126101b95761149f61157c565b6114a76117cd565b6001600160a01b031691821561154a5760607fa9083c24e5d01b177e2d6a16786169f806b25e6a56c5e9ec62cc14c2ee6f18e9926000805160206119dc8339815191529285875260205280862060ff198154169055701513d2d15397d0931050d2d31254d51151607a1b8151527f546f6b656e2072656d6f7665642066726f6d2077686974656c6973740000000081519160208352601c6020840152820152a380f35b6020606492519162461bcd60e51b8352820152600d60248201526c24b73b30b634b2103a37b5b2b760991b6044820152fd5b600435906001600160a01b038216820361159257565b600080fd5b1561159e57565b60405162461bcd60e51b815260206004820152600f60248201526e496e76616c6964206164647265737360881b6044820152606490fd5b156115dc57565b60405162461bcd60e51b815260206004820152601b60248201527f43616e6e6f742075736520636f6e7472616374206164647265737300000000006044820152606490fd5b1561162857565b60405162461bcd60e51b815260206004820152601560248201527415d85b1b195d08191bd95cc81b9bdd08195e1a5cdd605a1b6044820152606490fd5b1561166c57565b60405162461bcd60e51b815260206004820152601a60248201527f5472616e73616374696f6e2065786365656473206c696d6974730000000000006044820152606490fd5b156116b857565b60405162461bcd60e51b815260206004820152601360248201527214985d19481b1a5b5a5d08195e18d959591959606a1b6044820152606490fd5b156116fa57565b60405162461bcd60e51b815260206004820152600e60248201526d125b9d985b1a5908185b5bdd5b9d60921b6044820152606490fd5b90601f8019910116810190811067ffffffffffffffff82111761175257604052565b634e487b7160e01b600052604160045260246000fd5b3d156117a3573d9067ffffffffffffffff82116117525760405191611797601f8201601f191660200184611730565b82523d6000602084013e565b606090565b60001981146117b75760010190565b634e487b7160e01b600052601160045260246000fd5b6000546001600160a01b031633036117e157565b60405163118cdaa760e01b8152336004820152602490fd5b60026001541461180a576002600155565b604051633ee5aeb560e01b8152600490fd5b60ff6002541661182857565b60405163d93c066560e01b8152600490fd5b919082018092116117b757565b6001600160a01b03166000908152600360205260408120600581018054919291620151808101908110611908574210156118f9575b506006820190815462278d0081018091116118e5574210156118d6575b50506118a982600383015461183a565b6001820154101591826118bb57505090565b8192506118ce906004600293015461183a565b910154101590565b60048301554290553880611899565b634e487b7160e01b82526011600452602482fd5b8160038401554290553861187c565b634e487b7160e01b83526011600452602483fd5b6001600160a01b03166000908152600360205260409020600a810154603c81019081106117b75742101561195557600b600a9101541090565b50600190565b60018060a01b0316600052600360205261198f600460406000206003810161198485825461183a565b90550191825461183a565b9055565b60018060a01b031660005260036020526040600020600a8101908154603c81018091116117b75742106119cc57600b6001910155429055565b600b91500161198f81546117a856fe9fbf46cde146ca9cbbcf5066a33c413d870f319f2fefc85b83e485ba2410449fa2646970667358221220b8457903d78355c1efc65dd540f944b061ff0c4ef947f7663270a03decd6375b64736f6c63430008160033","opcodes":"PUSH1 0x80 DUP1 PUSH1 0x40 MSTORE CALLVALUE PUSH2 0xD1 JUMPI CALLER ISZERO PUSH2 0xBB JUMPI PUSH1 0x0 DUP1 SLOAD CALLER PUSH1 0x1 PUSH1 0x1 PUSH1 0xA0 SHL SUB NOT DUP3 AND DUP2 OR DUP4 SSTORE PUSH1 0x40 MLOAD SWAP3 SWAP1 SWAP2 PUSH1 0x1 PUSH1 0x1 PUSH1 0xA0 SHL SUB AND SWAP1 PUSH32 0x8BE0079C531659141344CD1FD0A4F28419497F9722A3DAAFE3B4186F6B6457E0 SWAP1 DUP1 LOG3 PUSH1 0x1 DUP1 SSTORE PUSH1 0x2 SLOAD SWAP1 PUSH1 0xFF DUP3 AND PUSH2 0xAC JUMPI PUSH1 0x1 DUP3 PUSH1 0xFF NOT AND OR PUSH1 0x2 SSTORE PUSH32 0x62E78CEA01BEE320CD4E420270B5EA74000D11B0C9F74754EBDBFC544B05A258 PUSH1 0x20 PUSH1 0x40 MLOAD CALLER DUP2 MSTORE LOG1 PUSH1 0x40 MLOAD PUSH2 0x1A31 SWAP1 DUP2 PUSH2 0xD7 DUP3 CODECOPY RETURN JUMPDEST PUSH4 0xD93C0665 PUSH1 0xE0 SHL DUP2 MSTORE PUSH1 0x4 SWAP1 REVERT JUMPDEST PUSH4 0x1E4FBDF7 PUSH1 0xE0 SHL DUP2 MSTORE PUSH1 0x0 PUSH1 0x4 DUP3 ADD MSTORE PUSH1 0x24 SWAP1 REVERT JUMPDEST PUSH1 0x0 DUP1 REVERT INVALID PUSH1 0x40 PUSH1 0x80 DUP2 MSTORE PUSH1 0x4 DUP1 CALLDATASIZE LT ISZERO PUSH2 0x98 JUMPI JUMPDEST POP CALLDATASIZE ISZERO PUSH2 0x1C JUMPI PUSH1 0x0 DUP1 REVERT JUMPDEST PUSH12 0x11551217D49150D152559151 PUSH1 0xA2 SHL DUP2 MLOAD MSTORE PUSH32 0x45544820726563656976656420627920636F6E74726163740000000000000000 DUP2 MLOAD SWAP2 PUSH1 0x20 DUP4 MSTORE PUSH1 0x18 PUSH1 0x20 DUP5 ADD MSTORE DUP3 ADD MSTORE PUSH32 0xC4DB6327B7DCF3F68E7A6E33449805E04BF36498E9CEC875A8C1C95F410BBF88 PUSH1 0x0 DUP1 MLOAD PUSH1 0x20 PUSH2 0x19DC DUP4 CODECOPY DUP2 MLOAD SWAP2 MSTORE PUSH1 0x60 CALLER SWAP4 LOG3 STOP JUMPDEST SWAP1 PUSH1 0x0 SWAP2 DUP3 CALLDATALOAD PUSH1 0xE0 SHR DUP1 PUSH4 0x306275BE EQ PUSH2 0x1484 JUMPI DUP1 PUSH4 0x3F4BA83A EQ PUSH2 0x13A9 JUMPI DUP1 PUSH4 0x422C1D37 EQ PUSH2 0x138D JUMPI DUP1 PUSH4 0x58ABFBDF EQ PUSH2 0x1371 JUMPI DUP1 PUSH4 0x5C975ABB EQ PUSH2 0x134D JUMPI DUP1 PUSH4 0x6247F6F2 EQ PUSH2 0x1274 JUMPI DUP1 PUSH4 0x71404156 EQ PUSH2 0x10EC JUMPI DUP1 PUSH4 0x715018A6 EQ PUSH2 0x108F JUMPI DUP1 PUSH4 0x7A675BB6 EQ PUSH2 0xEAA JUMPI DUP1 PUSH4 0x8456CB59 EQ PUSH2 0xDE0 JUMPI DUP1 PUSH4 0x89B08F11 EQ PUSH2 0xD35 JUMPI DUP1 PUSH4 0x8DA5CB5B EQ PUSH2 0xD0D JUMPI DUP1 PUSH4 0xA526C5F0 EQ PUSH2 0xB30 JUMPI DUP1 PUSH4 0xA526D83B EQ PUSH2 0x914 JUMPI DUP1 PUSH4 0xA64B6E5F EQ PUSH2 0x57A JUMPI DUP1 PUSH4 0xB7B188D1 EQ PUSH2 0x55A JUMPI DUP1 PUSH4 0xCF4C34A6 EQ PUSH2 0x3B4 JUMPI DUP1 PUSH4 0xDAF9C210 EQ PUSH2 0x378 JUMPI DUP1 PUSH4 0xDB2E21BC EQ PUSH2 0x243 JUMPI DUP1 PUSH4 0xF2FDE38B EQ PUSH2 0x1BD JUMPI PUSH4 0xF978FD61 EQ PUSH2 0x18E JUMPI POP SWAP1 PUSH2 0x10 JUMP JUMPDEST CALLVALUE PUSH2 0x1B9 JUMPI PUSH1 0x20 CALLDATASIZE PUSH1 0x3 NOT ADD SLT PUSH2 0x1B9 JUMPI DUP2 PUSH1 0x20 SWAP4 PUSH1 0xFF SWAP3 CALLDATALOAD DUP2 MSTORE PUSH1 0x5 DUP6 MSTORE KECCAK256 SLOAD AND SWAP1 MLOAD SWAP1 ISZERO ISZERO DUP2 MSTORE RETURN JUMPDEST DUP3 DUP1 REVERT JUMPDEST POP CALLVALUE PUSH2 0x1B9 JUMPI PUSH1 0x20 CALLDATASIZE PUSH1 0x3 NOT ADD SLT PUSH2 0x1B9 JUMPI PUSH2 0x1D7 PUSH2 0x157C JUMP JUMPDEST SWAP1 PUSH2 0x1E0 PUSH2 0x17CD JUMP JUMPDEST PUSH1 0x1 PUSH1 0x1 PUSH1 0xA0 SHL SUB SWAP2 DUP3 AND SWAP3 DUP4 ISZERO PUSH2 0x22D JUMPI POP POP DUP3 SLOAD PUSH1 0x1 PUSH1 0x1 PUSH1 0xA0 SHL SUB NOT DUP2 AND DUP4 OR DUP5 SSTORE AND PUSH32 0x8BE0079C531659141344CD1FD0A4F28419497F9722A3DAAFE3B4186F6B6457E0 DUP4 DUP1 LOG3 DUP1 RETURN JUMPDEST MLOAD PUSH4 0x1E4FBDF7 PUSH1 0xE0 SHL DUP2 MSTORE SWAP1 DUP2 ADD DUP5 SWAP1 MSTORE PUSH1 0x24 SWAP1 REVERT JUMPDEST POP CALLVALUE PUSH2 0x1B9 JUMPI DUP3 PUSH1 0x3 NOT CALLDATASIZE ADD SLT PUSH2 0x1B9 JUMPI PUSH2 0x25C PUSH2 0x17CD JUMP JUMPDEST SELFBALANCE DUP1 ISZERO PUSH2 0x340 JUMPI DUP4 SLOAD DUP5 SWAP2 DUP3 SWAP2 DUP3 SWAP2 DUP3 SWAP2 PUSH1 0x1 PUSH1 0x1 PUSH1 0xA0 SHL SUB AND GAS CALL PUSH2 0x280 PUSH2 0x1768 JUMP JUMPDEST POP ISZERO PUSH2 0x30A JUMPI POP PUSH18 0x454D455247454E43595F5749544844524157 PUSH1 0x70 SHL DUP2 MLOAD MSTORE PUSH32 0x456D657267656E6379207769746864726177616C206578656375746564000000 DUP2 MLOAD SWAP2 PUSH1 0x20 DUP4 MSTORE PUSH1 0x1D PUSH1 0x20 DUP5 ADD MSTORE DUP3 ADD MSTORE PUSH32 0x9150A740663A4E1DE34DBD521C62E5C53CB2ABBF658E99A95C994501A4C8AD72 PUSH1 0x0 DUP1 MLOAD PUSH1 0x20 PUSH2 0x19DC DUP4 CODECOPY DUP2 MLOAD SWAP2 MSTORE PUSH1 0x60 CALLER SWAP4 LOG3 DUP1 RETURN JUMPDEST PUSH1 0x20 PUSH1 0x64 SWAP3 MLOAD SWAP2 PUSH3 0x461BCD PUSH1 0xE5 SHL DUP4 MSTORE DUP3 ADD MSTORE PUSH1 0x11 PUSH1 0x24 DUP3 ADD MSTORE PUSH17 0x15DA5D1A191C985DD85B0819985A5B1959 PUSH1 0x7A SHL PUSH1 0x44 DUP3 ADD MSTORE REVERT JUMPDEST POP PUSH1 0x20 PUSH1 0x64 SWAP3 MLOAD SWAP2 PUSH3 0x461BCD PUSH1 0xE5 SHL DUP4 MSTORE DUP3 ADD MSTORE PUSH1 0x12 PUSH1 0x24 DUP3 ADD MSTORE PUSH18 0x4E6F2045544820746F207769746864726177 PUSH1 0x70 SHL PUSH1 0x44 DUP3 ADD MSTORE REVERT JUMPDEST POP CALLVALUE PUSH2 0x1B9 JUMPI PUSH1 0x20 CALLDATASIZE PUSH1 0x3 NOT ADD SLT PUSH2 0x1B9 JUMPI PUSH1 0x20 SWAP3 PUSH1 0xFF SWAP2 DUP4 SWAP2 SWAP1 PUSH1 0x1 PUSH1 0x1 PUSH1 0xA0 SHL SUB PUSH2 0x3A3 PUSH2 0x157C JUMP JUMPDEST AND DUP3 MSTORE DUP6 MSTORE KECCAK256 SLOAD AND SWAP1 MLOAD SWAP1 ISZERO ISZERO DUP2 MSTORE RETURN JUMPDEST POP CALLVALUE PUSH2 0x1B9 JUMPI PUSH1 0x60 CALLDATASIZE PUSH1 0x3 NOT ADD SLT PUSH2 0x1B9 JUMPI PUSH2 0x3CE PUSH2 0x157C JUMP JUMPDEST SWAP2 PUSH1 0x24 CALLDATALOAD PUSH1 0x44 CALLDATALOAD SWAP4 PUSH2 0x3DE PUSH2 0x17CD JUMP JUMPDEST PUSH1 0x1 DUP1 PUSH1 0xA0 SHL SUB AND SWAP4 DUP5 DUP7 MSTORE PUSH1 0x20 SWAP4 PUSH1 0x3 DUP6 MSTORE PUSH2 0x400 PUSH1 0xFF DUP6 DUP10 KECCAK256 SLOAD AND PUSH2 0x1621 JUMP JUMPDEST DUP3 ISZERO PUSH2 0x521 JUMPI PUSH1 0x1E DUP4 MUL DUP4 DUP2 DIV PUSH1 0x1E SUB PUSH2 0x50E JUMPI DUP3 LT PUSH2 0x4D3 JUMPI POP SWAP3 PUSH21 0x15D85B1B195D081B1A5B5A5D1CC81D5C19185D1959 PUSH1 0x5A SHL DUP4 DUP7 PUSH32 0xDC679119ED8C7F3E58938F78968A044A7D8F8AB9D80398506C4289C318A5E3EE DUP3 PUSH1 0x60 SWAP7 DUP10 PUSH32 0xCFAC7405D92DC11BC0A73CAFD982D7DDCD68CA5F7FB1F8ACB13D9A015B652A72 SWAP11 PUSH1 0x2 PUSH1 0x0 DUP1 MLOAD PUSH1 0x20 PUSH2 0x19DC DUP4 CODECOPY DUP2 MLOAD SWAP2 MSTORE SWAP12 DUP16 DUP9 DUP2 MSTORE PUSH1 0x3 DUP13 MSTORE KECCAK256 DUP5 PUSH1 0x1 DUP3 ADD SSTORE ADD SSTORE DUP3 MLOAD SWAP2 DUP3 MSTORE DUP8 DUP3 ADD MSTORE LOG2 PUSH14 0x131253525514D7D5541110551151 PUSH1 0x92 SHL DUP2 MLOAD MSTORE PUSH1 0x15 DUP2 MLOAD SWAP4 DUP1 DUP6 MSTORE DUP5 ADD MSTORE DUP3 ADD MSTORE LOG3 DUP1 RETURN JUMPDEST DUP4 MLOAD PUSH3 0x461BCD PUSH1 0xE5 SHL DUP2 MSTORE SWAP1 DUP2 ADD DUP6 SWAP1 MSTORE PUSH1 0x15 PUSH1 0x24 DUP3 ADD MSTORE PUSH21 0x125B9D985B1A59081B5BDB9D1A1B1E481B1A5B5A5D PUSH1 0x5A SHL PUSH1 0x44 DUP3 ADD MSTORE PUSH1 0x64 SWAP1 REVERT JUMPDEST PUSH4 0x4E487B71 PUSH1 0xE0 SHL DUP9 MSTORE PUSH1 0x11 DUP3 MSTORE PUSH1 0x24 DUP9 REVERT JUMPDEST DUP4 MLOAD PUSH3 0x461BCD PUSH1 0xE5 SHL DUP2 MSTORE SWAP1 DUP2 ADD DUP6 SWAP1 MSTORE PUSH1 0x13 PUSH1 0x24 DUP3 ADD MSTORE PUSH19 0x125B9D985B1A590819185A5B1E481B1A5B5A5D PUSH1 0x6A SHL PUSH1 0x44 DUP3 ADD MSTORE PUSH1 0x64 SWAP1 REVERT JUMPDEST POP POP CALLVALUE PUSH2 0x576 JUMPI DUP2 PUSH1 0x3 NOT CALLDATASIZE ADD SLT PUSH2 0x576 JUMPI PUSH1 0x20 SWAP1 MLOAD PUSH1 0x3C DUP2 MSTORE RETURN JUMPDEST POP DUP1 REVERT JUMPDEST POP SWAP2 SWAP1 CALLVALUE PUSH2 0x576 JUMPI PUSH1 0x60 CALLDATASIZE PUSH1 0x3 NOT ADD SLT PUSH2 0x576 JUMPI PUSH2 0x596 PUSH2 0x157C JUMP JUMPDEST SWAP1 PUSH1 0x24 SWAP4 DUP5 CALLDATALOAD SWAP1 PUSH1 0x1 DUP1 PUSH1 0xA0 SHL SUB DUP1 DUP4 AND DUP1 SWAP4 SUB PUSH2 0x910 JUMPI PUSH1 0x44 SWAP2 DUP3 CALLDATALOAD SWAP2 PUSH2 0x5BC PUSH2 0x17F9 JUMP JUMPDEST PUSH2 0x5C4 PUSH2 0x181C JUMP JUMPDEST CALLER DUP9 MSTORE PUSH1 0x20 SWAP7 PUSH1 0x3 DUP9 MSTORE PUSH2 0x5DD PUSH1 0xFF DUP9 DUP12 KECCAK256 SLOAD AND PUSH2 0x1621 JUMP JUMPDEST PUSH2 0x5EF PUSH2 0x5EA DUP6 CALLER PUSH2 0x1847 JUMP JUMPDEST PUSH2 0x1665 JUMP JUMPDEST PUSH2 0x600 PUSH2 0x5FB CALLER PUSH2 0x191C JUMP JUMPDEST PUSH2 0x16B1 JUMP JUMPDEST PUSH2 0x60B DUP7 ISZERO ISZERO PUSH2 0x1597 JUMP JUMPDEST PUSH2 0x617 ADDRESS DUP8 EQ ISZERO PUSH2 0x15D5 JUMP JUMPDEST AND SWAP3 DUP4 DUP9 MSTORE DUP2 DUP8 MSTORE PUSH1 0xFF DUP7 DUP10 KECCAK256 SLOAD AND ISZERO PUSH2 0x8D7 JUMPI PUSH2 0x636 DUP4 ISZERO ISZERO PUSH2 0x16F3 JUMP JUMPDEST DUP6 MLOAD PUSH4 0x70A08231 PUSH1 0xE0 SHL DUP2 MSTORE CALLER DUP4 DUP3 ADD MSTORE DUP8 DUP2 DUP12 DUP2 DUP9 GAS STATICCALL SWAP1 DUP2 ISZERO PUSH2 0x864 JUMPI SWAP1 DUP5 SWAP2 DUP11 SWAP2 PUSH2 0x8A6 JUMPI JUMPDEST POP LT PUSH2 0x86E JUMPI DUP6 MLOAD PUSH4 0x6EB1769F PUSH1 0xE1 SHL DUP2 MSTORE CALLER DUP4 DUP3 ADD MSTORE ADDRESS DUP11 DUP3 ADD MSTORE DUP8 DUP2 DUP4 DUP2 DUP9 GAS STATICCALL SWAP1 DUP2 ISZERO PUSH2 0x864 JUMPI SWAP1 DUP5 SWAP2 DUP11 SWAP2 PUSH2 0x82F JUMPI JUMPDEST POP LT PUSH2 0x7F5 JUMPI DUP8 SWAP1 DUP7 MLOAD DUP7 DUP10 DUP3 ADD SWAP3 PUSH4 0x23B872DD PUSH1 0xE0 SHL DUP5 MSTORE CALLER DUP14 DUP5 ADD MSTORE DUP3 ADD MSTORE DUP5 PUSH1 0x64 DUP3 ADD MSTORE PUSH1 0x64 DUP2 MSTORE PUSH1 0xA0 DUP2 ADD DUP2 DUP2 LT PUSH8 0xFFFFFFFFFFFFFFFF DUP3 GT OR PUSH2 0x7E3 JUMPI DUP9 MSTORE MLOAD DUP9 SWAP3 SWAP2 DUP3 DUP8 GAS CALL ISZERO PUSH2 0x7D9 JUMPI DUP7 MLOAD RETURNDATASIZE PUSH2 0x7D0 JUMPI POP DUP3 EXTCODESIZE ISZERO JUMPDEST PUSH2 0x7BA JUMPI POP PUSH32 0x546F6B656E207472616E73666572206578656375746564000000000000000000 SWAP5 SWAP6 SWAP7 POP PUSH2 0x724 DUP2 CALLER PUSH2 0x195B JUMP JUMPDEST PUSH2 0x72D CALLER PUSH2 0x1993 JUMP JUMPDEST DUP4 MLOAD SWAP2 DUP3 MSTORE DUP6 DUP3 ADD MSTORE PUSH32 0x70C5F97FD0068E96984B8116FE83EEFBFF3B91244565BF311A3CBA619B4ECBC7 DUP4 CALLER SWAP3 LOG3 PUSH14 0x2A27A5A2A72FAA2920A729A322A9 PUSH1 0x91 SHL DUP2 MLOAD MSTORE PUSH1 0x17 DUP2 MLOAD SWAP4 DUP1 DUP6 MSTORE DUP5 ADD MSTORE DUP3 ADD MSTORE PUSH32 0x60F91C4983CD584EA4C48485B610CC900D867E1F806AE08AE922A90379466D35 PUSH1 0x0 DUP1 MLOAD PUSH1 0x20 PUSH2 0x19DC DUP4 CODECOPY DUP2 MLOAD SWAP2 MSTORE PUSH1 0x60 CALLER SWAP4 LOG3 PUSH1 0x1 DUP1 SSTORE DUP1 RETURN JUMPDEST DUP5 MLOAD PUSH4 0x5274AFE7 PUSH1 0xE0 SHL DUP2 MSTORE SWAP1 DUP2 ADD DUP4 SWAP1 MSTORE DUP8 SWAP1 REVERT JUMPDEST PUSH1 0x1 EQ ISZERO PUSH2 0x6F0 JUMP JUMPDEST DUP5 MLOAD RETURNDATASIZE DUP9 DUP3 RETURNDATACOPY RETURNDATASIZE SWAP1 REVERT JUMPDEST PUSH4 0x4E487B71 PUSH1 0xE0 SHL DUP5 MSTORE PUSH1 0x41 DUP6 MSTORE DUP12 DUP5 REVERT JUMPDEST DUP6 MLOAD PUSH3 0x461BCD PUSH1 0xE5 SHL DUP2 MSTORE SWAP2 DUP3 ADD DUP8 SWAP1 MSTORE PUSH1 0x16 DUP3 DUP11 ADD MSTORE PUSH22 0x496E73756666696369656E7420616C6C6F77616E6365 PUSH1 0x50 SHL SWAP1 DUP3 ADD MSTORE PUSH1 0x64 SWAP1 REVERT JUMPDEST DUP1 SWAP3 POP DUP10 DUP1 SWAP3 POP RETURNDATASIZE DUP4 GT PUSH2 0x85D JUMPI JUMPDEST PUSH2 0x848 DUP2 DUP4 PUSH2 0x1730 JUMP JUMPDEST DUP2 ADD SUB SLT PUSH2 0x859 JUMPI DUP4 SWAP1 MLOAD CODESIZE PUSH2 0x693 JUMP JUMPDEST DUP9 DUP1 REVERT JUMPDEST POP RETURNDATASIZE PUSH2 0x83E JUMP JUMPDEST DUP8 MLOAD RETURNDATASIZE DUP12 DUP3 RETURNDATACOPY RETURNDATASIZE SWAP1 REVERT JUMPDEST DUP6 MLOAD PUSH3 0x461BCD PUSH1 0xE5 SHL DUP2 MSTORE SWAP2 DUP3 ADD DUP8 SWAP1 MSTORE PUSH1 0x14 DUP3 DUP11 ADD MSTORE PUSH20 0x496E73756666696369656E742062616C616E6365 PUSH1 0x60 SHL SWAP1 DUP3 ADD MSTORE PUSH1 0x64 SWAP1 REVERT JUMPDEST DUP1 SWAP3 POP DUP10 DUP1 SWAP3 POP RETURNDATASIZE DUP4 GT PUSH2 0x8D0 JUMPI JUMPDEST PUSH2 0x8BF DUP2 DUP4 PUSH2 0x1730 JUMP JUMPDEST DUP2 ADD SUB SLT PUSH2 0x859 JUMPI DUP4 SWAP1 MLOAD CODESIZE PUSH2 0x65F JUMP JUMPDEST POP RETURNDATASIZE PUSH2 0x8B5 JUMP JUMPDEST DUP6 MLOAD PUSH3 0x461BCD PUSH1 0xE5 SHL DUP2 MSTORE SWAP2 DUP3 ADD DUP8 SWAP1 MSTORE PUSH1 0x15 DUP3 DUP11 ADD MSTORE PUSH21 0x151BDAD95B881B9BDD081DDA1A5D195B1A5CDD1959 PUSH1 0x5A SHL SWAP1 DUP3 ADD MSTORE PUSH1 0x64 SWAP1 REVERT JUMPDEST DUP6 DUP1 REVERT JUMPDEST POP SWAP2 SWAP1 CALLVALUE PUSH2 0x576 JUMPI PUSH1 0x20 SWAP1 DUP2 PUSH1 0x3 NOT CALLDATASIZE ADD SLT PUSH2 0x1B9 JUMPI PUSH2 0x932 PUSH2 0x157C JUMP JUMPDEST CALLER DUP5 MSTORE PUSH1 0x3 SWAP1 DUP2 DUP5 MSTORE PUSH2 0x94A PUSH1 0xFF DUP5 DUP8 KECCAK256 SLOAD AND PUSH2 0x1621 JUMP JUMPDEST PUSH1 0x1 PUSH1 0x1 PUSH1 0xA0 SHL SUB AND SWAP5 PUSH2 0x95F DUP7 ISZERO ISZERO PUSH2 0x1597 JUMP JUMPDEST PUSH2 0x96B ADDRESS DUP8 EQ ISZERO PUSH2 0x15D5 JUMP JUMPDEST CALLER DUP7 EQ PUSH2 0xAED JUMPI CALLER DUP6 MSTORE DUP2 DUP5 MSTORE PUSH1 0x7 DUP4 DUP7 KECCAK256 ADD DUP7 DUP7 MSTORE DUP5 MSTORE PUSH1 0xFF DUP4 DUP7 KECCAK256 SLOAD AND PUSH2 0xAAA JUMPI CALLER DUP6 MSTORE DUP2 DUP5 MSTORE DUP2 PUSH1 0x8 DUP5 DUP8 KECCAK256 ADD SLOAD LT ISZERO PUSH2 0xA6F JUMPI POP SWAP1 PUSH14 0x11D550549112505397D051111151 PUSH1 0x92 SHL DUP6 PUSH14 0x11DD585C991A585B881859191959 PUSH1 0x92 SHL SWAP4 CALLER DUP8 MSTORE DUP1 DUP7 MSTORE PUSH1 0x7 DUP5 DUP9 KECCAK256 ADD DUP3 DUP9 MSTORE DUP7 MSTORE DUP4 DUP8 KECCAK256 PUSH1 0x1 PUSH1 0xFF NOT DUP3 SLOAD AND OR SWAP1 SSTORE CALLER DUP8 MSTORE DUP6 MSTORE PUSH1 0x8 DUP4 DUP8 KECCAK256 ADD PUSH2 0x9FE DUP2 SLOAD PUSH2 0x17A8 JUMP JUMPDEST SWAP1 SSTORE DUP3 MLOAD SWAP1 CALLER PUSH32 0xBC3292102FA77E083913064B282926717CDFAEDE4D35F553D66366C0A3DA755A DUP9 DUP1 LOG3 MSTORE PUSH1 0xE DUP2 MLOAD SWAP4 DUP1 DUP6 MSTORE DUP5 ADD MSTORE DUP3 ADD MSTORE PUSH32 0x96BCC56CFE8F348520FC140868E4E66E54E67F50264202F57635528B6AF9077F PUSH1 0x0 DUP1 MLOAD PUSH1 0x20 PUSH2 0x19DC DUP4 CODECOPY DUP2 MLOAD SWAP2 MSTORE PUSH1 0x60 CALLER SWAP4 LOG3 DUP1 RETURN JUMPDEST DUP3 MLOAD PUSH3 0x461BCD PUSH1 0xE5 SHL DUP2 MSTORE SWAP1 DUP2 ADD DUP5 SWAP1 MSTORE PUSH1 0x15 PUSH1 0x24 DUP3 ADD MSTORE PUSH21 0x13585E0819DD585C991A585B9CC81C995858DA1959 PUSH1 0x5A SHL PUSH1 0x44 DUP3 ADD MSTORE PUSH1 0x64 SWAP1 REVERT JUMPDEST DUP3 MLOAD PUSH3 0x461BCD PUSH1 0xE5 SHL DUP2 MSTORE SWAP1 DUP2 ADD DUP5 SWAP1 MSTORE PUSH1 0x17 PUSH1 0x24 DUP3 ADD MSTORE PUSH32 0x477561726469616E20616C726561647920657869737473000000000000000000 PUSH1 0x44 DUP3 ADD MSTORE PUSH1 0x64 SWAP1 REVERT JUMPDEST DUP3 MLOAD PUSH3 0x461BCD PUSH1 0xE5 SHL DUP2 MSTORE SWAP1 DUP2 ADD DUP5 SWAP1 MSTORE PUSH1 0x1B PUSH1 0x24 DUP3 ADD MSTORE PUSH32 0x43616E6E6F74206164642073656C6620617320677561726469616E0000000000 PUSH1 0x44 DUP3 ADD MSTORE PUSH1 0x64 SWAP1 REVERT JUMPDEST POP SWAP2 SWAP1 PUSH1 0x20 SWAP1 DUP2 PUSH1 0x3 NOT CALLDATASIZE ADD SLT PUSH2 0x1B9 JUMPI DUP4 CALLDATALOAD PUSH1 0x1 PUSH1 0x1 PUSH1 0xA0 SHL SUB DUP2 AND SWAP5 SWAP1 DUP6 SWAP1 SUB PUSH2 0xD09 JUMPI PUSH2 0xB5E PUSH2 0x17F9 JUMP JUMPDEST PUSH2 0xB66 PUSH2 0x181C JUMP JUMPDEST CALLER DUP5 MSTORE PUSH1 0x3 DUP4 MSTORE PUSH2 0xB7C PUSH1 0xFF DUP4 DUP7 KECCAK256 SLOAD AND PUSH2 0x1621 JUMP JUMPDEST PUSH2 0xB89 PUSH2 0x5EA CALLVALUE CALLER PUSH2 0x1847 JUMP JUMPDEST PUSH2 0xB95 PUSH2 0x5FB CALLER PUSH2 0x191C JUMP JUMPDEST PUSH2 0xBA0 DUP6 ISZERO ISZERO PUSH2 0x1597 JUMP JUMPDEST PUSH2 0xBAC ADDRESS DUP7 EQ ISZERO PUSH2 0x15D5 JUMP JUMPDEST PUSH2 0xBB7 CALLVALUE ISZERO ISZERO PUSH2 0x16F3 JUMP JUMPDEST CALLVALUE SELFBALANCE LT PUSH2 0xCC8 JUMPI DUP4 DUP1 DUP1 DUP1 CALLVALUE DUP10 GAS CALL PUSH2 0xBCE PUSH2 0x1768 JUMP JUMPDEST POP ISZERO PUSH2 0xC95 JUMPI POP PUSH32 0x4E617469766520746F6B656E207472616E736665722065786563757465640000 SWAP1 DUP5 PUSH2 0xC02 CALLVALUE CALLER PUSH2 0x195B JUMP JUMPDEST PUSH2 0xC0B CALLER PUSH2 0x1993 JUMP JUMPDEST DUP2 MLOAD CALLVALUE DUP2 MSTORE PUSH32 0x11C182FCC25E52151BF452608F627A605269882587C25B326E9EB16819557B6 DUP6 CALLER SWAP3 LOG3 PUSH15 0x2720AA24AB22AFAA2920A729A322A9 PUSH1 0x89 SHL DUP2 MLOAD MSTORE PUSH1 0x1E DUP2 MLOAD SWAP4 DUP1 DUP6 MSTORE DUP5 ADD MSTORE DUP3 ADD MSTORE PUSH32 0xEF56A5615F8BBCEE22A92E99498B521E2EA125732645878882B5CD32F413D28F PUSH1 0x0 DUP1 MLOAD PUSH1 0x20 PUSH2 0x19DC DUP4 CODECOPY DUP2 MLOAD SWAP2 MSTORE PUSH1 0x60 CALLER SWAP4 LOG3 PUSH1 0x1 DUP1 SSTORE DUP1 RETURN JUMPDEST DUP3 PUSH1 0x64 SWAP3 MLOAD SWAP2 PUSH3 0x461BCD PUSH1 0xE5 SHL DUP4 MSTORE DUP3 ADD MSTORE PUSH1 0xF PUSH1 0x24 DUP3 ADD MSTORE PUSH15 0x151C985B9CD9995C8819985A5B1959 PUSH1 0x8A SHL PUSH1 0x44 DUP3 ADD MSTORE REVERT JUMPDEST DUP3 PUSH1 0x64 SWAP3 MLOAD SWAP2 PUSH3 0x461BCD PUSH1 0xE5 SHL DUP4 MSTORE DUP3 ADD MSTORE PUSH1 0x1D PUSH1 0x24 DUP3 ADD MSTORE PUSH32 0x496E73756666696369656E7420636F6E74726163742062616C616E6365000000 PUSH1 0x44 DUP3 ADD MSTORE REVERT JUMPDEST DUP4 DUP1 REVERT JUMPDEST POP POP CALLVALUE PUSH2 0x576 JUMPI DUP2 PUSH1 0x3 NOT CALLDATASIZE ADD SLT PUSH2 0x576 JUMPI SWAP1 SLOAD SWAP1 MLOAD PUSH1 0x1 PUSH1 0x1 PUSH1 0xA0 SHL SUB SWAP1 SWAP2 AND DUP2 MSTORE PUSH1 0x20 SWAP1 RETURN JUMPDEST POP CALLVALUE PUSH2 0x1B9 JUMPI PUSH1 0x20 CALLDATASIZE PUSH1 0x3 NOT ADD SLT PUSH2 0x1B9 JUMPI PUSH2 0x160 SWAP3 DUP3 SWAP1 PUSH1 0x1 PUSH1 0x1 PUSH1 0xA0 SHL SUB PUSH2 0xD5D PUSH2 0x157C JUMP JUMPDEST AND DUP2 MSTORE PUSH1 0x3 PUSH1 0x20 MSTORE KECCAK256 PUSH1 0xFF DUP2 SLOAD AND SWAP3 PUSH1 0x1 DUP3 ADD SLOAD SWAP3 PUSH1 0x2 DUP4 ADD SLOAD SWAP1 PUSH1 0x3 DUP5 ADD SLOAD SWAP1 DUP5 ADD SLOAD PUSH1 0x5 DUP6 ADD SLOAD SWAP1 PUSH1 0x6 DUP7 ADD SLOAD SWAP3 PUSH1 0x8 DUP8 ADD SLOAD SWAP5 PUSH1 0x9 DUP9 ADD SLOAD SWAP7 PUSH1 0xB PUSH1 0xA DUP11 ADD SLOAD SWAP10 ADD SLOAD SWAP10 DUP2 MLOAD SWAP12 ISZERO ISZERO DUP13 MSTORE PUSH1 0x20 DUP13 ADD MSTORE DUP11 ADD MSTORE PUSH1 0x60 DUP10 ADD MSTORE PUSH1 0x80 DUP9 ADD MSTORE PUSH1 0xA0 DUP8 ADD MSTORE PUSH1 0xC0 DUP7 ADD MSTORE PUSH1 0xE0 DUP6 ADD MSTORE PUSH2 0x100 DUP5 ADD MSTORE PUSH2 0x120 DUP4 ADD MSTORE PUSH2 0x140 DUP3 ADD MSTORE RETURN JUMPDEST POP POP CALLVALUE PUSH2 0x576 JUMPI DUP2 PUSH1 0x3 NOT CALLDATASIZE ADD SLT PUSH2 0x576 JUMPI PUSH2 0xDFA PUSH2 0x17CD JUMP JUMPDEST PUSH2 0xE02 PUSH2 0x181C JUMP JUMPDEST PUSH1 0x1 PUSH1 0xFF NOT PUSH1 0x2 SLOAD AND OR PUSH1 0x2 SSTORE PUSH32 0x62E78CEA01BEE320CD4E420270B5EA74000D11B0C9F74754EBDBFC544B05A258 PUSH1 0x20 DUP3 MLOAD CALLER DUP2 MSTORE LOG1 PUSH15 0x10D3D395149050D517D4105554D151 PUSH1 0x8A SHL DUP2 MLOAD MSTORE PUSH15 0x10DBDB9D1C9858DD081C185D5CD959 PUSH1 0x8A SHL DUP2 MLOAD SWAP2 PUSH1 0x20 DUP4 MSTORE PUSH1 0xF PUSH1 0x20 DUP5 ADD MSTORE DUP3 ADD MSTORE PUSH32 0x147B5A380F6F0270A2F69850AF8B14AD13A2DA1AB5EEB54EF942363F06FEF7E3 PUSH1 0x0 DUP1 MLOAD PUSH1 0x20 PUSH2 0x19DC DUP4 CODECOPY DUP2 MLOAD SWAP2 MSTORE PUSH1 0x60 CALLER SWAP4 LOG3 DUP1 RETURN JUMPDEST POP SWAP2 SWAP1 CALLVALUE PUSH2 0x576 JUMPI PUSH1 0x20 SWAP1 DUP2 PUSH1 0x3 NOT CALLDATASIZE ADD SLT PUSH2 0x1B9 JUMPI DUP4 CALLDATALOAD ORIGIN CALLER SUB PUSH2 0x1054 JUMPI CALLER DUP5 MSTORE PUSH1 0x3 DUP4 MSTORE PUSH1 0xFF DUP3 DUP6 KECCAK256 SLOAD AND PUSH2 0x1019 JUMPI DUP1 ISZERO PUSH2 0xFDE JUMPI CALLER DUP5 MSTORE PUSH1 0x3 DUP4 MSTORE DUP2 DUP5 KECCAK256 SWAP1 PUSH1 0x1 PUSH1 0xFF NOT DUP4 SLOAD AND OR DUP3 SSTORE DUP1 PUSH1 0x1 DUP4 ADD SSTORE PUSH1 0x1E DUP2 MUL SWAP1 DUP2 DIV PUSH1 0x1E SUB PUSH2 0xFCB JUMPI PUSH1 0xB DUP3 DUP7 SWAP3 PUSH1 0x2 PUSH18 0x13995DC81DD85B1B195D0818DC99585D1959 PUSH1 0x72 SHL SWAP7 SWAP6 ADD SSTORE TIMESTAMP PUSH1 0x5 DUP3 ADD SSTORE TIMESTAMP PUSH1 0x6 DUP3 ADD SSTORE DUP3 PUSH1 0x9 DUP3 ADD SSTORE DUP3 PUSH1 0xA DUP3 ADD SSTORE ADD SSTORE DUP1 MLOAD CALLER DUP2 MSTORE PUSH32 0x5B03BFED1C14A02BDECEB5FA582EB1A5765FC0BC64CA0E6AF4C20AFC9487F081 DUP5 CALLER SWAP3 LOG2 PUSH14 0x15D05313115517D0D49150551151 PUSH1 0x92 SHL DUP2 MLOAD MSTORE PUSH1 0x12 DUP2 MLOAD SWAP4 DUP1 DUP6 MSTORE DUP5 ADD MSTORE DUP3 ADD MSTORE PUSH32 0xAFF2CD6171B22FCA754208FC501EDEC111C0D535478C34266A231917A70B258B PUSH1 0x0 DUP1 MLOAD PUSH1 0x20 PUSH2 0x19DC DUP4 CODECOPY DUP2 MLOAD SWAP2 MSTORE PUSH1 0x60 CALLER SWAP4 LOG3 DUP1 RETURN JUMPDEST PUSH4 0x4E487B71 PUSH1 0xE0 SHL DUP6 MSTORE PUSH1 0x11 DUP7 MSTORE PUSH1 0x24 DUP6 REVERT JUMPDEST DUP2 MLOAD PUSH3 0x461BCD PUSH1 0xE5 SHL DUP2 MSTORE DUP1 DUP7 ADD DUP5 SWAP1 MSTORE PUSH1 0x15 PUSH1 0x24 DUP3 ADD MSTORE PUSH21 0x125B9D985B1A59081A5B9A5D1A585B081B1A5B5A5D PUSH1 0x5A SHL PUSH1 0x44 DUP3 ADD MSTORE PUSH1 0x64 SWAP1 REVERT JUMPDEST DUP2 MLOAD PUSH3 0x461BCD PUSH1 0xE5 SHL DUP2 MSTORE DUP1 DUP7 ADD DUP5 SWAP1 MSTORE PUSH1 0x15 PUSH1 0x24 DUP3 ADD MSTORE PUSH21 0x57616C6C657420616C726561647920657869737473 PUSH1 0x58 SHL PUSH1 0x44 DUP3 ADD MSTORE PUSH1 0x64 SWAP1 REVERT JUMPDEST DUP2 MLOAD PUSH3 0x461BCD PUSH1 0xE5 SHL DUP2 MSTORE DUP1 DUP7 ADD DUP5 SWAP1 MSTORE PUSH1 0x15 PUSH1 0x24 DUP3 ADD MSTORE PUSH21 0x10DBDB9D1C9858DD1CC81B9BDD08185B1B1BDDD959 PUSH1 0x5A SHL PUSH1 0x44 DUP3 ADD MSTORE PUSH1 0x64 SWAP1 REVERT JUMPDEST DUP4 CALLVALUE PUSH2 0x10E9 JUMPI DUP1 PUSH1 0x3 NOT CALLDATASIZE ADD SLT PUSH2 0x10E9 JUMPI PUSH2 0x10A8 PUSH2 0x17CD JUMP JUMPDEST DUP1 SLOAD PUSH1 0x1 PUSH1 0x1 PUSH1 0xA0 SHL SUB NOT DUP2 AND DUP3 SSTORE DUP2 SWAP1 PUSH1 0x1 PUSH1 0x1 PUSH1 0xA0 SHL SUB AND PUSH32 0x8BE0079C531659141344CD1FD0A4F28419497F9722A3DAAFE3B4186F6B6457E0 DUP3 DUP1 LOG3 DUP1 RETURN JUMPDEST DUP1 REVERT JUMPDEST POP SWAP2 SWAP1 CALLVALUE PUSH2 0x576 JUMPI PUSH1 0x20 SWAP1 DUP2 PUSH1 0x3 NOT CALLDATASIZE ADD SLT PUSH2 0x1B9 JUMPI PUSH2 0x110A PUSH2 0x157C JUMP JUMPDEST CALLER DUP5 MSTORE PUSH1 0x3 DUP4 MSTORE PUSH2 0x1120 PUSH1 0xFF DUP4 DUP7 KECCAK256 SLOAD AND PUSH2 0x1621 JUMP JUMPDEST CALLER DUP5 MSTORE PUSH1 0x3 DUP4 MSTORE DUP2 DUP5 KECCAK256 PUSH1 0x1 PUSH1 0x1 PUSH1 0xA0 SHL SUB SWAP1 SWAP2 AND DUP1 DUP6 MSTORE PUSH1 0x7 SWAP2 SWAP1 SWAP2 ADD DUP4 MSTORE DUP2 DUP5 KECCAK256 SLOAD PUSH1 0xFF AND ISZERO PUSH2 0x1231 JUMPI CALLER DUP5 MSTORE PUSH1 0x3 DUP4 MSTORE PUSH1 0x7 DUP3 DUP6 KECCAK256 ADD DUP2 DUP6 MSTORE DUP4 MSTORE DUP2 DUP5 KECCAK256 PUSH1 0xFF NOT DUP2 SLOAD AND SWAP1 SSTORE CALLER DUP5 MSTORE PUSH1 0x3 DUP4 MSTORE PUSH1 0x8 DUP3 DUP6 KECCAK256 ADD DUP1 SLOAD DUP1 ISZERO PUSH2 0x121E JUMPI PUSH1 0x0 NOT ADD SWAP1 SSTORE DUP2 MLOAD PUSH16 0x11DD585C991A585B881C995B5BDD9959 PUSH1 0x82 SHL SWAP3 SWAP2 PUSH16 0x11D550549112505397D4915353D59151 PUSH1 0x82 SHL SWAP2 SWAP1 CALLER PUSH32 0xEE943CDB81826D5909C559C6B1AE6908FCAF2DBC16C4B730346736B486283E8B DUP9 DUP1 LOG3 MSTORE PUSH1 0x10 DUP2 MLOAD SWAP4 DUP1 DUP6 MSTORE DUP5 ADD MSTORE DUP3 ADD MSTORE PUSH32 0x4C58F73C287819F5CC633B6E04F6310C01B3E3880C34C4F2B4B2F7C2883C5A20 PUSH1 0x0 DUP1 MLOAD PUSH1 0x20 PUSH2 0x19DC DUP4 CODECOPY DUP2 MLOAD SWAP2 MSTORE PUSH1 0x60 CALLER SWAP4 LOG3 DUP1 RETURN JUMPDEST PUSH4 0x4E487B71 PUSH1 0xE0 SHL DUP7 MSTORE PUSH1 0x11 DUP8 MSTORE PUSH1 0x24 DUP7 REVERT JUMPDEST DUP2 MLOAD PUSH3 0x461BCD PUSH1 0xE5 SHL DUP2 MSTORE DUP1 DUP7 ADD DUP5 SWAP1 MSTORE PUSH1 0x17 PUSH1 0x24 DUP3 ADD MSTORE PUSH32 0x477561726469616E20646F6573206E6F74206578697374000000000000000000 PUSH1 0x44 DUP3 ADD MSTORE PUSH1 0x64 SWAP1 REVERT JUMPDEST POP SWAP1 CALLVALUE PUSH2 0x1B9 JUMPI PUSH1 0x20 CALLDATASIZE PUSH1 0x3 NOT ADD SLT PUSH2 0x1B9 JUMPI PUSH1 0x0 DUP1 MLOAD PUSH1 0x20 PUSH2 0x19DC DUP4 CODECOPY DUP2 MLOAD SWAP2 MSTORE PUSH1 0x60 PUSH32 0x3D121EB71D15C143F13FB275138CC1D25F61306C933BC6B832818DDABE9942B8 SWAP3 PUSH2 0x12C2 PUSH2 0x157C JUMP JUMPDEST PUSH2 0x12CA PUSH2 0x17CD JUMP JUMPDEST PUSH1 0x1 PUSH1 0x1 PUSH1 0xA0 SHL SUB AND SWAP5 PUSH2 0x12DF DUP7 ISZERO ISZERO PUSH2 0x1597 JUMP JUMPDEST PUSH2 0x12EB ADDRESS DUP8 EQ ISZERO PUSH2 0x15D5 JUMP JUMPDEST DUP6 DUP8 MSTORE PUSH1 0x20 MSTORE DUP1 DUP7 KECCAK256 PUSH1 0x1 PUSH1 0xFF NOT DUP3 SLOAD AND OR SWAP1 SSTORE PUSH17 0x1513D2D15397D5D2125511531254D51151 PUSH1 0x7A SHL DUP2 MLOAD MSTORE PUSH32 0x546F6B656E20616464656420746F2077686974656C6973740000000000000000 DUP2 MLOAD SWAP2 PUSH1 0x20 DUP4 MSTORE PUSH1 0x18 PUSH1 0x20 DUP5 ADD MSTORE DUP3 ADD MSTORE LOG3 DUP1 RETURN JUMPDEST POP POP CALLVALUE PUSH2 0x576 JUMPI DUP2 PUSH1 0x3 NOT CALLDATASIZE ADD SLT PUSH2 0x576 JUMPI PUSH1 0x20 SWAP1 PUSH1 0xFF PUSH1 0x2 SLOAD AND SWAP1 MLOAD SWAP1 ISZERO ISZERO DUP2 MSTORE RETURN JUMPDEST POP POP CALLVALUE PUSH2 0x576 JUMPI DUP2 PUSH1 0x3 NOT CALLDATASIZE ADD SLT PUSH2 0x576 JUMPI PUSH1 0x20 SWAP1 MLOAD PUSH1 0xA DUP2 MSTORE RETURN JUMPDEST POP POP CALLVALUE PUSH2 0x576 JUMPI DUP2 PUSH1 0x3 NOT CALLDATASIZE ADD SLT PUSH2 0x576 JUMPI PUSH1 0x20 SWAP1 MLOAD PUSH1 0x3 DUP2 MSTORE RETURN JUMPDEST POP CALLVALUE PUSH2 0x1B9 JUMPI DUP3 PUSH1 0x3 NOT CALLDATASIZE ADD SLT PUSH2 0x1B9 JUMPI PUSH2 0x13C2 PUSH2 0x17CD JUMP JUMPDEST PUSH1 0x2 SLOAD SWAP1 PUSH1 0xFF DUP3 AND ISZERO PUSH2 0x1476 JUMPI POP PUSH1 0xFF NOT AND PUSH1 0x2 SSTORE PUSH32 0x5DB9EE0A495BF2E6FF9C91A7834C1BA4FDD244A5E8AA4E537BD38AEAE4B073AA PUSH1 0x20 DUP3 MLOAD CALLER DUP2 MSTORE LOG1 PUSH17 0x10D3D395149050D517D55394105554D151 PUSH1 0x7A SHL DUP2 MLOAD MSTORE PUSH17 0x10DBDB9D1C9858DD081D5B9C185D5CD959 PUSH1 0x7A SHL DUP2 MLOAD SWAP2 PUSH1 0x20 DUP4 MSTORE PUSH1 0x11 PUSH1 0x20 DUP5 ADD MSTORE DUP3 ADD MSTORE PUSH32 0xFB1C428812A427CA46D176C2BC29DB1F567ECDF9104F28F2E57EFCCDCC6D0E52 PUSH1 0x0 DUP1 MLOAD PUSH1 0x20 PUSH2 0x19DC DUP4 CODECOPY DUP2 MLOAD SWAP2 MSTORE PUSH1 0x60 CALLER SWAP4 LOG3 DUP1 RETURN JUMPDEST DUP3 MLOAD PUSH4 0x8DFC202B PUSH1 0xE0 SHL DUP2 MSTORE REVERT JUMPDEST POP SWAP1 CALLVALUE PUSH2 0x1B9 JUMPI PUSH1 0x20 CALLDATASIZE PUSH1 0x3 NOT ADD SLT PUSH2 0x1B9 JUMPI PUSH2 0x149F PUSH2 0x157C JUMP JUMPDEST PUSH2 0x14A7 PUSH2 0x17CD JUMP JUMPDEST PUSH1 0x1 PUSH1 0x1 PUSH1 0xA0 SHL SUB AND SWAP2 DUP3 ISZERO PUSH2 0x154A JUMPI PUSH1 0x60 PUSH32 0xA9083C24E5D01B177E2D6A16786169F806B25E6A56C5E9EC62CC14C2EE6F18E9 SWAP3 PUSH1 0x0 DUP1 MLOAD PUSH1 0x20 PUSH2 0x19DC DUP4 CODECOPY DUP2 MLOAD SWAP2 MSTORE SWAP3 DUP6 DUP8 MSTORE PUSH1 0x20 MSTORE DUP1 DUP7 KECCAK256 PUSH1 0xFF NOT DUP2 SLOAD AND SWAP1 SSTORE PUSH17 0x1513D2D15397D0931050D2D31254D51151 PUSH1 0x7A SHL DUP2 MLOAD MSTORE PUSH32 0x546F6B656E2072656D6F7665642066726F6D2077686974656C69737400000000 DUP2 MLOAD SWAP2 PUSH1 0x20 DUP4 MSTORE PUSH1 0x1C PUSH1 0x20 DUP5 ADD MSTORE DUP3 ADD MSTORE LOG3 DUP1 RETURN JUMPDEST PUSH1 0x20 PUSH1 0x64 SWAP3 MLOAD SWAP2 PUSH3 0x461BCD PUSH1 0xE5 SHL DUP4 MSTORE DUP3 ADD MSTORE PUSH1 0xD PUSH1 0x24 DUP3 ADD MSTORE PUSH13 0x24B73B30B634B2103A37B5B2B7 PUSH1 0x99 SHL PUSH1 0x44 DUP3 ADD MSTORE REVERT JUMPDEST PUSH1 0x4 CALLDATALOAD SWAP1 PUSH1 0x1 PUSH1 0x1 PUSH1 0xA0 SHL SUB DUP3 AND DUP3 SUB PUSH2 0x1592 JUMPI JUMP JUMPDEST PUSH1 0x0 DUP1 REVERT JUMPDEST ISZERO PUSH2 0x159E JUMPI JUMP JUMPDEST PUSH1 0x40 MLOAD PUSH3 0x461BCD PUSH1 0xE5 SHL DUP2 MSTORE PUSH1 0x20 PUSH1 0x4 DUP3 ADD MSTORE PUSH1 0xF PUSH1 0x24 DUP3 ADD MSTORE PUSH15 0x496E76616C69642061646472657373 PUSH1 0x88 SHL PUSH1 0x44 DUP3 ADD MSTORE PUSH1 0x64 SWAP1 REVERT JUMPDEST ISZERO PUSH2 0x15DC JUMPI JUMP JUMPDEST PUSH1 0x40 MLOAD PUSH3 0x461BCD PUSH1 0xE5 SHL DUP2 MSTORE PUSH1 0x20 PUSH1 0x4 DUP3 ADD MSTORE PUSH1 0x1B PUSH1 0x24 DUP3 ADD MSTORE PUSH32 0x43616E6E6F742075736520636F6E747261637420616464726573730000000000 PUSH1 0x44 DUP3 ADD MSTORE PUSH1 0x64 SWAP1 REVERT JUMPDEST ISZERO PUSH2 0x1628 JUMPI JUMP JUMPDEST PUSH1 0x40 MLOAD PUSH3 0x461BCD PUSH1 0xE5 SHL DUP2 MSTORE PUSH1 0x20 PUSH1 0x4 DUP3 ADD MSTORE PUSH1 0x15 PUSH1 0x24 DUP3 ADD MSTORE PUSH21 0x15D85B1B195D08191BD95CC81B9BDD08195E1A5CDD PUSH1 0x5A SHL PUSH1 0x44 DUP3 ADD MSTORE PUSH1 0x64 SWAP1 REVERT JUMPDEST ISZERO PUSH2 0x166C JUMPI JUMP JUMPDEST PUSH1 0x40 MLOAD PUSH3 0x461BCD PUSH1 0xE5 SHL DUP2 MSTORE PUSH1 0x20 PUSH1 0x4 DUP3 ADD MSTORE PUSH1 0x1A PUSH1 0x24 DUP3 ADD MSTORE PUSH32 0x5472616E73616374696F6E2065786365656473206C696D697473000000000000 PUSH1 0x44 DUP3 ADD MSTORE PUSH1 0x64 SWAP1 REVERT JUMPDEST ISZERO PUSH2 0x16B8 JUMPI JUMP JUMPDEST PUSH1 0x40 MLOAD PUSH3 0x461BCD PUSH1 0xE5 SHL DUP2 MSTORE PUSH1 0x20 PUSH1 0x4 DUP3 ADD MSTORE PUSH1 0x13 PUSH1 0x24 DUP3 ADD MSTORE PUSH19 0x14985D19481B1A5B5A5D08195E18D959591959 PUSH1 0x6A SHL PUSH1 0x44 DUP3 ADD MSTORE PUSH1 0x64 SWAP1 REVERT JUMPDEST ISZERO PUSH2 0x16FA JUMPI JUMP JUMPDEST PUSH1 0x40 MLOAD PUSH3 0x461BCD PUSH1 0xE5 SHL DUP2 MSTORE PUSH1 0x20 PUSH1 0x4 DUP3 ADD MSTORE PUSH1 0xE PUSH1 0x24 DUP3 ADD MSTORE PUSH14 0x125B9D985B1A5908185B5BDD5B9D PUSH1 0x92 SHL PUSH1 0x44 DUP3 ADD MSTORE PUSH1 0x64 SWAP1 REVERT JUMPDEST SWAP1 PUSH1 0x1F DUP1 NOT SWAP2 ADD AND DUP2 ADD SWAP1 DUP2 LT PUSH8 0xFFFFFFFFFFFFFFFF DUP3 GT OR PUSH2 0x1752 JUMPI PUSH1 0x40 MSTORE JUMP JUMPDEST PUSH4 0x4E487B71 PUSH1 0xE0 SHL PUSH1 0x0 MSTORE PUSH1 0x41 PUSH1 0x4 MSTORE PUSH1 0x24 PUSH1 0x0 REVERT JUMPDEST RETURNDATASIZE ISZERO PUSH2 0x17A3 JUMPI RETURNDATASIZE SWAP1 PUSH8 0xFFFFFFFFFFFFFFFF DUP3 GT PUSH2 0x1752 JUMPI PUSH1 0x40 MLOAD SWAP2 PUSH2 0x1797 PUSH1 0x1F DUP3 ADD PUSH1 0x1F NOT AND PUSH1 0x20 ADD DUP5 PUSH2 0x1730 JUMP JUMPDEST DUP3 MSTORE RETURNDATASIZE PUSH1 0x0 PUSH1 0x20 DUP5 ADD RETURNDATACOPY JUMP JUMPDEST PUSH1 0x60 SWAP1 JUMP JUMPDEST PUSH1 0x0 NOT DUP2 EQ PUSH2 0x17B7 JUMPI PUSH1 0x1 ADD SWAP1 JUMP JUMPDEST PUSH4 0x4E487B71 PUSH1 0xE0 SHL PUSH1 0x0 MSTORE PUSH1 0x11 PUSH1 0x4 MSTORE PUSH1 0x24 PUSH1 0x0 REVERT JUMPDEST PUSH1 0x0 SLOAD PUSH1 0x1 PUSH1 0x1 PUSH1 0xA0 SHL SUB AND CALLER SUB PUSH2 0x17E1 JUMPI JUMP JUMPDEST PUSH1 0x40 MLOAD PUSH4 0x118CDAA7 PUSH1 0xE0 SHL DUP2 MSTORE CALLER PUSH1 0x4 DUP3 ADD MSTORE PUSH1 0x24 SWAP1 REVERT JUMPDEST PUSH1 0x2 PUSH1 0x1 SLOAD EQ PUSH2 0x180A JUMPI PUSH1 0x2 PUSH1 0x1 SSTORE JUMP JUMPDEST PUSH1 0x40 MLOAD PUSH4 0x3EE5AEB5 PUSH1 0xE0 SHL DUP2 MSTORE PUSH1 0x4 SWAP1 REVERT JUMPDEST PUSH1 0xFF PUSH1 0x2 SLOAD AND PUSH2 0x1828 JUMPI JUMP JUMPDEST PUSH1 0x40 MLOAD PUSH4 0xD93C0665 PUSH1 0xE0 SHL DUP2 MSTORE PUSH1 0x4 SWAP1 REVERT JUMPDEST SWAP2 SWAP1 DUP3 ADD DUP1 SWAP3 GT PUSH2 0x17B7 JUMPI JUMP JUMPDEST PUSH1 0x1 PUSH1 0x1 PUSH1 0xA0 SHL SUB AND PUSH1 0x0 SWAP1 DUP2 MSTORE PUSH1 0x3 PUSH1 0x20 MSTORE PUSH1 0x40 DUP2 KECCAK256 PUSH1 0x5 DUP2 ADD DUP1 SLOAD SWAP2 SWAP3 SWAP2 PUSH3 0x15180 DUP2 ADD SWAP1 DUP2 LT PUSH2 0x1908 JUMPI TIMESTAMP LT ISZERO PUSH2 0x18F9 JUMPI JUMPDEST POP PUSH1 0x6 DUP3 ADD SWAP1 DUP2 SLOAD PUSH3 0x278D00 DUP2 ADD DUP1 SWAP2 GT PUSH2 0x18E5 JUMPI TIMESTAMP LT ISZERO PUSH2 0x18D6 JUMPI JUMPDEST POP POP PUSH2 0x18A9 DUP3 PUSH1 0x3 DUP4 ADD SLOAD PUSH2 0x183A JUMP JUMPDEST PUSH1 0x1 DUP3 ADD SLOAD LT ISZERO SWAP2 DUP3 PUSH2 0x18BB JUMPI POP POP SWAP1 JUMP JUMPDEST DUP2 SWAP3 POP PUSH2 0x18CE SWAP1 PUSH1 0x4 PUSH1 0x2 SWAP4 ADD SLOAD PUSH2 0x183A JUMP JUMPDEST SWAP2 ADD SLOAD LT ISZERO SWAP1 JUMP JUMPDEST PUSH1 0x4 DUP4 ADD SSTORE TIMESTAMP SWAP1 SSTORE CODESIZE DUP1 PUSH2 0x1899 JUMP JUMPDEST PUSH4 0x4E487B71 PUSH1 0xE0 SHL DUP3 MSTORE PUSH1 0x11 PUSH1 0x4 MSTORE PUSH1 0x24 DUP3 REVERT JUMPDEST DUP2 PUSH1 0x3 DUP5 ADD SSTORE TIMESTAMP SWAP1 SSTORE CODESIZE PUSH2 0x187C JUMP JUMPDEST PUSH4 0x4E487B71 PUSH1 0xE0 SHL DUP4 MSTORE PUSH1 0x11 PUSH1 0x4 MSTORE PUSH1 0x24 DUP4 REVERT JUMPDEST PUSH1 0x1 PUSH1 0x1 PUSH1 0xA0 SHL SUB AND PUSH1 0x0 SWAP1 DUP2 MSTORE PUSH1 0x3 PUSH1 0x20 MSTORE PUSH1 0x40 SWAP1 KECCAK256 PUSH1 0xA DUP2 ADD SLOAD PUSH1 0x3C DUP2 ADD SWAP1 DUP2 LT PUSH2 0x17B7 JUMPI TIMESTAMP LT ISZERO PUSH2 0x1955 JUMPI PUSH1 0xB PUSH1 0xA SWAP2 ADD SLOAD LT SWAP1 JUMP JUMPDEST POP PUSH1 0x1 SWAP1 JUMP JUMPDEST PUSH1 0x1 DUP1 PUSH1 0xA0 SHL SUB AND PUSH1 0x0 MSTORE PUSH1 0x3 PUSH1 0x20 MSTORE PUSH2 0x198F PUSH1 0x4 PUSH1 0x40 PUSH1 0x0 KECCAK256 PUSH1 0x3 DUP2 ADD PUSH2 0x1984 DUP6 DUP3 SLOAD PUSH2 0x183A JUMP JUMPDEST SWAP1 SSTORE ADD SWAP2 DUP3 SLOAD PUSH2 0x183A JUMP JUMPDEST SWAP1 SSTORE JUMP JUMPDEST PUSH1 0x1 DUP1 PUSH1 0xA0 SHL SUB AND PUSH1 0x0 MSTORE PUSH1 0x3 PUSH1 0x20 MSTORE PUSH1 0x40 PUSH1 0x0 KECCAK256 PUSH1 0xA DUP2 ADD SWAP1 DUP2 SLOAD PUSH1 0x3C DUP2 ADD DUP1 SWAP2 GT PUSH2 0x17B7 JUMPI TIMESTAMP LT PUSH2 0x19CC JUMPI PUSH1 0xB PUSH1 0x1 SWAP2 ADD SSTORE TIMESTAMP SWAP1 SSTORE JUMP JUMPDEST PUSH1 0xB SWAP2 POP ADD PUSH2 0x198F DUP2 SLOAD PUSH2 0x17A8 JUMP INVALID SWAP16 0xBF CHAINID 0xCD 0xE1 CHAINID 0xCA SWAP13 0xBB 0xCF POP PUSH7 0xA33C413D870F31 SWAP16 0x2F 0xEF 0xC8 JUMPDEST DUP4 0xE4 DUP6 0xBA 0x24 LT PREVRANDAO SWAP16 LOG2 PUSH5 0x6970667358 0x22 SLT KECCAK256 0xB8 GASLIMIT PUSH26 0x3D78355C1EFC65DD540F944B061FF0C4EF947F7663270A03DEC 0xD6 CALLDATACOPY JUMPDEST PUSH5 0x736F6C6343 STOP ADDMOD AND STOP CALLER "},"methodIdentifiers":{"MAX_GUARDIANS()":"422c1d37","MAX_TRANSACTIONS_PER_PERIOD()":"58abfbdf","RATE_LIMIT_PERIOD()":"b7b188d1","addGuardian(address)":"a526d83b","createWallet(uint256)":"7a675bb6","emergencyWithdraw()":"db2e21bc","owner()":"8da5cb5b","pause()":"8456cb59","paused()":"5c975abb","removeGuardian(address)":"71404156","removeTokenFromWhitelist(address)":"306275be","renounceOwnership()":"715018a6","transferNative(address)":"a526c5f0","transferOwnership(address)":"f2fde38b","transferTokens(address,address,uint256)":"a64b6e5f","unpause()":"3f4ba83a","updateLimits(address,uint256,uint256)":"cf4c34a6","usedSignatures(bytes32)":"f978fd61","wallets(address)":"89b08f11","whitelistToken(address)":"6247f6f2","whitelistedTokens(address)":"daf9c210"}},"storageLayout":{"storage":[{"astId":1281,"contract":"contracts/SmartWalletFixed.sol:SmartWalletFixed","label":"_owner","offset":0,"slot":"0","type":"t_address"},{"astId":3570,"contract":"contracts/SmartWalletFixed.sol:SmartWalletFixed","label":"_status","offset":0,"slot":"1","type":"t_uint256"},{"astId":3460,"contract":"contracts/SmartWalletFixed.sol:SmartWalletFixed","label":"_paused","offset":0,"slot":"2","type":"t_bool"},{"astId":6110,"contract":"contracts/SmartWalletFixed.sol:SmartWalletFixed","label":"wallets","offset":0,"slot":"3","type":"t_mapping(t_address,t_struct(WalletInfo)6105_storage)"},{"astId":6114,"contract":"contracts/SmartWalletFixed.sol:SmartWalletFixed","label":"whitelistedTokens","offset":0,"slot":"4","type":"t_mapping(t_address,t_bool)"},{"astId":6118,"contract":"contracts/SmartWalletFixed.sol:SmartWalletFixed","label":"usedSignatures","offset":0,"slot":"5","type":"t_mapping(t_bytes32,t_bool)"}],"types":{"t_address":{"encoding":"inplace","label":"address","numberOfBytes":"20"},"t_bool":{"encoding":"inplace","label":"bool","numberOfBytes":"1"},"t_bytes32":{"encoding":"inplace","label":"bytes32","numberOfBytes":"32"},"t_mapping(t_address,t_bool)":{"encoding":"mapping","key":"t_address","label":"mapping(address => bool)","numberOfBytes":"32","value":"t_bool"},"t_mapping(t_address,t_struct(WalletInfo)6105_storage)":{"encoding":"mapping","key":"t_address","label":"mapping(address => struct SmartWalletFixed.WalletInfo)","numberOfBytes":"32","value":"t_struct(WalletInfo)6105_storage"},"t_mapping(t_bytes32,t_bool)":{"encoding":"mapping","key":"t_bytes32","label":"mapping(bytes32 => bool)","numberOfBytes":"32","value":"t_bool"},"t_struct(WalletInfo)6105_storage":{"encoding":"inplace","label":"struct SmartWalletFixed.WalletInfo","members":[{"astId":6080,"contract":"contracts/SmartWalletFixed.sol:SmartWalletFixed","label":"exists","offset":0,"slot":"0","type":"t_bool"},{"astId":6082,"contract":"contracts/SmartWalletFixed.sol:SmartWalletFixed","label":"dailyLimit","offset":0,"slot":"1","type":"t_uint256"},{"astId":6084,"contract":"contracts/SmartWalletFixed.sol:SmartWalletFixed","label":"monthlyLimit","offset":0,"slot":"2","type":"t_uint256"},{"astId":6086,"contract":"contracts/SmartWalletFixed.sol:SmartWalletFixed","label":"dailySpent","offset":0,"slot":"3","type":"t_uint256"},{"astId":6088,"contract":"contracts/SmartWalletFixed.sol:SmartWalletFixed","label":"monthlySpent","offset":0,"slot":"4","type":"t_uint256"},{"astId":6090,"contract":"contracts/SmartWalletFixed.sol:SmartWalletFixed","label":"lastDayReset","offset":0,"slot":"5","type":"t_uint256"},{"astId":6092,"contract":"contracts/SmartWalletFixed.sol:SmartWalletFixed","label":"lastMonthReset","offset":0,"slot":"6","type":"t_uint256"},{"astId":6096,"contract":"contracts/SmartWalletFixed.sol:SmartWalletFixed","label":"guardians","offset":0,"slot":"7","type":"t_mapping(t_address,t_bool)"},{"astId":6098,"contract":"contracts/SmartWalletFixed.sol:SmartWalletFixed","label":"guardiansCount","offset":0,"slot":"8","type":"t_uint256"},{"astId":6100,"contract":"contracts/SmartWalletFixed.sol:SmartWalletFixed","label":"nonce","offset":0,"slot":"9","type":"t_uint256"},{"astId":6102,"contract":"contracts/SmartWalletFixed.sol:SmartWalletFixed","label":"lastTransactionTime","offset":0,"slot":"10","type":"t_uint256"},{"astId":6104,"contract":"contracts/SmartWalletFixed.sol:SmartWalletFixed","label":"transactionCount","offset":0,"slot":"11","type":"t_uint256"}],"numberOfBytes":"384"},"t_uint256":{"encoding":"inplace","label":"uint256","numberOfBytes":"32"}}}}}}