{"contracts/LiquidityPool.sol":{"LiquidityPool":{"abi":[{"inputs":[{"internalType":"address","name":"_tokenA","type":"address"},{"internalType":"address","name":"_tokenB","type":"address"},{"internalType":"uint256","name":"_fee","type":"uint256"}],"stateMutability":"nonpayable","type":"constructor"},{"inputs":[],"name":"EnforcedPause","type":"error"},{"inputs":[],"name":"ExpectedPause","type":"error"},{"inputs":[{"internalType":"address","name":"owner","type":"address"}],"name":"OwnableInvalidOwner","type":"error"},{"inputs":[{"internalType":"address","name":"account","type":"address"}],"name":"OwnableUnauthorizedAccount","type":"error"},{"inputs":[],"name":"ReentrancyGuardReentrantCall","type":"error"},{"inputs":[{"internalType":"address","name":"token","type":"address"}],"name":"SafeERC20FailedOperation","type":"error"},{"anonymous":false,"inputs":[{"indexed":true,"internalType":"address","name":"provider","type":"address"},{"indexed":false,"internalType":"uint256","name":"amountA","type":"uint256"},{"indexed":false,"internalType":"uint256","name":"amountB","type":"uint256"},{"indexed":false,"internalType":"uint256","name":"liquidity","type":"uint256"}],"name":"LiquidityAdded","type":"event"},{"anonymous":false,"inputs":[{"indexed":true,"internalType":"address","name":"provider","type":"address"},{"indexed":false,"internalType":"uint256","name":"amountA","type":"uint256"},{"indexed":false,"internalType":"uint256","name":"amountB","type":"uint256"},{"indexed":false,"internalType":"uint256","name":"liquidity","type":"uint256"}],"name":"LiquidityRemoved","type":"event"},{"anonymous":false,"inputs":[{"indexed":true,"internalType":"address","name":"previousOwner","type":"address"},{"indexed":true,"internalType":"address","name":"newOwner","type":"address"}],"name":"OwnershipTransferred","type":"event"},{"anonymous":false,"inputs":[{"indexed":false,"internalType":"address","name":"account","type":"address"}],"name":"Paused","type":"event"},{"anonymous":false,"inputs":[{"indexed":true,"internalType":"address","name":"user","type":"address"},{"indexed":false,"internalType":"uint256","name":"amountIn","type":"uint256"},{"indexed":false,"internalType":"uint256","name":"amountOut","type":"uint256"},{"indexed":false,"internalType":"address","name":"tokenIn","type":"address"},{"indexed":false,"internalType":"address","name":"tokenOut","type":"address"}],"name":"Swap","type":"event"},{"anonymous":false,"inputs":[{"indexed":false,"internalType":"address","name":"account","type":"address"}],"name":"Unpaused","type":"event"},{"inputs":[{"internalType":"uint256","name":"amountADesired","type":"uint256"},{"internalType":"uint256","name":"amountBDesired","type":"uint256"},{"internalType":"uint256","name":"amountAMin","type":"uint256"},{"internalType":"uint256","name":"amountBMin","type":"uint256"}],"name":"addLiquidity","outputs":[{"internalType":"uint256","name":"amountA","type":"uint256"},{"internalType":"uint256","name":"amountB","type":"uint256"},{"internalType":"uint256","name":"liquidity","type":"uint256"}],"stateMutability":"nonpayable","type":"function"},{"inputs":[{"internalType":"address","name":"","type":"address"}],"name":"balances","outputs":[{"internalType":"uint256","name":"","type":"uint256"}],"stateMutability":"view","type":"function"},{"inputs":[],"name":"owner","outputs":[{"internalType":"address","name":"","type":"address"}],"stateMutability":"view","type":"function"},{"inputs":[],"name":"pause","outputs":[],"stateMutability":"nonpayable","type":"function"},{"inputs":[],"name":"paused","outputs":[{"internalType":"bool","name":"","type":"bool"}],"stateMutability":"view","type":"function"},{"inputs":[],"name":"pool","outputs":[{"internalType":"contract IERC20","name":"tokenA","type":"address"},{"internalType":"contract IERC20","name":"tokenB","type":"address"},{"internalType":"uint256","name":"reserveA","type":"uint256"},{"internalType":"uint256","name":"reserveB","type":"uint256"},{"internalType":"uint256","name":"totalSupply","type":"uint256"},{"internalType":"uint256","name":"fee","type":"uint256"}],"stateMutability":"view","type":"function"},{"inputs":[{"internalType":"uint256","name":"amountA","type":"uint256"},{"internalType":"uint256","name":"reserveA","type":"uint256"},{"internalType":"uint256","name":"reserveB","type":"uint256"}],"name":"quote","outputs":[{"internalType":"uint256","name":"amountB","type":"uint256"}],"stateMutability":"pure","type":"function"},{"inputs":[{"internalType":"uint256","name":"liquidity","type":"uint256"},{"internalType":"uint256","name":"amountAMin","type":"uint256"},{"internalType":"uint256","name":"amountBMin","type":"uint256"}],"name":"removeLiquidity","outputs":[{"internalType":"uint256","name":"amountA","type":"uint256"},{"internalType":"uint256","name":"amountB","type":"uint256"}],"stateMutability":"nonpayable","type":"function"},{"inputs":[],"name":"renounceOwnership","outputs":[],"stateMutability":"nonpayable","type":"function"},{"inputs":[{"internalType":"uint256","name":"amountIn","type":"uint256"},{"internalType":"uint256","name":"amountOutMin","type":"uint256"},{"internalType":"address","name":"tokenIn","type":"address"},{"internalType":"address","name":"tokenOut","type":"address"}],"name":"swap","outputs":[{"internalType":"uint256","name":"amountOut","type":"uint256"}],"stateMutability":"nonpayable","type":"function"},{"inputs":[{"internalType":"address","name":"newOwner","type":"address"}],"name":"transferOwnership","outputs":[],"stateMutability":"nonpayable","type":"function"},{"inputs":[],"name":"unpause","outputs":[],"stateMutability":"nonpayable","type":"function"}],"evm":{"bytecode":{"linkReferences":{},"object":"6080346200018457601f620015c438819003918201601f191683019291906001600160401b0384118385101762000189578160609284926040968752833981010312620001845762000051816200019f565b8262000060602084016200019f565b9201519133156200016c576000549060018060a01b03918260018060a01b0319943386841617600055875192823391167f8be0079c531659141344cd1fd0a4f28419497f9722a3daafe3b4186f6b6457e0600080a36001805516908115158062000160575b156200012d57506103e88511620000fa57836003541617600355169060045416176004556008555161140f9081620001b58239f35b855162461bcd60e51b815260206004820152600c60248201526b08ccaca40e8dede40d0d2ced60a31b6044820152606490fd5b62461bcd60e51b815260206004820152600e60248201526d496e76616c696420746f6b656e7360901b6044820152606490fd5b508383161515620000c5565b8351631e4fbdf760e01b815260006004820152602490fd5b600080fd5b634e487b7160e01b600052604160045260246000fd5b51906001600160a01b0382168203620001845756fe6080604081815260048036101561001557600080fd5b600092833560e01c90816316f0115b146110445750806327e235e31461100c5780633f4ba83a14610fa35780635c975abb14610f7f578063715018a614610f255780638456cb5914610eca578063857620e114610ca35780638da5cb5b14610c7b57806393ae880914610828578063ad615dec14610801578063aebf3e41146101305763f2fde38b146100a757600080fd5b3461012c57602036600319011261012c576100c0611099565b906100c961125d565b6001600160a01b0391821692831561011657505082546001600160a01b0319811683178455167f8be0079c531659141344cd1fd0a4f28419497f9722a3daafe3b4186f6b6457e08380a380f35b51631e4fbdf760e01b8152908101849052602490fd5b8280fd5b5082346107fe5760803660031901126107fe578135916024938435926044803593606480359261015e611289565b6101666112ac565b86891015806107f4575b156107b557881515806107ac575b1561077b5760035486516370a0823160e01b80825233868301526001600160a01b039c60209790939092908e169088818681855afa90811561068f57908e918b9161074a575b501061070a578d875416918a51908152338882015288818681865afa90811561068f57908d918b916106d9575b5010610699578951636eb1769f60e11b8082523389830190815230602082015290928a918391908290819060400103915afa90811561068f57908e918b9161065a575b501061061a57895190815233878201908152306020820152909188918391908290819060400103915afa90811561061057908b9189916105db575b501061059d57600754988961046157505061028c8a99809b611156565b8660038211156104535750806001908060011c600181018091116104415791905b838310610421575050505b6103e719810190811161040f57976103e8908181018091116103fd576007558680526009865287872080549182018092116103fd57555b87156103c0575050508392916103238888999a6009946103186103bc9b3033856003541661131c565b30913391541661131c565b61032f886005546111e4565b60055561033e896006546111e4565b60065561034d866007546111e4565b60075533835252206103608382546111e4565b90558051848152602081018690526040810183905233907f64b83944e79c3ce8d4c297411de637c3e102d064677aac0c163976ebdcd6f50e90606090a26001805551938493846040919493926060820195825260208201520152565b0390f35b601d907f496e73756666696369656e74206c6971756964697479206d696e746564000000939588519562461bcd60e51b8752860152840152820152fd5b634e487b7160e01b8852601186528288fd5b50634e487b7160e01b86526011845285fd5b9091925061043883610433818461117f565b6111e4565b821c91906102ad565b634e487b7160e01b8a5260118852848afd5b90156102b8575060016102b8565b9091989a600554928b600654936104798587866111f1565b9d8e116104fb5750508b106104c357999a916104ac91906104a0906104a59082868f611156565b61117f565b938d611156565b808210156104bc57505b966102ef565b90506104b6565b50505060158774125b9cdd59999a58da595b9d081088185b5bdd5b9d605a1b939588519562461bcd60e51b8752860152840152820152fd5b91509b5061050a84848e6111f1565b91821161056757811061052f57999a916104ac91906104a0906104a59082868f611156565b50505060158774125b9cdd59999a58da595b9d081048185b5bdd5b9d605a1b939588519562461bcd60e51b8752860152840152820152fd5b5050505060128771115e18d95cdcda5d99481048185b5bdd5b9d60721b939588519562461bcd60e51b8752860152840152820152fd5b50601d907f496e73756666696369656e7420746f6b656e4220616c6c6f77616e6365000000939588519562461bcd60e51b8752860152840152820152fd5b809250888092503d8311610609575b6105f481836111ac565b81010312610605578a90518e61026f565b8780fd5b503d6105ea565b89513d8a823e3d90fd5b505050601d907f496e73756666696369656e7420746f6b656e4120616c6c6f77616e6365000000939588519562461bcd60e51b8752860152840152820152fd5b8092508a8092503d8311610688575b61067381836111ac565b81010312610684578d905138610234565b8980fd5b503d610669565b8b513d8c823e3d90fd5b505050601b907f496e73756666696369656e7420746f6b656e422062616c616e63650000000000939588519562461bcd60e51b8752860152840152820152fd5b8092508a8092503d8311610703575b6106f281836111ac565b81010312610684578c9051386101f1565b503d6106e8565b505050601b907f496e73756666696369656e7420746f6b656e412062616c616e63650000000000939588519562461bcd60e51b8752860152840152820152fd5b8092508a8092503d8311610774575b61076381836111ac565b81010312610684578d9051386101c4565b503d610759565b6e496e76616c696420616d6f756e747360881b8391600f8c60208a519562461bcd60e51b8752860152840152820152fd5b5087151561017e565b7f496e73756666696369656e74206465736972656420616d6f756e7400000000008391601b8c60208a519562461bcd60e51b8752860152840152820152fd5b5083881015610170565b80fd5b5050346108245760209061081d610817366110b4565b916111f1565b9051908152f35b5080fd5b50903461012c57608036600319011261012c578135602480359360449182359160018060a01b0391828416809403610c77576064803595848716809703610c7357610871611289565b6108796112ac565b84600354169283871493848015610c67575b15610c315788148015610c25575b15610bef57878714610bc2578815610b8c578a15610b545789516370a0823160e01b8152338682015260209c908d8184818c5afa8015610b19578b908390610b23575b6108e892501015611113565b8a51636eb1769f60e11b8152338782019081523060208201528e908290819060400103818c5afa908115610b1957908b918391610ae8575b5010610ab0578415610aa35760055490600654905b6109418c30338d61131c565b60085490612710918203828111610a915761095f610966918f611156565b9384611156565b93828102928184041490151715610a7f575061098c9291610986916111e4565b9061117f565b9a8b10610a4157505050908791600014610a0e576109cb926109b0876005546111e4565b6005556109bf8360065461119f565b600655339154166112ca565b835192835284868401528383015260608201527f053d794b2310b8d186a24ae24a65ee066983a52a6efa6bd3df09a7601a3cb4f360803392a26001805551908152f35b50610a3c91610a1f866006546111e4565b600655610a2e8260055461119f565b6005553390600354166112ca565b6109cb565b8491601a7f496e73756666696369656e74206f757470757420616d6f756e74000000000000928e8d519562461bcd60e51b8752860152840152820152fd5b634e487b7160e01b8152601189528490fd5b634e487b7160e01b825260118a528582fd5b6006549060055490610935565b508491601675496e73756666696369656e7420616c6c6f77616e636560501b928e8d519562461bcd60e51b8752860152840152820152fd5b8f8193508092503d8311610b12575b610b0181836111ac565b81010312610824578a905138610920565b503d610af7565b8c513d84823e3d90fd5b50508d81813d8311610b4d575b610b3a81836111ac565b81010312610824578a6108e891516108dc565b503d610b30565b8491601675125b9d985b1a59081b5a5b9a5b5d5b481bdd5d1c1d5d60521b9260208d519562461bcd60e51b8752860152840152820152fd5b8491601473125b9d985b1a59081a5b9c1d5d08185b5bdd5b9d60621b9260208d519562461bcd60e51b8752860152840152820152fd5b8491600b6a53616d6520746f6b656e7360a81b9260208d519562461bcd60e51b8752860152840152820152fd5b849160147324b73b30b634b21037baba383aba103a37b5b2b760611b9260208d519562461bcd60e51b8752860152840152820152fd5b50858554168814610899565b50849160137224b73b30b634b21034b7383aba103a37b5b2b760691b9260208d519562461bcd60e51b8752860152840152820152fd5b5086865416881461088b565b8a80fd5b8880fd5b505034610824578160031936011261082457905490516001600160a01b039091168152602090f35b5082903461082457610cb4366110b4565b93919092610cc0611289565b610cc86112ac565b811592610cd584156110ce565b33815260209360098552610cee84898420541015611113565b610e875784151580610e7e575b15610e3b57610d0c60055484611156565b95610d2a610d1d600754809961117f565b976104a060065487611156565b958710159081610e30575b5015610df657610d85918786923381526009875220610d5585825461119f565b9055610d638460075461119f565b60075560018060a01b03610d7c883383600354166112ca565b339154166112ca565b610d918460055461119f565b600555610da08360065461119f565b6006557f1dc8bb69df2b8e91fbdcbfcf93d951b3f0000f085a95fe3f7946d6161439245d855180610de533948789846040919493926060820195825260208201520152565b0390a2600180558351928352820152f35b865162461bcd60e51b81528083018590526014602482015273496e73756666696369656e7420616d6f756e747360601b6044820152606490fd5b905085101588610d35565b865162461bcd60e51b8152808301859052601760248201527f496e76616c6964206d696e696d756d20616d6f756e74730000000000000000006044820152606490fd5b50851515610cfb565b865162461bcd60e51b8152808301859052601860248201527f496e76616c6964206c697175696469747920616d6f756e7400000000000000006044820152606490fd5b50503461082457816003193601126108245760207f62e78cea01bee320cd4e420270b5ea74000d11b0c9f74754ebdbfc544b05a25891610f0861125d565b610f106112ac565b600160ff19600254161760025551338152a180f35b83346107fe57806003193601126107fe57610f3e61125d565b80546001600160a01b03198116825581906001600160a01b03167f8be0079c531659141344cd1fd0a4f28419497f9722a3daafe3b4186f6b6457e08280a380f35b50503461082457816003193601126108245760209060ff6002541690519015158152f35b503461012c578260031936011261012c57610fbc61125d565b6002549060ff821615610ffe575060ff1916600255513381527f5db9ee0a495bf2e6ff9c91a7834c1ba4fdd244a5e8aa4e537bd38aeae4b073aa90602090a180f35b8251638dfc202b60e01b8152fd5b5050346108245760203660031901126108245760209181906001600160a01b03611034611099565b1681526009845220549051908152f35b9290503461109557836003193601126110955760c0935060018060a01b03806003541692541690600554600654916007549360085495875260208701528501526060840152608083015260a0820152f35b8380fd5b600435906001600160a01b03821682036110af57565b600080fd5b60609060031901126110af57600435906024359060443590565b156110d557565b60405162461bcd60e51b8152602060048201526016602482015275496e73756666696369656e74206c697175696469747960501b6044820152606490fd5b1561111a57565b60405162461bcd60e51b8152602060048201526014602482015273496e73756666696369656e742062616c616e636560601b6044820152606490fd5b8181029291811591840414171561116957565b634e487b7160e01b600052601160045260246000fd5b8115611189570490565b634e487b7160e01b600052601260045260246000fd5b9190820391821161116957565b90601f8019910116810190811067ffffffffffffffff8211176111ce57604052565b634e487b7160e01b600052604160045260246000fd5b9190820180921161116957565b801561122257611216926104a09183151580611219575b611211906110ce565b611156565b90565b50811515611208565b60405162461bcd60e51b8152602060048201526013602482015272125b9cdd59999a58da595b9d08185b5bdd5b9d606a1b6044820152606490fd5b6000546001600160a01b0316330361127157565b60405163118cdaa760e01b8152336004820152602490fd5b60026001541461129a576002600155565b604051633ee5aeb560e01b8152600490fd5b60ff600254166112b857565b60405163d93c066560e01b8152600490fd5b60405163a9059cbb60e01b60208201526001600160a01b039092166024830152604480830193909352918152608081019167ffffffffffffffff8311828410176111ce5761131a92604052611371565b565b6040516323b872dd60e01b60208201526001600160a01b03928316602482015292909116604483015260648083019390935291815260a081019181831067ffffffffffffffff8411176111ce5761131a926040525b906000602091828151910182855af1156113cd576000513d6113c457506001600160a01b0381163b155b6113a25750565b604051635274afe760e01b81526001600160a01b039091166004820152602490fd5b6001141561139b565b6040513d6000823e3d90fdfea26469706673582212202a4f6fb21b639914b3d83a6271875b20b60b7239e4a292c9a78ef2576cefdb8964736f6c63430008160033","opcodes":"PUSH1 0x80 CALLVALUE PUSH3 0x184 JUMPI PUSH1 0x1F PUSH3 0x15C4 CODESIZE DUP2 SWAP1 SUB SWAP2 DUP3 ADD PUSH1 0x1F NOT AND DUP4 ADD SWAP3 SWAP2 SWAP1 PUSH1 0x1 PUSH1 0x1 PUSH1 0x40 SHL SUB DUP5 GT DUP4 DUP6 LT OR PUSH3 0x189 JUMPI DUP2 PUSH1 0x60 SWAP3 DUP5 SWAP3 PUSH1 0x40 SWAP7 DUP8 MSTORE DUP4 CODECOPY DUP2 ADD SUB SLT PUSH3 0x184 JUMPI PUSH3 0x51 DUP2 PUSH3 0x19F JUMP JUMPDEST DUP3 PUSH3 0x60 PUSH1 0x20 DUP5 ADD PUSH3 0x19F JUMP JUMPDEST SWAP3 ADD MLOAD SWAP2 CALLER ISZERO PUSH3 0x16C JUMPI PUSH1 0x0 SLOAD SWAP1 PUSH1 0x1 DUP1 PUSH1 0xA0 SHL SUB SWAP2 DUP3 PUSH1 0x1 DUP1 PUSH1 0xA0 SHL SUB NOT SWAP5 CALLER DUP7 DUP5 AND OR PUSH1 0x0 SSTORE DUP8 MLOAD SWAP3 DUP3 CALLER SWAP2 AND PUSH32 0x8BE0079C531659141344CD1FD0A4F28419497F9722A3DAAFE3B4186F6B6457E0 PUSH1 0x0 DUP1 LOG3 PUSH1 0x1 DUP1 SSTORE AND SWAP1 DUP2 ISZERO ISZERO DUP1 PUSH3 0x160 JUMPI JUMPDEST ISZERO PUSH3 0x12D JUMPI POP PUSH2 0x3E8 DUP6 GT PUSH3 0xFA JUMPI DUP4 PUSH1 0x3 SLOAD AND OR PUSH1 0x3 SSTORE AND SWAP1 PUSH1 0x4 SLOAD AND OR PUSH1 0x4 SSTORE PUSH1 0x8 SSTORE MLOAD PUSH2 0x140F SWAP1 DUP2 PUSH3 0x1B5 DUP3 CODECOPY RETURN JUMPDEST DUP6 MLOAD PUSH3 0x461BCD PUSH1 0xE5 SHL DUP2 MSTORE PUSH1 0x20 PUSH1 0x4 DUP3 ADD MSTORE PUSH1 0xC PUSH1 0x24 DUP3 ADD MSTORE PUSH12 0x8CCACA40E8DEDE40D0D2CED PUSH1 0xA3 SHL PUSH1 0x44 DUP3 ADD MSTORE PUSH1 0x64 SWAP1 REVERT JUMPDEST PUSH3 0x461BCD PUSH1 0xE5 SHL DUP2 MSTORE PUSH1 0x20 PUSH1 0x4 DUP3 ADD MSTORE PUSH1 0xE PUSH1 0x24 DUP3 ADD MSTORE PUSH14 0x496E76616C696420746F6B656E73 PUSH1 0x90 SHL PUSH1 0x44 DUP3 ADD MSTORE PUSH1 0x64 SWAP1 REVERT JUMPDEST POP DUP4 DUP4 AND ISZERO ISZERO PUSH3 0xC5 JUMP JUMPDEST DUP4 MLOAD PUSH4 0x1E4FBDF7 PUSH1 0xE0 SHL DUP2 MSTORE PUSH1 0x0 PUSH1 0x4 DUP3 ADD MSTORE PUSH1 0x24 SWAP1 REVERT JUMPDEST PUSH1 0x0 DUP1 REVERT JUMPDEST PUSH4 0x4E487B71 PUSH1 0xE0 SHL PUSH1 0x0 MSTORE PUSH1 0x41 PUSH1 0x4 MSTORE PUSH1 0x24 PUSH1 0x0 REVERT JUMPDEST MLOAD SWAP1 PUSH1 0x1 PUSH1 0x1 PUSH1 0xA0 SHL SUB DUP3 AND DUP3 SUB PUSH3 0x184 JUMPI JUMP INVALID PUSH1 0x80 PUSH1 0x40 DUP2 DUP2 MSTORE PUSH1 0x4 DUP1 CALLDATASIZE LT ISZERO PUSH2 0x15 JUMPI PUSH1 0x0 DUP1 REVERT JUMPDEST PUSH1 0x0 SWAP3 DUP4 CALLDATALOAD PUSH1 0xE0 SHR SWAP1 DUP2 PUSH4 0x16F0115B EQ PUSH2 0x1044 JUMPI POP DUP1 PUSH4 0x27E235E3 EQ PUSH2 0x100C JUMPI DUP1 PUSH4 0x3F4BA83A EQ PUSH2 0xFA3 JUMPI DUP1 PUSH4 0x5C975ABB EQ PUSH2 0xF7F JUMPI DUP1 PUSH4 0x715018A6 EQ PUSH2 0xF25 JUMPI DUP1 PUSH4 0x8456CB59 EQ PUSH2 0xECA JUMPI DUP1 PUSH4 0x857620E1 EQ PUSH2 0xCA3 JUMPI DUP1 PUSH4 0x8DA5CB5B EQ PUSH2 0xC7B JUMPI DUP1 PUSH4 0x93AE8809 EQ PUSH2 0x828 JUMPI DUP1 PUSH4 0xAD615DEC EQ PUSH2 0x801 JUMPI DUP1 PUSH4 0xAEBF3E41 EQ PUSH2 0x130 JUMPI PUSH4 0xF2FDE38B EQ PUSH2 0xA7 JUMPI PUSH1 0x0 DUP1 REVERT JUMPDEST CALLVALUE PUSH2 0x12C JUMPI PUSH1 0x20 CALLDATASIZE PUSH1 0x3 NOT ADD SLT PUSH2 0x12C JUMPI PUSH2 0xC0 PUSH2 0x1099 JUMP JUMPDEST SWAP1 PUSH2 0xC9 PUSH2 0x125D JUMP JUMPDEST PUSH1 0x1 PUSH1 0x1 PUSH1 0xA0 SHL SUB SWAP2 DUP3 AND SWAP3 DUP4 ISZERO PUSH2 0x116 JUMPI POP POP DUP3 SLOAD PUSH1 0x1 PUSH1 0x1 PUSH1 0xA0 SHL SUB NOT DUP2 AND DUP4 OR DUP5 SSTORE AND PUSH32 0x8BE0079C531659141344CD1FD0A4F28419497F9722A3DAAFE3B4186F6B6457E0 DUP4 DUP1 LOG3 DUP1 RETURN JUMPDEST MLOAD PUSH4 0x1E4FBDF7 PUSH1 0xE0 SHL DUP2 MSTORE SWAP1 DUP2 ADD DUP5 SWAP1 MSTORE PUSH1 0x24 SWAP1 REVERT JUMPDEST DUP3 DUP1 REVERT JUMPDEST POP DUP3 CALLVALUE PUSH2 0x7FE JUMPI PUSH1 0x80 CALLDATASIZE PUSH1 0x3 NOT ADD SLT PUSH2 0x7FE JUMPI DUP2 CALLDATALOAD SWAP2 PUSH1 0x24 SWAP4 DUP5 CALLDATALOAD SWAP3 PUSH1 0x44 DUP1 CALLDATALOAD SWAP4 PUSH1 0x64 DUP1 CALLDATALOAD SWAP3 PUSH2 0x15E PUSH2 0x1289 JUMP JUMPDEST PUSH2 0x166 PUSH2 0x12AC JUMP JUMPDEST DUP7 DUP10 LT ISZERO DUP1 PUSH2 0x7F4 JUMPI JUMPDEST ISZERO PUSH2 0x7B5 JUMPI DUP9 ISZERO ISZERO DUP1 PUSH2 0x7AC JUMPI JUMPDEST ISZERO PUSH2 0x77B JUMPI PUSH1 0x3 SLOAD DUP7 MLOAD PUSH4 0x70A08231 PUSH1 0xE0 SHL DUP1 DUP3 MSTORE CALLER DUP7 DUP4 ADD MSTORE PUSH1 0x1 PUSH1 0x1 PUSH1 0xA0 SHL SUB SWAP13 PUSH1 0x20 SWAP8 SWAP1 SWAP4 SWAP1 SWAP3 SWAP1 DUP15 AND SWAP1 DUP9 DUP2 DUP7 DUP2 DUP6 GAS STATICCALL SWAP1 DUP2 ISZERO PUSH2 0x68F JUMPI SWAP1 DUP15 SWAP2 DUP12 SWAP2 PUSH2 0x74A JUMPI JUMPDEST POP LT PUSH2 0x70A JUMPI DUP14 DUP8 SLOAD AND SWAP2 DUP11 MLOAD SWAP1 DUP2 MSTORE CALLER DUP9 DUP3 ADD MSTORE DUP9 DUP2 DUP7 DUP2 DUP7 GAS STATICCALL SWAP1 DUP2 ISZERO PUSH2 0x68F JUMPI SWAP1 DUP14 SWAP2 DUP12 SWAP2 PUSH2 0x6D9 JUMPI JUMPDEST POP LT PUSH2 0x699 JUMPI DUP10 MLOAD PUSH4 0x6EB1769F PUSH1 0xE1 SHL DUP1 DUP3 MSTORE CALLER DUP10 DUP4 ADD SWAP1 DUP2 MSTORE ADDRESS PUSH1 0x20 DUP3 ADD MSTORE SWAP1 SWAP3 DUP11 SWAP2 DUP4 SWAP2 SWAP1 DUP3 SWAP1 DUP2 SWAP1 PUSH1 0x40 ADD SUB SWAP2 GAS STATICCALL SWAP1 DUP2 ISZERO PUSH2 0x68F JUMPI SWAP1 DUP15 SWAP2 DUP12 SWAP2 PUSH2 0x65A JUMPI JUMPDEST POP LT PUSH2 0x61A JUMPI DUP10 MLOAD SWAP1 DUP2 MSTORE CALLER DUP8 DUP3 ADD SWAP1 DUP2 MSTORE ADDRESS PUSH1 0x20 DUP3 ADD MSTORE SWAP1 SWAP2 DUP9 SWAP2 DUP4 SWAP2 SWAP1 DUP3 SWAP1 DUP2 SWAP1 PUSH1 0x40 ADD SUB SWAP2 GAS STATICCALL SWAP1 DUP2 ISZERO PUSH2 0x610 JUMPI SWAP1 DUP12 SWAP2 DUP10 SWAP2 PUSH2 0x5DB JUMPI JUMPDEST POP LT PUSH2 0x59D JUMPI PUSH1 0x7 SLOAD SWAP9 DUP10 PUSH2 0x461 JUMPI POP POP PUSH2 0x28C DUP11 SWAP10 DUP1 SWAP12 PUSH2 0x1156 JUMP JUMPDEST DUP7 PUSH1 0x3 DUP3 GT ISZERO PUSH2 0x453 JUMPI POP DUP1 PUSH1 0x1 SWAP1 DUP1 PUSH1 0x1 SHR PUSH1 0x1 DUP2 ADD DUP1 SWAP2 GT PUSH2 0x441 JUMPI SWAP2 SWAP1 JUMPDEST DUP4 DUP4 LT PUSH2 0x421 JUMPI POP POP POP JUMPDEST PUSH2 0x3E7 NOT DUP2 ADD SWAP1 DUP2 GT PUSH2 0x40F JUMPI SWAP8 PUSH2 0x3E8 SWAP1 DUP2 DUP2 ADD DUP1 SWAP2 GT PUSH2 0x3FD JUMPI PUSH1 0x7 SSTORE DUP7 DUP1 MSTORE PUSH1 0x9 DUP7 MSTORE DUP8 DUP8 KECCAK256 DUP1 SLOAD SWAP2 DUP3 ADD DUP1 SWAP3 GT PUSH2 0x3FD JUMPI SSTORE JUMPDEST DUP8 ISZERO PUSH2 0x3C0 JUMPI POP POP POP DUP4 SWAP3 SWAP2 PUSH2 0x323 DUP9 DUP9 SWAP10 SWAP11 PUSH1 0x9 SWAP5 PUSH2 0x318 PUSH2 0x3BC SWAP12 ADDRESS CALLER DUP6 PUSH1 0x3 SLOAD AND PUSH2 0x131C JUMP JUMPDEST ADDRESS SWAP2 CALLER SWAP2 SLOAD AND PUSH2 0x131C JUMP JUMPDEST PUSH2 0x32F DUP9 PUSH1 0x5 SLOAD PUSH2 0x11E4 JUMP JUMPDEST PUSH1 0x5 SSTORE PUSH2 0x33E DUP10 PUSH1 0x6 SLOAD PUSH2 0x11E4 JUMP JUMPDEST PUSH1 0x6 SSTORE PUSH2 0x34D DUP7 PUSH1 0x7 SLOAD PUSH2 0x11E4 JUMP JUMPDEST PUSH1 0x7 SSTORE CALLER DUP4 MSTORE MSTORE KECCAK256 PUSH2 0x360 DUP4 DUP3 SLOAD PUSH2 0x11E4 JUMP JUMPDEST SWAP1 SSTORE DUP1 MLOAD DUP5 DUP2 MSTORE PUSH1 0x20 DUP2 ADD DUP7 SWAP1 MSTORE PUSH1 0x40 DUP2 ADD DUP4 SWAP1 MSTORE CALLER SWAP1 PUSH32 0x64B83944E79C3CE8D4C297411DE637C3E102D064677AAC0C163976EBDCD6F50E SWAP1 PUSH1 0x60 SWAP1 LOG2 PUSH1 0x1 DUP1 SSTORE MLOAD SWAP4 DUP5 SWAP4 DUP5 PUSH1 0x40 SWAP2 SWAP5 SWAP4 SWAP3 PUSH1 0x60 DUP3 ADD SWAP6 DUP3 MSTORE PUSH1 0x20 DUP3 ADD MSTORE ADD MSTORE JUMP JUMPDEST SUB SWAP1 RETURN JUMPDEST PUSH1 0x1D SWAP1 PUSH32 0x496E73756666696369656E74206C6971756964697479206D696E746564000000 SWAP4 SWAP6 DUP9 MLOAD SWAP6 PUSH3 0x461BCD PUSH1 0xE5 SHL DUP8 MSTORE DUP7 ADD MSTORE DUP5 ADD MSTORE DUP3 ADD MSTORE REVERT JUMPDEST PUSH4 0x4E487B71 PUSH1 0xE0 SHL DUP9 MSTORE PUSH1 0x11 DUP7 MSTORE DUP3 DUP9 REVERT JUMPDEST POP PUSH4 0x4E487B71 PUSH1 0xE0 SHL DUP7 MSTORE PUSH1 0x11 DUP5 MSTORE DUP6 REVERT JUMPDEST SWAP1 SWAP2 SWAP3 POP PUSH2 0x438 DUP4 PUSH2 0x433 DUP2 DUP5 PUSH2 0x117F JUMP JUMPDEST PUSH2 0x11E4 JUMP JUMPDEST DUP3 SHR SWAP2 SWAP1 PUSH2 0x2AD JUMP JUMPDEST PUSH4 0x4E487B71 PUSH1 0xE0 SHL DUP11 MSTORE PUSH1 0x11 DUP9 MSTORE DUP5 DUP11 REVERT JUMPDEST SWAP1 ISZERO PUSH2 0x2B8 JUMPI POP PUSH1 0x1 PUSH2 0x2B8 JUMP JUMPDEST SWAP1 SWAP2 SWAP9 SWAP11 PUSH1 0x5 SLOAD SWAP3 DUP12 PUSH1 0x6 SLOAD SWAP4 PUSH2 0x479 DUP6 DUP8 DUP7 PUSH2 0x11F1 JUMP JUMPDEST SWAP14 DUP15 GT PUSH2 0x4FB JUMPI POP POP DUP12 LT PUSH2 0x4C3 JUMPI SWAP10 SWAP11 SWAP2 PUSH2 0x4AC SWAP2 SWAP1 PUSH2 0x4A0 SWAP1 PUSH2 0x4A5 SWAP1 DUP3 DUP7 DUP16 PUSH2 0x1156 JUMP JUMPDEST PUSH2 0x117F JUMP JUMPDEST SWAP4 DUP14 PUSH2 0x1156 JUMP JUMPDEST DUP1 DUP3 LT ISZERO PUSH2 0x4BC JUMPI POP JUMPDEST SWAP7 PUSH2 0x2EF JUMP JUMPDEST SWAP1 POP PUSH2 0x4B6 JUMP JUMPDEST POP POP POP PUSH1 0x15 DUP8 PUSH21 0x125B9CDD59999A58DA595B9D081088185B5BDD5B9D PUSH1 0x5A SHL SWAP4 SWAP6 DUP9 MLOAD SWAP6 PUSH3 0x461BCD PUSH1 0xE5 SHL DUP8 MSTORE DUP7 ADD MSTORE DUP5 ADD MSTORE DUP3 ADD MSTORE REVERT JUMPDEST SWAP2 POP SWAP12 POP PUSH2 0x50A DUP5 DUP5 DUP15 PUSH2 0x11F1 JUMP JUMPDEST SWAP2 DUP3 GT PUSH2 0x567 JUMPI DUP2 LT PUSH2 0x52F JUMPI SWAP10 SWAP11 SWAP2 PUSH2 0x4AC SWAP2 SWAP1 PUSH2 0x4A0 SWAP1 PUSH2 0x4A5 SWAP1 DUP3 DUP7 DUP16 PUSH2 0x1156 JUMP JUMPDEST POP POP POP PUSH1 0x15 DUP8 PUSH21 0x125B9CDD59999A58DA595B9D081048185B5BDD5B9D PUSH1 0x5A SHL SWAP4 SWAP6 DUP9 MLOAD SWAP6 PUSH3 0x461BCD PUSH1 0xE5 SHL DUP8 MSTORE DUP7 ADD MSTORE DUP5 ADD MSTORE DUP3 ADD MSTORE REVERT JUMPDEST POP POP POP POP PUSH1 0x12 DUP8 PUSH18 0x115E18D95CDCDA5D99481048185B5BDD5B9D PUSH1 0x72 SHL SWAP4 SWAP6 DUP9 MLOAD SWAP6 PUSH3 0x461BCD PUSH1 0xE5 SHL DUP8 MSTORE DUP7 ADD MSTORE DUP5 ADD MSTORE DUP3 ADD MSTORE REVERT JUMPDEST POP PUSH1 0x1D SWAP1 PUSH32 0x496E73756666696369656E7420746F6B656E4220616C6C6F77616E6365000000 SWAP4 SWAP6 DUP9 MLOAD SWAP6 PUSH3 0x461BCD PUSH1 0xE5 SHL DUP8 MSTORE DUP7 ADD MSTORE DUP5 ADD MSTORE DUP3 ADD MSTORE REVERT JUMPDEST DUP1 SWAP3 POP DUP9 DUP1 SWAP3 POP RETURNDATASIZE DUP4 GT PUSH2 0x609 JUMPI JUMPDEST PUSH2 0x5F4 DUP2 DUP4 PUSH2 0x11AC JUMP JUMPDEST DUP2 ADD SUB SLT PUSH2 0x605 JUMPI DUP11 SWAP1 MLOAD DUP15 PUSH2 0x26F JUMP JUMPDEST DUP8 DUP1 REVERT JUMPDEST POP RETURNDATASIZE PUSH2 0x5EA JUMP JUMPDEST DUP10 MLOAD RETURNDATASIZE DUP11 DUP3 RETURNDATACOPY RETURNDATASIZE SWAP1 REVERT JUMPDEST POP POP POP PUSH1 0x1D SWAP1 PUSH32 0x496E73756666696369656E7420746F6B656E4120616C6C6F77616E6365000000 SWAP4 SWAP6 DUP9 MLOAD SWAP6 PUSH3 0x461BCD PUSH1 0xE5 SHL DUP8 MSTORE DUP7 ADD MSTORE DUP5 ADD MSTORE DUP3 ADD MSTORE REVERT JUMPDEST DUP1 SWAP3 POP DUP11 DUP1 SWAP3 POP RETURNDATASIZE DUP4 GT PUSH2 0x688 JUMPI JUMPDEST PUSH2 0x673 DUP2 DUP4 PUSH2 0x11AC JUMP JUMPDEST DUP2 ADD SUB SLT PUSH2 0x684 JUMPI DUP14 SWAP1 MLOAD CODESIZE PUSH2 0x234 JUMP JUMPDEST DUP10 DUP1 REVERT JUMPDEST POP RETURNDATASIZE PUSH2 0x669 JUMP JUMPDEST DUP12 MLOAD RETURNDATASIZE DUP13 DUP3 RETURNDATACOPY RETURNDATASIZE SWAP1 REVERT JUMPDEST POP POP POP PUSH1 0x1B SWAP1 PUSH32 0x496E73756666696369656E7420746F6B656E422062616C616E63650000000000 SWAP4 SWAP6 DUP9 MLOAD SWAP6 PUSH3 0x461BCD PUSH1 0xE5 SHL DUP8 MSTORE DUP7 ADD MSTORE DUP5 ADD MSTORE DUP3 ADD MSTORE REVERT JUMPDEST DUP1 SWAP3 POP DUP11 DUP1 SWAP3 POP RETURNDATASIZE DUP4 GT PUSH2 0x703 JUMPI JUMPDEST PUSH2 0x6F2 DUP2 DUP4 PUSH2 0x11AC JUMP JUMPDEST DUP2 ADD SUB SLT PUSH2 0x684 JUMPI DUP13 SWAP1 MLOAD CODESIZE PUSH2 0x1F1 JUMP JUMPDEST POP RETURNDATASIZE PUSH2 0x6E8 JUMP JUMPDEST POP POP POP PUSH1 0x1B SWAP1 PUSH32 0x496E73756666696369656E7420746F6B656E412062616C616E63650000000000 SWAP4 SWAP6 DUP9 MLOAD SWAP6 PUSH3 0x461BCD PUSH1 0xE5 SHL DUP8 MSTORE DUP7 ADD MSTORE DUP5 ADD MSTORE DUP3 ADD MSTORE REVERT JUMPDEST DUP1 SWAP3 POP DUP11 DUP1 SWAP3 POP RETURNDATASIZE DUP4 GT PUSH2 0x774 JUMPI JUMPDEST PUSH2 0x763 DUP2 DUP4 PUSH2 0x11AC JUMP JUMPDEST DUP2 ADD SUB SLT PUSH2 0x684 JUMPI DUP14 SWAP1 MLOAD CODESIZE PUSH2 0x1C4 JUMP JUMPDEST POP RETURNDATASIZE PUSH2 0x759 JUMP JUMPDEST PUSH15 0x496E76616C696420616D6F756E7473 PUSH1 0x88 SHL DUP4 SWAP2 PUSH1 0xF DUP13 PUSH1 0x20 DUP11 MLOAD SWAP6 PUSH3 0x461BCD PUSH1 0xE5 SHL DUP8 MSTORE DUP7 ADD MSTORE DUP5 ADD MSTORE DUP3 ADD MSTORE REVERT JUMPDEST POP DUP8 ISZERO ISZERO PUSH2 0x17E JUMP JUMPDEST PUSH32 0x496E73756666696369656E74206465736972656420616D6F756E740000000000 DUP4 SWAP2 PUSH1 0x1B DUP13 PUSH1 0x20 DUP11 MLOAD SWAP6 PUSH3 0x461BCD PUSH1 0xE5 SHL DUP8 MSTORE DUP7 ADD MSTORE DUP5 ADD MSTORE DUP3 ADD MSTORE REVERT JUMPDEST POP DUP4 DUP9 LT ISZERO PUSH2 0x170 JUMP JUMPDEST DUP1 REVERT JUMPDEST POP POP CALLVALUE PUSH2 0x824 JUMPI PUSH1 0x20 SWAP1 PUSH2 0x81D PUSH2 0x817 CALLDATASIZE PUSH2 0x10B4 JUMP JUMPDEST SWAP2 PUSH2 0x11F1 JUMP JUMPDEST SWAP1 MLOAD SWAP1 DUP2 MSTORE RETURN JUMPDEST POP DUP1 REVERT JUMPDEST POP SWAP1 CALLVALUE PUSH2 0x12C JUMPI PUSH1 0x80 CALLDATASIZE PUSH1 0x3 NOT ADD SLT PUSH2 0x12C JUMPI DUP2 CALLDATALOAD PUSH1 0x24 DUP1 CALLDATALOAD SWAP4 PUSH1 0x44 SWAP2 DUP3 CALLDATALOAD SWAP2 PUSH1 0x1 DUP1 PUSH1 0xA0 SHL SUB SWAP2 DUP3 DUP5 AND DUP1 SWAP5 SUB PUSH2 0xC77 JUMPI PUSH1 0x64 DUP1 CALLDATALOAD SWAP6 DUP5 DUP8 AND DUP1 SWAP8 SUB PUSH2 0xC73 JUMPI PUSH2 0x871 PUSH2 0x1289 JUMP JUMPDEST PUSH2 0x879 PUSH2 0x12AC JUMP JUMPDEST DUP5 PUSH1 0x3 SLOAD AND SWAP3 DUP4 DUP8 EQ SWAP4 DUP5 DUP1 ISZERO PUSH2 0xC67 JUMPI JUMPDEST ISZERO PUSH2 0xC31 JUMPI DUP9 EQ DUP1 ISZERO PUSH2 0xC25 JUMPI JUMPDEST ISZERO PUSH2 0xBEF JUMPI DUP8 DUP8 EQ PUSH2 0xBC2 JUMPI DUP9 ISZERO PUSH2 0xB8C JUMPI DUP11 ISZERO PUSH2 0xB54 JUMPI DUP10 MLOAD PUSH4 0x70A08231 PUSH1 0xE0 SHL DUP2 MSTORE CALLER DUP7 DUP3 ADD MSTORE PUSH1 0x20 SWAP13 SWAP1 DUP14 DUP2 DUP5 DUP2 DUP13 GAS STATICCALL DUP1 ISZERO PUSH2 0xB19 JUMPI DUP12 SWAP1 DUP4 SWAP1 PUSH2 0xB23 JUMPI JUMPDEST PUSH2 0x8E8 SWAP3 POP LT ISZERO PUSH2 0x1113 JUMP JUMPDEST DUP11 MLOAD PUSH4 0x6EB1769F PUSH1 0xE1 SHL DUP2 MSTORE CALLER DUP8 DUP3 ADD SWAP1 DUP2 MSTORE ADDRESS PUSH1 0x20 DUP3 ADD MSTORE DUP15 SWAP1 DUP3 SWAP1 DUP2 SWAP1 PUSH1 0x40 ADD SUB DUP2 DUP13 GAS STATICCALL SWAP1 DUP2 ISZERO PUSH2 0xB19 JUMPI SWAP1 DUP12 SWAP2 DUP4 SWAP2 PUSH2 0xAE8 JUMPI JUMPDEST POP LT PUSH2 0xAB0 JUMPI DUP5 ISZERO PUSH2 0xAA3 JUMPI PUSH1 0x5 SLOAD SWAP1 PUSH1 0x6 SLOAD SWAP1 JUMPDEST PUSH2 0x941 DUP13 ADDRESS CALLER DUP14 PUSH2 0x131C JUMP JUMPDEST PUSH1 0x8 SLOAD SWAP1 PUSH2 0x2710 SWAP2 DUP3 SUB DUP3 DUP2 GT PUSH2 0xA91 JUMPI PUSH2 0x95F PUSH2 0x966 SWAP2 DUP16 PUSH2 0x1156 JUMP JUMPDEST SWAP4 DUP5 PUSH2 0x1156 JUMP JUMPDEST SWAP4 DUP3 DUP2 MUL SWAP3 DUP2 DUP5 DIV EQ SWAP1 ISZERO OR ISZERO PUSH2 0xA7F JUMPI POP PUSH2 0x98C SWAP3 SWAP2 PUSH2 0x986 SWAP2 PUSH2 0x11E4 JUMP JUMPDEST SWAP1 PUSH2 0x117F JUMP JUMPDEST SWAP11 DUP12 LT PUSH2 0xA41 JUMPI POP POP POP SWAP1 DUP8 SWAP2 PUSH1 0x0 EQ PUSH2 0xA0E JUMPI PUSH2 0x9CB SWAP3 PUSH2 0x9B0 DUP8 PUSH1 0x5 SLOAD PUSH2 0x11E4 JUMP JUMPDEST PUSH1 0x5 SSTORE PUSH2 0x9BF DUP4 PUSH1 0x6 SLOAD PUSH2 0x119F JUMP JUMPDEST PUSH1 0x6 SSTORE CALLER SWAP2 SLOAD AND PUSH2 0x12CA JUMP JUMPDEST DUP4 MLOAD SWAP3 DUP4 MSTORE DUP5 DUP7 DUP5 ADD MSTORE DUP4 DUP4 ADD MSTORE PUSH1 0x60 DUP3 ADD MSTORE PUSH32 0x53D794B2310B8D186A24AE24A65EE066983A52A6EFA6BD3DF09A7601A3CB4F3 PUSH1 0x80 CALLER SWAP3 LOG2 PUSH1 0x1 DUP1 SSTORE MLOAD SWAP1 DUP2 MSTORE RETURN JUMPDEST POP PUSH2 0xA3C SWAP2 PUSH2 0xA1F DUP7 PUSH1 0x6 SLOAD PUSH2 0x11E4 JUMP JUMPDEST PUSH1 0x6 SSTORE PUSH2 0xA2E DUP3 PUSH1 0x5 SLOAD PUSH2 0x119F JUMP JUMPDEST PUSH1 0x5 SSTORE CALLER SWAP1 PUSH1 0x3 SLOAD AND PUSH2 0x12CA JUMP JUMPDEST PUSH2 0x9CB JUMP JUMPDEST DUP5 SWAP2 PUSH1 0x1A PUSH32 0x496E73756666696369656E74206F757470757420616D6F756E74000000000000 SWAP3 DUP15 DUP14 MLOAD SWAP6 PUSH3 0x461BCD PUSH1 0xE5 SHL DUP8 MSTORE DUP7 ADD MSTORE DUP5 ADD MSTORE DUP3 ADD MSTORE REVERT JUMPDEST PUSH4 0x4E487B71 PUSH1 0xE0 SHL DUP2 MSTORE PUSH1 0x11 DUP10 MSTORE DUP5 SWAP1 REVERT JUMPDEST PUSH4 0x4E487B71 PUSH1 0xE0 SHL DUP3 MSTORE PUSH1 0x11 DUP11 MSTORE DUP6 DUP3 REVERT JUMPDEST PUSH1 0x6 SLOAD SWAP1 PUSH1 0x5 SLOAD SWAP1 PUSH2 0x935 JUMP JUMPDEST POP DUP5 SWAP2 PUSH1 0x16 PUSH22 0x496E73756666696369656E7420616C6C6F77616E6365 PUSH1 0x50 SHL SWAP3 DUP15 DUP14 MLOAD SWAP6 PUSH3 0x461BCD PUSH1 0xE5 SHL DUP8 MSTORE DUP7 ADD MSTORE DUP5 ADD MSTORE DUP3 ADD MSTORE REVERT JUMPDEST DUP16 DUP2 SWAP4 POP DUP1 SWAP3 POP RETURNDATASIZE DUP4 GT PUSH2 0xB12 JUMPI JUMPDEST PUSH2 0xB01 DUP2 DUP4 PUSH2 0x11AC JUMP JUMPDEST DUP2 ADD SUB SLT PUSH2 0x824 JUMPI DUP11 SWAP1 MLOAD CODESIZE PUSH2 0x920 JUMP JUMPDEST POP RETURNDATASIZE PUSH2 0xAF7 JUMP JUMPDEST DUP13 MLOAD RETURNDATASIZE DUP5 DUP3 RETURNDATACOPY RETURNDATASIZE SWAP1 REVERT JUMPDEST POP POP DUP14 DUP2 DUP2 RETURNDATASIZE DUP4 GT PUSH2 0xB4D JUMPI JUMPDEST PUSH2 0xB3A DUP2 DUP4 PUSH2 0x11AC JUMP JUMPDEST DUP2 ADD SUB SLT PUSH2 0x824 JUMPI DUP11 PUSH2 0x8E8 SWAP2 MLOAD PUSH2 0x8DC JUMP JUMPDEST POP RETURNDATASIZE PUSH2 0xB30 JUMP JUMPDEST DUP5 SWAP2 PUSH1 0x16 PUSH22 0x125B9D985B1A59081B5A5B9A5B5D5B481BDD5D1C1D5D PUSH1 0x52 SHL SWAP3 PUSH1 0x20 DUP14 MLOAD SWAP6 PUSH3 0x461BCD PUSH1 0xE5 SHL DUP8 MSTORE DUP7 ADD MSTORE DUP5 ADD MSTORE DUP3 ADD MSTORE REVERT JUMPDEST DUP5 SWAP2 PUSH1 0x14 PUSH20 0x125B9D985B1A59081A5B9C1D5D08185B5BDD5B9D PUSH1 0x62 SHL SWAP3 PUSH1 0x20 DUP14 MLOAD SWAP6 PUSH3 0x461BCD PUSH1 0xE5 SHL DUP8 MSTORE DUP7 ADD MSTORE DUP5 ADD MSTORE DUP3 ADD MSTORE REVERT JUMPDEST DUP5 SWAP2 PUSH1 0xB PUSH11 0x53616D6520746F6B656E73 PUSH1 0xA8 SHL SWAP3 PUSH1 0x20 DUP14 MLOAD SWAP6 PUSH3 0x461BCD PUSH1 0xE5 SHL DUP8 MSTORE DUP7 ADD MSTORE DUP5 ADD MSTORE DUP3 ADD MSTORE REVERT JUMPDEST DUP5 SWAP2 PUSH1 0x14 PUSH20 0x24B73B30B634B21037BABA383ABA103A37B5B2B7 PUSH1 0x61 SHL SWAP3 PUSH1 0x20 DUP14 MLOAD SWAP6 PUSH3 0x461BCD PUSH1 0xE5 SHL DUP8 MSTORE DUP7 ADD MSTORE DUP5 ADD MSTORE DUP3 ADD MSTORE REVERT JUMPDEST POP DUP6 DUP6 SLOAD AND DUP9 EQ PUSH2 0x899 JUMP JUMPDEST POP DUP5 SWAP2 PUSH1 0x13 PUSH19 0x24B73B30B634B21034B7383ABA103A37B5B2B7 PUSH1 0x69 SHL SWAP3 PUSH1 0x20 DUP14 MLOAD SWAP6 PUSH3 0x461BCD PUSH1 0xE5 SHL DUP8 MSTORE DUP7 ADD MSTORE DUP5 ADD MSTORE DUP3 ADD MSTORE REVERT JUMPDEST POP DUP7 DUP7 SLOAD AND DUP9 EQ PUSH2 0x88B JUMP JUMPDEST DUP11 DUP1 REVERT JUMPDEST DUP9 DUP1 REVERT JUMPDEST POP POP CALLVALUE PUSH2 0x824 JUMPI DUP2 PUSH1 0x3 NOT CALLDATASIZE ADD SLT PUSH2 0x824 JUMPI SWAP1 SLOAD SWAP1 MLOAD PUSH1 0x1 PUSH1 0x1 PUSH1 0xA0 SHL SUB SWAP1 SWAP2 AND DUP2 MSTORE PUSH1 0x20 SWAP1 RETURN JUMPDEST POP DUP3 SWAP1 CALLVALUE PUSH2 0x824 JUMPI PUSH2 0xCB4 CALLDATASIZE PUSH2 0x10B4 JUMP JUMPDEST SWAP4 SWAP2 SWAP1 SWAP3 PUSH2 0xCC0 PUSH2 0x1289 JUMP JUMPDEST PUSH2 0xCC8 PUSH2 0x12AC JUMP JUMPDEST DUP2 ISZERO SWAP3 PUSH2 0xCD5 DUP5 ISZERO PUSH2 0x10CE JUMP JUMPDEST CALLER DUP2 MSTORE PUSH1 0x20 SWAP4 PUSH1 0x9 DUP6 MSTORE PUSH2 0xCEE DUP5 DUP10 DUP5 KECCAK256 SLOAD LT ISZERO PUSH2 0x1113 JUMP JUMPDEST PUSH2 0xE87 JUMPI DUP5 ISZERO ISZERO DUP1 PUSH2 0xE7E JUMPI JUMPDEST ISZERO PUSH2 0xE3B JUMPI PUSH2 0xD0C PUSH1 0x5 SLOAD DUP5 PUSH2 0x1156 JUMP JUMPDEST SWAP6 PUSH2 0xD2A PUSH2 0xD1D PUSH1 0x7 SLOAD DUP1 SWAP10 PUSH2 0x117F JUMP JUMPDEST SWAP8 PUSH2 0x4A0 PUSH1 0x6 SLOAD DUP8 PUSH2 0x1156 JUMP JUMPDEST SWAP6 DUP8 LT ISZERO SWAP1 DUP2 PUSH2 0xE30 JUMPI JUMPDEST POP ISZERO PUSH2 0xDF6 JUMPI PUSH2 0xD85 SWAP2 DUP8 DUP7 SWAP3 CALLER DUP2 MSTORE PUSH1 0x9 DUP8 MSTORE KECCAK256 PUSH2 0xD55 DUP6 DUP3 SLOAD PUSH2 0x119F JUMP JUMPDEST SWAP1 SSTORE PUSH2 0xD63 DUP5 PUSH1 0x7 SLOAD PUSH2 0x119F JUMP JUMPDEST PUSH1 0x7 SSTORE PUSH1 0x1 DUP1 PUSH1 0xA0 SHL SUB PUSH2 0xD7C DUP9 CALLER DUP4 PUSH1 0x3 SLOAD AND PUSH2 0x12CA JUMP JUMPDEST CALLER SWAP2 SLOAD AND PUSH2 0x12CA JUMP JUMPDEST PUSH2 0xD91 DUP5 PUSH1 0x5 SLOAD PUSH2 0x119F JUMP JUMPDEST PUSH1 0x5 SSTORE PUSH2 0xDA0 DUP4 PUSH1 0x6 SLOAD PUSH2 0x119F JUMP JUMPDEST PUSH1 0x6 SSTORE PUSH32 0x1DC8BB69DF2B8E91FBDCBFCF93D951B3F0000F085A95FE3F7946D6161439245D DUP6 MLOAD DUP1 PUSH2 0xDE5 CALLER SWAP5 DUP8 DUP10 DUP5 PUSH1 0x40 SWAP2 SWAP5 SWAP4 SWAP3 PUSH1 0x60 DUP3 ADD SWAP6 DUP3 MSTORE PUSH1 0x20 DUP3 ADD MSTORE ADD MSTORE JUMP JUMPDEST SUB SWAP1 LOG2 PUSH1 0x1 DUP1 SSTORE DUP4 MLOAD SWAP3 DUP4 MSTORE DUP3 ADD MSTORE RETURN JUMPDEST DUP7 MLOAD PUSH3 0x461BCD PUSH1 0xE5 SHL DUP2 MSTORE DUP1 DUP4 ADD DUP6 SWAP1 MSTORE PUSH1 0x14 PUSH1 0x24 DUP3 ADD MSTORE PUSH20 0x496E73756666696369656E7420616D6F756E7473 PUSH1 0x60 SHL PUSH1 0x44 DUP3 ADD MSTORE PUSH1 0x64 SWAP1 REVERT JUMPDEST SWAP1 POP DUP6 LT ISZERO DUP9 PUSH2 0xD35 JUMP JUMPDEST DUP7 MLOAD PUSH3 0x461BCD PUSH1 0xE5 SHL DUP2 MSTORE DUP1 DUP4 ADD DUP6 SWAP1 MSTORE PUSH1 0x17 PUSH1 0x24 DUP3 ADD MSTORE PUSH32 0x496E76616C6964206D696E696D756D20616D6F756E7473000000000000000000 PUSH1 0x44 DUP3 ADD MSTORE PUSH1 0x64 SWAP1 REVERT JUMPDEST POP DUP6 ISZERO ISZERO PUSH2 0xCFB JUMP JUMPDEST DUP7 MLOAD PUSH3 0x461BCD PUSH1 0xE5 SHL DUP2 MSTORE DUP1 DUP4 ADD DUP6 SWAP1 MSTORE PUSH1 0x18 PUSH1 0x24 DUP3 ADD MSTORE PUSH32 0x496E76616C6964206C697175696469747920616D6F756E740000000000000000 PUSH1 0x44 DUP3 ADD MSTORE PUSH1 0x64 SWAP1 REVERT JUMPDEST POP POP CALLVALUE PUSH2 0x824 JUMPI DUP2 PUSH1 0x3 NOT CALLDATASIZE ADD SLT PUSH2 0x824 JUMPI PUSH1 0x20 PUSH32 0x62E78CEA01BEE320CD4E420270B5EA74000D11B0C9F74754EBDBFC544B05A258 SWAP2 PUSH2 0xF08 PUSH2 0x125D JUMP JUMPDEST PUSH2 0xF10 PUSH2 0x12AC JUMP JUMPDEST PUSH1 0x1 PUSH1 0xFF NOT PUSH1 0x2 SLOAD AND OR PUSH1 0x2 SSTORE MLOAD CALLER DUP2 MSTORE LOG1 DUP1 RETURN JUMPDEST DUP4 CALLVALUE PUSH2 0x7FE JUMPI DUP1 PUSH1 0x3 NOT CALLDATASIZE ADD SLT PUSH2 0x7FE JUMPI PUSH2 0xF3E PUSH2 0x125D JUMP JUMPDEST DUP1 SLOAD PUSH1 0x1 PUSH1 0x1 PUSH1 0xA0 SHL SUB NOT DUP2 AND DUP3 SSTORE DUP2 SWAP1 PUSH1 0x1 PUSH1 0x1 PUSH1 0xA0 SHL SUB AND PUSH32 0x8BE0079C531659141344CD1FD0A4F28419497F9722A3DAAFE3B4186F6B6457E0 DUP3 DUP1 LOG3 DUP1 RETURN JUMPDEST POP POP CALLVALUE PUSH2 0x824 JUMPI DUP2 PUSH1 0x3 NOT CALLDATASIZE ADD SLT PUSH2 0x824 JUMPI PUSH1 0x20 SWAP1 PUSH1 0xFF PUSH1 0x2 SLOAD AND SWAP1 MLOAD SWAP1 ISZERO ISZERO DUP2 MSTORE RETURN JUMPDEST POP CALLVALUE PUSH2 0x12C JUMPI DUP3 PUSH1 0x3 NOT CALLDATASIZE ADD SLT PUSH2 0x12C JUMPI PUSH2 0xFBC PUSH2 0x125D JUMP JUMPDEST PUSH1 0x2 SLOAD SWAP1 PUSH1 0xFF DUP3 AND ISZERO PUSH2 0xFFE JUMPI POP PUSH1 0xFF NOT AND PUSH1 0x2 SSTORE MLOAD CALLER DUP2 MSTORE PUSH32 0x5DB9EE0A495BF2E6FF9C91A7834C1BA4FDD244A5E8AA4E537BD38AEAE4B073AA SWAP1 PUSH1 0x20 SWAP1 LOG1 DUP1 RETURN JUMPDEST DUP3 MLOAD PUSH4 0x8DFC202B PUSH1 0xE0 SHL DUP2 MSTORE REVERT JUMPDEST POP POP CALLVALUE PUSH2 0x824 JUMPI PUSH1 0x20 CALLDATASIZE PUSH1 0x3 NOT ADD SLT PUSH2 0x824 JUMPI PUSH1 0x20 SWAP2 DUP2 SWAP1 PUSH1 0x1 PUSH1 0x1 PUSH1 0xA0 SHL SUB PUSH2 0x1034 PUSH2 0x1099 JUMP JUMPDEST AND DUP2 MSTORE PUSH1 0x9 DUP5 MSTORE KECCAK256 SLOAD SWAP1 MLOAD SWAP1 DUP2 MSTORE RETURN JUMPDEST SWAP3 SWAP1 POP CALLVALUE PUSH2 0x1095 JUMPI DUP4 PUSH1 0x3 NOT CALLDATASIZE ADD SLT PUSH2 0x1095 JUMPI PUSH1 0xC0 SWAP4 POP PUSH1 0x1 DUP1 PUSH1 0xA0 SHL SUB DUP1 PUSH1 0x3 SLOAD AND SWAP3 SLOAD AND SWAP1 PUSH1 0x5 SLOAD PUSH1 0x6 SLOAD SWAP2 PUSH1 0x7 SLOAD SWAP4 PUSH1 0x8 SLOAD SWAP6 DUP8 MSTORE PUSH1 0x20 DUP8 ADD MSTORE DUP6 ADD MSTORE PUSH1 0x60 DUP5 ADD MSTORE PUSH1 0x80 DUP4 ADD MSTORE PUSH1 0xA0 DUP3 ADD MSTORE RETURN JUMPDEST DUP4 DUP1 REVERT JUMPDEST PUSH1 0x4 CALLDATALOAD SWAP1 PUSH1 0x1 PUSH1 0x1 PUSH1 0xA0 SHL SUB DUP3 AND DUP3 SUB PUSH2 0x10AF JUMPI JUMP JUMPDEST PUSH1 0x0 DUP1 REVERT JUMPDEST PUSH1 0x60 SWAP1 PUSH1 0x3 NOT ADD SLT PUSH2 0x10AF JUMPI PUSH1 0x4 CALLDATALOAD SWAP1 PUSH1 0x24 CALLDATALOAD SWAP1 PUSH1 0x44 CALLDATALOAD SWAP1 JUMP JUMPDEST ISZERO PUSH2 0x10D5 JUMPI JUMP JUMPDEST PUSH1 0x40 MLOAD PUSH3 0x461BCD PUSH1 0xE5 SHL DUP2 MSTORE PUSH1 0x20 PUSH1 0x4 DUP3 ADD MSTORE PUSH1 0x16 PUSH1 0x24 DUP3 ADD MSTORE PUSH22 0x496E73756666696369656E74206C6971756964697479 PUSH1 0x50 SHL PUSH1 0x44 DUP3 ADD MSTORE PUSH1 0x64 SWAP1 REVERT JUMPDEST ISZERO PUSH2 0x111A JUMPI JUMP JUMPDEST PUSH1 0x40 MLOAD PUSH3 0x461BCD PUSH1 0xE5 SHL DUP2 MSTORE PUSH1 0x20 PUSH1 0x4 DUP3 ADD MSTORE PUSH1 0x14 PUSH1 0x24 DUP3 ADD MSTORE PUSH20 0x496E73756666696369656E742062616C616E6365 PUSH1 0x60 SHL PUSH1 0x44 DUP3 ADD MSTORE PUSH1 0x64 SWAP1 REVERT JUMPDEST DUP2 DUP2 MUL SWAP3 SWAP2 DUP2 ISZERO SWAP2 DUP5 DIV EQ OR ISZERO PUSH2 0x1169 JUMPI JUMP JUMPDEST PUSH4 0x4E487B71 PUSH1 0xE0 SHL PUSH1 0x0 MSTORE PUSH1 0x11 PUSH1 0x4 MSTORE PUSH1 0x24 PUSH1 0x0 REVERT JUMPDEST DUP2 ISZERO PUSH2 0x1189 JUMPI DIV SWAP1 JUMP JUMPDEST PUSH4 0x4E487B71 PUSH1 0xE0 SHL PUSH1 0x0 MSTORE PUSH1 0x12 PUSH1 0x4 MSTORE PUSH1 0x24 PUSH1 0x0 REVERT JUMPDEST SWAP2 SWAP1 DUP3 SUB SWAP2 DUP3 GT PUSH2 0x1169 JUMPI JUMP JUMPDEST SWAP1 PUSH1 0x1F DUP1 NOT SWAP2 ADD AND DUP2 ADD SWAP1 DUP2 LT PUSH8 0xFFFFFFFFFFFFFFFF DUP3 GT OR PUSH2 0x11CE JUMPI PUSH1 0x40 MSTORE JUMP JUMPDEST PUSH4 0x4E487B71 PUSH1 0xE0 SHL PUSH1 0x0 MSTORE PUSH1 0x41 PUSH1 0x4 MSTORE PUSH1 0x24 PUSH1 0x0 REVERT JUMPDEST SWAP2 SWAP1 DUP3 ADD DUP1 SWAP3 GT PUSH2 0x1169 JUMPI JUMP JUMPDEST DUP1 ISZERO PUSH2 0x1222 JUMPI PUSH2 0x1216 SWAP3 PUSH2 0x4A0 SWAP2 DUP4 ISZERO ISZERO DUP1 PUSH2 0x1219 JUMPI JUMPDEST PUSH2 0x1211 SWAP1 PUSH2 0x10CE JUMP JUMPDEST PUSH2 0x1156 JUMP JUMPDEST SWAP1 JUMP JUMPDEST POP DUP2 ISZERO ISZERO PUSH2 0x1208 JUMP JUMPDEST PUSH1 0x40 MLOAD PUSH3 0x461BCD PUSH1 0xE5 SHL DUP2 MSTORE PUSH1 0x20 PUSH1 0x4 DUP3 ADD MSTORE PUSH1 0x13 PUSH1 0x24 DUP3 ADD MSTORE PUSH19 0x125B9CDD59999A58DA595B9D08185B5BDD5B9D PUSH1 0x6A SHL PUSH1 0x44 DUP3 ADD MSTORE PUSH1 0x64 SWAP1 REVERT JUMPDEST PUSH1 0x0 SLOAD PUSH1 0x1 PUSH1 0x1 PUSH1 0xA0 SHL SUB AND CALLER SUB PUSH2 0x1271 JUMPI JUMP JUMPDEST PUSH1 0x40 MLOAD PUSH4 0x118CDAA7 PUSH1 0xE0 SHL DUP2 MSTORE CALLER PUSH1 0x4 DUP3 ADD MSTORE PUSH1 0x24 SWAP1 REVERT JUMPDEST PUSH1 0x2 PUSH1 0x1 SLOAD EQ PUSH2 0x129A JUMPI PUSH1 0x2 PUSH1 0x1 SSTORE JUMP JUMPDEST PUSH1 0x40 MLOAD PUSH4 0x3EE5AEB5 PUSH1 0xE0 SHL DUP2 MSTORE PUSH1 0x4 SWAP1 REVERT JUMPDEST PUSH1 0xFF PUSH1 0x2 SLOAD AND PUSH2 0x12B8 JUMPI JUMP JUMPDEST PUSH1 0x40 MLOAD PUSH4 0xD93C0665 PUSH1 0xE0 SHL DUP2 MSTORE PUSH1 0x4 SWAP1 REVERT JUMPDEST PUSH1 0x40 MLOAD PUSH4 0xA9059CBB PUSH1 0xE0 SHL PUSH1 0x20 DUP3 ADD MSTORE PUSH1 0x1 PUSH1 0x1 PUSH1 0xA0 SHL SUB SWAP1 SWAP3 AND PUSH1 0x24 DUP4 ADD MSTORE PUSH1 0x44 DUP1 DUP4 ADD SWAP4 SWAP1 SWAP4 MSTORE SWAP2 DUP2 MSTORE PUSH1 0x80 DUP2 ADD SWAP2 PUSH8 0xFFFFFFFFFFFFFFFF DUP4 GT DUP3 DUP5 LT OR PUSH2 0x11CE JUMPI PUSH2 0x131A SWAP3 PUSH1 0x40 MSTORE PUSH2 0x1371 JUMP JUMPDEST JUMP JUMPDEST PUSH1 0x40 MLOAD PUSH4 0x23B872DD PUSH1 0xE0 SHL PUSH1 0x20 DUP3 ADD MSTORE PUSH1 0x1 PUSH1 0x1 PUSH1 0xA0 SHL SUB SWAP3 DUP4 AND PUSH1 0x24 DUP3 ADD MSTORE SWAP3 SWAP1 SWAP2 AND PUSH1 0x44 DUP4 ADD MSTORE PUSH1 0x64 DUP1 DUP4 ADD SWAP4 SWAP1 SWAP4 MSTORE SWAP2 DUP2 MSTORE PUSH1 0xA0 DUP2 ADD SWAP2 DUP2 DUP4 LT PUSH8 0xFFFFFFFFFFFFFFFF DUP5 GT OR PUSH2 0x11CE JUMPI PUSH2 0x131A SWAP3 PUSH1 0x40 MSTORE JUMPDEST SWAP1 PUSH1 0x0 PUSH1 0x20 SWAP2 DUP3 DUP2 MLOAD SWAP2 ADD DUP3 DUP6 GAS CALL ISZERO PUSH2 0x13CD JUMPI PUSH1 0x0 MLOAD RETURNDATASIZE PUSH2 0x13C4 JUMPI POP PUSH1 0x1 PUSH1 0x1 PUSH1 0xA0 SHL SUB DUP2 AND EXTCODESIZE ISZERO JUMPDEST PUSH2 0x13A2 JUMPI POP JUMP JUMPDEST PUSH1 0x40 MLOAD PUSH4 0x5274AFE7 PUSH1 0xE0 SHL DUP2 MSTORE PUSH1 0x1 PUSH1 0x1 PUSH1 0xA0 SHL SUB SWAP1 SWAP2 AND PUSH1 0x4 DUP3 ADD MSTORE PUSH1 0x24 SWAP1 REVERT JUMPDEST PUSH1 0x1 EQ ISZERO PUSH2 0x139B JUMP JUMPDEST PUSH1 0x40 MLOAD RETURNDATASIZE PUSH1 0x0 DUP3 RETURNDATACOPY RETURNDATASIZE SWAP1 REVERT INVALID LOG2 PUSH5 0x6970667358 0x22 SLT KECCAK256 0x2A 0x4F PUSH16 0xB21B639914B3D83A6271875B20B60B72 CODECOPY 0xE4 LOG2 SWAP3 0xC9 0xA7 DUP15 CALLCODE JUMPI PUSH13 0xEFDB8964736F6C634300081600 CALLER "},"methodIdentifiers":{"addLiquidity(uint256,uint256,uint256,uint256)":"aebf3e41","balances(address)":"27e235e3","owner()":"8da5cb5b","pause()":"8456cb59","paused()":"5c975abb","pool()":"16f0115b","quote(uint256,uint256,uint256)":"ad615dec","removeLiquidity(uint256,uint256,uint256)":"857620e1","renounceOwnership()":"715018a6","swap(uint256,uint256,address,address)":"93ae8809","transferOwnership(address)":"f2fde38b","unpause()":"3f4ba83a"}},"storageLayout":{"storage":[{"astId":1281,"contract":"contracts/LiquidityPool.sol:LiquidityPool","label":"_owner","offset":0,"slot":"0","type":"t_address"},{"astId":3570,"contract":"contracts/LiquidityPool.sol:LiquidityPool","label":"_status","offset":0,"slot":"1","type":"t_uint256"},{"astId":3460,"contract":"contracts/LiquidityPool.sol:LiquidityPool","label":"_paused","offset":0,"slot":"2","type":"t_bool"},{"astId":4180,"contract":"contracts/LiquidityPool.sol:LiquidityPool","label":"pool","offset":0,"slot":"3","type":"t_struct(Pool)4177_storage"},{"astId":4184,"contract":"contracts/LiquidityPool.sol:LiquidityPool","label":"balances","offset":0,"slot":"9","type":"t_mapping(t_address,t_uint256)"}],"types":{"t_address":{"encoding":"inplace","label":"address","numberOfBytes":"20"},"t_bool":{"encoding":"inplace","label":"bool","numberOfBytes":"1"},"t_contract(IERC20)2649":{"encoding":"inplace","label":"contract IERC20","numberOfBytes":"20"},"t_mapping(t_address,t_uint256)":{"encoding":"mapping","key":"t_address","label":"mapping(address => uint256)","numberOfBytes":"32","value":"t_uint256"},"t_struct(Pool)4177_storage":{"encoding":"inplace","label":"struct LiquidityPool.Pool","members":[{"astId":4165,"contract":"contracts/LiquidityPool.sol:LiquidityPool","label":"tokenA","offset":0,"slot":"0","type":"t_contract(IERC20)2649"},{"astId":4168,"contract":"contracts/LiquidityPool.sol:LiquidityPool","label":"tokenB","offset":0,"slot":"1","type":"t_contract(IERC20)2649"},{"astId":4170,"contract":"contracts/LiquidityPool.sol:LiquidityPool","label":"reserveA","offset":0,"slot":"2","type":"t_uint256"},{"astId":4172,"contract":"contracts/LiquidityPool.sol:LiquidityPool","label":"reserveB","offset":0,"slot":"3","type":"t_uint256"},{"astId":4174,"contract":"contracts/LiquidityPool.sol:LiquidityPool","label":"totalSupply","offset":0,"slot":"4","type":"t_uint256"},{"astId":4176,"contract":"contracts/LiquidityPool.sol:LiquidityPool","label":"fee","offset":0,"slot":"5","type":"t_uint256"}],"numberOfBytes":"192"},"t_uint256":{"encoding":"inplace","label":"uint256","numberOfBytes":"32"}}}}}}