{"contracts/SmartWallet.sol":{"SmartWallet":{"abi":[{"inputs":[],"stateMutability":"nonpayable","type":"constructor"},{"inputs":[],"name":"EnforcedPause","type":"error"},{"inputs":[],"name":"ExpectedPause","type":"error"},{"inputs":[{"internalType":"address","name":"owner","type":"address"}],"name":"OwnableInvalidOwner","type":"error"},{"inputs":[{"internalType":"address","name":"account","type":"address"}],"name":"OwnableUnauthorizedAccount","type":"error"},{"inputs":[],"name":"ReentrancyGuardReentrantCall","type":"error"},{"anonymous":false,"inputs":[{"indexed":true,"internalType":"address","name":"wallet","type":"address"},{"indexed":true,"internalType":"address","name":"guardian","type":"address"}],"name":"GuardianAdded","type":"event"},{"anonymous":false,"inputs":[{"indexed":true,"internalType":"address","name":"wallet","type":"address"},{"indexed":true,"internalType":"address","name":"guardian","type":"address"}],"name":"GuardianRemoved","type":"event"},{"anonymous":false,"inputs":[{"indexed":true,"internalType":"address","name":"wallet","type":"address"},{"indexed":false,"internalType":"uint256","name":"dailyLimit","type":"uint256"},{"indexed":false,"internalType":"uint256","name":"monthlyLimit","type":"uint256"}],"name":"LimitsUpdated","type":"event"},{"anonymous":false,"inputs":[{"indexed":true,"internalType":"address","name":"from","type":"address"},{"indexed":true,"internalType":"address","name":"to","type":"address"},{"indexed":false,"internalType":"uint256","name":"amount","type":"uint256"}],"name":"NativeTokenTransferred","type":"event"},{"anonymous":false,"inputs":[{"indexed":true,"internalType":"address","name":"previousOwner","type":"address"},{"indexed":true,"internalType":"address","name":"newOwner","type":"address"}],"name":"OwnershipTransferred","type":"event"},{"anonymous":false,"inputs":[{"indexed":false,"internalType":"address","name":"account","type":"address"}],"name":"Paused","type":"event"},{"anonymous":false,"inputs":[{"indexed":true,"internalType":"address","name":"from","type":"address"},{"indexed":true,"internalType":"address","name":"to","type":"address"},{"indexed":false,"internalType":"address","name":"token","type":"address"},{"indexed":false,"internalType":"uint256","name":"amount","type":"uint256"}],"name":"TokensTransferred","type":"event"},{"anonymous":false,"inputs":[{"indexed":false,"internalType":"address","name":"account","type":"address"}],"name":"Unpaused","type":"event"},{"anonymous":false,"inputs":[{"indexed":true,"internalType":"address","name":"owner","type":"address"},{"indexed":false,"internalType":"address","name":"wallet","type":"address"}],"name":"WalletCreated","type":"event"},{"inputs":[],"name":"MAX_GUARDIANS","outputs":[{"internalType":"uint256","name":"","type":"uint256"}],"stateMutability":"view","type":"function"},{"inputs":[],"name":"MAX_TRANSACTIONS_PER_PERIOD","outputs":[{"internalType":"uint256","name":"","type":"uint256"}],"stateMutability":"view","type":"function"},{"inputs":[],"name":"RATE_LIMIT_PERIOD","outputs":[{"internalType":"uint256","name":"","type":"uint256"}],"stateMutability":"view","type":"function"},{"inputs":[{"internalType":"address","name":"guardian","type":"address"}],"name":"addGuardian","outputs":[],"stateMutability":"nonpayable","type":"function"},{"inputs":[{"internalType":"uint256","name":"initialLimit","type":"uint256"}],"name":"createWallet","outputs":[],"stateMutability":"nonpayable","type":"function"},{"inputs":[],"name":"owner","outputs":[{"internalType":"address","name":"","type":"address"}],"stateMutability":"view","type":"function"},{"inputs":[],"name":"pause","outputs":[],"stateMutability":"nonpayable","type":"function"},{"inputs":[],"name":"paused","outputs":[{"internalType":"bool","name":"","type":"bool"}],"stateMutability":"view","type":"function"},{"inputs":[{"internalType":"address","name":"guardian","type":"address"}],"name":"removeGuardian","outputs":[],"stateMutability":"nonpayable","type":"function"},{"inputs":[{"internalType":"address","name":"token","type":"address"}],"name":"removeTokenFromWhitelist","outputs":[],"stateMutability":"nonpayable","type":"function"},{"inputs":[],"name":"renounceOwnership","outputs":[],"stateMutability":"nonpayable","type":"function"},{"inputs":[{"internalType":"address payable","name":"to","type":"address"}],"name":"transferNative","outputs":[],"stateMutability":"payable","type":"function"},{"inputs":[{"internalType":"address","name":"newOwner","type":"address"}],"name":"transferOwnership","outputs":[],"stateMutability":"nonpayable","type":"function"},{"inputs":[{"internalType":"address","name":"token","type":"address"},{"internalType":"address","name":"to","type":"address"},{"internalType":"uint256","name":"amount","type":"uint256"}],"name":"transferTokens","outputs":[],"stateMutability":"nonpayable","type":"function"},{"inputs":[],"name":"unpause","outputs":[],"stateMutability":"nonpayable","type":"function"},{"inputs":[{"internalType":"address","name":"wallet","type":"address"},{"internalType":"uint256","name":"newDailyLimit","type":"uint256"},{"internalType":"uint256","name":"newMonthlyLimit","type":"uint256"}],"name":"updateLimits","outputs":[],"stateMutability":"nonpayable","type":"function"},{"inputs":[{"internalType":"bytes32","name":"","type":"bytes32"}],"name":"usedSignatures","outputs":[{"internalType":"bool","name":"","type":"bool"}],"stateMutability":"view","type":"function"},{"inputs":[{"internalType":"address","name":"","type":"address"}],"name":"wallets","outputs":[{"internalType":"bool","name":"exists","type":"bool"},{"internalType":"uint256","name":"dailyLimit","type":"uint256"},{"internalType":"uint256","name":"monthlyLimit","type":"uint256"},{"internalType":"uint256","name":"dailySpent","type":"uint256"},{"internalType":"uint256","name":"monthlySpent","type":"uint256"},{"internalType":"uint256","name":"lastDayReset","type":"uint256"},{"internalType":"uint256","name":"lastMonthReset","type":"uint256"},{"internalType":"uint256","name":"guardiansCount","type":"uint256"}],"stateMutability":"view","type":"function"},{"inputs":[{"internalType":"address","name":"token","type":"address"}],"name":"whitelistToken","outputs":[],"stateMutability":"nonpayable","type":"function"},{"inputs":[{"internalType":"address","name":"","type":"address"}],"name":"whitelistedTokens","outputs":[{"internalType":"bool","name":"","type":"bool"}],"stateMutability":"view","type":"function"}],"evm":{"bytecode":{"linkReferences":{},"object":"608080604052346100d15733156100bb5760008054336001600160a01b03198216811783556040519290916001600160a01b0316907f8be0079c531659141344cd1fd0a4f28419497f9722a3daafe3b4186f6b6457e09080a3600180556002549060ff82166100ac5760018260ff1916176002557f62e78cea01bee320cd4e420270b5ea74000d11b0c9f74754ebdbfc544b05a2586020604051338152a16040516113ae90816100d78239f35b63d93c066560e01b8152600490fd5b631e4fbdf760e01b815260006004820152602490fd5b600080fdfe6040608081526004908136101561001557600080fd5b600091823560e01c8063306275be14610e495780633f4ba83a14610de0578063422c1d3714610dc457806358abfbdf14610da85780635c975abb14610d845780636247f6f214610d395780637140415614610c24578063715018a614610bc75780637a675bb614610a635780638456cb5914610a0857806389b08f11146109805780638da5cb5b14610958578063a526c5f0146107a2578063a526d83b14610618578063a64b6e5f1461030c578063b7b188d1146102ec578063cf4c34a6146101ee578063daf9c210146101b2578063f2fde38b1461012c5763f978fd61146100fd57600080fd5b34610128576020366003190112610128578160209360ff923581526005855220541690519015158152f35b8280fd5b503461012857602036600319011261012857610146610e91565b9061014f61116a565b6001600160a01b0391821692831561019c57505082546001600160a01b0319811683178455167f8be0079c531659141344cd1fd0a4f28419497f9722a3daafe3b4186f6b6457e08380a380f35b51631e4fbdf760e01b8152908101849052602490fd5b50346101285760203660031901126101285760209260ff918391906001600160a01b036101dd610e91565b168252855220541690519015158152f35b50903461012857606036600319011261012857610209610e91565b602435906044359061021961116a565b6001600160a01b031680865260036020528386205490949061023d9060ff16610ee8565b601e8302838104601e14841517156102d957821061029e5750907fdc679119ed8c7f3e58938f78968a044a7d8f8ab9d80398506c4289c318a5e3ee92918486526003602052806002848820846001820155015582519182526020820152a280f35b606490602085519162461bcd60e51b83528201526015602482015274125b9d985b1a59081b5bdb9d1a1b1e481b1a5b5a5d605a1b6044820152fd5b634e487b7160e01b875260118252602487fd5b50503461030857816003193601126103085760209051603c8152f35b5080fd5b503461012857606036600319011261012857610326610e91565b6001600160a01b0360248035828116959294908690036104e857604480359261034d611196565b6103556111b9565b3389526020956003875261036e60ff878c205416610ee8565b61038061037b86336111e4565b610f2c565b61039161038c336112b9565b610f78565b8815159761039e89610fba565b308a1415916103ac83610ff8565b1697888b5284885260ff878c205416156105df57906103cd6103d292611044565b611084565b6103dd8415156110d0565b84516370a0823160e01b81523384820152868183818b5afa90811561056c579085918b916105ae575b5010610576578451636eb1769f60e11b815233848201523082820152868184818b5afa90811561056c579085918b91610537575b50106104fd57908784928651946323b872dd60e01b8652339086015284015282015283816064818a895af180156104f3576104b8575b507f70c5f97fd0068e96984b8116fe83eefbff3b91244565bf311a3cba619b4ecbc79261049d82336112f8565b6104a633611330565b82519485528401523392a36001805580f35b8381813d83116104ec575b6104cd818361110d565b810103126104e85751801515036104e45738610470565b8580fd5b8680fd5b503d6104c3565b83513d89823e3d90fd5b845162461bcd60e51b815292830186905260169083015275496e73756666696369656e7420616c6c6f77616e636560501b90820152606490fd5b809250888092503d8311610565575b610550818361110d565b81010312610561578490513861043a565b8980fd5b503d610546565b86513d8c823e3d90fd5b845162461bcd60e51b815292830186905260149083015273496e73756666696369656e742062616c616e636560601b90820152606490fd5b809250888092503d83116105d8575b6105c7818361110d565b810103126105615784905138610406565b503d6105bd565b865162461bcd60e51b815280860189905260158185015274151bdad95b881b9bdd081dda1a5d195b1a5cdd1959605a1b81860152606490fd5b50829034610308576020928360031936011261012857610636610e91565b33845260039081865261064e60ff8487205416610ee8565b6001600160a01b031692831561076c57338552818652600783862001848652865260ff838620541661072957338552818652816008848720015410156106ee575060089293943386528181526007838720018587528152828620600160ff19825416179055338652528320016106c48154611145565b9055337fbc3292102fa77e083913064b282926717cdfaede4d35f553d66366c0a3da755a8380a380f35b825162461bcd60e51b8152908101869052601560248201527413585e0819dd585c991a585b9cc81c995858da1959605a1b6044820152606490fd5b825162461bcd60e51b8152908101869052601760248201527f477561726469616e20616c7265616479206578697374730000000000000000006044820152606490fd5b825162461bcd60e51b8152908101869052601060248201526f24b73b30b634b21033bab0b93234b0b760811b6044820152606490fd5b5090602090816003193601126109545782356001600160a01b0381169390849003610950576107cf611196565b6107d76111b9565b338552600383526107ed60ff8387205416610ee8565b6107fa61037b34336111e4565b61080661038c336112b9565b61082b84151561081581610fba565b6103cd308714159161082683610ff8565b611044565b6108363415156110d0565b34471061090f578480808034885af13d1561090a573d67ffffffffffffffff81116108f757835190610871601f8201601f191687018361110d565b815286853d92013e5b156108c457507f011c182fcc25e52151bf452608f627a605269882587c25b326e9eb16819557b6906108ac34336112f8565b6108b533611330565b51913483523392a36001805580f35b82606492519162461bcd60e51b8352820152600f60248201526e151c985b9cd9995c8819985a5b1959608a1b6044820152fd5b634e487b7160e01b875260418352602487fd5b61087a565b82606492519162461bcd60e51b8352820152601d60248201527f496e73756666696369656e7420636f6e74726163742062616c616e63650000006044820152fd5b8480fd5b8380fd5b505034610308578160031936011261030857905490516001600160a01b039091168152602090f35b5034610128576020366003190112610128576101009282906001600160a01b036109a8610e91565b16815260036020522060ff815416926001820154926002830154906003840154908401549160058501549360086006870154960154968151981515895260208901528701526060860152608085015260a084015260c083015260e0820152f35b50503461030857816003193601126103085760207f62e78cea01bee320cd4e420270b5ea74000d11b0c9f74754ebdbfc544b05a25891610a4661116a565b610a4e6111b9565b600160ff19600254161760025551338152a180f35b509190346103085760209081600319360112610128578335323303610b8c573384526003835260ff8285205416610b51578015610b16573384526003835281842090600160ff19835416178255806001830155601e8102908104601e03610b0357600282015542600582018190556006909101555133808252917f5b03bfed1c14a02bdeceb5fa582eb1a5765fc0bc64ca0e6af4c20afc9487f08191a280f35b634e487b7160e01b855260118652602485fd5b815162461bcd60e51b81528086018490526015602482015274125b9d985b1a59081a5b9a5d1a585b081b1a5b5a5d605a1b6044820152606490fd5b815162461bcd60e51b8152808601849052601560248201527457616c6c657420616c72656164792065786973747360581b6044820152606490fd5b815162461bcd60e51b8152808601849052601560248201527410dbdb9d1c9858dd1cc81b9bdd08185b1b1bddd959605a1b6044820152606490fd5b8334610c215780600319360112610c2157610be061116a565b80546001600160a01b03198116825581906001600160a01b03167f8be0079c531659141344cd1fd0a4f28419497f9722a3daafe3b4186f6b6457e08280a380f35b80fd5b5034610128576020918260031936011261095457610c40610e91565b9233855260038152610c5760ff8387205416610ee8565b338552600381528185206001600160a01b0390941680865260079490940181528185205460ff1615610cf8573380865260038083528387208688526007018352838720805460ff1916905590865290528320600801805490918115610ce55750600019019055337fee943cdb81826d5909c559c6b1ae6908fcaf2dbc16c4b730346736b486283e8b8380a380f35b634e487b7160e01b855260119052602484fd5b905162461bcd60e51b815291820152601760248201527f477561726469616e20646f6573206e6f742065786973740000000000000000006044820152606490fd5b503461012857602036600319011261012857610d53610e91565b610d5b61116a565b6001600160a01b0316610d6f811515610eac565b83526020528120805460ff1916600117905580f35b50503461030857816003193601126103085760209060ff6002541690519015158152f35b50503461030857816003193601126103085760209051600a8152f35b5050346103085781600319360112610308576020905160038152f35b5034610128578260031936011261012857610df961116a565b6002549060ff821615610e3b575060ff1916600255513381527f5db9ee0a495bf2e6ff9c91a7834c1ba4fdd244a5e8aa4e537bd38aeae4b073aa90602090a180f35b8251638dfc202b60e01b8152fd5b503461012857602036600319011261012857610e63610e91565b610e6b61116a565b6001600160a01b0316610e7f811515610eac565b83526020528120805460ff1916905580f35b600435906001600160a01b0382168203610ea757565b600080fd5b15610eb357565b60405162461bcd60e51b815260206004820152600d60248201526c24b73b30b634b2103a37b5b2b760991b6044820152606490fd5b15610eef57565b60405162461bcd60e51b815260206004820152601560248201527415d85b1b195d08191bd95cc81b9bdd08195e1a5cdd605a1b6044820152606490fd5b15610f3357565b60405162461bcd60e51b815260206004820152601a60248201527f5472616e73616374696f6e2065786365656473206c696d6974730000000000006044820152606490fd5b15610f7f57565b60405162461bcd60e51b815260206004820152601360248201527214985d19481b1a5b5a5d08195e18d959591959606a1b6044820152606490fd5b15610fc157565b60405162461bcd60e51b815260206004820152600f60248201526e496e76616c6964206164647265737360881b6044820152606490fd5b15610fff57565b60405162461bcd60e51b815260206004820152601b60248201527f43616e6e6f742075736520636f6e7472616374206164647265737300000000006044820152606490fd5b1561104b57565b60405162461bcd60e51b8152602060048201526011602482015270125b9d985b1a59081c9958da5c1a595b9d607a1b6044820152606490fd5b1561108b57565b60405162461bcd60e51b815260206004820152601b60248201527f43616e6e6f74207472616e7366657220746f20636f6e747261637400000000006044820152606490fd5b156110d757565b60405162461bcd60e51b815260206004820152600e60248201526d125b9d985b1a5908185b5bdd5b9d60921b6044820152606490fd5b90601f8019910116810190811067ffffffffffffffff82111761112f57604052565b634e487b7160e01b600052604160045260246000fd5b60001981146111545760010190565b634e487b7160e01b600052601160045260246000fd5b6000546001600160a01b0316330361117e57565b60405163118cdaa760e01b8152336004820152602490fd5b6002600154146111a7576002600155565b604051633ee5aeb560e01b8152600490fd5b60ff600254166111c557565b60405163d93c066560e01b8152600490fd5b9190820180921161115457565b6001600160a01b031660009081526003602052604081206005810180549192916201518081019081106112a557421015611296575b506006820190815462278d00810180911161128257421015611273575b50506112468260038301546111d7565b60018201541015918261125857505090565b81925061126b90600460029301546111d7565b910154101590565b60048301554290553880611236565b634e487b7160e01b82526011600452602482fd5b81600384015542905538611219565b634e487b7160e01b83526011600452602483fd5b6001600160a01b031660009081526003602052604090206005810154603c8101908110611154574210156112f2576008600a9101541090565b50600190565b60018060a01b0316600052600360205261132c60046040600020600381016113218582546111d7565b9055019182546111d7565b9055565b60018060a01b03166000526003602052604060002060058101908154603c81018091116111545742106113695760086001910155429055565b600891500161132c815461114556fea2646970667358221220be49e5f2b31347b26c41d33e7a3bcd8cd0c4d4282791e914b2ed96e83579e2a664736f6c63430008160033","opcodes":"PUSH1 0x80 DUP1 PUSH1 0x40 MSTORE CALLVALUE PUSH2 0xD1 JUMPI CALLER ISZERO PUSH2 0xBB JUMPI PUSH1 0x0 DUP1 SLOAD CALLER PUSH1 0x1 PUSH1 0x1 PUSH1 0xA0 SHL SUB NOT DUP3 AND DUP2 OR DUP4 SSTORE PUSH1 0x40 MLOAD SWAP3 SWAP1 SWAP2 PUSH1 0x1 PUSH1 0x1 PUSH1 0xA0 SHL SUB AND SWAP1 PUSH32 0x8BE0079C531659141344CD1FD0A4F28419497F9722A3DAAFE3B4186F6B6457E0 SWAP1 DUP1 LOG3 PUSH1 0x1 DUP1 SSTORE PUSH1 0x2 SLOAD SWAP1 PUSH1 0xFF DUP3 AND PUSH2 0xAC JUMPI PUSH1 0x1 DUP3 PUSH1 0xFF NOT AND OR PUSH1 0x2 SSTORE PUSH32 0x62E78CEA01BEE320CD4E420270B5EA74000D11B0C9F74754EBDBFC544B05A258 PUSH1 0x20 PUSH1 0x40 MLOAD CALLER DUP2 MSTORE LOG1 PUSH1 0x40 MLOAD PUSH2 0x13AE SWAP1 DUP2 PUSH2 0xD7 DUP3 CODECOPY RETURN JUMPDEST PUSH4 0xD93C0665 PUSH1 0xE0 SHL DUP2 MSTORE PUSH1 0x4 SWAP1 REVERT JUMPDEST PUSH4 0x1E4FBDF7 PUSH1 0xE0 SHL DUP2 MSTORE PUSH1 0x0 PUSH1 0x4 DUP3 ADD MSTORE PUSH1 0x24 SWAP1 REVERT JUMPDEST PUSH1 0x0 DUP1 REVERT INVALID PUSH1 0x40 PUSH1 0x80 DUP2 MSTORE PUSH1 0x4 SWAP1 DUP2 CALLDATASIZE LT ISZERO PUSH2 0x15 JUMPI PUSH1 0x0 DUP1 REVERT JUMPDEST PUSH1 0x0 SWAP2 DUP3 CALLDATALOAD PUSH1 0xE0 SHR DUP1 PUSH4 0x306275BE EQ PUSH2 0xE49 JUMPI DUP1 PUSH4 0x3F4BA83A EQ PUSH2 0xDE0 JUMPI DUP1 PUSH4 0x422C1D37 EQ PUSH2 0xDC4 JUMPI DUP1 PUSH4 0x58ABFBDF EQ PUSH2 0xDA8 JUMPI DUP1 PUSH4 0x5C975ABB EQ PUSH2 0xD84 JUMPI DUP1 PUSH4 0x6247F6F2 EQ PUSH2 0xD39 JUMPI DUP1 PUSH4 0x71404156 EQ PUSH2 0xC24 JUMPI DUP1 PUSH4 0x715018A6 EQ PUSH2 0xBC7 JUMPI DUP1 PUSH4 0x7A675BB6 EQ PUSH2 0xA63 JUMPI DUP1 PUSH4 0x8456CB59 EQ PUSH2 0xA08 JUMPI DUP1 PUSH4 0x89B08F11 EQ PUSH2 0x980 JUMPI DUP1 PUSH4 0x8DA5CB5B EQ PUSH2 0x958 JUMPI DUP1 PUSH4 0xA526C5F0 EQ PUSH2 0x7A2 JUMPI DUP1 PUSH4 0xA526D83B EQ PUSH2 0x618 JUMPI DUP1 PUSH4 0xA64B6E5F EQ PUSH2 0x30C JUMPI DUP1 PUSH4 0xB7B188D1 EQ PUSH2 0x2EC JUMPI DUP1 PUSH4 0xCF4C34A6 EQ PUSH2 0x1EE JUMPI DUP1 PUSH4 0xDAF9C210 EQ PUSH2 0x1B2 JUMPI DUP1 PUSH4 0xF2FDE38B EQ PUSH2 0x12C JUMPI PUSH4 0xF978FD61 EQ PUSH2 0xFD JUMPI PUSH1 0x0 DUP1 REVERT JUMPDEST CALLVALUE PUSH2 0x128 JUMPI PUSH1 0x20 CALLDATASIZE PUSH1 0x3 NOT ADD SLT PUSH2 0x128 JUMPI DUP2 PUSH1 0x20 SWAP4 PUSH1 0xFF SWAP3 CALLDATALOAD DUP2 MSTORE PUSH1 0x5 DUP6 MSTORE KECCAK256 SLOAD AND SWAP1 MLOAD SWAP1 ISZERO ISZERO DUP2 MSTORE RETURN JUMPDEST DUP3 DUP1 REVERT JUMPDEST POP CALLVALUE PUSH2 0x128 JUMPI PUSH1 0x20 CALLDATASIZE PUSH1 0x3 NOT ADD SLT PUSH2 0x128 JUMPI PUSH2 0x146 PUSH2 0xE91 JUMP JUMPDEST SWAP1 PUSH2 0x14F PUSH2 0x116A JUMP JUMPDEST PUSH1 0x1 PUSH1 0x1 PUSH1 0xA0 SHL SUB SWAP2 DUP3 AND SWAP3 DUP4 ISZERO PUSH2 0x19C JUMPI POP POP DUP3 SLOAD PUSH1 0x1 PUSH1 0x1 PUSH1 0xA0 SHL SUB NOT DUP2 AND DUP4 OR DUP5 SSTORE AND PUSH32 0x8BE0079C531659141344CD1FD0A4F28419497F9722A3DAAFE3B4186F6B6457E0 DUP4 DUP1 LOG3 DUP1 RETURN JUMPDEST MLOAD PUSH4 0x1E4FBDF7 PUSH1 0xE0 SHL DUP2 MSTORE SWAP1 DUP2 ADD DUP5 SWAP1 MSTORE PUSH1 0x24 SWAP1 REVERT JUMPDEST POP CALLVALUE PUSH2 0x128 JUMPI PUSH1 0x20 CALLDATASIZE PUSH1 0x3 NOT ADD SLT PUSH2 0x128 JUMPI PUSH1 0x20 SWAP3 PUSH1 0xFF SWAP2 DUP4 SWAP2 SWAP1 PUSH1 0x1 PUSH1 0x1 PUSH1 0xA0 SHL SUB PUSH2 0x1DD PUSH2 0xE91 JUMP JUMPDEST AND DUP3 MSTORE DUP6 MSTORE KECCAK256 SLOAD AND SWAP1 MLOAD SWAP1 ISZERO ISZERO DUP2 MSTORE RETURN JUMPDEST POP SWAP1 CALLVALUE PUSH2 0x128 JUMPI PUSH1 0x60 CALLDATASIZE PUSH1 0x3 NOT ADD SLT PUSH2 0x128 JUMPI PUSH2 0x209 PUSH2 0xE91 JUMP JUMPDEST PUSH1 0x24 CALLDATALOAD SWAP1 PUSH1 0x44 CALLDATALOAD SWAP1 PUSH2 0x219 PUSH2 0x116A JUMP JUMPDEST PUSH1 0x1 PUSH1 0x1 PUSH1 0xA0 SHL SUB AND DUP1 DUP7 MSTORE PUSH1 0x3 PUSH1 0x20 MSTORE DUP4 DUP7 KECCAK256 SLOAD SWAP1 SWAP5 SWAP1 PUSH2 0x23D SWAP1 PUSH1 0xFF AND PUSH2 0xEE8 JUMP JUMPDEST PUSH1 0x1E DUP4 MUL DUP4 DUP2 DIV PUSH1 0x1E EQ DUP5 ISZERO OR ISZERO PUSH2 0x2D9 JUMPI DUP3 LT PUSH2 0x29E JUMPI POP SWAP1 PUSH32 0xDC679119ED8C7F3E58938F78968A044A7D8F8AB9D80398506C4289C318A5E3EE SWAP3 SWAP2 DUP5 DUP7 MSTORE PUSH1 0x3 PUSH1 0x20 MSTORE DUP1 PUSH1 0x2 DUP5 DUP9 KECCAK256 DUP5 PUSH1 0x1 DUP3 ADD SSTORE ADD SSTORE DUP3 MLOAD SWAP2 DUP3 MSTORE PUSH1 0x20 DUP3 ADD MSTORE LOG2 DUP1 RETURN JUMPDEST PUSH1 0x64 SWAP1 PUSH1 0x20 DUP6 MLOAD SWAP2 PUSH3 0x461BCD PUSH1 0xE5 SHL DUP4 MSTORE DUP3 ADD MSTORE PUSH1 0x15 PUSH1 0x24 DUP3 ADD MSTORE PUSH21 0x125B9D985B1A59081B5BDB9D1A1B1E481B1A5B5A5D PUSH1 0x5A SHL PUSH1 0x44 DUP3 ADD MSTORE REVERT JUMPDEST PUSH4 0x4E487B71 PUSH1 0xE0 SHL DUP8 MSTORE PUSH1 0x11 DUP3 MSTORE PUSH1 0x24 DUP8 REVERT JUMPDEST POP POP CALLVALUE PUSH2 0x308 JUMPI DUP2 PUSH1 0x3 NOT CALLDATASIZE ADD SLT PUSH2 0x308 JUMPI PUSH1 0x20 SWAP1 MLOAD PUSH1 0x3C DUP2 MSTORE RETURN JUMPDEST POP DUP1 REVERT JUMPDEST POP CALLVALUE PUSH2 0x128 JUMPI PUSH1 0x60 CALLDATASIZE PUSH1 0x3 NOT ADD SLT PUSH2 0x128 JUMPI PUSH2 0x326 PUSH2 0xE91 JUMP JUMPDEST PUSH1 0x1 PUSH1 0x1 PUSH1 0xA0 SHL SUB PUSH1 0x24 DUP1 CALLDATALOAD DUP3 DUP2 AND SWAP6 SWAP3 SWAP5 SWAP1 DUP7 SWAP1 SUB PUSH2 0x4E8 JUMPI PUSH1 0x44 DUP1 CALLDATALOAD SWAP3 PUSH2 0x34D PUSH2 0x1196 JUMP JUMPDEST PUSH2 0x355 PUSH2 0x11B9 JUMP JUMPDEST CALLER DUP10 MSTORE PUSH1 0x20 SWAP6 PUSH1 0x3 DUP8 MSTORE PUSH2 0x36E PUSH1 0xFF DUP8 DUP13 KECCAK256 SLOAD AND PUSH2 0xEE8 JUMP JUMPDEST PUSH2 0x380 PUSH2 0x37B DUP7 CALLER PUSH2 0x11E4 JUMP JUMPDEST PUSH2 0xF2C JUMP JUMPDEST PUSH2 0x391 PUSH2 0x38C CALLER PUSH2 0x12B9 JUMP JUMPDEST PUSH2 0xF78 JUMP JUMPDEST DUP9 ISZERO ISZERO SWAP8 PUSH2 0x39E DUP10 PUSH2 0xFBA JUMP JUMPDEST ADDRESS DUP11 EQ ISZERO SWAP2 PUSH2 0x3AC DUP4 PUSH2 0xFF8 JUMP JUMPDEST AND SWAP8 DUP9 DUP12 MSTORE DUP5 DUP9 MSTORE PUSH1 0xFF DUP8 DUP13 KECCAK256 SLOAD AND ISZERO PUSH2 0x5DF JUMPI SWAP1 PUSH2 0x3CD PUSH2 0x3D2 SWAP3 PUSH2 0x1044 JUMP JUMPDEST PUSH2 0x1084 JUMP JUMPDEST PUSH2 0x3DD DUP5 ISZERO ISZERO PUSH2 0x10D0 JUMP JUMPDEST DUP5 MLOAD PUSH4 0x70A08231 PUSH1 0xE0 SHL DUP2 MSTORE CALLER DUP5 DUP3 ADD MSTORE DUP7 DUP2 DUP4 DUP2 DUP12 GAS STATICCALL SWAP1 DUP2 ISZERO PUSH2 0x56C JUMPI SWAP1 DUP6 SWAP2 DUP12 SWAP2 PUSH2 0x5AE JUMPI JUMPDEST POP LT PUSH2 0x576 JUMPI DUP5 MLOAD PUSH4 0x6EB1769F PUSH1 0xE1 SHL DUP2 MSTORE CALLER DUP5 DUP3 ADD MSTORE ADDRESS DUP3 DUP3 ADD MSTORE DUP7 DUP2 DUP5 DUP2 DUP12 GAS STATICCALL SWAP1 DUP2 ISZERO PUSH2 0x56C JUMPI SWAP1 DUP6 SWAP2 DUP12 SWAP2 PUSH2 0x537 JUMPI JUMPDEST POP LT PUSH2 0x4FD JUMPI SWAP1 DUP8 DUP5 SWAP3 DUP7 MLOAD SWAP5 PUSH4 0x23B872DD PUSH1 0xE0 SHL DUP7 MSTORE CALLER SWAP1 DUP7 ADD MSTORE DUP5 ADD MSTORE DUP3 ADD MSTORE DUP4 DUP2 PUSH1 0x64 DUP2 DUP11 DUP10 GAS CALL DUP1 ISZERO PUSH2 0x4F3 JUMPI PUSH2 0x4B8 JUMPI JUMPDEST POP PUSH32 0x70C5F97FD0068E96984B8116FE83EEFBFF3B91244565BF311A3CBA619B4ECBC7 SWAP3 PUSH2 0x49D DUP3 CALLER PUSH2 0x12F8 JUMP JUMPDEST PUSH2 0x4A6 CALLER PUSH2 0x1330 JUMP JUMPDEST DUP3 MLOAD SWAP5 DUP6 MSTORE DUP5 ADD MSTORE CALLER SWAP3 LOG3 PUSH1 0x1 DUP1 SSTORE DUP1 RETURN JUMPDEST DUP4 DUP2 DUP2 RETURNDATASIZE DUP4 GT PUSH2 0x4EC JUMPI JUMPDEST PUSH2 0x4CD DUP2 DUP4 PUSH2 0x110D JUMP JUMPDEST DUP2 ADD SUB SLT PUSH2 0x4E8 JUMPI MLOAD DUP1 ISZERO ISZERO SUB PUSH2 0x4E4 JUMPI CODESIZE PUSH2 0x470 JUMP JUMPDEST DUP6 DUP1 REVERT JUMPDEST DUP7 DUP1 REVERT JUMPDEST POP RETURNDATASIZE PUSH2 0x4C3 JUMP JUMPDEST DUP4 MLOAD RETURNDATASIZE DUP10 DUP3 RETURNDATACOPY RETURNDATASIZE SWAP1 REVERT JUMPDEST DUP5 MLOAD PUSH3 0x461BCD PUSH1 0xE5 SHL DUP2 MSTORE SWAP3 DUP4 ADD DUP7 SWAP1 MSTORE PUSH1 0x16 SWAP1 DUP4 ADD MSTORE PUSH22 0x496E73756666696369656E7420616C6C6F77616E6365 PUSH1 0x50 SHL SWAP1 DUP3 ADD MSTORE PUSH1 0x64 SWAP1 REVERT JUMPDEST DUP1 SWAP3 POP DUP9 DUP1 SWAP3 POP RETURNDATASIZE DUP4 GT PUSH2 0x565 JUMPI JUMPDEST PUSH2 0x550 DUP2 DUP4 PUSH2 0x110D JUMP JUMPDEST DUP2 ADD SUB SLT PUSH2 0x561 JUMPI DUP5 SWAP1 MLOAD CODESIZE PUSH2 0x43A JUMP JUMPDEST DUP10 DUP1 REVERT JUMPDEST POP RETURNDATASIZE PUSH2 0x546 JUMP JUMPDEST DUP7 MLOAD RETURNDATASIZE DUP13 DUP3 RETURNDATACOPY RETURNDATASIZE SWAP1 REVERT JUMPDEST DUP5 MLOAD PUSH3 0x461BCD PUSH1 0xE5 SHL DUP2 MSTORE SWAP3 DUP4 ADD DUP7 SWAP1 MSTORE PUSH1 0x14 SWAP1 DUP4 ADD MSTORE PUSH20 0x496E73756666696369656E742062616C616E6365 PUSH1 0x60 SHL SWAP1 DUP3 ADD MSTORE PUSH1 0x64 SWAP1 REVERT JUMPDEST DUP1 SWAP3 POP DUP9 DUP1 SWAP3 POP RETURNDATASIZE DUP4 GT PUSH2 0x5D8 JUMPI JUMPDEST PUSH2 0x5C7 DUP2 DUP4 PUSH2 0x110D JUMP JUMPDEST DUP2 ADD SUB SLT PUSH2 0x561 JUMPI DUP5 SWAP1 MLOAD CODESIZE PUSH2 0x406 JUMP JUMPDEST POP RETURNDATASIZE PUSH2 0x5BD JUMP JUMPDEST DUP7 MLOAD PUSH3 0x461BCD PUSH1 0xE5 SHL DUP2 MSTORE DUP1 DUP7 ADD DUP10 SWAP1 MSTORE PUSH1 0x15 DUP2 DUP6 ADD MSTORE PUSH21 0x151BDAD95B881B9BDD081DDA1A5D195B1A5CDD1959 PUSH1 0x5A SHL DUP2 DUP7 ADD MSTORE PUSH1 0x64 SWAP1 REVERT JUMPDEST POP DUP3 SWAP1 CALLVALUE PUSH2 0x308 JUMPI PUSH1 0x20 SWAP3 DUP4 PUSH1 0x3 NOT CALLDATASIZE ADD SLT PUSH2 0x128 JUMPI PUSH2 0x636 PUSH2 0xE91 JUMP JUMPDEST CALLER DUP5 MSTORE PUSH1 0x3 SWAP1 DUP2 DUP7 MSTORE PUSH2 0x64E PUSH1 0xFF DUP5 DUP8 KECCAK256 SLOAD AND PUSH2 0xEE8 JUMP JUMPDEST PUSH1 0x1 PUSH1 0x1 PUSH1 0xA0 SHL SUB AND SWAP3 DUP4 ISZERO PUSH2 0x76C JUMPI CALLER DUP6 MSTORE DUP2 DUP7 MSTORE PUSH1 0x7 DUP4 DUP7 KECCAK256 ADD DUP5 DUP7 MSTORE DUP7 MSTORE PUSH1 0xFF DUP4 DUP7 KECCAK256 SLOAD AND PUSH2 0x729 JUMPI CALLER DUP6 MSTORE DUP2 DUP7 MSTORE DUP2 PUSH1 0x8 DUP5 DUP8 KECCAK256 ADD SLOAD LT ISZERO PUSH2 0x6EE JUMPI POP PUSH1 0x8 SWAP3 SWAP4 SWAP5 CALLER DUP7 MSTORE DUP2 DUP2 MSTORE PUSH1 0x7 DUP4 DUP8 KECCAK256 ADD DUP6 DUP8 MSTORE DUP2 MSTORE DUP3 DUP7 KECCAK256 PUSH1 0x1 PUSH1 0xFF NOT DUP3 SLOAD AND OR SWAP1 SSTORE CALLER DUP7 MSTORE MSTORE DUP4 KECCAK256 ADD PUSH2 0x6C4 DUP2 SLOAD PUSH2 0x1145 JUMP JUMPDEST SWAP1 SSTORE CALLER PUSH32 0xBC3292102FA77E083913064B282926717CDFAEDE4D35F553D66366C0A3DA755A DUP4 DUP1 LOG3 DUP1 RETURN JUMPDEST DUP3 MLOAD PUSH3 0x461BCD PUSH1 0xE5 SHL DUP2 MSTORE SWAP1 DUP2 ADD DUP7 SWAP1 MSTORE PUSH1 0x15 PUSH1 0x24 DUP3 ADD MSTORE PUSH21 0x13585E0819DD585C991A585B9CC81C995858DA1959 PUSH1 0x5A SHL PUSH1 0x44 DUP3 ADD MSTORE PUSH1 0x64 SWAP1 REVERT JUMPDEST DUP3 MLOAD PUSH3 0x461BCD PUSH1 0xE5 SHL DUP2 MSTORE SWAP1 DUP2 ADD DUP7 SWAP1 MSTORE PUSH1 0x17 PUSH1 0x24 DUP3 ADD MSTORE PUSH32 0x477561726469616E20616C726561647920657869737473000000000000000000 PUSH1 0x44 DUP3 ADD MSTORE PUSH1 0x64 SWAP1 REVERT JUMPDEST DUP3 MLOAD PUSH3 0x461BCD PUSH1 0xE5 SHL DUP2 MSTORE SWAP1 DUP2 ADD DUP7 SWAP1 MSTORE PUSH1 0x10 PUSH1 0x24 DUP3 ADD MSTORE PUSH16 0x24B73B30B634B21033BAB0B93234B0B7 PUSH1 0x81 SHL PUSH1 0x44 DUP3 ADD MSTORE PUSH1 0x64 SWAP1 REVERT JUMPDEST POP SWAP1 PUSH1 0x20 SWAP1 DUP2 PUSH1 0x3 NOT CALLDATASIZE ADD SLT PUSH2 0x954 JUMPI DUP3 CALLDATALOAD PUSH1 0x1 PUSH1 0x1 PUSH1 0xA0 SHL SUB DUP2 AND SWAP4 SWAP1 DUP5 SWAP1 SUB PUSH2 0x950 JUMPI PUSH2 0x7CF PUSH2 0x1196 JUMP JUMPDEST PUSH2 0x7D7 PUSH2 0x11B9 JUMP JUMPDEST CALLER DUP6 MSTORE PUSH1 0x3 DUP4 MSTORE PUSH2 0x7ED PUSH1 0xFF DUP4 DUP8 KECCAK256 SLOAD AND PUSH2 0xEE8 JUMP JUMPDEST PUSH2 0x7FA PUSH2 0x37B CALLVALUE CALLER PUSH2 0x11E4 JUMP JUMPDEST PUSH2 0x806 PUSH2 0x38C CALLER PUSH2 0x12B9 JUMP JUMPDEST PUSH2 0x82B DUP5 ISZERO ISZERO PUSH2 0x815 DUP2 PUSH2 0xFBA JUMP JUMPDEST PUSH2 0x3CD ADDRESS DUP8 EQ ISZERO SWAP2 PUSH2 0x826 DUP4 PUSH2 0xFF8 JUMP JUMPDEST PUSH2 0x1044 JUMP JUMPDEST PUSH2 0x836 CALLVALUE ISZERO ISZERO PUSH2 0x10D0 JUMP JUMPDEST CALLVALUE SELFBALANCE LT PUSH2 0x90F JUMPI DUP5 DUP1 DUP1 DUP1 CALLVALUE DUP9 GAS CALL RETURNDATASIZE ISZERO PUSH2 0x90A JUMPI RETURNDATASIZE PUSH8 0xFFFFFFFFFFFFFFFF DUP2 GT PUSH2 0x8F7 JUMPI DUP4 MLOAD SWAP1 PUSH2 0x871 PUSH1 0x1F DUP3 ADD PUSH1 0x1F NOT AND DUP8 ADD DUP4 PUSH2 0x110D JUMP JUMPDEST DUP2 MSTORE DUP7 DUP6 RETURNDATASIZE SWAP3 ADD RETURNDATACOPY JUMPDEST ISZERO PUSH2 0x8C4 JUMPI POP PUSH32 0x11C182FCC25E52151BF452608F627A605269882587C25B326E9EB16819557B6 SWAP1 PUSH2 0x8AC CALLVALUE CALLER PUSH2 0x12F8 JUMP JUMPDEST PUSH2 0x8B5 CALLER PUSH2 0x1330 JUMP JUMPDEST MLOAD SWAP2 CALLVALUE DUP4 MSTORE CALLER SWAP3 LOG3 PUSH1 0x1 DUP1 SSTORE DUP1 RETURN JUMPDEST DUP3 PUSH1 0x64 SWAP3 MLOAD SWAP2 PUSH3 0x461BCD PUSH1 0xE5 SHL DUP4 MSTORE DUP3 ADD MSTORE PUSH1 0xF PUSH1 0x24 DUP3 ADD MSTORE PUSH15 0x151C985B9CD9995C8819985A5B1959 PUSH1 0x8A SHL PUSH1 0x44 DUP3 ADD MSTORE REVERT JUMPDEST PUSH4 0x4E487B71 PUSH1 0xE0 SHL DUP8 MSTORE PUSH1 0x41 DUP4 MSTORE PUSH1 0x24 DUP8 REVERT JUMPDEST PUSH2 0x87A JUMP JUMPDEST DUP3 PUSH1 0x64 SWAP3 MLOAD SWAP2 PUSH3 0x461BCD PUSH1 0xE5 SHL DUP4 MSTORE DUP3 ADD MSTORE PUSH1 0x1D PUSH1 0x24 DUP3 ADD MSTORE PUSH32 0x496E73756666696369656E7420636F6E74726163742062616C616E6365000000 PUSH1 0x44 DUP3 ADD MSTORE REVERT JUMPDEST DUP5 DUP1 REVERT JUMPDEST DUP4 DUP1 REVERT JUMPDEST POP POP CALLVALUE PUSH2 0x308 JUMPI DUP2 PUSH1 0x3 NOT CALLDATASIZE ADD SLT PUSH2 0x308 JUMPI SWAP1 SLOAD SWAP1 MLOAD PUSH1 0x1 PUSH1 0x1 PUSH1 0xA0 SHL SUB SWAP1 SWAP2 AND DUP2 MSTORE PUSH1 0x20 SWAP1 RETURN JUMPDEST POP CALLVALUE PUSH2 0x128 JUMPI PUSH1 0x20 CALLDATASIZE PUSH1 0x3 NOT ADD SLT PUSH2 0x128 JUMPI PUSH2 0x100 SWAP3 DUP3 SWAP1 PUSH1 0x1 PUSH1 0x1 PUSH1 0xA0 SHL SUB PUSH2 0x9A8 PUSH2 0xE91 JUMP JUMPDEST AND DUP2 MSTORE PUSH1 0x3 PUSH1 0x20 MSTORE KECCAK256 PUSH1 0xFF DUP2 SLOAD AND SWAP3 PUSH1 0x1 DUP3 ADD SLOAD SWAP3 PUSH1 0x2 DUP4 ADD SLOAD SWAP1 PUSH1 0x3 DUP5 ADD SLOAD SWAP1 DUP5 ADD SLOAD SWAP2 PUSH1 0x5 DUP6 ADD SLOAD SWAP4 PUSH1 0x8 PUSH1 0x6 DUP8 ADD SLOAD SWAP7 ADD SLOAD SWAP7 DUP2 MLOAD SWAP9 ISZERO ISZERO DUP10 MSTORE PUSH1 0x20 DUP10 ADD MSTORE DUP8 ADD MSTORE PUSH1 0x60 DUP7 ADD MSTORE PUSH1 0x80 DUP6 ADD MSTORE PUSH1 0xA0 DUP5 ADD MSTORE PUSH1 0xC0 DUP4 ADD MSTORE PUSH1 0xE0 DUP3 ADD MSTORE RETURN JUMPDEST POP POP CALLVALUE PUSH2 0x308 JUMPI DUP2 PUSH1 0x3 NOT CALLDATASIZE ADD SLT PUSH2 0x308 JUMPI PUSH1 0x20 PUSH32 0x62E78CEA01BEE320CD4E420270B5EA74000D11B0C9F74754EBDBFC544B05A258 SWAP2 PUSH2 0xA46 PUSH2 0x116A JUMP JUMPDEST PUSH2 0xA4E PUSH2 0x11B9 JUMP JUMPDEST PUSH1 0x1 PUSH1 0xFF NOT PUSH1 0x2 SLOAD AND OR PUSH1 0x2 SSTORE MLOAD CALLER DUP2 MSTORE LOG1 DUP1 RETURN JUMPDEST POP SWAP2 SWAP1 CALLVALUE PUSH2 0x308 JUMPI PUSH1 0x20 SWAP1 DUP2 PUSH1 0x3 NOT CALLDATASIZE ADD SLT PUSH2 0x128 JUMPI DUP4 CALLDATALOAD ORIGIN CALLER SUB PUSH2 0xB8C JUMPI CALLER DUP5 MSTORE PUSH1 0x3 DUP4 MSTORE PUSH1 0xFF DUP3 DUP6 KECCAK256 SLOAD AND PUSH2 0xB51 JUMPI DUP1 ISZERO PUSH2 0xB16 JUMPI CALLER DUP5 MSTORE PUSH1 0x3 DUP4 MSTORE DUP2 DUP5 KECCAK256 SWAP1 PUSH1 0x1 PUSH1 0xFF NOT DUP4 SLOAD AND OR DUP3 SSTORE DUP1 PUSH1 0x1 DUP4 ADD SSTORE PUSH1 0x1E DUP2 MUL SWAP1 DUP2 DIV PUSH1 0x1E SUB PUSH2 0xB03 JUMPI PUSH1 0x2 DUP3 ADD SSTORE TIMESTAMP PUSH1 0x5 DUP3 ADD DUP2 SWAP1 SSTORE PUSH1 0x6 SWAP1 SWAP2 ADD SSTORE MLOAD CALLER DUP1 DUP3 MSTORE SWAP2 PUSH32 0x5B03BFED1C14A02BDECEB5FA582EB1A5765FC0BC64CA0E6AF4C20AFC9487F081 SWAP2 LOG2 DUP1 RETURN JUMPDEST PUSH4 0x4E487B71 PUSH1 0xE0 SHL DUP6 MSTORE PUSH1 0x11 DUP7 MSTORE PUSH1 0x24 DUP6 REVERT JUMPDEST DUP2 MLOAD PUSH3 0x461BCD PUSH1 0xE5 SHL DUP2 MSTORE DUP1 DUP7 ADD DUP5 SWAP1 MSTORE PUSH1 0x15 PUSH1 0x24 DUP3 ADD MSTORE PUSH21 0x125B9D985B1A59081A5B9A5D1A585B081B1A5B5A5D PUSH1 0x5A SHL PUSH1 0x44 DUP3 ADD MSTORE PUSH1 0x64 SWAP1 REVERT JUMPDEST DUP2 MLOAD PUSH3 0x461BCD PUSH1 0xE5 SHL DUP2 MSTORE DUP1 DUP7 ADD DUP5 SWAP1 MSTORE PUSH1 0x15 PUSH1 0x24 DUP3 ADD MSTORE PUSH21 0x57616C6C657420616C726561647920657869737473 PUSH1 0x58 SHL PUSH1 0x44 DUP3 ADD MSTORE PUSH1 0x64 SWAP1 REVERT JUMPDEST DUP2 MLOAD PUSH3 0x461BCD PUSH1 0xE5 SHL DUP2 MSTORE DUP1 DUP7 ADD DUP5 SWAP1 MSTORE PUSH1 0x15 PUSH1 0x24 DUP3 ADD MSTORE PUSH21 0x10DBDB9D1C9858DD1CC81B9BDD08185B1B1BDDD959 PUSH1 0x5A SHL PUSH1 0x44 DUP3 ADD MSTORE PUSH1 0x64 SWAP1 REVERT JUMPDEST DUP4 CALLVALUE PUSH2 0xC21 JUMPI DUP1 PUSH1 0x3 NOT CALLDATASIZE ADD SLT PUSH2 0xC21 JUMPI PUSH2 0xBE0 PUSH2 0x116A JUMP JUMPDEST DUP1 SLOAD PUSH1 0x1 PUSH1 0x1 PUSH1 0xA0 SHL SUB NOT DUP2 AND DUP3 SSTORE DUP2 SWAP1 PUSH1 0x1 PUSH1 0x1 PUSH1 0xA0 SHL SUB AND PUSH32 0x8BE0079C531659141344CD1FD0A4F28419497F9722A3DAAFE3B4186F6B6457E0 DUP3 DUP1 LOG3 DUP1 RETURN JUMPDEST DUP1 REVERT JUMPDEST POP CALLVALUE PUSH2 0x128 JUMPI PUSH1 0x20 SWAP2 DUP3 PUSH1 0x3 NOT CALLDATASIZE ADD SLT PUSH2 0x954 JUMPI PUSH2 0xC40 PUSH2 0xE91 JUMP JUMPDEST SWAP3 CALLER DUP6 MSTORE PUSH1 0x3 DUP2 MSTORE PUSH2 0xC57 PUSH1 0xFF DUP4 DUP8 KECCAK256 SLOAD AND PUSH2 0xEE8 JUMP JUMPDEST CALLER DUP6 MSTORE PUSH1 0x3 DUP2 MSTORE DUP2 DUP6 KECCAK256 PUSH1 0x1 PUSH1 0x1 PUSH1 0xA0 SHL SUB SWAP1 SWAP5 AND DUP1 DUP7 MSTORE PUSH1 0x7 SWAP5 SWAP1 SWAP5 ADD DUP2 MSTORE DUP2 DUP6 KECCAK256 SLOAD PUSH1 0xFF AND ISZERO PUSH2 0xCF8 JUMPI CALLER DUP1 DUP7 MSTORE PUSH1 0x3 DUP1 DUP4 MSTORE DUP4 DUP8 KECCAK256 DUP7 DUP9 MSTORE PUSH1 0x7 ADD DUP4 MSTORE DUP4 DUP8 KECCAK256 DUP1 SLOAD PUSH1 0xFF NOT AND SWAP1 SSTORE SWAP1 DUP7 MSTORE SWAP1 MSTORE DUP4 KECCAK256 PUSH1 0x8 ADD DUP1 SLOAD SWAP1 SWAP2 DUP2 ISZERO PUSH2 0xCE5 JUMPI POP PUSH1 0x0 NOT ADD SWAP1 SSTORE CALLER PUSH32 0xEE943CDB81826D5909C559C6B1AE6908FCAF2DBC16C4B730346736B486283E8B DUP4 DUP1 LOG3 DUP1 RETURN JUMPDEST PUSH4 0x4E487B71 PUSH1 0xE0 SHL DUP6 MSTORE PUSH1 0x11 SWAP1 MSTORE PUSH1 0x24 DUP5 REVERT JUMPDEST SWAP1 MLOAD PUSH3 0x461BCD PUSH1 0xE5 SHL DUP2 MSTORE SWAP2 DUP3 ADD MSTORE PUSH1 0x17 PUSH1 0x24 DUP3 ADD MSTORE PUSH32 0x477561726469616E20646F6573206E6F74206578697374000000000000000000 PUSH1 0x44 DUP3 ADD MSTORE PUSH1 0x64 SWAP1 REVERT JUMPDEST POP CALLVALUE PUSH2 0x128 JUMPI PUSH1 0x20 CALLDATASIZE PUSH1 0x3 NOT ADD SLT PUSH2 0x128 JUMPI PUSH2 0xD53 PUSH2 0xE91 JUMP JUMPDEST PUSH2 0xD5B PUSH2 0x116A JUMP JUMPDEST PUSH1 0x1 PUSH1 0x1 PUSH1 0xA0 SHL SUB AND PUSH2 0xD6F DUP2 ISZERO ISZERO PUSH2 0xEAC JUMP JUMPDEST DUP4 MSTORE PUSH1 0x20 MSTORE DUP2 KECCAK256 DUP1 SLOAD PUSH1 0xFF NOT AND PUSH1 0x1 OR SWAP1 SSTORE DUP1 RETURN JUMPDEST POP POP CALLVALUE PUSH2 0x308 JUMPI DUP2 PUSH1 0x3 NOT CALLDATASIZE ADD SLT PUSH2 0x308 JUMPI PUSH1 0x20 SWAP1 PUSH1 0xFF PUSH1 0x2 SLOAD AND SWAP1 MLOAD SWAP1 ISZERO ISZERO DUP2 MSTORE RETURN JUMPDEST POP POP CALLVALUE PUSH2 0x308 JUMPI DUP2 PUSH1 0x3 NOT CALLDATASIZE ADD SLT PUSH2 0x308 JUMPI PUSH1 0x20 SWAP1 MLOAD PUSH1 0xA DUP2 MSTORE RETURN JUMPDEST POP POP CALLVALUE PUSH2 0x308 JUMPI DUP2 PUSH1 0x3 NOT CALLDATASIZE ADD SLT PUSH2 0x308 JUMPI PUSH1 0x20 SWAP1 MLOAD PUSH1 0x3 DUP2 MSTORE RETURN JUMPDEST POP CALLVALUE PUSH2 0x128 JUMPI DUP3 PUSH1 0x3 NOT CALLDATASIZE ADD SLT PUSH2 0x128 JUMPI PUSH2 0xDF9 PUSH2 0x116A JUMP JUMPDEST PUSH1 0x2 SLOAD SWAP1 PUSH1 0xFF DUP3 AND ISZERO PUSH2 0xE3B JUMPI POP PUSH1 0xFF NOT AND PUSH1 0x2 SSTORE MLOAD CALLER DUP2 MSTORE PUSH32 0x5DB9EE0A495BF2E6FF9C91A7834C1BA4FDD244A5E8AA4E537BD38AEAE4B073AA SWAP1 PUSH1 0x20 SWAP1 LOG1 DUP1 RETURN JUMPDEST DUP3 MLOAD PUSH4 0x8DFC202B PUSH1 0xE0 SHL DUP2 MSTORE REVERT JUMPDEST POP CALLVALUE PUSH2 0x128 JUMPI PUSH1 0x20 CALLDATASIZE PUSH1 0x3 NOT ADD SLT PUSH2 0x128 JUMPI PUSH2 0xE63 PUSH2 0xE91 JUMP JUMPDEST PUSH2 0xE6B PUSH2 0x116A JUMP JUMPDEST PUSH1 0x1 PUSH1 0x1 PUSH1 0xA0 SHL SUB AND PUSH2 0xE7F DUP2 ISZERO ISZERO PUSH2 0xEAC JUMP JUMPDEST DUP4 MSTORE PUSH1 0x20 MSTORE DUP2 KECCAK256 DUP1 SLOAD PUSH1 0xFF NOT AND SWAP1 SSTORE DUP1 RETURN JUMPDEST PUSH1 0x4 CALLDATALOAD SWAP1 PUSH1 0x1 PUSH1 0x1 PUSH1 0xA0 SHL SUB DUP3 AND DUP3 SUB PUSH2 0xEA7 JUMPI JUMP JUMPDEST PUSH1 0x0 DUP1 REVERT JUMPDEST ISZERO PUSH2 0xEB3 JUMPI JUMP JUMPDEST PUSH1 0x40 MLOAD PUSH3 0x461BCD PUSH1 0xE5 SHL DUP2 MSTORE PUSH1 0x20 PUSH1 0x4 DUP3 ADD MSTORE PUSH1 0xD PUSH1 0x24 DUP3 ADD MSTORE PUSH13 0x24B73B30B634B2103A37B5B2B7 PUSH1 0x99 SHL PUSH1 0x44 DUP3 ADD MSTORE PUSH1 0x64 SWAP1 REVERT JUMPDEST ISZERO PUSH2 0xEEF JUMPI JUMP JUMPDEST PUSH1 0x40 MLOAD PUSH3 0x461BCD PUSH1 0xE5 SHL DUP2 MSTORE PUSH1 0x20 PUSH1 0x4 DUP3 ADD MSTORE PUSH1 0x15 PUSH1 0x24 DUP3 ADD MSTORE PUSH21 0x15D85B1B195D08191BD95CC81B9BDD08195E1A5CDD PUSH1 0x5A SHL PUSH1 0x44 DUP3 ADD MSTORE PUSH1 0x64 SWAP1 REVERT JUMPDEST ISZERO PUSH2 0xF33 JUMPI JUMP JUMPDEST PUSH1 0x40 MLOAD PUSH3 0x461BCD PUSH1 0xE5 SHL DUP2 MSTORE PUSH1 0x20 PUSH1 0x4 DUP3 ADD MSTORE PUSH1 0x1A PUSH1 0x24 DUP3 ADD MSTORE PUSH32 0x5472616E73616374696F6E2065786365656473206C696D697473000000000000 PUSH1 0x44 DUP3 ADD MSTORE PUSH1 0x64 SWAP1 REVERT JUMPDEST ISZERO PUSH2 0xF7F JUMPI JUMP JUMPDEST PUSH1 0x40 MLOAD PUSH3 0x461BCD PUSH1 0xE5 SHL DUP2 MSTORE PUSH1 0x20 PUSH1 0x4 DUP3 ADD MSTORE PUSH1 0x13 PUSH1 0x24 DUP3 ADD MSTORE PUSH19 0x14985D19481B1A5B5A5D08195E18D959591959 PUSH1 0x6A SHL PUSH1 0x44 DUP3 ADD MSTORE PUSH1 0x64 SWAP1 REVERT JUMPDEST ISZERO PUSH2 0xFC1 JUMPI JUMP JUMPDEST PUSH1 0x40 MLOAD PUSH3 0x461BCD PUSH1 0xE5 SHL DUP2 MSTORE PUSH1 0x20 PUSH1 0x4 DUP3 ADD MSTORE PUSH1 0xF PUSH1 0x24 DUP3 ADD MSTORE PUSH15 0x496E76616C69642061646472657373 PUSH1 0x88 SHL PUSH1 0x44 DUP3 ADD MSTORE PUSH1 0x64 SWAP1 REVERT JUMPDEST ISZERO PUSH2 0xFFF JUMPI JUMP JUMPDEST PUSH1 0x40 MLOAD PUSH3 0x461BCD PUSH1 0xE5 SHL DUP2 MSTORE PUSH1 0x20 PUSH1 0x4 DUP3 ADD MSTORE PUSH1 0x1B PUSH1 0x24 DUP3 ADD MSTORE PUSH32 0x43616E6E6F742075736520636F6E747261637420616464726573730000000000 PUSH1 0x44 DUP3 ADD MSTORE PUSH1 0x64 SWAP1 REVERT JUMPDEST ISZERO PUSH2 0x104B JUMPI JUMP JUMPDEST PUSH1 0x40 MLOAD PUSH3 0x461BCD PUSH1 0xE5 SHL DUP2 MSTORE PUSH1 0x20 PUSH1 0x4 DUP3 ADD MSTORE PUSH1 0x11 PUSH1 0x24 DUP3 ADD MSTORE PUSH17 0x125B9D985B1A59081C9958DA5C1A595B9D PUSH1 0x7A SHL PUSH1 0x44 DUP3 ADD MSTORE PUSH1 0x64 SWAP1 REVERT JUMPDEST ISZERO PUSH2 0x108B JUMPI JUMP JUMPDEST PUSH1 0x40 MLOAD PUSH3 0x461BCD PUSH1 0xE5 SHL DUP2 MSTORE PUSH1 0x20 PUSH1 0x4 DUP3 ADD MSTORE PUSH1 0x1B PUSH1 0x24 DUP3 ADD MSTORE PUSH32 0x43616E6E6F74207472616E7366657220746F20636F6E74726163740000000000 PUSH1 0x44 DUP3 ADD MSTORE PUSH1 0x64 SWAP1 REVERT JUMPDEST ISZERO PUSH2 0x10D7 JUMPI JUMP JUMPDEST PUSH1 0x40 MLOAD PUSH3 0x461BCD PUSH1 0xE5 SHL DUP2 MSTORE PUSH1 0x20 PUSH1 0x4 DUP3 ADD MSTORE PUSH1 0xE PUSH1 0x24 DUP3 ADD MSTORE PUSH14 0x125B9D985B1A5908185B5BDD5B9D PUSH1 0x92 SHL PUSH1 0x44 DUP3 ADD MSTORE PUSH1 0x64 SWAP1 REVERT JUMPDEST SWAP1 PUSH1 0x1F DUP1 NOT SWAP2 ADD AND DUP2 ADD SWAP1 DUP2 LT PUSH8 0xFFFFFFFFFFFFFFFF DUP3 GT OR PUSH2 0x112F JUMPI PUSH1 0x40 MSTORE JUMP JUMPDEST PUSH4 0x4E487B71 PUSH1 0xE0 SHL PUSH1 0x0 MSTORE PUSH1 0x41 PUSH1 0x4 MSTORE PUSH1 0x24 PUSH1 0x0 REVERT JUMPDEST PUSH1 0x0 NOT DUP2 EQ PUSH2 0x1154 JUMPI PUSH1 0x1 ADD SWAP1 JUMP JUMPDEST PUSH4 0x4E487B71 PUSH1 0xE0 SHL PUSH1 0x0 MSTORE PUSH1 0x11 PUSH1 0x4 MSTORE PUSH1 0x24 PUSH1 0x0 REVERT JUMPDEST PUSH1 0x0 SLOAD PUSH1 0x1 PUSH1 0x1 PUSH1 0xA0 SHL SUB AND CALLER SUB PUSH2 0x117E JUMPI JUMP JUMPDEST PUSH1 0x40 MLOAD PUSH4 0x118CDAA7 PUSH1 0xE0 SHL DUP2 MSTORE CALLER PUSH1 0x4 DUP3 ADD MSTORE PUSH1 0x24 SWAP1 REVERT JUMPDEST PUSH1 0x2 PUSH1 0x1 SLOAD EQ PUSH2 0x11A7 JUMPI PUSH1 0x2 PUSH1 0x1 SSTORE JUMP JUMPDEST PUSH1 0x40 MLOAD PUSH4 0x3EE5AEB5 PUSH1 0xE0 SHL DUP2 MSTORE PUSH1 0x4 SWAP1 REVERT JUMPDEST PUSH1 0xFF PUSH1 0x2 SLOAD AND PUSH2 0x11C5 JUMPI JUMP JUMPDEST PUSH1 0x40 MLOAD PUSH4 0xD93C0665 PUSH1 0xE0 SHL DUP2 MSTORE PUSH1 0x4 SWAP1 REVERT JUMPDEST SWAP2 SWAP1 DUP3 ADD DUP1 SWAP3 GT PUSH2 0x1154 JUMPI JUMP JUMPDEST PUSH1 0x1 PUSH1 0x1 PUSH1 0xA0 SHL SUB AND PUSH1 0x0 SWAP1 DUP2 MSTORE PUSH1 0x3 PUSH1 0x20 MSTORE PUSH1 0x40 DUP2 KECCAK256 PUSH1 0x5 DUP2 ADD DUP1 SLOAD SWAP2 SWAP3 SWAP2 PUSH3 0x15180 DUP2 ADD SWAP1 DUP2 LT PUSH2 0x12A5 JUMPI TIMESTAMP LT ISZERO PUSH2 0x1296 JUMPI JUMPDEST POP PUSH1 0x6 DUP3 ADD SWAP1 DUP2 SLOAD PUSH3 0x278D00 DUP2 ADD DUP1 SWAP2 GT PUSH2 0x1282 JUMPI TIMESTAMP LT ISZERO PUSH2 0x1273 JUMPI JUMPDEST POP POP PUSH2 0x1246 DUP3 PUSH1 0x3 DUP4 ADD SLOAD PUSH2 0x11D7 JUMP JUMPDEST PUSH1 0x1 DUP3 ADD SLOAD LT ISZERO SWAP2 DUP3 PUSH2 0x1258 JUMPI POP POP SWAP1 JUMP JUMPDEST DUP2 SWAP3 POP PUSH2 0x126B SWAP1 PUSH1 0x4 PUSH1 0x2 SWAP4 ADD SLOAD PUSH2 0x11D7 JUMP JUMPDEST SWAP2 ADD SLOAD LT ISZERO SWAP1 JUMP JUMPDEST PUSH1 0x4 DUP4 ADD SSTORE TIMESTAMP SWAP1 SSTORE CODESIZE DUP1 PUSH2 0x1236 JUMP JUMPDEST PUSH4 0x4E487B71 PUSH1 0xE0 SHL DUP3 MSTORE PUSH1 0x11 PUSH1 0x4 MSTORE PUSH1 0x24 DUP3 REVERT JUMPDEST DUP2 PUSH1 0x3 DUP5 ADD SSTORE TIMESTAMP SWAP1 SSTORE CODESIZE PUSH2 0x1219 JUMP JUMPDEST PUSH4 0x4E487B71 PUSH1 0xE0 SHL DUP4 MSTORE PUSH1 0x11 PUSH1 0x4 MSTORE PUSH1 0x24 DUP4 REVERT JUMPDEST PUSH1 0x1 PUSH1 0x1 PUSH1 0xA0 SHL SUB AND PUSH1 0x0 SWAP1 DUP2 MSTORE PUSH1 0x3 PUSH1 0x20 MSTORE PUSH1 0x40 SWAP1 KECCAK256 PUSH1 0x5 DUP2 ADD SLOAD PUSH1 0x3C DUP2 ADD SWAP1 DUP2 LT PUSH2 0x1154 JUMPI TIMESTAMP LT ISZERO PUSH2 0x12F2 JUMPI PUSH1 0x8 PUSH1 0xA SWAP2 ADD SLOAD LT SWAP1 JUMP JUMPDEST POP PUSH1 0x1 SWAP1 JUMP JUMPDEST PUSH1 0x1 DUP1 PUSH1 0xA0 SHL SUB AND PUSH1 0x0 MSTORE PUSH1 0x3 PUSH1 0x20 MSTORE PUSH2 0x132C PUSH1 0x4 PUSH1 0x40 PUSH1 0x0 KECCAK256 PUSH1 0x3 DUP2 ADD PUSH2 0x1321 DUP6 DUP3 SLOAD PUSH2 0x11D7 JUMP JUMPDEST SWAP1 SSTORE ADD SWAP2 DUP3 SLOAD PUSH2 0x11D7 JUMP JUMPDEST SWAP1 SSTORE JUMP JUMPDEST PUSH1 0x1 DUP1 PUSH1 0xA0 SHL SUB AND PUSH1 0x0 MSTORE PUSH1 0x3 PUSH1 0x20 MSTORE PUSH1 0x40 PUSH1 0x0 KECCAK256 PUSH1 0x5 DUP2 ADD SWAP1 DUP2 SLOAD PUSH1 0x3C DUP2 ADD DUP1 SWAP2 GT PUSH2 0x1154 JUMPI TIMESTAMP LT PUSH2 0x1369 JUMPI PUSH1 0x8 PUSH1 0x1 SWAP2 ADD SSTORE TIMESTAMP SWAP1 SSTORE JUMP JUMPDEST PUSH1 0x8 SWAP2 POP ADD PUSH2 0x132C DUP2 SLOAD PUSH2 0x1145 JUMP INVALID LOG2 PUSH5 0x6970667358 0x22 SLT KECCAK256 0xBE 0x49 0xE5 CALLCODE 0xB3 SGT SELFBALANCE 0xB2 PUSH13 0x41D33E7A3BCD8CD0C4D4282791 0xE9 EQ 0xB2 0xED SWAP7 0xE8 CALLDATALOAD PUSH26 0xE2A664736F6C6343000816003300000000000000000000000000 "},"methodIdentifiers":{"MAX_GUARDIANS()":"422c1d37","MAX_TRANSACTIONS_PER_PERIOD()":"58abfbdf","RATE_LIMIT_PERIOD()":"b7b188d1","addGuardian(address)":"a526d83b","createWallet(uint256)":"7a675bb6","owner()":"8da5cb5b","pause()":"8456cb59","paused()":"5c975abb","removeGuardian(address)":"71404156","removeTokenFromWhitelist(address)":"306275be","renounceOwnership()":"715018a6","transferNative(address)":"a526c5f0","transferOwnership(address)":"f2fde38b","transferTokens(address,address,uint256)":"a64b6e5f","unpause()":"3f4ba83a","updateLimits(address,uint256,uint256)":"cf4c34a6","usedSignatures(bytes32)":"f978fd61","wallets(address)":"89b08f11","whitelistToken(address)":"6247f6f2","whitelistedTokens(address)":"daf9c210"}},"storageLayout":{"storage":[{"astId":1281,"contract":"contracts/SmartWallet.sol:SmartWallet","label":"_owner","offset":0,"slot":"0","type":"t_address"},{"astId":3570,"contract":"contracts/SmartWallet.sol:SmartWallet","label":"_status","offset":0,"slot":"1","type":"t_uint256"},{"astId":3460,"contract":"contracts/SmartWallet.sol:SmartWallet","label":"_paused","offset":0,"slot":"2","type":"t_bool"},{"astId":5165,"contract":"contracts/SmartWallet.sol:SmartWallet","label":"wallets","offset":0,"slot":"3","type":"t_mapping(t_address,t_struct(WalletInfo)5160_storage)"},{"astId":5169,"contract":"contracts/SmartWallet.sol:SmartWallet","label":"whitelistedTokens","offset":0,"slot":"4","type":"t_mapping(t_address,t_bool)"},{"astId":5173,"contract":"contracts/SmartWallet.sol:SmartWallet","label":"usedSignatures","offset":0,"slot":"5","type":"t_mapping(t_bytes32,t_bool)"}],"types":{"t_address":{"encoding":"inplace","label":"address","numberOfBytes":"20"},"t_bool":{"encoding":"inplace","label":"bool","numberOfBytes":"1"},"t_bytes32":{"encoding":"inplace","label":"bytes32","numberOfBytes":"32"},"t_mapping(t_address,t_bool)":{"encoding":"mapping","key":"t_address","label":"mapping(address => bool)","numberOfBytes":"32","value":"t_bool"},"t_mapping(t_address,t_struct(WalletInfo)5160_storage)":{"encoding":"mapping","key":"t_address","label":"mapping(address => struct SmartWallet.WalletInfo)","numberOfBytes":"32","value":"t_struct(WalletInfo)5160_storage"},"t_mapping(t_bytes32,t_bool)":{"encoding":"mapping","key":"t_bytes32","label":"mapping(bytes32 => bool)","numberOfBytes":"32","value":"t_bool"},"t_struct(WalletInfo)5160_storage":{"encoding":"inplace","label":"struct SmartWallet.WalletInfo","members":[{"astId":5141,"contract":"contracts/SmartWallet.sol:SmartWallet","label":"exists","offset":0,"slot":"0","type":"t_bool"},{"astId":5143,"contract":"contracts/SmartWallet.sol:SmartWallet","label":"dailyLimit","offset":0,"slot":"1","type":"t_uint256"},{"astId":5145,"contract":"contracts/SmartWallet.sol:SmartWallet","label":"monthlyLimit","offset":0,"slot":"2","type":"t_uint256"},{"astId":5147,"contract":"contracts/SmartWallet.sol:SmartWallet","label":"dailySpent","offset":0,"slot":"3","type":"t_uint256"},{"astId":5149,"contract":"contracts/SmartWallet.sol:SmartWallet","label":"monthlySpent","offset":0,"slot":"4","type":"t_uint256"},{"astId":5151,"contract":"contracts/SmartWallet.sol:SmartWallet","label":"lastDayReset","offset":0,"slot":"5","type":"t_uint256"},{"astId":5153,"contract":"contracts/SmartWallet.sol:SmartWallet","label":"lastMonthReset","offset":0,"slot":"6","type":"t_uint256"},{"astId":5157,"contract":"contracts/SmartWallet.sol:SmartWallet","label":"guardians","offset":0,"slot":"7","type":"t_mapping(t_address,t_bool)"},{"astId":5159,"contract":"contracts/SmartWallet.sol:SmartWallet","label":"guardiansCount","offset":0,"slot":"8","type":"t_uint256"}],"numberOfBytes":"288"},"t_uint256":{"encoding":"inplace","label":"uint256","numberOfBytes":"32"}}}}}}