{"contracts/test/ReentrancyAttacker.sol":{"ReentrancyAttacker":{"abi":[{"inputs":[{"internalType":"address payable","name":"_smartWallet","type":"address"}],"stateMutability":"nonpayable","type":"constructor"},{"inputs":[],"name":"attack","outputs":[],"stateMutability":"payable","type":"function"},{"inputs":[],"name":"count","outputs":[{"internalType":"uint256","name":"","type":"uint256"}],"stateMutability":"view","type":"function"},{"inputs":[],"name":"smartWallet","outputs":[{"internalType":"contract SmartWalletV2","name":"","type":"address"}],"stateMutability":"view","type":"function"},{"stateMutability":"payable","type":"receive"}],"evm":{"bytecode":{"linkReferences":{},"object":"60803461007457601f61030438819003918201601f19168301916001600160401b038311848410176100795780849260209460405283398101031261007457516001600160a01b0381169081900361007457600080546001600160a01b03191691909117905560405161027490816100908239f35b600080fd5b634e487b7160e01b600052604160045260246000fdfe608060409080825260043610156100bb575b50361561001d57600080fd5b600154600a811061002a57005b60001981146100a55760019081019055600080546001600160a01b03169190823b156100a25781516339479a5360e01b815230600482015260406024820152600060448201529281908490606490829084905af191821561009857505061008d57005b61009690610214565b005b51903d90823e3d90fd5b80fd5b634e487b7160e01b600052601160045260246000fd5b600090813560e01c90816306661abd146101f8575080639e5faafc146101105763f4f96d290361001157903461010c578160031936011261010c57905490516001600160a01b039091168152602090f35b5080fd5b508091816003193601126101f55781546001600160a01b03908116803b156101f0578390604484518097819363d6f6364360e01b8352670de0b6b3a76400006004840152600160248401525af180156101e4576101d0575b82809450541690813b156101cc5780516339479a5360e01b815230600482015260406024820152600060448201529183908390606490829084905af19081156101c357506101b35750f35b6101bc90610214565b6100a25780f35b513d84823e3d90fd5b5050fd5b9190926101dc90610214565b908290610168565b505051903d90823e3d90fd5b505050fd5b50fd5b90503461010c578160031936011261010c576020906001548152f35b67ffffffffffffffff811161022857604052565b634e487b7160e01b600052604160045260246000fdfea26469706673582212204da217334c8227786b298be25f4b6f399de3799d4a5299eb23d9ad4e7f73a80664736f6c63430008160033","opcodes":"PUSH1 0x80 CALLVALUE PUSH2 0x74 JUMPI PUSH1 0x1F PUSH2 0x304 CODESIZE DUP2 SWAP1 SUB SWAP2 DUP3 ADD PUSH1 0x1F NOT AND DUP4 ADD SWAP2 PUSH1 0x1 PUSH1 0x1 PUSH1 0x40 SHL SUB DUP4 GT DUP5 DUP5 LT OR PUSH2 0x79 JUMPI DUP1 DUP5 SWAP3 PUSH1 0x20 SWAP5 PUSH1 0x40 MSTORE DUP4 CODECOPY DUP2 ADD SUB SLT PUSH2 0x74 JUMPI MLOAD PUSH1 0x1 PUSH1 0x1 PUSH1 0xA0 SHL SUB DUP2 AND SWAP1 DUP2 SWAP1 SUB PUSH2 0x74 JUMPI PUSH1 0x0 DUP1 SLOAD PUSH1 0x1 PUSH1 0x1 PUSH1 0xA0 SHL SUB NOT AND SWAP2 SWAP1 SWAP2 OR SWAP1 SSTORE PUSH1 0x40 MLOAD PUSH2 0x274 SWAP1 DUP2 PUSH2 0x90 DUP3 CODECOPY RETURN JUMPDEST PUSH1 0x0 DUP1 REVERT JUMPDEST PUSH4 0x4E487B71 PUSH1 0xE0 SHL PUSH1 0x0 MSTORE PUSH1 0x41 PUSH1 0x4 MSTORE PUSH1 0x24 PUSH1 0x0 REVERT INVALID PUSH1 0x80 PUSH1 0x40 SWAP1 DUP1 DUP3 MSTORE PUSH1 0x4 CALLDATASIZE LT ISZERO PUSH2 0xBB JUMPI JUMPDEST POP CALLDATASIZE ISZERO PUSH2 0x1D JUMPI PUSH1 0x0 DUP1 REVERT JUMPDEST PUSH1 0x1 SLOAD PUSH1 0xA DUP2 LT PUSH2 0x2A JUMPI STOP JUMPDEST PUSH1 0x0 NOT DUP2 EQ PUSH2 0xA5 JUMPI PUSH1 0x1 SWAP1 DUP2 ADD SWAP1 SSTORE PUSH1 0x0 DUP1 SLOAD PUSH1 0x1 PUSH1 0x1 PUSH1 0xA0 SHL SUB AND SWAP2 SWAP1 DUP3 EXTCODESIZE ISZERO PUSH2 0xA2 JUMPI DUP2 MLOAD PUSH4 0x39479A53 PUSH1 0xE0 SHL DUP2 MSTORE ADDRESS PUSH1 0x4 DUP3 ADD MSTORE PUSH1 0x40 PUSH1 0x24 DUP3 ADD MSTORE PUSH1 0x0 PUSH1 0x44 DUP3 ADD MSTORE SWAP3 DUP2 SWAP1 DUP5 SWAP1 PUSH1 0x64 SWAP1 DUP3 SWAP1 DUP5 SWAP1 GAS CALL SWAP2 DUP3 ISZERO PUSH2 0x98 JUMPI POP POP PUSH2 0x8D JUMPI STOP JUMPDEST PUSH2 0x96 SWAP1 PUSH2 0x214 JUMP JUMPDEST STOP JUMPDEST MLOAD SWAP1 RETURNDATASIZE SWAP1 DUP3 RETURNDATACOPY RETURNDATASIZE SWAP1 REVERT JUMPDEST DUP1 REVERT JUMPDEST PUSH4 0x4E487B71 PUSH1 0xE0 SHL PUSH1 0x0 MSTORE PUSH1 0x11 PUSH1 0x4 MSTORE PUSH1 0x24 PUSH1 0x0 REVERT JUMPDEST PUSH1 0x0 SWAP1 DUP2 CALLDATALOAD PUSH1 0xE0 SHR SWAP1 DUP2 PUSH4 0x6661ABD EQ PUSH2 0x1F8 JUMPI POP DUP1 PUSH4 0x9E5FAAFC EQ PUSH2 0x110 JUMPI PUSH4 0xF4F96D29 SUB PUSH2 0x11 JUMPI SWAP1 CALLVALUE PUSH2 0x10C JUMPI DUP2 PUSH1 0x3 NOT CALLDATASIZE ADD SLT PUSH2 0x10C JUMPI SWAP1 SLOAD SWAP1 MLOAD PUSH1 0x1 PUSH1 0x1 PUSH1 0xA0 SHL SUB SWAP1 SWAP2 AND DUP2 MSTORE PUSH1 0x20 SWAP1 RETURN JUMPDEST POP DUP1 REVERT JUMPDEST POP DUP1 SWAP2 DUP2 PUSH1 0x3 NOT CALLDATASIZE ADD SLT PUSH2 0x1F5 JUMPI DUP2 SLOAD PUSH1 0x1 PUSH1 0x1 PUSH1 0xA0 SHL SUB SWAP1 DUP2 AND DUP1 EXTCODESIZE ISZERO PUSH2 0x1F0 JUMPI DUP4 SWAP1 PUSH1 0x44 DUP5 MLOAD DUP1 SWAP8 DUP2 SWAP4 PUSH4 0xD6F63643 PUSH1 0xE0 SHL DUP4 MSTORE PUSH8 0xDE0B6B3A7640000 PUSH1 0x4 DUP5 ADD MSTORE PUSH1 0x1 PUSH1 0x24 DUP5 ADD MSTORE GAS CALL DUP1 ISZERO PUSH2 0x1E4 JUMPI PUSH2 0x1D0 JUMPI JUMPDEST DUP3 DUP1 SWAP5 POP SLOAD AND SWAP1 DUP2 EXTCODESIZE ISZERO PUSH2 0x1CC JUMPI DUP1 MLOAD PUSH4 0x39479A53 PUSH1 0xE0 SHL DUP2 MSTORE ADDRESS PUSH1 0x4 DUP3 ADD MSTORE PUSH1 0x40 PUSH1 0x24 DUP3 ADD MSTORE PUSH1 0x0 PUSH1 0x44 DUP3 ADD MSTORE SWAP2 DUP4 SWAP1 DUP4 SWAP1 PUSH1 0x64 SWAP1 DUP3 SWAP1 DUP5 SWAP1 GAS CALL SWAP1 DUP2 ISZERO PUSH2 0x1C3 JUMPI POP PUSH2 0x1B3 JUMPI POP RETURN JUMPDEST PUSH2 0x1BC SWAP1 PUSH2 0x214 JUMP JUMPDEST PUSH2 0xA2 JUMPI DUP1 RETURN JUMPDEST MLOAD RETURNDATASIZE DUP5 DUP3 RETURNDATACOPY RETURNDATASIZE SWAP1 REVERT JUMPDEST POP POP REVERT JUMPDEST SWAP2 SWAP1 SWAP3 PUSH2 0x1DC SWAP1 PUSH2 0x214 JUMP JUMPDEST SWAP1 DUP3 SWAP1 PUSH2 0x168 JUMP JUMPDEST POP POP MLOAD SWAP1 RETURNDATASIZE SWAP1 DUP3 RETURNDATACOPY RETURNDATASIZE SWAP1 REVERT JUMPDEST POP POP POP REVERT JUMPDEST POP REVERT JUMPDEST SWAP1 POP CALLVALUE PUSH2 0x10C JUMPI DUP2 PUSH1 0x3 NOT CALLDATASIZE ADD SLT PUSH2 0x10C JUMPI PUSH1 0x20 SWAP1 PUSH1 0x1 SLOAD DUP2 MSTORE RETURN JUMPDEST PUSH8 0xFFFFFFFFFFFFFFFF DUP2 GT PUSH2 0x228 JUMPI PUSH1 0x40 MSTORE JUMP JUMPDEST PUSH4 0x4E487B71 PUSH1 0xE0 SHL PUSH1 0x0 MSTORE PUSH1 0x41 PUSH1 0x4 MSTORE PUSH1 0x24 PUSH1 0x0 REVERT INVALID LOG2 PUSH5 0x6970667358 0x22 SLT KECCAK256 0x4D LOG2 OR CALLER 0x4C DUP3 0x27 PUSH25 0x6B298BE25F4B6F399DE3799D4A5299EB23D9AD4E7F73A80664 PUSH20 0x6F6C634300081600330000000000000000000000 "},"methodIdentifiers":{"attack()":"9e5faafc","count()":"06661abd","smartWallet()":"f4f96d29"}},"storageLayout":{"storage":[{"astId":9443,"contract":"contracts/test/ReentrancyAttacker.sol:ReentrancyAttacker","label":"smartWallet","offset":0,"slot":"0","type":"t_contract(SmartWalletV2)9406"},{"astId":9445,"contract":"contracts/test/ReentrancyAttacker.sol:ReentrancyAttacker","label":"count","offset":0,"slot":"1","type":"t_uint256"}],"types":{"t_contract(SmartWalletV2)9406":{"encoding":"inplace","label":"contract SmartWalletV2","numberOfBytes":"20"},"t_uint256":{"encoding":"inplace","label":"uint256","numberOfBytes":"32"}}}}}}