{
  "_format": "hh-sol-artifact-1",
  "contractName": "ReentrancyAttacker",
  "sourceName": "contracts/test/ReentrancyAttacker.sol",
  "abi": [
    {
      "inputs": [
        {
          "internalType": "address payable",
          "name": "_smartWallet",
          "type": "address"
        }
      ],
      "stateMutability": "nonpayable",
      "type": "constructor"
    },
    {
      "inputs": [],
      "name": "attack",
      "outputs": [],
      "stateMutability": "payable",
      "type": "function"
    },
    {
      "inputs": [],
      "name": "count",
      "outputs": [
        {
          "internalType": "uint256",
          "name": "",
          "type": "uint256"
        }
      ],
      "stateMutability": "view",
      "type": "function"
    },
    {
      "inputs": [],
      "name": "smartWallet",
      "outputs": [
        {
          "internalType": "contract SmartWalletV2",
          "name": "",
          "type": "address"
        }
      ],
      "stateMutability": "view",
      "type": "function"
    },
    {
      "stateMutability": "payable",
      "type": "receive"
    }
  ],
  "bytecode": "0x60803461007457601f61030438819003918201601f19168301916001600160401b038311848410176100795780849260209460405283398101031261007457516001600160a01b0381169081900361007457600080546001600160a01b03191691909117905560405161027490816100908239f35b600080fd5b634e487b7160e01b600052604160045260246000fdfe608060409080825260043610156100bb575b50361561001d57600080fd5b600154600a811061002a57005b60001981146100a55760019081019055600080546001600160a01b03169190823b156100a25781516339479a5360e01b815230600482015260406024820152600060448201529281908490606490829084905af191821561009857505061008d57005b61009690610214565b005b51903d90823e3d90fd5b80fd5b634e487b7160e01b600052601160045260246000fd5b600090813560e01c90816306661abd146101f8575080639e5faafc146101105763f4f96d290361001157903461010c578160031936011261010c57905490516001600160a01b039091168152602090f35b5080fd5b508091816003193601126101f55781546001600160a01b03908116803b156101f0578390604484518097819363d6f6364360e01b8352670de0b6b3a76400006004840152600160248401525af180156101e4576101d0575b82809450541690813b156101cc5780516339479a5360e01b815230600482015260406024820152600060448201529183908390606490829084905af19081156101c357506101b35750f35b6101bc90610214565b6100a25780f35b513d84823e3d90fd5b5050fd5b9190926101dc90610214565b908290610168565b505051903d90823e3d90fd5b505050fd5b50fd5b90503461010c578160031936011261010c576020906001548152f35b67ffffffffffffffff811161022857604052565b634e487b7160e01b600052604160045260246000fdfea26469706673582212204da217334c8227786b298be25f4b6f399de3799d4a5299eb23d9ad4e7f73a80664736f6c63430008160033",
  "linkReferences": {},
  "deployedLinkReferences": {}
}