{
  "_format": "hh-sol-artifact-1",
  "contractName": "SmartWalletFixed",
  "sourceName": "contracts/SmartWalletFixed.sol",
  "abi": [
    {
      "inputs": [],
      "stateMutability": "nonpayable",
      "type": "constructor"
    },
    {
      "inputs": [],
      "name": "EnforcedPause",
      "type": "error"
    },
    {
      "inputs": [],
      "name": "ExpectedPause",
      "type": "error"
    },
    {
      "inputs": [
        {
          "internalType": "address",
          "name": "owner",
          "type": "address"
        }
      ],
      "name": "OwnableInvalidOwner",
      "type": "error"
    },
    {
      "inputs": [
        {
          "internalType": "address",
          "name": "account",
          "type": "address"
        }
      ],
      "name": "OwnableUnauthorizedAccount",
      "type": "error"
    },
    {
      "inputs": [],
      "name": "ReentrancyGuardReentrantCall",
      "type": "error"
    },
    {
      "inputs": [
        {
          "internalType": "address",
          "name": "token",
          "type": "address"
        }
      ],
      "name": "SafeERC20FailedOperation",
      "type": "error"
    },
    {
      "anonymous": false,
      "inputs": [
        {
          "indexed": true,
          "internalType": "address",
          "name": "wallet",
          "type": "address"
        },
        {
          "indexed": true,
          "internalType": "address",
          "name": "guardian",
          "type": "address"
        }
      ],
      "name": "GuardianAdded",
      "type": "event"
    },
    {
      "anonymous": false,
      "inputs": [
        {
          "indexed": true,
          "internalType": "address",
          "name": "wallet",
          "type": "address"
        },
        {
          "indexed": true,
          "internalType": "address",
          "name": "guardian",
          "type": "address"
        }
      ],
      "name": "GuardianRemoved",
      "type": "event"
    },
    {
      "anonymous": false,
      "inputs": [
        {
          "indexed": true,
          "internalType": "address",
          "name": "wallet",
          "type": "address"
        },
        {
          "indexed": false,
          "internalType": "uint256",
          "name": "dailyLimit",
          "type": "uint256"
        },
        {
          "indexed": false,
          "internalType": "uint256",
          "name": "monthlyLimit",
          "type": "uint256"
        }
      ],
      "name": "LimitsUpdated",
      "type": "event"
    },
    {
      "anonymous": false,
      "inputs": [
        {
          "indexed": true,
          "internalType": "address",
          "name": "from",
          "type": "address"
        },
        {
          "indexed": true,
          "internalType": "address",
          "name": "to",
          "type": "address"
        },
        {
          "indexed": false,
          "internalType": "uint256",
          "name": "amount",
          "type": "uint256"
        }
      ],
      "name": "NativeTokenTransferred",
      "type": "event"
    },
    {
      "anonymous": false,
      "inputs": [
        {
          "indexed": true,
          "internalType": "address",
          "name": "previousOwner",
          "type": "address"
        },
        {
          "indexed": true,
          "internalType": "address",
          "name": "newOwner",
          "type": "address"
        }
      ],
      "name": "OwnershipTransferred",
      "type": "event"
    },
    {
      "anonymous": false,
      "inputs": [
        {
          "indexed": false,
          "internalType": "address",
          "name": "account",
          "type": "address"
        }
      ],
      "name": "Paused",
      "type": "event"
    },
    {
      "anonymous": false,
      "inputs": [
        {
          "indexed": true,
          "internalType": "string",
          "name": "eventType",
          "type": "string"
        },
        {
          "indexed": true,
          "internalType": "address",
          "name": "user",
          "type": "address"
        },
        {
          "indexed": false,
          "internalType": "string",
          "name": "details",
          "type": "string"
        }
      ],
      "name": "SecurityEvent",
      "type": "event"
    },
    {
      "anonymous": false,
      "inputs": [
        {
          "indexed": true,
          "internalType": "address",
          "name": "from",
          "type": "address"
        },
        {
          "indexed": true,
          "internalType": "address",
          "name": "to",
          "type": "address"
        },
        {
          "indexed": false,
          "internalType": "address",
          "name": "token",
          "type": "address"
        },
        {
          "indexed": false,
          "internalType": "uint256",
          "name": "amount",
          "type": "uint256"
        }
      ],
      "name": "TokensTransferred",
      "type": "event"
    },
    {
      "anonymous": false,
      "inputs": [
        {
          "indexed": false,
          "internalType": "address",
          "name": "account",
          "type": "address"
        }
      ],
      "name": "Unpaused",
      "type": "event"
    },
    {
      "anonymous": false,
      "inputs": [
        {
          "indexed": true,
          "internalType": "address",
          "name": "owner",
          "type": "address"
        },
        {
          "indexed": false,
          "internalType": "address",
          "name": "wallet",
          "type": "address"
        }
      ],
      "name": "WalletCreated",
      "type": "event"
    },
    {
      "inputs": [],
      "name": "MAX_GUARDIANS",
      "outputs": [
        {
          "internalType": "uint256",
          "name": "",
          "type": "uint256"
        }
      ],
      "stateMutability": "view",
      "type": "function"
    },
    {
      "inputs": [],
      "name": "MAX_TRANSACTIONS_PER_PERIOD",
      "outputs": [
        {
          "internalType": "uint256",
          "name": "",
          "type": "uint256"
        }
      ],
      "stateMutability": "view",
      "type": "function"
    },
    {
      "inputs": [],
      "name": "RATE_LIMIT_PERIOD",
      "outputs": [
        {
          "internalType": "uint256",
          "name": "",
          "type": "uint256"
        }
      ],
      "stateMutability": "view",
      "type": "function"
    },
    {
      "inputs": [
        {
          "internalType": "address",
          "name": "guardian",
          "type": "address"
        }
      ],
      "name": "addGuardian",
      "outputs": [],
      "stateMutability": "nonpayable",
      "type": "function"
    },
    {
      "inputs": [
        {
          "internalType": "uint256",
          "name": "initialLimit",
          "type": "uint256"
        }
      ],
      "name": "createWallet",
      "outputs": [],
      "stateMutability": "nonpayable",
      "type": "function"
    },
    {
      "inputs": [],
      "name": "emergencyWithdraw",
      "outputs": [],
      "stateMutability": "nonpayable",
      "type": "function"
    },
    {
      "inputs": [],
      "name": "owner",
      "outputs": [
        {
          "internalType": "address",
          "name": "",
          "type": "address"
        }
      ],
      "stateMutability": "view",
      "type": "function"
    },
    {
      "inputs": [],
      "name": "pause",
      "outputs": [],
      "stateMutability": "nonpayable",
      "type": "function"
    },
    {
      "inputs": [],
      "name": "paused",
      "outputs": [
        {
          "internalType": "bool",
          "name": "",
          "type": "bool"
        }
      ],
      "stateMutability": "view",
      "type": "function"
    },
    {
      "inputs": [
        {
          "internalType": "address",
          "name": "guardian",
          "type": "address"
        }
      ],
      "name": "removeGuardian",
      "outputs": [],
      "stateMutability": "nonpayable",
      "type": "function"
    },
    {
      "inputs": [
        {
          "internalType": "address",
          "name": "token",
          "type": "address"
        }
      ],
      "name": "removeTokenFromWhitelist",
      "outputs": [],
      "stateMutability": "nonpayable",
      "type": "function"
    },
    {
      "inputs": [],
      "name": "renounceOwnership",
      "outputs": [],
      "stateMutability": "nonpayable",
      "type": "function"
    },
    {
      "inputs": [
        {
          "internalType": "address payable",
          "name": "to",
          "type": "address"
        }
      ],
      "name": "transferNative",
      "outputs": [],
      "stateMutability": "payable",
      "type": "function"
    },
    {
      "inputs": [
        {
          "internalType": "address",
          "name": "newOwner",
          "type": "address"
        }
      ],
      "name": "transferOwnership",
      "outputs": [],
      "stateMutability": "nonpayable",
      "type": "function"
    },
    {
      "inputs": [
        {
          "internalType": "address",
          "name": "token",
          "type": "address"
        },
        {
          "internalType": "address",
          "name": "to",
          "type": "address"
        },
        {
          "internalType": "uint256",
          "name": "amount",
          "type": "uint256"
        }
      ],
      "name": "transferTokens",
      "outputs": [],
      "stateMutability": "nonpayable",
      "type": "function"
    },
    {
      "inputs": [],
      "name": "unpause",
      "outputs": [],
      "stateMutability": "nonpayable",
      "type": "function"
    },
    {
      "inputs": [
        {
          "internalType": "address",
          "name": "wallet",
          "type": "address"
        },
        {
          "internalType": "uint256",
          "name": "newDailyLimit",
          "type": "uint256"
        },
        {
          "internalType": "uint256",
          "name": "newMonthlyLimit",
          "type": "uint256"
        }
      ],
      "name": "updateLimits",
      "outputs": [],
      "stateMutability": "nonpayable",
      "type": "function"
    },
    {
      "inputs": [
        {
          "internalType": "bytes32",
          "name": "",
          "type": "bytes32"
        }
      ],
      "name": "usedSignatures",
      "outputs": [
        {
          "internalType": "bool",
          "name": "",
          "type": "bool"
        }
      ],
      "stateMutability": "view",
      "type": "function"
    },
    {
      "inputs": [
        {
          "internalType": "address",
          "name": "",
          "type": "address"
        }
      ],
      "name": "wallets",
      "outputs": [
        {
          "internalType": "bool",
          "name": "exists",
          "type": "bool"
        },
        {
          "internalType": "uint256",
          "name": "dailyLimit",
          "type": "uint256"
        },
        {
          "internalType": "uint256",
          "name": "monthlyLimit",
          "type": "uint256"
        },
        {
          "internalType": "uint256",
          "name": "dailySpent",
          "type": "uint256"
        },
        {
          "internalType": "uint256",
          "name": "monthlySpent",
          "type": "uint256"
        },
        {
          "internalType": "uint256",
          "name": "lastDayReset",
          "type": "uint256"
        },
        {
          "internalType": "uint256",
          "name": "lastMonthReset",
          "type": "uint256"
        },
        {
          "internalType": "uint256",
          "name": "guardiansCount",
          "type": "uint256"
        },
        {
          "internalType": "uint256",
          "name": "nonce",
          "type": "uint256"
        },
        {
          "internalType": "uint256",
          "name": "lastTransactionTime",
          "type": "uint256"
        },
        {
          "internalType": "uint256",
          "name": "transactionCount",
          "type": "uint256"
        }
      ],
      "stateMutability": "view",
      "type": "function"
    },
    {
      "inputs": [
        {
          "internalType": "address",
          "name": "token",
          "type": "address"
        }
      ],
      "name": "whitelistToken",
      "outputs": [],
      "stateMutability": "nonpayable",
      "type": "function"
    },
    {
      "inputs": [
        {
          "internalType": "address",
          "name": "",
          "type": "address"
        }
      ],
      "name": "whitelistedTokens",
      "outputs": [
        {
          "internalType": "bool",
          "name": "",
          "type": "bool"
        }
      ],
      "stateMutability": "view",
      "type": "function"
    },
    {
      "stateMutability": "payable",
      "type": "receive"
    }
  ],
  "bytecode": "0x608080604052346100d15733156100bb5760008054336001600160a01b03198216811783556040519290916001600160a01b0316907f8be0079c531659141344cd1fd0a4f28419497f9722a3daafe3b4186f6b6457e09080a3600180556002549060ff82166100ac5760018260ff1916176002557f62e78cea01bee320cd4e420270b5ea74000d11b0c9f74754ebdbfc544b05a2586020604051338152a1604051611a3190816100d78239f35b63d93c066560e01b8152600490fd5b631e4fbdf760e01b815260006004820152602490fd5b600080fdfe604060808152600480361015610098575b50361561001c57600080fd5b6b11551217d49150d15255915160a21b8151527f45544820726563656976656420627920636f6e7472616374000000000000000081519160208352601860208401528201527fc4db6327b7dcf3f68e7a6e33449805e04bf36498e9cec875a8c1c95f410bbf886000805160206119dc83398151915260603393a3005b90600091823560e01c8063306275be146114845780633f4ba83a146113a9578063422c1d371461138d57806358abfbdf146113715780635c975abb1461134d5780636247f6f21461127457806371404156146110ec578063715018a61461108f5780637a675bb614610eaa5780638456cb5914610de057806389b08f1114610d355780638da5cb5b14610d0d578063a526c5f014610b30578063a526d83b14610914578063a64b6e5f1461057a578063b7b188d11461055a578063cf4c34a6146103b4578063daf9c21014610378578063db2e21bc14610243578063f2fde38b146101bd5763f978fd611461018e575090610010565b346101b95760203660031901126101b9578160209360ff923581526005855220541690519015158152f35b8280fd5b50346101b95760203660031901126101b9576101d761157c565b906101e06117cd565b6001600160a01b0391821692831561022d57505082546001600160a01b0319811683178455167f8be0079c531659141344cd1fd0a4f28419497f9722a3daafe3b4186f6b6457e08380a380f35b51631e4fbdf760e01b8152908101849052602490fd5b50346101b957826003193601126101b95761025c6117cd565b47801561034057835484918291829182916001600160a01b03165af1610280611768565b501561030a575071454d455247454e43595f574954484452415760701b8151527f456d657267656e6379207769746864726177616c20657865637574656400000081519160208352601d60208401528201527f9150a740663a4e1de34dbd521c62e5c53cb2abbf658e99a95c994501a4c8ad726000805160206119dc83398151915260603393a380f35b6020606492519162461bcd60e51b8352820152601160248201527015da5d1a191c985dd85b0819985a5b1959607a1b6044820152fd5b506020606492519162461bcd60e51b835282015260126024820152714e6f2045544820746f20776974686472617760701b6044820152fd5b50346101b95760203660031901126101b95760209260ff918391906001600160a01b036103a361157c565b168252855220541690519015158152f35b50346101b95760603660031901126101b9576103ce61157c565b91602435604435936103de6117cd565b60018060a01b0316938486526020936003855261040060ff8589205416611621565b821561052157601e8302838104601e0361050e5782106104d35750927415d85b1b195d081b1a5b5a5d1cc81d5c19185d1959605a1b83867fdc679119ed8c7f3e58938f78968a044a7d8f8ab9d80398506c4289c318a5e3ee82606096897fcfac7405d92dc11bc0a73cafd982d7ddcd68ca5f7fb1f8acb13d9a015b652a729a60026000805160206119dc8339815191529b8f88815260038c52208460018201550155825191825287820152a26d131253525514d7d554111055115160921b8151526015815193808552840152820152a380f35b835162461bcd60e51b81529081018590526015602482015274125b9d985b1a59081b5bdb9d1a1b1e481b1a5b5a5d605a1b6044820152606490fd5b634e487b7160e01b885260118252602488fd5b835162461bcd60e51b81529081018590526013602482015272125b9d985b1a590819185a5b1e481b1a5b5a5d606a1b6044820152606490fd5b50503461057657816003193601126105765760209051603c8152f35b5080fd5b509190346105765760603660031901126105765761059661157c565b9060249384359060018060a01b03808316809303610910576044918235916105bc6117f9565b6105c461181c565b338852602096600388526105dd60ff888b205416611621565b6105ef6105ea8533611847565b611665565b6106006105fb3361191c565b6116b1565b61060b861515611597565b610617308714156115d5565b169283885281875260ff8689205416156108d7576106368315156116f3565b85516370a0823160e01b8152338382015287818b81885afa908115610864579084918a916108a6575b501061086e578551636eb1769f60e11b81523383820152308a82015287818381885afa908115610864579084918a9161082f575b50106107f5578790865186898201926323b872dd60e01b8452338d8401528201528460648201526064815260a0810181811067ffffffffffffffff8211176107e35788525188929182875af1156107d95786513d6107d05750823b155b6107ba57507f546f6b656e207472616e7366657220657865637574656400000000000000000094959650610724813361195b565b61072d33611993565b8351918252858201527f70c5f97fd0068e96984b8116fe83eefbff3b91244565bf311a3cba619b4ecbc7833392a36d2a27a5a2a72faa2920a729a322a960911b81515260178151938085528401528201527f60f91c4983cd584ea4c48485b610cc900d867e1f806ae08ae922a90379466d356000805160206119dc83398151915260603393a36001805580f35b8451635274afe760e01b81529081018390528790fd5b600114156106f0565b84513d88823e3d90fd5b634e487b7160e01b8452604185528b84fd5b855162461bcd60e51b81529182018790526016828a015275496e73756666696369656e7420616c6c6f77616e636560501b90820152606490fd5b809250898092503d831161085d575b6108488183611730565b810103126108595783905138610693565b8880fd5b503d61083e565b87513d8b823e3d90fd5b855162461bcd60e51b81529182018790526014828a015273496e73756666696369656e742062616c616e636560601b90820152606490fd5b809250898092503d83116108d0575b6108bf8183611730565b81010312610859578390513861065f565b503d6108b5565b855162461bcd60e51b81529182018790526015828a015274151bdad95b881b9bdd081dda1a5d195b1a5cdd1959605a1b90820152606490fd5b8580fd5b5091903461057657602090816003193601126101b95761093261157c565b33845260039081845261094a60ff8487205416611621565b6001600160a01b03169461095f861515611597565b61096b308714156115d5565b338614610aed57338552818452600783862001868652845260ff8386205416610aaa5733855281845281600884872001541015610a6f5750906d11d550549112505397d05111115160921b856d11dd585c991a585b88185919195960921b933387528086526007848820018288528652838720600160ff1982541617905533875285526008838720016109fe81546117a8565b9055825190337fbc3292102fa77e083913064b282926717cdfaede4d35f553d66366c0a3da755a8880a352600e8151938085528401528201527f96bcc56cfe8f348520fc140868e4e66e54e67f50264202f57635528b6af9077f6000805160206119dc83398151915260603393a380f35b825162461bcd60e51b8152908101849052601560248201527413585e0819dd585c991a585b9cc81c995858da1959605a1b6044820152606490fd5b825162461bcd60e51b8152908101849052601760248201527f477561726469616e20616c7265616479206578697374730000000000000000006044820152606490fd5b825162461bcd60e51b8152908101849052601b60248201527f43616e6e6f74206164642073656c6620617320677561726469616e00000000006044820152606490fd5b509190602090816003193601126101b95783356001600160a01b0381169490859003610d0957610b5e6117f9565b610b6661181c565b33845260038352610b7c60ff8386205416611621565b610b896105ea3433611847565b610b956105fb3361191c565b610ba0851515611597565b610bac308614156115d5565b610bb73415156116f3565b344710610cc8578380808034895af1610bce611768565b5015610c9557507f4e617469766520746f6b656e207472616e7366657220657865637574656400009084610c02343361195b565b610c0b33611993565b81513481527f011c182fcc25e52151bf452608f627a605269882587c25b326e9eb16819557b6853392a36e2720aa24ab22afaa2920a729a322a960891b815152601e8151938085528401528201527fef56a5615f8bbcee22a92e99498b521e2ea125732645878882b5cd32f413d28f6000805160206119dc83398151915260603393a36001805580f35b82606492519162461bcd60e51b8352820152600f60248201526e151c985b9cd9995c8819985a5b1959608a1b6044820152fd5b82606492519162461bcd60e51b8352820152601d60248201527f496e73756666696369656e7420636f6e74726163742062616c616e63650000006044820152fd5b8380fd5b505034610576578160031936011261057657905490516001600160a01b039091168152602090f35b50346101b95760203660031901126101b9576101609282906001600160a01b03610d5d61157c565b16815260036020522060ff81541692600182015492600283015490600384015490840154600585015490600686015492600887015494600988015496600b600a8a01549901549981519b15158c5260208c01528a01526060890152608088015260a087015260c086015260e0850152610100840152610120830152610140820152f35b505034610576578160031936011261057657610dfa6117cd565b610e0261181c565b600160ff1960025416176002557f62e78cea01bee320cd4e420270b5ea74000d11b0c9f74754ebdbfc544b05a25860208251338152a16e10d3d395149050d517d4105554d151608a1b8151526e10dbdb9d1c9858dd081c185d5cd959608a1b81519160208352600f60208401528201527f147b5a380f6f0270a2f69850af8b14ad13a2da1ab5eeb54ef942363f06fef7e36000805160206119dc83398151915260603393a380f35b5091903461057657602090816003193601126101b9578335323303611054573384526003835260ff8285205416611019578015610fde573384526003835281842090600160ff19835416178255806001830155601e8102908104601e03610fcb57600b82869260027113995dc81dd85b1b195d0818dc99585d195960721b9695015542600582015542600682015582600982015582600a820155015580513381527f5b03bfed1c14a02bdeceb5fa582eb1a5765fc0bc64ca0e6af4c20afc9487f081843392a26d15d05313115517d0d4915055115160921b81515260128151938085528401528201527faff2cd6171b22fca754208fc501edec111c0d535478c34266a231917a70b258b6000805160206119dc83398151915260603393a380f35b634e487b7160e01b855260118652602485fd5b815162461bcd60e51b81528086018490526015602482015274125b9d985b1a59081a5b9a5d1a585b081b1a5b5a5d605a1b6044820152606490fd5b815162461bcd60e51b8152808601849052601560248201527457616c6c657420616c72656164792065786973747360581b6044820152606490fd5b815162461bcd60e51b8152808601849052601560248201527410dbdb9d1c9858dd1cc81b9bdd08185b1b1bddd959605a1b6044820152606490fd5b83346110e957806003193601126110e9576110a86117cd565b80546001600160a01b03198116825581906001600160a01b03167f8be0079c531659141344cd1fd0a4f28419497f9722a3daafe3b4186f6b6457e08280a380f35b80fd5b5091903461057657602090816003193601126101b95761110a61157c565b3384526003835261112060ff8386205416611621565b338452600383528184206001600160a01b0390911680855260079190910183528184205460ff16156112315733845260038352600782852001818552835281842060ff198154169055338452600383526008828520018054801561121e5760001901905581516f11dd585c991a585b881c995b5bdd995960821b92916f11d550549112505397d4915353d5915160821b9190337fee943cdb81826d5909c559c6b1ae6908fcaf2dbc16c4b730346736b486283e8b8880a35260108151938085528401528201527f4c58f73c287819f5cc633b6e04f6310c01b3e3880c34c4f2b4b2f7c2883c5a206000805160206119dc83398151915260603393a380f35b634e487b7160e01b865260118752602486fd5b815162461bcd60e51b8152808601849052601760248201527f477561726469616e20646f6573206e6f742065786973740000000000000000006044820152606490fd5b5090346101b95760203660031901126101b9576000805160206119dc83398151915260607f3d121eb71d15c143f13fb275138cc1d25f61306c933bc6b832818ddabe9942b8926112c261157c565b6112ca6117cd565b6001600160a01b0316946112df861515611597565b6112eb308714156115d5565b858752602052808620600160ff19825416179055701513d2d15397d5d2125511531254d51151607a1b8151527f546f6b656e20616464656420746f2077686974656c69737400000000000000008151916020835260186020840152820152a380f35b50503461057657816003193601126105765760209060ff6002541690519015158152f35b50503461057657816003193601126105765760209051600a8152f35b5050346105765781600319360112610576576020905160038152f35b50346101b957826003193601126101b9576113c26117cd565b6002549060ff821615611476575060ff19166002557f5db9ee0a495bf2e6ff9c91a7834c1ba4fdd244a5e8aa4e537bd38aeae4b073aa60208251338152a17010d3d395149050d517d55394105554d151607a1b8151527010dbdb9d1c9858dd081d5b9c185d5cd959607a1b81519160208352601160208401528201527ffb1c428812a427ca46d176c2bc29db1f567ecdf9104f28f2e57efccdcc6d0e526000805160206119dc83398151915260603393a380f35b8251638dfc202b60e01b8152fd5b5090346101b95760203660031901126101b95761149f61157c565b6114a76117cd565b6001600160a01b031691821561154a5760607fa9083c24e5d01b177e2d6a16786169f806b25e6a56c5e9ec62cc14c2ee6f18e9926000805160206119dc8339815191529285875260205280862060ff198154169055701513d2d15397d0931050d2d31254d51151607a1b8151527f546f6b656e2072656d6f7665642066726f6d2077686974656c6973740000000081519160208352601c6020840152820152a380f35b6020606492519162461bcd60e51b8352820152600d60248201526c24b73b30b634b2103a37b5b2b760991b6044820152fd5b600435906001600160a01b038216820361159257565b600080fd5b1561159e57565b60405162461bcd60e51b815260206004820152600f60248201526e496e76616c6964206164647265737360881b6044820152606490fd5b156115dc57565b60405162461bcd60e51b815260206004820152601b60248201527f43616e6e6f742075736520636f6e7472616374206164647265737300000000006044820152606490fd5b1561162857565b60405162461bcd60e51b815260206004820152601560248201527415d85b1b195d08191bd95cc81b9bdd08195e1a5cdd605a1b6044820152606490fd5b1561166c57565b60405162461bcd60e51b815260206004820152601a60248201527f5472616e73616374696f6e2065786365656473206c696d6974730000000000006044820152606490fd5b156116b857565b60405162461bcd60e51b815260206004820152601360248201527214985d19481b1a5b5a5d08195e18d959591959606a1b6044820152606490fd5b156116fa57565b60405162461bcd60e51b815260206004820152600e60248201526d125b9d985b1a5908185b5bdd5b9d60921b6044820152606490fd5b90601f8019910116810190811067ffffffffffffffff82111761175257604052565b634e487b7160e01b600052604160045260246000fd5b3d156117a3573d9067ffffffffffffffff82116117525760405191611797601f8201601f191660200184611730565b82523d6000602084013e565b606090565b60001981146117b75760010190565b634e487b7160e01b600052601160045260246000fd5b6000546001600160a01b031633036117e157565b60405163118cdaa760e01b8152336004820152602490fd5b60026001541461180a576002600155565b604051633ee5aeb560e01b8152600490fd5b60ff6002541661182857565b60405163d93c066560e01b8152600490fd5b919082018092116117b757565b6001600160a01b03166000908152600360205260408120600581018054919291620151808101908110611908574210156118f9575b506006820190815462278d0081018091116118e5574210156118d6575b50506118a982600383015461183a565b6001820154101591826118bb57505090565b8192506118ce906004600293015461183a565b910154101590565b60048301554290553880611899565b634e487b7160e01b82526011600452602482fd5b8160038401554290553861187c565b634e487b7160e01b83526011600452602483fd5b6001600160a01b03166000908152600360205260409020600a810154603c81019081106117b75742101561195557600b600a9101541090565b50600190565b60018060a01b0316600052600360205261198f600460406000206003810161198485825461183a565b90550191825461183a565b9055565b60018060a01b031660005260036020526040600020600a8101908154603c81018091116117b75742106119cc57600b6001910155429055565b600b91500161198f81546117a856fe9fbf46cde146ca9cbbcf5066a33c413d870f319f2fefc85b83e485ba2410449fa2646970667358221220b8457903d78355c1efc65dd540f944b061ff0c4ef947f7663270a03decd6375b64736f6c63430008160033",
  "linkReferences": {},
  "deployedLinkReferences": {}
}