{
  "_format": "hh-sol-artifact-1",
  "contractName": "LiquidityPool",
  "sourceName": "contracts/LiquidityPool.sol",
  "abi": [
    {
      "inputs": [
        {
          "internalType": "address",
          "name": "_tokenA",
          "type": "address"
        },
        {
          "internalType": "address",
          "name": "_tokenB",
          "type": "address"
        },
        {
          "internalType": "uint256",
          "name": "_fee",
          "type": "uint256"
        }
      ],
      "stateMutability": "nonpayable",
      "type": "constructor"
    },
    {
      "anonymous": false,
      "inputs": [
        {
          "indexed": true,
          "internalType": "address",
          "name": "provider",
          "type": "address"
        },
        {
          "indexed": false,
          "internalType": "uint256",
          "name": "amountA",
          "type": "uint256"
        },
        {
          "indexed": false,
          "internalType": "uint256",
          "name": "amountB",
          "type": "uint256"
        },
        {
          "indexed": false,
          "internalType": "uint256",
          "name": "liquidity",
          "type": "uint256"
        }
      ],
      "name": "LiquidityAdded",
      "type": "event"
    },
    {
      "anonymous": false,
      "inputs": [
        {
          "indexed": true,
          "internalType": "address",
          "name": "provider",
          "type": "address"
        },
        {
          "indexed": false,
          "internalType": "uint256",
          "name": "amountA",
          "type": "uint256"
        },
        {
          "indexed": false,
          "internalType": "uint256",
          "name": "amountB",
          "type": "uint256"
        },
        {
          "indexed": false,
          "internalType": "uint256",
          "name": "liquidity",
          "type": "uint256"
        }
      ],
      "name": "LiquidityRemoved",
      "type": "event"
    },
    {
      "anonymous": false,
      "inputs": [
        {
          "indexed": true,
          "internalType": "address",
          "name": "previousOwner",
          "type": "address"
        },
        {
          "indexed": true,
          "internalType": "address",
          "name": "newOwner",
          "type": "address"
        }
      ],
      "name": "OwnershipTransferred",
      "type": "event"
    },
    {
      "anonymous": false,
      "inputs": [
        {
          "indexed": false,
          "internalType": "address",
          "name": "account",
          "type": "address"
        }
      ],
      "name": "Paused",
      "type": "event"
    },
    {
      "anonymous": false,
      "inputs": [
        {
          "indexed": true,
          "internalType": "address",
          "name": "user",
          "type": "address"
        },
        {
          "indexed": false,
          "internalType": "uint256",
          "name": "amountIn",
          "type": "uint256"
        },
        {
          "indexed": false,
          "internalType": "uint256",
          "name": "amountOut",
          "type": "uint256"
        },
        {
          "indexed": false,
          "internalType": "address",
          "name": "tokenIn",
          "type": "address"
        },
        {
          "indexed": false,
          "internalType": "address",
          "name": "tokenOut",
          "type": "address"
        }
      ],
      "name": "Swap",
      "type": "event"
    },
    {
      "anonymous": false,
      "inputs": [
        {
          "indexed": false,
          "internalType": "address",
          "name": "account",
          "type": "address"
        }
      ],
      "name": "Unpaused",
      "type": "event"
    },
    {
      "inputs": [
        {
          "internalType": "uint256",
          "name": "amountADesired",
          "type": "uint256"
        },
        {
          "internalType": "uint256",
          "name": "amountBDesired",
          "type": "uint256"
        },
        {
          "internalType": "uint256",
          "name": "amountAMin",
          "type": "uint256"
        },
        {
          "internalType": "uint256",
          "name": "amountBMin",
          "type": "uint256"
        }
      ],
      "name": "addLiquidity",
      "outputs": [
        {
          "internalType": "uint256",
          "name": "amountA",
          "type": "uint256"
        },
        {
          "internalType": "uint256",
          "name": "amountB",
          "type": "uint256"
        },
        {
          "internalType": "uint256",
          "name": "liquidity",
          "type": "uint256"
        }
      ],
      "stateMutability": "nonpayable",
      "type": "function"
    },
    {
      "inputs": [
        {
          "internalType": "address",
          "name": "",
          "type": "address"
        }
      ],
      "name": "balances",
      "outputs": [
        {
          "internalType": "uint256",
          "name": "",
          "type": "uint256"
        }
      ],
      "stateMutability": "view",
      "type": "function"
    },
    {
      "inputs": [],
      "name": "owner",
      "outputs": [
        {
          "internalType": "address",
          "name": "",
          "type": "address"
        }
      ],
      "stateMutability": "view",
      "type": "function"
    },
    {
      "inputs": [],
      "name": "pause",
      "outputs": [],
      "stateMutability": "nonpayable",
      "type": "function"
    },
    {
      "inputs": [],
      "name": "paused",
      "outputs": [
        {
          "internalType": "bool",
          "name": "",
          "type": "bool"
        }
      ],
      "stateMutability": "view",
      "type": "function"
    },
    {
      "inputs": [],
      "name": "pool",
      "outputs": [
        {
          "internalType": "contract IERC20",
          "name": "tokenA",
          "type": "address"
        },
        {
          "internalType": "contract IERC20",
          "name": "tokenB",
          "type": "address"
        },
        {
          "internalType": "uint256",
          "name": "reserveA",
          "type": "uint256"
        },
        {
          "internalType": "uint256",
          "name": "reserveB",
          "type": "uint256"
        },
        {
          "internalType": "uint256",
          "name": "totalSupply",
          "type": "uint256"
        },
        {
          "internalType": "uint256",
          "name": "fee",
          "type": "uint256"
        }
      ],
      "stateMutability": "view",
      "type": "function"
    },
    {
      "inputs": [
        {
          "internalType": "uint256",
          "name": "amountA",
          "type": "uint256"
        },
        {
          "internalType": "uint256",
          "name": "reserveA",
          "type": "uint256"
        },
        {
          "internalType": "uint256",
          "name": "reserveB",
          "type": "uint256"
        }
      ],
      "name": "quote",
      "outputs": [
        {
          "internalType": "uint256",
          "name": "amountB",
          "type": "uint256"
        }
      ],
      "stateMutability": "pure",
      "type": "function"
    },
    {
      "inputs": [
        {
          "internalType": "uint256",
          "name": "liquidity",
          "type": "uint256"
        },
        {
          "internalType": "uint256",
          "name": "amountAMin",
          "type": "uint256"
        },
        {
          "internalType": "uint256",
          "name": "amountBMin",
          "type": "uint256"
        }
      ],
      "name": "removeLiquidity",
      "outputs": [
        {
          "internalType": "uint256",
          "name": "amountA",
          "type": "uint256"
        },
        {
          "internalType": "uint256",
          "name": "amountB",
          "type": "uint256"
        }
      ],
      "stateMutability": "nonpayable",
      "type": "function"
    },
    {
      "inputs": [],
      "name": "renounceOwnership",
      "outputs": [],
      "stateMutability": "nonpayable",
      "type": "function"
    },
    {
      "inputs": [
        {
          "internalType": "uint256",
          "name": "amountIn",
          "type": "uint256"
        },
        {
          "internalType": "uint256",
          "name": "amountOutMin",
          "type": "uint256"
        },
        {
          "internalType": "address",
          "name": "tokenIn",
          "type": "address"
        },
        {
          "internalType": "address",
          "name": "tokenOut",
          "type": "address"
        }
      ],
      "name": "swap",
      "outputs": [
        {
          "internalType": "uint256",
          "name": "amountOut",
          "type": "uint256"
        }
      ],
      "stateMutability": "nonpayable",
      "type": "function"
    },
    {
      "inputs": [
        {
          "internalType": "address",
          "name": "newOwner",
          "type": "address"
        }
      ],
      "name": "transferOwnership",
      "outputs": [],
      "stateMutability": "nonpayable",
      "type": "function"
    },
    {
      "inputs": [],
      "name": "unpause",
      "outputs": [],
      "stateMutability": "nonpayable",
      "type": "function"
    }
  ],
  "bytecode": "0x60806040523480156200001157600080fd5b50604051620015b2380380620015b283398101604081905262000034916200019a565b6200003f336200012d565b600180556002805460ff191690556001600160a01b038316158015906200006e57506001600160a01b03821615155b620000b15760405162461bcd60e51b815260206004820152600e60248201526d496e76616c696420746f6b656e7360901b60448201526064015b60405180910390fd5b6103e8811115620000f45760405162461bcd60e51b815260206004820152600c60248201526b08ccaca40e8dede40d0d2ced60a31b6044820152606401620000a8565b600380546001600160a01b039485166001600160a01b0319918216179091556004805493909416921691909117909155600855620001db565b600080546001600160a01b038381166001600160a01b0319831681178455604051919092169283917f8be0079c531659141344cd1fd0a4f28419497f9722a3daafe3b4186f6b6457e09190a35050565b80516001600160a01b03811681146200019557600080fd5b919050565b600080600060608486031215620001b057600080fd5b620001bb846200017d565b9250620001cb602085016200017d565b9150604084015190509250925092565b6113c780620001eb6000396000f3fe608060405234801561001057600080fd5b50600436106100b45760003560e01c8063857620e111610071578063857620e11461017e5780638da5cb5b146101a657806393ae8809146101c1578063ad615dec146101d4578063aebf3e41146101e7578063f2fde38b1461021557600080fd5b806316f0115b146100b957806327e235e3146101205780633f4ba83a1461014e5780635c975abb14610158578063715018a61461016e5780638456cb5914610176575b600080fd5b6003546004546005546006546007546008546100e3956001600160a01b0390811695169392919086565b604080516001600160a01b039788168152969095166020870152938501929092526060840152608083015260a082015260c0015b60405180910390f35b61014061012e3660046111c1565b60096020526000908152604090205481565b604051908152602001610117565b610156610228565b005b60025460ff166040519015158152602001610117565b61015661023a565b61015661024c565b61019161018c3660046111dc565b61025c565b60408051928352602083019190915201610117565b6000546040516001600160a01b039091168152602001610117565b6101406101cf366004611208565b610462565b6101406101e23660046111dc565b610782565b6101fa6101f536600461124e565b610833565b60408051938452602084019290925290820152606001610117565b6101566102233660046111c1565b610b5b565b610230610bd4565b610238610c2e565b565b610242610bd4565b6102386000610c80565b610254610bd4565b610238610cd0565b600080610267610d0d565b61026f610d66565b84600081116102be5760405162461bcd60e51b8152602060048201526016602482015275496e73756666696369656e74206c697175696469747960501b60448201526064015b60405180910390fd5b336000908152600960205260409020548611156103145760405162461bcd60e51b8152602060048201526014602482015273496e73756666696369656e742062616c616e636560601b60448201526064016102b5565b6007546005546103249088611296565b61032e91906112ad565b600754600654919450906103429088611296565b61034c91906112ad565b915084831015801561035e5750838210155b6103a15760405162461bcd60e51b8152602060048201526014602482015273496e73756666696369656e7420616d6f756e747360601b60448201526064016102b5565b6103ab3387610dac565b6003546103c2906001600160a01b03163385610df7565b6004546103d9906001600160a01b03163384610df7565b82600360020160008282546103ee91906112cf565b9091555050600680548391906000906104089084906112cf565b9091555050604080518481526020810184905290810187905233907f1dc8bb69df2b8e91fbdcbfcf93d951b3f0000f085a95fe3f7946d6161439245d9060600160405180910390a25061045a60018055565b935093915050565b600061046c610d0d565b610474610d66565b6003546001600160a01b038481169116148061049d57506004546001600160a01b038481169116145b6104df5760405162461bcd60e51b815260206004820152601360248201527224b73b30b634b21034b7383aba103a37b5b2b760691b60448201526064016102b5565b6003546001600160a01b038381169116148061050857506004546001600160a01b038381169116145b61054b5760405162461bcd60e51b815260206004820152601460248201527324b73b30b634b21037baba383aba103a37b5b2b760611b60448201526064016102b5565b816001600160a01b0316836001600160a01b03160361059a5760405162461bcd60e51b815260206004820152600b60248201526a53616d6520746f6b656e7360a81b60448201526064016102b5565b6003546001600160a01b03848116911614600080826105be576006546005546105c5565b6005546006545b90925090506105df6001600160a01b03871633308b610e5f565b6008546000906105f1906127106112cf565b6105fb908a611296565b90508061060a84612710611296565b61061491906112e2565b61061e8383611296565b61062891906112ad565b94508785101561067a5760405162461bcd60e51b815260206004820152601a60248201527f496e73756666696369656e74206f757470757420616d6f756e7400000000000060448201526064016102b5565b83156106d057886003600201600082825461069591906112e2565b9091555050600680548691906000906106af9084906112cf565b90915550506004546106cb906001600160a01b03163387610df7565b61071a565b886003800160008282546106e491906112e2565b9091555050600580548691906000906106fe9084906112cf565b909155505060035461071a906001600160a01b03163387610df7565b604080518a8152602081018790526001600160a01b038981168284015288166060820152905133917f053d794b2310b8d186a24ae24a65ee066983a52a6efa6bd3df09a7601a3cb4f3919081900360800190a25050505061077a60018055565b949350505050565b60008084116107c95760405162461bcd60e51b8152602060048201526013602482015272125b9cdd59999a58da595b9d08185b5bdd5b9d606a1b60448201526064016102b5565b6000831180156107d95750600082115b61081e5760405162461bcd60e51b8152602060048201526016602482015275496e73756666696369656e74206c697175696469747960501b60448201526064016102b5565b826108298386611296565b61077a91906112ad565b6000806000610840610d0d565b610848610d66565b8487101580156108585750838610155b6108a45760405162461bcd60e51b815260206004820152601b60248201527f496e73756666696369656e74206465736972656420616d6f756e74000000000060448201526064016102b5565b6007546000036108e7578692508591506103e86108c96108c48486611296565b610e9d565b6108d391906112cf565b90506108e260006103e8610f0d565b610a46565b60006108fd886003600201546003800154610782565b9050868111610959578481101561094e5760405162461bcd60e51b8152602060048201526015602482015274125b9cdd59999a58da595b9d081088185b5bdd5b9d605a1b60448201526064016102b5565b879350809250610a04565b600061096f886003800154600360020154610782565b9050888111156109b65760405162461bcd60e51b8152602060048201526012602482015271115e18d95cdcda5d99481048185b5bdd5b9d60721b60448201526064016102b5565b868110156109fe5760405162461bcd60e51b8152602060048201526015602482015274125b9cdd59999a58da595b9d081048185b5bdd5b9d605a1b60448201526064016102b5565b93508692505b600554600754610a429190610a199087611296565b610a2391906112ad565b600654600754610a339087611296565b610a3d91906112ad565b610f4f565b9150505b60008111610a965760405162461bcd60e51b815260206004820152601d60248201527f496e73756666696369656e74206c6971756964697479206d696e74656400000060448201526064016102b5565b600354610aae906001600160a01b0316333086610e5f565b600454610ac6906001600160a01b0316333085610e5f565b8260036002016000828254610adb91906112e2565b909155505060068054839190600090610af59084906112e2565b90915550610b0590503382610f0d565b604080518481526020810184905290810182905233907f64b83944e79c3ce8d4c297411de637c3e102d064677aac0c163976ebdcd6f50e9060600160405180910390a2610b5160018055565b9450945094915050565b610b63610bd4565b6001600160a01b038116610bc85760405162461bcd60e51b815260206004820152602660248201527f4f776e61626c653a206e6577206f776e657220697320746865207a65726f206160448201526564647265737360d01b60648201526084016102b5565b610bd181610c80565b50565b6000546001600160a01b031633146102385760405162461bcd60e51b815260206004820181905260248201527f4f776e61626c653a2063616c6c6572206973206e6f7420746865206f776e657260448201526064016102b5565b610c36610f69565b6002805460ff191690557f5db9ee0a495bf2e6ff9c91a7834c1ba4fdd244a5e8aa4e537bd38aeae4b073aa335b6040516001600160a01b03909116815260200160405180910390a1565b600080546001600160a01b038381166001600160a01b0319831681178455604051919092169283917f8be0079c531659141344cd1fd0a4f28419497f9722a3daafe3b4186f6b6457e09190a35050565b610cd8610d66565b6002805460ff191660011790557f62e78cea01bee320cd4e420270b5ea74000d11b0c9f74754ebdbfc544b05a258610c633390565b600260015403610d5f5760405162461bcd60e51b815260206004820152601f60248201527f5265656e7472616e637947756172643a207265656e7472616e742063616c6c0060448201526064016102b5565b6002600155565b60025460ff16156102385760405162461bcd60e51b815260206004820152601060248201526f14185d5cd8589b194e881c185d5cd95960821b60448201526064016102b5565b6001600160a01b03821660009081526009602052604081208054839290610dd49084906112cf565b909155505060078054829190600090610dee9084906112cf565b90915550505050565b6040516001600160a01b038316602482015260448101829052610e5a90849063a9059cbb60e01b906064015b60408051601f198184030181529190526020810180516001600160e01b03166001600160e01b031990931692909217909152610fb2565b505050565b6040516001600160a01b0380851660248301528316604482015260648101829052610e979085906323b872dd60e01b90608401610e23565b50505050565b60006003821115610efe5750806000610eb76002836112ad565b610ec29060016112e2565b90505b81811015610ef857905080600281610edd81866112ad565b610ee791906112e2565b610ef191906112ad565b9050610ec5565b50919050565b8115610f08575060015b919050565b8060036004016000828254610f2291906112e2565b90915550506001600160a01b03821660009081526009602052604081208054839290610dee9084906112e2565b6000818310610f5e5781610f60565b825b90505b92915050565b60025460ff166102385760405162461bcd60e51b815260206004820152601460248201527314185d5cd8589b194e881b9bdd081c185d5cd95960621b60448201526064016102b5565b6000611007826040518060400160405280602081526020017f5361666545524332303a206c6f772d6c6576656c2063616c6c206661696c6564815250856001600160a01b03166110879092919063ffffffff16565b905080516000148061102857508080602001905181019061102891906112f5565b610e5a5760405162461bcd60e51b815260206004820152602a60248201527f5361666545524332303a204552433230206f7065726174696f6e20646964206e6044820152691bdd081cdd58d8d9595960b21b60648201526084016102b5565b606061077a848460008585600080866001600160a01b031685876040516110ae9190611342565b60006040518083038185875af1925050503d80600081146110eb576040519150601f19603f3d011682016040523d82523d6000602084013e6110f0565b606091505b50915091506111018783838761110c565b979650505050505050565b6060831561117b578251600003611174576001600160a01b0385163b6111745760405162461bcd60e51b815260206004820152601d60248201527f416464726573733a2063616c6c20746f206e6f6e2d636f6e747261637400000060448201526064016102b5565b508161077a565b61077a83838151156111905781518083602001fd5b8060405162461bcd60e51b81526004016102b5919061135e565b80356001600160a01b0381168114610f0857600080fd5b6000602082840312156111d357600080fd5b610f60826111aa565b6000806000606084860312156111f157600080fd5b505081359360208301359350604090920135919050565b6000806000806080858703121561121e57600080fd5b8435935060208501359250611235604086016111aa565b9150611243606086016111aa565b905092959194509250565b6000806000806080858703121561126457600080fd5b5050823594602084013594506040840135936060013592509050565b634e487b7160e01b600052601160045260246000fd5b8082028115828204841417610f6357610f63611280565b6000826112ca57634e487b7160e01b600052601260045260246000fd5b500490565b81810381811115610f6357610f63611280565b80820180821115610f6357610f63611280565b60006020828403121561130757600080fd5b8151801515811461131757600080fd5b9392505050565b60005b83811015611339578181015183820152602001611321565b50506000910152565b6000825161135481846020870161131e565b9190910192915050565b602081526000825180602084015261137d81604085016020870161131e565b601f01601f1916919091016040019291505056fea26469706673582212205b313c6e44a3849035cf659ab52061446b3780cdfdf7ec4791f030a9d86e109c64736f6c63430008130033",
  "linkReferences": {},
  "deployedLinkReferences": {}
}