{
  "_format": "hh-sol-artifact-1",
  "contractName": "SmartWallet",
  "sourceName": "contracts/SmartWallet.sol",
  "abi": [
    {
      "inputs": [],
      "stateMutability": "nonpayable",
      "type": "constructor"
    },
    {
      "anonymous": false,
      "inputs": [
        {
          "indexed": true,
          "internalType": "address",
          "name": "wallet",
          "type": "address"
        },
        {
          "indexed": true,
          "internalType": "address",
          "name": "guardian",
          "type": "address"
        }
      ],
      "name": "GuardianAdded",
      "type": "event"
    },
    {
      "anonymous": false,
      "inputs": [
        {
          "indexed": true,
          "internalType": "address",
          "name": "wallet",
          "type": "address"
        },
        {
          "indexed": true,
          "internalType": "address",
          "name": "guardian",
          "type": "address"
        }
      ],
      "name": "GuardianRemoved",
      "type": "event"
    },
    {
      "anonymous": false,
      "inputs": [
        {
          "indexed": true,
          "internalType": "address",
          "name": "wallet",
          "type": "address"
        },
        {
          "indexed": false,
          "internalType": "uint256",
          "name": "dailyLimit",
          "type": "uint256"
        },
        {
          "indexed": false,
          "internalType": "uint256",
          "name": "monthlyLimit",
          "type": "uint256"
        }
      ],
      "name": "LimitsUpdated",
      "type": "event"
    },
    {
      "anonymous": false,
      "inputs": [
        {
          "indexed": true,
          "internalType": "address",
          "name": "from",
          "type": "address"
        },
        {
          "indexed": true,
          "internalType": "address",
          "name": "to",
          "type": "address"
        },
        {
          "indexed": false,
          "internalType": "uint256",
          "name": "amount",
          "type": "uint256"
        }
      ],
      "name": "NativeTokenTransferred",
      "type": "event"
    },
    {
      "anonymous": false,
      "inputs": [
        {
          "indexed": true,
          "internalType": "address",
          "name": "previousOwner",
          "type": "address"
        },
        {
          "indexed": true,
          "internalType": "address",
          "name": "newOwner",
          "type": "address"
        }
      ],
      "name": "OwnershipTransferred",
      "type": "event"
    },
    {
      "anonymous": false,
      "inputs": [
        {
          "indexed": false,
          "internalType": "address",
          "name": "account",
          "type": "address"
        }
      ],
      "name": "Paused",
      "type": "event"
    },
    {
      "anonymous": false,
      "inputs": [
        {
          "indexed": true,
          "internalType": "address",
          "name": "from",
          "type": "address"
        },
        {
          "indexed": true,
          "internalType": "address",
          "name": "to",
          "type": "address"
        },
        {
          "indexed": false,
          "internalType": "address",
          "name": "token",
          "type": "address"
        },
        {
          "indexed": false,
          "internalType": "uint256",
          "name": "amount",
          "type": "uint256"
        }
      ],
      "name": "TokensTransferred",
      "type": "event"
    },
    {
      "anonymous": false,
      "inputs": [
        {
          "indexed": false,
          "internalType": "address",
          "name": "account",
          "type": "address"
        }
      ],
      "name": "Unpaused",
      "type": "event"
    },
    {
      "anonymous": false,
      "inputs": [
        {
          "indexed": true,
          "internalType": "address",
          "name": "owner",
          "type": "address"
        },
        {
          "indexed": false,
          "internalType": "address",
          "name": "wallet",
          "type": "address"
        }
      ],
      "name": "WalletCreated",
      "type": "event"
    },
    {
      "inputs": [],
      "name": "MAX_GUARDIANS",
      "outputs": [
        {
          "internalType": "uint256",
          "name": "",
          "type": "uint256"
        }
      ],
      "stateMutability": "view",
      "type": "function"
    },
    {
      "inputs": [
        {
          "internalType": "address",
          "name": "guardian",
          "type": "address"
        }
      ],
      "name": "addGuardian",
      "outputs": [],
      "stateMutability": "nonpayable",
      "type": "function"
    },
    {
      "inputs": [
        {
          "internalType": "uint256",
          "name": "initialLimit",
          "type": "uint256"
        }
      ],
      "name": "createWallet",
      "outputs": [],
      "stateMutability": "nonpayable",
      "type": "function"
    },
    {
      "inputs": [],
      "name": "owner",
      "outputs": [
        {
          "internalType": "address",
          "name": "",
          "type": "address"
        }
      ],
      "stateMutability": "view",
      "type": "function"
    },
    {
      "inputs": [],
      "name": "pause",
      "outputs": [],
      "stateMutability": "nonpayable",
      "type": "function"
    },
    {
      "inputs": [],
      "name": "paused",
      "outputs": [
        {
          "internalType": "bool",
          "name": "",
          "type": "bool"
        }
      ],
      "stateMutability": "view",
      "type": "function"
    },
    {
      "inputs": [
        {
          "internalType": "address",
          "name": "guardian",
          "type": "address"
        }
      ],
      "name": "removeGuardian",
      "outputs": [],
      "stateMutability": "nonpayable",
      "type": "function"
    },
    {
      "inputs": [
        {
          "internalType": "address",
          "name": "token",
          "type": "address"
        }
      ],
      "name": "removeTokenFromWhitelist",
      "outputs": [],
      "stateMutability": "nonpayable",
      "type": "function"
    },
    {
      "inputs": [],
      "name": "renounceOwnership",
      "outputs": [],
      "stateMutability": "nonpayable",
      "type": "function"
    },
    {
      "inputs": [
        {
          "internalType": "address payable",
          "name": "to",
          "type": "address"
        }
      ],
      "name": "transferNative",
      "outputs": [],
      "stateMutability": "payable",
      "type": "function"
    },
    {
      "inputs": [
        {
          "internalType": "address",
          "name": "newOwner",
          "type": "address"
        }
      ],
      "name": "transferOwnership",
      "outputs": [],
      "stateMutability": "nonpayable",
      "type": "function"
    },
    {
      "inputs": [
        {
          "internalType": "address",
          "name": "token",
          "type": "address"
        },
        {
          "internalType": "address",
          "name": "to",
          "type": "address"
        },
        {
          "internalType": "uint256",
          "name": "amount",
          "type": "uint256"
        }
      ],
      "name": "transferTokens",
      "outputs": [],
      "stateMutability": "nonpayable",
      "type": "function"
    },
    {
      "inputs": [],
      "name": "unpause",
      "outputs": [],
      "stateMutability": "nonpayable",
      "type": "function"
    },
    {
      "inputs": [
        {
          "internalType": "address",
          "name": "wallet",
          "type": "address"
        },
        {
          "internalType": "uint256",
          "name": "newDailyLimit",
          "type": "uint256"
        },
        {
          "internalType": "uint256",
          "name": "newMonthlyLimit",
          "type": "uint256"
        }
      ],
      "name": "updateLimits",
      "outputs": [],
      "stateMutability": "nonpayable",
      "type": "function"
    },
    {
      "inputs": [
        {
          "internalType": "address",
          "name": "",
          "type": "address"
        }
      ],
      "name": "wallets",
      "outputs": [
        {
          "internalType": "bool",
          "name": "exists",
          "type": "bool"
        },
        {
          "internalType": "uint256",
          "name": "dailyLimit",
          "type": "uint256"
        },
        {
          "internalType": "uint256",
          "name": "monthlyLimit",
          "type": "uint256"
        },
        {
          "internalType": "uint256",
          "name": "dailySpent",
          "type": "uint256"
        },
        {
          "internalType": "uint256",
          "name": "monthlySpent",
          "type": "uint256"
        },
        {
          "internalType": "uint256",
          "name": "lastDayReset",
          "type": "uint256"
        },
        {
          "internalType": "uint256",
          "name": "lastMonthReset",
          "type": "uint256"
        },
        {
          "internalType": "uint256",
          "name": "guardiansCount",
          "type": "uint256"
        }
      ],
      "stateMutability": "view",
      "type": "function"
    },
    {
      "inputs": [
        {
          "internalType": "address",
          "name": "token",
          "type": "address"
        }
      ],
      "name": "whitelistToken",
      "outputs": [],
      "stateMutability": "nonpayable",
      "type": "function"
    },
    {
      "inputs": [
        {
          "internalType": "address",
          "name": "",
          "type": "address"
        }
      ],
      "name": "whitelistedTokens",
      "outputs": [
        {
          "internalType": "bool",
          "name": "",
          "type": "bool"
        }
      ],
      "stateMutability": "view",
      "type": "function"
    }
  ],
  "bytecode": "0x608060405234801561001057600080fd5b5061001a33610035565b600180556002805460ff19169055610030610085565b61012b565b600080546001600160a01b038381166001600160a01b0319831681178455604051919092169283917f8be0079c531659141344cd1fd0a4f28419497f9722a3daafe3b4186f6b6457e09190a35050565b61008d6100df565b6002805460ff191660011790557f62e78cea01bee320cd4e420270b5ea74000d11b0c9f74754ebdbfc544b05a2586100c23390565b6040516001600160a01b03909116815260200160405180910390a1565b60025460ff16156101295760405162461bcd60e51b815260206004820152601060248201526f14185d5cd8589b194e881c185d5cd95960821b604482015260640160405180910390fd5b565b61139b8061013a6000396000f3fe6080604052600436106100fe5760003560e01c80638456cb5911610095578063a526d83b11610064578063a526d83b146102ed578063a64b6e5f1461030d578063cf4c34a61461032d578063daf9c2101461034d578063f2fde38b1461037d57600080fd5b80638456cb59146101fb57806389b08f11146102105780638da5cb5b146102b2578063a526c5f0146102da57600080fd5b80636247f6f2116100d15780636247f6f21461018657806371404156146101a6578063715018a6146101c65780637a675bb6146101db57600080fd5b8063306275be146101035780633f4ba83a14610125578063422c1d371461013a5780635c975abb14610162575b600080fd5b34801561010f57600080fd5b5061012361011e3660046111c7565b61039d565b005b34801561013157600080fd5b50610123610411565b34801561014657600080fd5b5061014f600381565b6040519081526020015b60405180910390f35b34801561016e57600080fd5b5060025460ff165b6040519015158152602001610159565b34801561019257600080fd5b506101236101a13660046111c7565b610423565b3480156101b257600080fd5b506101236101c13660046111c7565b610495565b3480156101d257600080fd5b506101236105e5565b3480156101e757600080fd5b506101236101f63660046111eb565b6105f7565b34801561020757600080fd5b506101236106c6565b34801561021c57600080fd5b5061027561022b3660046111c7565b60036020819052600091825260409091208054600182015460028301549383015460048401546005850154600686015460089096015460ff90951696939593949293919290919088565b6040805198151589526020890197909752958701949094526060860192909252608085015260a084015260c083015260e082015261010001610159565b3480156102be57600080fd5b506000546040516001600160a01b039091168152602001610159565b6101236102e83660046111c7565b6106d6565b3480156102f957600080fd5b506101236103083660046111c7565b6108af565b34801561031957600080fd5b50610123610328366004611204565b610aa7565b34801561033957600080fd5b50610123610348366004611245565b610d2e565b34801561035957600080fd5b506101766103683660046111c7565b60046020526000908152604090205460ff1681565b34801561038957600080fd5b506101236103983660046111c7565b610e24565b6103a5610e9a565b6001600160a01b0381166103f05760405162461bcd60e51b815260206004820152600d60248201526c24b73b30b634b2103a37b5b2b760991b60448201526064015b60405180910390fd5b6001600160a01b03166000908152600460205260409020805460ff19169055565b610419610e9a565b610421610ef4565b565b61042b610e9a565b6001600160a01b0381166104715760405162461bcd60e51b815260206004820152600d60248201526c24b73b30b634b2103a37b5b2b760991b60448201526064016103e7565b6001600160a01b03166000908152600460205260409020805460ff19166001179055565b3360008181526003602052604090205460ff166104c45760405162461bcd60e51b81526004016103e79061127a565b336001600160a01b038216146104ec5760405162461bcd60e51b81526004016103e7906112a9565b3360009081526003602090815260408083206001600160a01b038616845260070190915290205460ff166105625760405162461bcd60e51b815260206004820152601760248201527f477561726469616e20646f6573206e6f7420657869737400000000000000000060448201526064016103e7565b3360008181526003602081815260408084206001600160a01b0388168552600781018352908420805460ff191690559383525260089091018054916105a6836112e9565b90915550506040516001600160a01b0383169033907fee943cdb81826d5909c559c6b1ae6908fcaf2dbc16c4b730346736b486283e8b90600090a35050565b6105ed610e9a565b6104216000610f46565b3360009081526003602052604090205460ff161561064f5760405162461bcd60e51b815260206004820152601560248201527457616c6c657420616c72656164792065786973747360581b60448201526064016103e7565b336000908152600360205260409020805460ff191660019081178255810182905561067b82601e611300565b60028201554260058201819055600682015560405133808252907f5b03bfed1c14a02bdeceb5fa582eb1a5765fc0bc64ca0e6af4c20afc9487f0819060200160405180910390a25050565b6106ce610e9a565b610421610f96565b6106de610fd3565b6106e661102c565b3360008181526003602052604090205460ff166107155760405162461bcd60e51b81526004016103e79061127a565b336001600160a01b0382161461073d5760405162461bcd60e51b81526004016103e7906112a9565b33346107498282611072565b6107955760405162461bcd60e51b815260206004820152601a60248201527f5472616e73616374696f6e2065786365656473206c696d69747300000000000060448201526064016103e7565b6001600160a01b0384166107df5760405162461bcd60e51b8152602060048201526011602482015270125b9d985b1a59081c9958da5c1a595b9d607a1b60448201526064016103e7565b600034116108205760405162461bcd60e51b815260206004820152600e60248201526d125b9d985b1a5908185b5bdd5b9d60921b60448201526064016103e7565b6040516001600160a01b038516903480156108fc02916000818181858888f19350505050158015610855573d6000803e3d6000fd5b506108603334611116565b6040513481526001600160a01b0385169033907f011c182fcc25e52151bf452608f627a605269882587c25b326e9eb16819557b69060200160405180910390a35050506108ac60018055565b50565b3360008181526003602052604090205460ff166108de5760405162461bcd60e51b81526004016103e79061127a565b336001600160a01b038216146109065760405162461bcd60e51b81526004016103e7906112a9565b6001600160a01b03821661094f5760405162461bcd60e51b815260206004820152601060248201526f24b73b30b634b21033bab0b93234b0b760811b60448201526064016103e7565b3360009081526003602090815260408083206001600160a01b038616845260070190915290205460ff16156109c65760405162461bcd60e51b815260206004820152601760248201527f477561726469616e20616c72656164792065786973747300000000000000000060448201526064016103e7565b3360009081526003602081905260409091206008015410610a215760405162461bcd60e51b815260206004820152601560248201527413585e0819dd585c991a585b9cc81c995858da1959605a1b60448201526064016103e7565b3360008181526003602081815260408084206001600160a01b0388168552600781018352908420805460ff19166001179055938352526008909101805491610a6883611317565b90915550506040516001600160a01b0383169033907fbc3292102fa77e083913064b282926717cdfaede4d35f553d66366c0a3da755a90600090a35050565b610aaf610fd3565b610ab761102c565b3360008181526003602052604090205460ff16610ae65760405162461bcd60e51b81526004016103e79061127a565b336001600160a01b03821614610b0e5760405162461bcd60e51b81526004016103e7906112a9565b3382610b1a8282611072565b610b665760405162461bcd60e51b815260206004820152601a60248201527f5472616e73616374696f6e2065786365656473206c696d69747300000000000060448201526064016103e7565b6001600160a01b03861660009081526004602052604090205460ff16610bc65760405162461bcd60e51b8152602060048201526015602482015274151bdad95b881b9bdd081dda1a5d195b1a5cdd1959605a1b60448201526064016103e7565b6001600160a01b038516610c105760405162461bcd60e51b8152602060048201526011602482015270125b9d985b1a59081c9958da5c1a595b9d607a1b60448201526064016103e7565b60008411610c515760405162461bcd60e51b815260206004820152600e60248201526d125b9d985b1a5908185b5bdd5b9d60921b60448201526064016103e7565b6040516323b872dd60e01b81523360048201526001600160a01b038681166024830152604482018690528716906323b872dd906064016020604051808303816000875af1158015610ca6573d6000803e3d6000fd5b505050506040513d601f19601f82011682018060405250810190610cca9190611330565b50610cd53385611116565b604080516001600160a01b0388811682526020820187905287169133917f70c5f97fd0068e96984b8116fe83eefbff3b91244565bf311a3cba619b4ecbc7910160405180910390a3505050610d2960018055565b505050565b610d36610e9a565b6001600160a01b03831660009081526003602052604090205460ff16610d6e5760405162461bcd60e51b81526004016103e79061127a565b610d7982601e611300565b811015610dc05760405162461bcd60e51b8152602060048201526015602482015274125b9d985b1a59081b5bdb9d1a1b1e481b1a5b5a5d605a1b60448201526064016103e7565b6001600160a01b0383166000818152600360209081526040918290206001810186905560020184905581518581529081018490527fdc679119ed8c7f3e58938f78968a044a7d8f8ab9d80398506c4289c318a5e3ee910160405180910390a2505050565b610e2c610e9a565b6001600160a01b038116610e915760405162461bcd60e51b815260206004820152602660248201527f4f776e61626c653a206e6577206f776e657220697320746865207a65726f206160448201526564647265737360d01b60648201526084016103e7565b6108ac81610f46565b6000546001600160a01b031633146104215760405162461bcd60e51b815260206004820181905260248201527f4f776e61626c653a2063616c6c6572206973206e6f7420746865206f776e657260448201526064016103e7565b610efc611169565b6002805460ff191690557f5db9ee0a495bf2e6ff9c91a7834c1ba4fdd244a5e8aa4e537bd38aeae4b073aa335b6040516001600160a01b03909116815260200160405180910390a1565b600080546001600160a01b038381166001600160a01b0319831681178455604051919092169283917f8be0079c531659141344cd1fd0a4f28419497f9722a3daafe3b4186f6b6457e09190a35050565b610f9e61102c565b6002805460ff191660011790557f62e78cea01bee320cd4e420270b5ea74000d11b0c9f74754ebdbfc544b05a258610f293390565b6002600154036110255760405162461bcd60e51b815260206004820152601f60248201527f5265656e7472616e637947756172643a207265656e7472616e742063616c6c0060448201526064016103e7565b6002600155565b60025460ff16156104215760405162461bcd60e51b815260206004820152601060248201526f14185d5cd8589b194e881c185d5cd95960821b60448201526064016103e7565b6001600160a01b0382166000908152600360205260408120600581015461109c9062015180611352565b42106110b057600060038201554260058201555b60068101546110c29062278d00611352565b42106110d657600060048201554260068201555b80600101548382600301546110eb9190611352565b1115801561110c575080600201548382600401546111099190611352565b11155b9150505b92915050565b6001600160a01b03821660009081526003602081905260408220908101805491928492611144908490611352565b925050819055508181600401600082825461115f9190611352565b9091555050505050565b60025460ff166104215760405162461bcd60e51b815260206004820152601460248201527314185d5cd8589b194e881b9bdd081c185d5cd95960621b60448201526064016103e7565b6001600160a01b03811681146108ac57600080fd5b6000602082840312156111d957600080fd5b81356111e4816111b2565b9392505050565b6000602082840312156111fd57600080fd5b5035919050565b60008060006060848603121561121957600080fd5b8335611224816111b2565b92506020840135611234816111b2565b929592945050506040919091013590565b60008060006060848603121561125a57600080fd5b8335611265816111b2565b95602085013595506040909401359392505050565b60208082526015908201527415d85b1b195d08191bd95cc81b9bdd08195e1a5cdd605a1b604082015260600190565b60208082526010908201526f2737ba103bb0b63632ba1037bbb732b960811b604082015260600190565b634e487b7160e01b600052601160045260246000fd5b6000816112f8576112f86112d3565b506000190190565b8082028115828204841417611110576111106112d3565b600060018201611329576113296112d3565b5060010190565b60006020828403121561134257600080fd5b815180151581146111e457600080fd5b80820180821115611110576111106112d356fea264697066735822122077d8a5ec345dc50852fedd6be986536c1eadd4679e66fe29984280743447cb0a64736f6c63430008130033",
  "linkReferences": {},
  "deployedLinkReferences": {}
}