{
  "_format": "hh-sol-artifact-1",
  "contractName": "SmartWallet",
  "sourceName": "contracts/SmartWallet.sol",
  "abi": [
    {
      "inputs": [],
      "stateMutability": "nonpayable",
      "type": "constructor"
    },
    {
      "inputs": [],
      "name": "EnforcedPause",
      "type": "error"
    },
    {
      "inputs": [],
      "name": "ExpectedPause",
      "type": "error"
    },
    {
      "inputs": [
        {
          "internalType": "address",
          "name": "owner",
          "type": "address"
        }
      ],
      "name": "OwnableInvalidOwner",
      "type": "error"
    },
    {
      "inputs": [
        {
          "internalType": "address",
          "name": "account",
          "type": "address"
        }
      ],
      "name": "OwnableUnauthorizedAccount",
      "type": "error"
    },
    {
      "inputs": [],
      "name": "ReentrancyGuardReentrantCall",
      "type": "error"
    },
    {
      "anonymous": false,
      "inputs": [
        {
          "indexed": true,
          "internalType": "address",
          "name": "wallet",
          "type": "address"
        },
        {
          "indexed": true,
          "internalType": "address",
          "name": "guardian",
          "type": "address"
        }
      ],
      "name": "GuardianAdded",
      "type": "event"
    },
    {
      "anonymous": false,
      "inputs": [
        {
          "indexed": true,
          "internalType": "address",
          "name": "wallet",
          "type": "address"
        },
        {
          "indexed": true,
          "internalType": "address",
          "name": "guardian",
          "type": "address"
        }
      ],
      "name": "GuardianRemoved",
      "type": "event"
    },
    {
      "anonymous": false,
      "inputs": [
        {
          "indexed": true,
          "internalType": "address",
          "name": "wallet",
          "type": "address"
        },
        {
          "indexed": false,
          "internalType": "uint256",
          "name": "dailyLimit",
          "type": "uint256"
        },
        {
          "indexed": false,
          "internalType": "uint256",
          "name": "monthlyLimit",
          "type": "uint256"
        }
      ],
      "name": "LimitsUpdated",
      "type": "event"
    },
    {
      "anonymous": false,
      "inputs": [
        {
          "indexed": true,
          "internalType": "address",
          "name": "from",
          "type": "address"
        },
        {
          "indexed": true,
          "internalType": "address",
          "name": "to",
          "type": "address"
        },
        {
          "indexed": false,
          "internalType": "uint256",
          "name": "amount",
          "type": "uint256"
        }
      ],
      "name": "NativeTokenTransferred",
      "type": "event"
    },
    {
      "anonymous": false,
      "inputs": [
        {
          "indexed": true,
          "internalType": "address",
          "name": "previousOwner",
          "type": "address"
        },
        {
          "indexed": true,
          "internalType": "address",
          "name": "newOwner",
          "type": "address"
        }
      ],
      "name": "OwnershipTransferred",
      "type": "event"
    },
    {
      "anonymous": false,
      "inputs": [
        {
          "indexed": false,
          "internalType": "address",
          "name": "account",
          "type": "address"
        }
      ],
      "name": "Paused",
      "type": "event"
    },
    {
      "anonymous": false,
      "inputs": [
        {
          "indexed": true,
          "internalType": "address",
          "name": "from",
          "type": "address"
        },
        {
          "indexed": true,
          "internalType": "address",
          "name": "to",
          "type": "address"
        },
        {
          "indexed": false,
          "internalType": "address",
          "name": "token",
          "type": "address"
        },
        {
          "indexed": false,
          "internalType": "uint256",
          "name": "amount",
          "type": "uint256"
        }
      ],
      "name": "TokensTransferred",
      "type": "event"
    },
    {
      "anonymous": false,
      "inputs": [
        {
          "indexed": false,
          "internalType": "address",
          "name": "account",
          "type": "address"
        }
      ],
      "name": "Unpaused",
      "type": "event"
    },
    {
      "anonymous": false,
      "inputs": [
        {
          "indexed": true,
          "internalType": "address",
          "name": "owner",
          "type": "address"
        },
        {
          "indexed": false,
          "internalType": "address",
          "name": "wallet",
          "type": "address"
        }
      ],
      "name": "WalletCreated",
      "type": "event"
    },
    {
      "inputs": [],
      "name": "MAX_GUARDIANS",
      "outputs": [
        {
          "internalType": "uint256",
          "name": "",
          "type": "uint256"
        }
      ],
      "stateMutability": "view",
      "type": "function"
    },
    {
      "inputs": [],
      "name": "MAX_TRANSACTIONS_PER_PERIOD",
      "outputs": [
        {
          "internalType": "uint256",
          "name": "",
          "type": "uint256"
        }
      ],
      "stateMutability": "view",
      "type": "function"
    },
    {
      "inputs": [],
      "name": "RATE_LIMIT_PERIOD",
      "outputs": [
        {
          "internalType": "uint256",
          "name": "",
          "type": "uint256"
        }
      ],
      "stateMutability": "view",
      "type": "function"
    },
    {
      "inputs": [
        {
          "internalType": "address",
          "name": "guardian",
          "type": "address"
        }
      ],
      "name": "addGuardian",
      "outputs": [],
      "stateMutability": "nonpayable",
      "type": "function"
    },
    {
      "inputs": [
        {
          "internalType": "uint256",
          "name": "initialLimit",
          "type": "uint256"
        }
      ],
      "name": "createWallet",
      "outputs": [],
      "stateMutability": "nonpayable",
      "type": "function"
    },
    {
      "inputs": [],
      "name": "owner",
      "outputs": [
        {
          "internalType": "address",
          "name": "",
          "type": "address"
        }
      ],
      "stateMutability": "view",
      "type": "function"
    },
    {
      "inputs": [],
      "name": "pause",
      "outputs": [],
      "stateMutability": "nonpayable",
      "type": "function"
    },
    {
      "inputs": [],
      "name": "paused",
      "outputs": [
        {
          "internalType": "bool",
          "name": "",
          "type": "bool"
        }
      ],
      "stateMutability": "view",
      "type": "function"
    },
    {
      "inputs": [
        {
          "internalType": "address",
          "name": "guardian",
          "type": "address"
        }
      ],
      "name": "removeGuardian",
      "outputs": [],
      "stateMutability": "nonpayable",
      "type": "function"
    },
    {
      "inputs": [
        {
          "internalType": "address",
          "name": "token",
          "type": "address"
        }
      ],
      "name": "removeTokenFromWhitelist",
      "outputs": [],
      "stateMutability": "nonpayable",
      "type": "function"
    },
    {
      "inputs": [],
      "name": "renounceOwnership",
      "outputs": [],
      "stateMutability": "nonpayable",
      "type": "function"
    },
    {
      "inputs": [
        {
          "internalType": "address payable",
          "name": "to",
          "type": "address"
        }
      ],
      "name": "transferNative",
      "outputs": [],
      "stateMutability": "payable",
      "type": "function"
    },
    {
      "inputs": [
        {
          "internalType": "address",
          "name": "newOwner",
          "type": "address"
        }
      ],
      "name": "transferOwnership",
      "outputs": [],
      "stateMutability": "nonpayable",
      "type": "function"
    },
    {
      "inputs": [
        {
          "internalType": "address",
          "name": "token",
          "type": "address"
        },
        {
          "internalType": "address",
          "name": "to",
          "type": "address"
        },
        {
          "internalType": "uint256",
          "name": "amount",
          "type": "uint256"
        }
      ],
      "name": "transferTokens",
      "outputs": [],
      "stateMutability": "nonpayable",
      "type": "function"
    },
    {
      "inputs": [],
      "name": "unpause",
      "outputs": [],
      "stateMutability": "nonpayable",
      "type": "function"
    },
    {
      "inputs": [
        {
          "internalType": "address",
          "name": "wallet",
          "type": "address"
        },
        {
          "internalType": "uint256",
          "name": "newDailyLimit",
          "type": "uint256"
        },
        {
          "internalType": "uint256",
          "name": "newMonthlyLimit",
          "type": "uint256"
        }
      ],
      "name": "updateLimits",
      "outputs": [],
      "stateMutability": "nonpayable",
      "type": "function"
    },
    {
      "inputs": [
        {
          "internalType": "bytes32",
          "name": "",
          "type": "bytes32"
        }
      ],
      "name": "usedSignatures",
      "outputs": [
        {
          "internalType": "bool",
          "name": "",
          "type": "bool"
        }
      ],
      "stateMutability": "view",
      "type": "function"
    },
    {
      "inputs": [
        {
          "internalType": "address",
          "name": "",
          "type": "address"
        }
      ],
      "name": "wallets",
      "outputs": [
        {
          "internalType": "bool",
          "name": "exists",
          "type": "bool"
        },
        {
          "internalType": "uint256",
          "name": "dailyLimit",
          "type": "uint256"
        },
        {
          "internalType": "uint256",
          "name": "monthlyLimit",
          "type": "uint256"
        },
        {
          "internalType": "uint256",
          "name": "dailySpent",
          "type": "uint256"
        },
        {
          "internalType": "uint256",
          "name": "monthlySpent",
          "type": "uint256"
        },
        {
          "internalType": "uint256",
          "name": "lastDayReset",
          "type": "uint256"
        },
        {
          "internalType": "uint256",
          "name": "lastMonthReset",
          "type": "uint256"
        },
        {
          "internalType": "uint256",
          "name": "guardiansCount",
          "type": "uint256"
        }
      ],
      "stateMutability": "view",
      "type": "function"
    },
    {
      "inputs": [
        {
          "internalType": "address",
          "name": "token",
          "type": "address"
        }
      ],
      "name": "whitelistToken",
      "outputs": [],
      "stateMutability": "nonpayable",
      "type": "function"
    },
    {
      "inputs": [
        {
          "internalType": "address",
          "name": "",
          "type": "address"
        }
      ],
      "name": "whitelistedTokens",
      "outputs": [
        {
          "internalType": "bool",
          "name": "",
          "type": "bool"
        }
      ],
      "stateMutability": "view",
      "type": "function"
    }
  ],
  "bytecode": "0x608080604052346100d15733156100bb5760008054336001600160a01b03198216811783556040519290916001600160a01b0316907f8be0079c531659141344cd1fd0a4f28419497f9722a3daafe3b4186f6b6457e09080a3600180556002549060ff82166100ac5760018260ff1916176002557f62e78cea01bee320cd4e420270b5ea74000d11b0c9f74754ebdbfc544b05a2586020604051338152a16040516113ae90816100d78239f35b63d93c066560e01b8152600490fd5b631e4fbdf760e01b815260006004820152602490fd5b600080fdfe6040608081526004908136101561001557600080fd5b600091823560e01c8063306275be14610e495780633f4ba83a14610de0578063422c1d3714610dc457806358abfbdf14610da85780635c975abb14610d845780636247f6f214610d395780637140415614610c24578063715018a614610bc75780637a675bb614610a635780638456cb5914610a0857806389b08f11146109805780638da5cb5b14610958578063a526c5f0146107a2578063a526d83b14610618578063a64b6e5f1461030c578063b7b188d1146102ec578063cf4c34a6146101ee578063daf9c210146101b2578063f2fde38b1461012c5763f978fd61146100fd57600080fd5b34610128576020366003190112610128578160209360ff923581526005855220541690519015158152f35b8280fd5b503461012857602036600319011261012857610146610e91565b9061014f61116a565b6001600160a01b0391821692831561019c57505082546001600160a01b0319811683178455167f8be0079c531659141344cd1fd0a4f28419497f9722a3daafe3b4186f6b6457e08380a380f35b51631e4fbdf760e01b8152908101849052602490fd5b50346101285760203660031901126101285760209260ff918391906001600160a01b036101dd610e91565b168252855220541690519015158152f35b50903461012857606036600319011261012857610209610e91565b602435906044359061021961116a565b6001600160a01b031680865260036020528386205490949061023d9060ff16610ee8565b601e8302838104601e14841517156102d957821061029e5750907fdc679119ed8c7f3e58938f78968a044a7d8f8ab9d80398506c4289c318a5e3ee92918486526003602052806002848820846001820155015582519182526020820152a280f35b606490602085519162461bcd60e51b83528201526015602482015274125b9d985b1a59081b5bdb9d1a1b1e481b1a5b5a5d605a1b6044820152fd5b634e487b7160e01b875260118252602487fd5b50503461030857816003193601126103085760209051603c8152f35b5080fd5b503461012857606036600319011261012857610326610e91565b6001600160a01b0360248035828116959294908690036104e857604480359261034d611196565b6103556111b9565b3389526020956003875261036e60ff878c205416610ee8565b61038061037b86336111e4565b610f2c565b61039161038c336112b9565b610f78565b8815159761039e89610fba565b308a1415916103ac83610ff8565b1697888b5284885260ff878c205416156105df57906103cd6103d292611044565b611084565b6103dd8415156110d0565b84516370a0823160e01b81523384820152868183818b5afa90811561056c579085918b916105ae575b5010610576578451636eb1769f60e11b815233848201523082820152868184818b5afa90811561056c579085918b91610537575b50106104fd57908784928651946323b872dd60e01b8652339086015284015282015283816064818a895af180156104f3576104b8575b507f70c5f97fd0068e96984b8116fe83eefbff3b91244565bf311a3cba619b4ecbc79261049d82336112f8565b6104a633611330565b82519485528401523392a36001805580f35b8381813d83116104ec575b6104cd818361110d565b810103126104e85751801515036104e45738610470565b8580fd5b8680fd5b503d6104c3565b83513d89823e3d90fd5b845162461bcd60e51b815292830186905260169083015275496e73756666696369656e7420616c6c6f77616e636560501b90820152606490fd5b809250888092503d8311610565575b610550818361110d565b81010312610561578490513861043a565b8980fd5b503d610546565b86513d8c823e3d90fd5b845162461bcd60e51b815292830186905260149083015273496e73756666696369656e742062616c616e636560601b90820152606490fd5b809250888092503d83116105d8575b6105c7818361110d565b810103126105615784905138610406565b503d6105bd565b865162461bcd60e51b815280860189905260158185015274151bdad95b881b9bdd081dda1a5d195b1a5cdd1959605a1b81860152606490fd5b50829034610308576020928360031936011261012857610636610e91565b33845260039081865261064e60ff8487205416610ee8565b6001600160a01b031692831561076c57338552818652600783862001848652865260ff838620541661072957338552818652816008848720015410156106ee575060089293943386528181526007838720018587528152828620600160ff19825416179055338652528320016106c48154611145565b9055337fbc3292102fa77e083913064b282926717cdfaede4d35f553d66366c0a3da755a8380a380f35b825162461bcd60e51b8152908101869052601560248201527413585e0819dd585c991a585b9cc81c995858da1959605a1b6044820152606490fd5b825162461bcd60e51b8152908101869052601760248201527f477561726469616e20616c7265616479206578697374730000000000000000006044820152606490fd5b825162461bcd60e51b8152908101869052601060248201526f24b73b30b634b21033bab0b93234b0b760811b6044820152606490fd5b5090602090816003193601126109545782356001600160a01b0381169390849003610950576107cf611196565b6107d76111b9565b338552600383526107ed60ff8387205416610ee8565b6107fa61037b34336111e4565b61080661038c336112b9565b61082b84151561081581610fba565b6103cd308714159161082683610ff8565b611044565b6108363415156110d0565b34471061090f578480808034885af13d1561090a573d67ffffffffffffffff81116108f757835190610871601f8201601f191687018361110d565b815286853d92013e5b156108c457507f011c182fcc25e52151bf452608f627a605269882587c25b326e9eb16819557b6906108ac34336112f8565b6108b533611330565b51913483523392a36001805580f35b82606492519162461bcd60e51b8352820152600f60248201526e151c985b9cd9995c8819985a5b1959608a1b6044820152fd5b634e487b7160e01b875260418352602487fd5b61087a565b82606492519162461bcd60e51b8352820152601d60248201527f496e73756666696369656e7420636f6e74726163742062616c616e63650000006044820152fd5b8480fd5b8380fd5b505034610308578160031936011261030857905490516001600160a01b039091168152602090f35b5034610128576020366003190112610128576101009282906001600160a01b036109a8610e91565b16815260036020522060ff815416926001820154926002830154906003840154908401549160058501549360086006870154960154968151981515895260208901528701526060860152608085015260a084015260c083015260e0820152f35b50503461030857816003193601126103085760207f62e78cea01bee320cd4e420270b5ea74000d11b0c9f74754ebdbfc544b05a25891610a4661116a565b610a4e6111b9565b600160ff19600254161760025551338152a180f35b509190346103085760209081600319360112610128578335323303610b8c573384526003835260ff8285205416610b51578015610b16573384526003835281842090600160ff19835416178255806001830155601e8102908104601e03610b0357600282015542600582018190556006909101555133808252917f5b03bfed1c14a02bdeceb5fa582eb1a5765fc0bc64ca0e6af4c20afc9487f08191a280f35b634e487b7160e01b855260118652602485fd5b815162461bcd60e51b81528086018490526015602482015274125b9d985b1a59081a5b9a5d1a585b081b1a5b5a5d605a1b6044820152606490fd5b815162461bcd60e51b8152808601849052601560248201527457616c6c657420616c72656164792065786973747360581b6044820152606490fd5b815162461bcd60e51b8152808601849052601560248201527410dbdb9d1c9858dd1cc81b9bdd08185b1b1bddd959605a1b6044820152606490fd5b8334610c215780600319360112610c2157610be061116a565b80546001600160a01b03198116825581906001600160a01b03167f8be0079c531659141344cd1fd0a4f28419497f9722a3daafe3b4186f6b6457e08280a380f35b80fd5b5034610128576020918260031936011261095457610c40610e91565b9233855260038152610c5760ff8387205416610ee8565b338552600381528185206001600160a01b0390941680865260079490940181528185205460ff1615610cf8573380865260038083528387208688526007018352838720805460ff1916905590865290528320600801805490918115610ce55750600019019055337fee943cdb81826d5909c559c6b1ae6908fcaf2dbc16c4b730346736b486283e8b8380a380f35b634e487b7160e01b855260119052602484fd5b905162461bcd60e51b815291820152601760248201527f477561726469616e20646f6573206e6f742065786973740000000000000000006044820152606490fd5b503461012857602036600319011261012857610d53610e91565b610d5b61116a565b6001600160a01b0316610d6f811515610eac565b83526020528120805460ff1916600117905580f35b50503461030857816003193601126103085760209060ff6002541690519015158152f35b50503461030857816003193601126103085760209051600a8152f35b5050346103085781600319360112610308576020905160038152f35b5034610128578260031936011261012857610df961116a565b6002549060ff821615610e3b575060ff1916600255513381527f5db9ee0a495bf2e6ff9c91a7834c1ba4fdd244a5e8aa4e537bd38aeae4b073aa90602090a180f35b8251638dfc202b60e01b8152fd5b503461012857602036600319011261012857610e63610e91565b610e6b61116a565b6001600160a01b0316610e7f811515610eac565b83526020528120805460ff1916905580f35b600435906001600160a01b0382168203610ea757565b600080fd5b15610eb357565b60405162461bcd60e51b815260206004820152600d60248201526c24b73b30b634b2103a37b5b2b760991b6044820152606490fd5b15610eef57565b60405162461bcd60e51b815260206004820152601560248201527415d85b1b195d08191bd95cc81b9bdd08195e1a5cdd605a1b6044820152606490fd5b15610f3357565b60405162461bcd60e51b815260206004820152601a60248201527f5472616e73616374696f6e2065786365656473206c696d6974730000000000006044820152606490fd5b15610f7f57565b60405162461bcd60e51b815260206004820152601360248201527214985d19481b1a5b5a5d08195e18d959591959606a1b6044820152606490fd5b15610fc157565b60405162461bcd60e51b815260206004820152600f60248201526e496e76616c6964206164647265737360881b6044820152606490fd5b15610fff57565b60405162461bcd60e51b815260206004820152601b60248201527f43616e6e6f742075736520636f6e7472616374206164647265737300000000006044820152606490fd5b1561104b57565b60405162461bcd60e51b8152602060048201526011602482015270125b9d985b1a59081c9958da5c1a595b9d607a1b6044820152606490fd5b1561108b57565b60405162461bcd60e51b815260206004820152601b60248201527f43616e6e6f74207472616e7366657220746f20636f6e747261637400000000006044820152606490fd5b156110d757565b60405162461bcd60e51b815260206004820152600e60248201526d125b9d985b1a5908185b5bdd5b9d60921b6044820152606490fd5b90601f8019910116810190811067ffffffffffffffff82111761112f57604052565b634e487b7160e01b600052604160045260246000fd5b60001981146111545760010190565b634e487b7160e01b600052601160045260246000fd5b6000546001600160a01b0316330361117e57565b60405163118cdaa760e01b8152336004820152602490fd5b6002600154146111a7576002600155565b604051633ee5aeb560e01b8152600490fd5b60ff600254166111c557565b60405163d93c066560e01b8152600490fd5b9190820180921161115457565b6001600160a01b031660009081526003602052604081206005810180549192916201518081019081106112a557421015611296575b506006820190815462278d00810180911161128257421015611273575b50506112468260038301546111d7565b60018201541015918261125857505090565b81925061126b90600460029301546111d7565b910154101590565b60048301554290553880611236565b634e487b7160e01b82526011600452602482fd5b81600384015542905538611219565b634e487b7160e01b83526011600452602483fd5b6001600160a01b031660009081526003602052604090206005810154603c8101908110611154574210156112f2576008600a9101541090565b50600190565b60018060a01b0316600052600360205261132c60046040600020600381016113218582546111d7565b9055019182546111d7565b9055565b60018060a01b03166000526003602052604060002060058101908154603c81018091116111545742106113695760086001910155429055565b600891500161132c815461114556fea2646970667358221220be49e5f2b31347b26c41d33e7a3bcd8cd0c4d4282791e914b2ed96e83579e2a664736f6c63430008160033",
  "linkReferences": {},
  "deployedLinkReferences": {}
}