{
  "_format": "hh-sol-artifact-1",
  "contractName": "SmartWalletV2",
  "sourceName": "contracts/SmartWalletV2.sol",
  "abi": [
    {
      "inputs": [],
      "stateMutability": "nonpayable",
      "type": "constructor"
    },
    {
      "inputs": [],
      "name": "AccessControlBadConfirmation",
      "type": "error"
    },
    {
      "inputs": [
        {
          "internalType": "address",
          "name": "account",
          "type": "address"
        },
        {
          "internalType": "bytes32",
          "name": "neededRole",
          "type": "bytes32"
        }
      ],
      "name": "AccessControlUnauthorizedAccount",
      "type": "error"
    },
    {
      "inputs": [
        {
          "internalType": "address",
          "name": "target",
          "type": "address"
        }
      ],
      "name": "AddressEmptyCode",
      "type": "error"
    },
    {
      "inputs": [],
      "name": "ECDSAInvalidSignature",
      "type": "error"
    },
    {
      "inputs": [
        {
          "internalType": "uint256",
          "name": "length",
          "type": "uint256"
        }
      ],
      "name": "ECDSAInvalidSignatureLength",
      "type": "error"
    },
    {
      "inputs": [
        {
          "internalType": "bytes32",
          "name": "s",
          "type": "bytes32"
        }
      ],
      "name": "ECDSAInvalidSignatureS",
      "type": "error"
    },
    {
      "inputs": [
        {
          "internalType": "address",
          "name": "implementation",
          "type": "address"
        }
      ],
      "name": "ERC1967InvalidImplementation",
      "type": "error"
    },
    {
      "inputs": [],
      "name": "ERC1967NonPayable",
      "type": "error"
    },
    {
      "inputs": [],
      "name": "EnforcedPause",
      "type": "error"
    },
    {
      "inputs": [],
      "name": "ExpectedPause",
      "type": "error"
    },
    {
      "inputs": [],
      "name": "FailedCall",
      "type": "error"
    },
    {
      "inputs": [],
      "name": "InvalidInitialization",
      "type": "error"
    },
    {
      "inputs": [],
      "name": "NotInitializing",
      "type": "error"
    },
    {
      "inputs": [],
      "name": "ReentrancyGuardReentrantCall",
      "type": "error"
    },
    {
      "inputs": [],
      "name": "UUPSUnauthorizedCallContext",
      "type": "error"
    },
    {
      "inputs": [
        {
          "internalType": "bytes32",
          "name": "slot",
          "type": "bytes32"
        }
      ],
      "name": "UUPSUnsupportedProxiableUUID",
      "type": "error"
    },
    {
      "anonymous": false,
      "inputs": [
        {
          "indexed": true,
          "internalType": "address",
          "name": "addr",
          "type": "address"
        },
        {
          "indexed": true,
          "internalType": "address",
          "name": "blacklistedBy",
          "type": "address"
        }
      ],
      "name": "AddressBlacklisted",
      "type": "event"
    },
    {
      "anonymous": false,
      "inputs": [
        {
          "indexed": true,
          "internalType": "address",
          "name": "addr",
          "type": "address"
        },
        {
          "indexed": true,
          "internalType": "address",
          "name": "whitelistedBy",
          "type": "address"
        }
      ],
      "name": "AddressWhitelisted",
      "type": "event"
    },
    {
      "anonymous": false,
      "inputs": [
        {
          "indexed": true,
          "internalType": "string",
          "name": "action",
          "type": "string"
        },
        {
          "indexed": true,
          "internalType": "address",
          "name": "executor",
          "type": "address"
        }
      ],
      "name": "EmergencyActionExecuted",
      "type": "event"
    },
    {
      "anonymous": false,
      "inputs": [
        {
          "indexed": true,
          "internalType": "bytes4",
          "name": "functionSelector",
          "type": "bytes4"
        },
        {
          "indexed": true,
          "internalType": "address",
          "name": "pausedBy",
          "type": "address"
        }
      ],
      "name": "FunctionPaused",
      "type": "event"
    },
    {
      "anonymous": false,
      "inputs": [
        {
          "indexed": true,
          "internalType": "bytes4",
          "name": "functionSelector",
          "type": "bytes4"
        },
        {
          "indexed": true,
          "internalType": "address",
          "name": "unpausedBy",
          "type": "address"
        }
      ],
      "name": "FunctionUnpaused",
      "type": "event"
    },
    {
      "anonymous": false,
      "inputs": [
        {
          "indexed": true,
          "internalType": "address",
          "name": "wallet",
          "type": "address"
        },
        {
          "indexed": true,
          "internalType": "address",
          "name": "guardian",
          "type": "address"
        },
        {
          "indexed": true,
          "internalType": "address",
          "name": "addedBy",
          "type": "address"
        }
      ],
      "name": "GuardianAdded",
      "type": "event"
    },
    {
      "anonymous": false,
      "inputs": [
        {
          "indexed": true,
          "internalType": "address",
          "name": "wallet",
          "type": "address"
        },
        {
          "indexed": true,
          "internalType": "address",
          "name": "guardian",
          "type": "address"
        },
        {
          "indexed": true,
          "internalType": "address",
          "name": "removedBy",
          "type": "address"
        }
      ],
      "name": "GuardianRemoved",
      "type": "event"
    },
    {
      "anonymous": false,
      "inputs": [
        {
          "indexed": false,
          "internalType": "uint64",
          "name": "version",
          "type": "uint64"
        }
      ],
      "name": "Initialized",
      "type": "event"
    },
    {
      "anonymous": false,
      "inputs": [
        {
          "indexed": true,
          "internalType": "address",
          "name": "wallet",
          "type": "address"
        },
        {
          "indexed": false,
          "internalType": "uint256",
          "name": "dailyLimit",
          "type": "uint256"
        },
        {
          "indexed": false,
          "internalType": "uint256",
          "name": "monthlyLimit",
          "type": "uint256"
        },
        {
          "indexed": true,
          "internalType": "address",
          "name": "updatedBy",
          "type": "address"
        }
      ],
      "name": "LimitsUpdated",
      "type": "event"
    },
    {
      "anonymous": false,
      "inputs": [
        {
          "indexed": true,
          "internalType": "address",
          "name": "from",
          "type": "address"
        },
        {
          "indexed": true,
          "internalType": "address",
          "name": "to",
          "type": "address"
        },
        {
          "indexed": false,
          "internalType": "uint256",
          "name": "amount",
          "type": "uint256"
        },
        {
          "indexed": true,
          "internalType": "bytes32",
          "name": "txHash",
          "type": "bytes32"
        }
      ],
      "name": "NativeTokenTransferred",
      "type": "event"
    },
    {
      "anonymous": false,
      "inputs": [
        {
          "indexed": false,
          "internalType": "address",
          "name": "account",
          "type": "address"
        }
      ],
      "name": "Paused",
      "type": "event"
    },
    {
      "anonymous": false,
      "inputs": [
        {
          "indexed": true,
          "internalType": "address",
          "name": "wallet",
          "type": "address"
        },
        {
          "indexed": false,
          "internalType": "uint256",
          "name": "newLimit",
          "type": "uint256"
        },
        {
          "indexed": true,
          "internalType": "address",
          "name": "updatedBy",
          "type": "address"
        }
      ],
      "name": "RateLimitUpdated",
      "type": "event"
    },
    {
      "anonymous": false,
      "inputs": [
        {
          "indexed": true,
          "internalType": "address",
          "name": "wallet",
          "type": "address"
        },
        {
          "indexed": true,
          "internalType": "address",
          "name": "guardian",
          "type": "address"
        },
        {
          "indexed": false,
          "internalType": "uint256",
          "name": "approvalCount",
          "type": "uint256"
        }
      ],
      "name": "RecoveryApproved",
      "type": "event"
    },
    {
      "anonymous": false,
      "inputs": [
        {
          "indexed": true,
          "internalType": "address",
          "name": "wallet",
          "type": "address"
        },
        {
          "indexed": true,
          "internalType": "address",
          "name": "cancelledBy",
          "type": "address"
        }
      ],
      "name": "RecoveryCancelled",
      "type": "event"
    },
    {
      "anonymous": false,
      "inputs": [
        {
          "indexed": true,
          "internalType": "address",
          "name": "wallet",
          "type": "address"
        },
        {
          "indexed": true,
          "internalType": "address",
          "name": "oldOwner",
          "type": "address"
        },
        {
          "indexed": true,
          "internalType": "address",
          "name": "newOwner",
          "type": "address"
        }
      ],
      "name": "RecoveryExecuted",
      "type": "event"
    },
    {
      "anonymous": false,
      "inputs": [
        {
          "indexed": true,
          "internalType": "address",
          "name": "wallet",
          "type": "address"
        },
        {
          "indexed": true,
          "internalType": "address",
          "name": "newOwner",
          "type": "address"
        },
        {
          "indexed": true,
          "internalType": "address",
          "name": "initiatedBy",
          "type": "address"
        }
      ],
      "name": "RecoveryInitiated",
      "type": "event"
    },
    {
      "anonymous": false,
      "inputs": [
        {
          "indexed": true,
          "internalType": "bytes32",
          "name": "role",
          "type": "bytes32"
        },
        {
          "indexed": true,
          "internalType": "bytes32",
          "name": "previousAdminRole",
          "type": "bytes32"
        },
        {
          "indexed": true,
          "internalType": "bytes32",
          "name": "newAdminRole",
          "type": "bytes32"
        }
      ],
      "name": "RoleAdminChanged",
      "type": "event"
    },
    {
      "anonymous": false,
      "inputs": [
        {
          "indexed": true,
          "internalType": "bytes32",
          "name": "role",
          "type": "bytes32"
        },
        {
          "indexed": true,
          "internalType": "address",
          "name": "account",
          "type": "address"
        },
        {
          "indexed": true,
          "internalType": "address",
          "name": "sender",
          "type": "address"
        }
      ],
      "name": "RoleGranted",
      "type": "event"
    },
    {
      "anonymous": false,
      "inputs": [
        {
          "indexed": true,
          "internalType": "bytes32",
          "name": "role",
          "type": "bytes32"
        },
        {
          "indexed": true,
          "internalType": "address",
          "name": "account",
          "type": "address"
        },
        {
          "indexed": true,
          "internalType": "address",
          "name": "sender",
          "type": "address"
        }
      ],
      "name": "RoleRevoked",
      "type": "event"
    },
    {
      "anonymous": false,
      "inputs": [
        {
          "indexed": true,
          "internalType": "address",
          "name": "wallet",
          "type": "address"
        },
        {
          "indexed": false,
          "internalType": "uint256",
          "name": "newLevel",
          "type": "uint256"
        },
        {
          "indexed": true,
          "internalType": "address",
          "name": "changedBy",
          "type": "address"
        }
      ],
      "name": "SecurityLevelChanged",
      "type": "event"
    },
    {
      "anonymous": false,
      "inputs": [
        {
          "indexed": true,
          "internalType": "address",
          "name": "token",
          "type": "address"
        },
        {
          "indexed": true,
          "internalType": "address",
          "name": "blacklistedBy",
          "type": "address"
        }
      ],
      "name": "TokenBlacklisted",
      "type": "event"
    },
    {
      "anonymous": false,
      "inputs": [
        {
          "indexed": true,
          "internalType": "address",
          "name": "token",
          "type": "address"
        },
        {
          "indexed": true,
          "internalType": "address",
          "name": "whitelistedBy",
          "type": "address"
        }
      ],
      "name": "TokenWhitelisted",
      "type": "event"
    },
    {
      "anonymous": false,
      "inputs": [
        {
          "indexed": true,
          "internalType": "address",
          "name": "from",
          "type": "address"
        },
        {
          "indexed": true,
          "internalType": "address",
          "name": "to",
          "type": "address"
        },
        {
          "indexed": false,
          "internalType": "address",
          "name": "token",
          "type": "address"
        },
        {
          "indexed": false,
          "internalType": "uint256",
          "name": "amount",
          "type": "uint256"
        },
        {
          "indexed": true,
          "internalType": "bytes32",
          "name": "txHash",
          "type": "bytes32"
        }
      ],
      "name": "TokensTransferred",
      "type": "event"
    },
    {
      "anonymous": false,
      "inputs": [
        {
          "indexed": true,
          "internalType": "bytes32",
          "name": "txHash",
          "type": "bytes32"
        },
        {
          "indexed": true,
          "internalType": "address",
          "name": "cancelledBy",
          "type": "address"
        }
      ],
      "name": "TransactionCancelled",
      "type": "event"
    },
    {
      "anonymous": false,
      "inputs": [
        {
          "indexed": true,
          "internalType": "bytes32",
          "name": "txHash",
          "type": "bytes32"
        },
        {
          "indexed": true,
          "internalType": "address",
          "name": "executor",
          "type": "address"
        }
      ],
      "name": "TransactionExecuted",
      "type": "event"
    },
    {
      "anonymous": false,
      "inputs": [
        {
          "indexed": true,
          "internalType": "bytes32",
          "name": "txHash",
          "type": "bytes32"
        },
        {
          "indexed": true,
          "internalType": "address",
          "name": "from",
          "type": "address"
        },
        {
          "indexed": true,
          "internalType": "address",
          "name": "to",
          "type": "address"
        },
        {
          "indexed": false,
          "internalType": "uint256",
          "name": "amount",
          "type": "uint256"
        },
        {
          "indexed": false,
          "internalType": "address",
          "name": "token",
          "type": "address"
        }
      ],
      "name": "TransactionQueued",
      "type": "event"
    },
    {
      "anonymous": false,
      "inputs": [
        {
          "indexed": false,
          "internalType": "address",
          "name": "account",
          "type": "address"
        }
      ],
      "name": "Unpaused",
      "type": "event"
    },
    {
      "anonymous": false,
      "inputs": [
        {
          "indexed": true,
          "internalType": "address",
          "name": "implementation",
          "type": "address"
        }
      ],
      "name": "Upgraded",
      "type": "event"
    },
    {
      "anonymous": false,
      "inputs": [
        {
          "indexed": true,
          "internalType": "address",
          "name": "owner",
          "type": "address"
        },
        {
          "indexed": false,
          "internalType": "address",
          "name": "wallet",
          "type": "address"
        },
        {
          "indexed": false,
          "internalType": "uint256",
          "name": "initialLimit",
          "type": "uint256"
        }
      ],
      "name": "WalletCreated",
      "type": "event"
    },
    {
      "inputs": [],
      "name": "ADMIN_ROLE",
      "outputs": [
        {
          "internalType": "bytes32",
          "name": "",
          "type": "bytes32"
        }
      ],
      "stateMutability": "view",
      "type": "function"
    },
    {
      "inputs": [],
      "name": "DEFAULT_ADMIN_ROLE",
      "outputs": [
        {
          "internalType": "bytes32",
          "name": "",
          "type": "bytes32"
        }
      ],
      "stateMutability": "view",
      "type": "function"
    },
    {
      "inputs": [],
      "name": "DEFAULT_LARGE_TX_DELAY",
      "outputs": [
        {
          "internalType": "uint256",
          "name": "",
          "type": "uint256"
        }
      ],
      "stateMutability": "view",
      "type": "function"
    },
    {
      "inputs": [],
      "name": "DEFAULT_LARGE_TX_THRESHOLD",
      "outputs": [
        {
          "internalType": "uint256",
          "name": "",
          "type": "uint256"
        }
      ],
      "stateMutability": "view",
      "type": "function"
    },
    {
      "inputs": [],
      "name": "DEFAULT_MAX_GUARDIANS",
      "outputs": [
        {
          "internalType": "uint256",
          "name": "",
          "type": "uint256"
        }
      ],
      "stateMutability": "view",
      "type": "function"
    },
    {
      "inputs": [],
      "name": "DEFAULT_MAX_TX_PER_PERIOD",
      "outputs": [
        {
          "internalType": "uint256",
          "name": "",
          "type": "uint256"
        }
      ],
      "stateMutability": "view",
      "type": "function"
    },
    {
      "inputs": [],
      "name": "DEFAULT_MIN_GUARDIANS",
      "outputs": [
        {
          "internalType": "uint256",
          "name": "",
          "type": "uint256"
        }
      ],
      "stateMutability": "view",
      "type": "function"
    },
    {
      "inputs": [],
      "name": "DEFAULT_MIN_GUARDIAN_APPROVALS",
      "outputs": [
        {
          "internalType": "uint256",
          "name": "",
          "type": "uint256"
        }
      ],
      "stateMutability": "view",
      "type": "function"
    },
    {
      "inputs": [],
      "name": "DEFAULT_RATE_LIMIT_PERIOD",
      "outputs": [
        {
          "internalType": "uint256",
          "name": "",
          "type": "uint256"
        }
      ],
      "stateMutability": "view",
      "type": "function"
    },
    {
      "inputs": [],
      "name": "DEFAULT_RECOVERY_DELAY",
      "outputs": [
        {
          "internalType": "uint256",
          "name": "",
          "type": "uint256"
        }
      ],
      "stateMutability": "view",
      "type": "function"
    },
    {
      "inputs": [],
      "name": "EMERGENCY_ROLE",
      "outputs": [
        {
          "internalType": "bytes32",
          "name": "",
          "type": "bytes32"
        }
      ],
      "stateMutability": "view",
      "type": "function"
    },
    {
      "inputs": [],
      "name": "GUARDIAN_ROLE",
      "outputs": [
        {
          "internalType": "bytes32",
          "name": "",
          "type": "bytes32"
        }
      ],
      "stateMutability": "view",
      "type": "function"
    },
    {
      "inputs": [],
      "name": "OPERATOR_ROLE",
      "outputs": [
        {
          "internalType": "bytes32",
          "name": "",
          "type": "bytes32"
        }
      ],
      "stateMutability": "view",
      "type": "function"
    },
    {
      "inputs": [],
      "name": "UPGRADE_INTERFACE_VERSION",
      "outputs": [
        {
          "internalType": "string",
          "name": "",
          "type": "string"
        }
      ],
      "stateMutability": "view",
      "type": "function"
    },
    {
      "inputs": [
        {
          "internalType": "address",
          "name": "wallet",
          "type": "address"
        }
      ],
      "name": "approveRecovery",
      "outputs": [],
      "stateMutability": "nonpayable",
      "type": "function"
    },
    {
      "inputs": [
        {
          "internalType": "address",
          "name": "",
          "type": "address"
        }
      ],
      "name": "blacklistedAddresses",
      "outputs": [
        {
          "internalType": "bool",
          "name": "",
          "type": "bool"
        }
      ],
      "stateMutability": "view",
      "type": "function"
    },
    {
      "inputs": [
        {
          "internalType": "address",
          "name": "wallet",
          "type": "address"
        }
      ],
      "name": "cancelRecovery",
      "outputs": [],
      "stateMutability": "nonpayable",
      "type": "function"
    },
    {
      "inputs": [
        {
          "internalType": "uint256",
          "name": "initialLimit",
          "type": "uint256"
        },
        {
          "internalType": "uint256",
          "name": "securityLevel",
          "type": "uint256"
        }
      ],
      "name": "createWallet",
      "outputs": [],
      "stateMutability": "nonpayable",
      "type": "function"
    },
    {
      "inputs": [
        {
          "internalType": "address",
          "name": "wallet",
          "type": "address"
        }
      ],
      "name": "getNonce",
      "outputs": [
        {
          "internalType": "uint256",
          "name": "",
          "type": "uint256"
        }
      ],
      "stateMutability": "view",
      "type": "function"
    },
    {
      "inputs": [
        {
          "internalType": "bytes32",
          "name": "txHash",
          "type": "bytes32"
        }
      ],
      "name": "getQueuedTransaction",
      "outputs": [
        {
          "internalType": "address",
          "name": "from",
          "type": "address"
        },
        {
          "internalType": "address",
          "name": "to",
          "type": "address"
        },
        {
          "internalType": "uint256",
          "name": "amount",
          "type": "uint256"
        },
        {
          "internalType": "address",
          "name": "token",
          "type": "address"
        },
        {
          "internalType": "uint256",
          "name": "queuedAt",
          "type": "uint256"
        },
        {
          "internalType": "bool",
          "name": "executed",
          "type": "bool"
        },
        {
          "internalType": "bool",
          "name": "cancelled",
          "type": "bool"
        },
        {
          "internalType": "uint256",
          "name": "approvalsCount",
          "type": "uint256"
        }
      ],
      "stateMutability": "view",
      "type": "function"
    },
    {
      "inputs": [
        {
          "internalType": "address",
          "name": "wallet",
          "type": "address"
        }
      ],
      "name": "getRateLimitInfo",
      "outputs": [
        {
          "internalType": "uint256",
          "name": "txCount",
          "type": "uint256"
        },
        {
          "internalType": "uint256",
          "name": "lastTxTimestamp",
          "type": "uint256"
        }
      ],
      "stateMutability": "view",
      "type": "function"
    },
    {
      "inputs": [
        {
          "internalType": "address",
          "name": "wallet",
          "type": "address"
        }
      ],
      "name": "getRecoveryInfo",
      "outputs": [
        {
          "internalType": "address",
          "name": "newOwner",
          "type": "address"
        },
        {
          "internalType": "uint256",
          "name": "initiatedAt",
          "type": "uint256"
        },
        {
          "internalType": "uint256",
          "name": "approvalsCount",
          "type": "uint256"
        },
        {
          "internalType": "bool",
          "name": "executed",
          "type": "bool"
        },
        {
          "internalType": "bool",
          "name": "cancelled",
          "type": "bool"
        }
      ],
      "stateMutability": "view",
      "type": "function"
    },
    {
      "inputs": [
        {
          "internalType": "bytes32",
          "name": "role",
          "type": "bytes32"
        }
      ],
      "name": "getRoleAdmin",
      "outputs": [
        {
          "internalType": "bytes32",
          "name": "",
          "type": "bytes32"
        }
      ],
      "stateMutability": "view",
      "type": "function"
    },
    {
      "inputs": [
        {
          "internalType": "address",
          "name": "wallet",
          "type": "address"
        }
      ],
      "name": "getSecurityConfig",
      "outputs": [
        {
          "components": [
            {
              "internalType": "uint256",
              "name": "minGuardians",
              "type": "uint256"
            },
            {
              "internalType": "uint256",
              "name": "maxGuardians",
              "type": "uint256"
            },
            {
              "internalType": "uint256",
              "name": "recoveryDelay",
              "type": "uint256"
            },
            {
              "internalType": "uint256",
              "name": "largeTxDelay",
              "type": "uint256"
            },
            {
              "internalType": "uint256",
              "name": "rateLimitPeriod",
              "type": "uint256"
            },
            {
              "internalType": "uint256",
              "name": "maxTxPerPeriod",
              "type": "uint256"
            },
            {
              "internalType": "uint256",
              "name": "largeTxThreshold",
              "type": "uint256"
            },
            {
              "internalType": "uint256",
              "name": "minGuardianApprovals",
              "type": "uint256"
            }
          ],
          "internalType": "struct SmartWalletV2.SecurityConfig",
          "name": "",
          "type": "tuple"
        }
      ],
      "stateMutability": "view",
      "type": "function"
    },
    {
      "inputs": [
        {
          "internalType": "address",
          "name": "wallet",
          "type": "address"
        }
      ],
      "name": "getWalletInfo",
      "outputs": [
        {
          "internalType": "bool",
          "name": "exists",
          "type": "bool"
        },
        {
          "internalType": "address",
          "name": "owner",
          "type": "address"
        },
        {
          "internalType": "uint256",
          "name": "dailyLimit",
          "type": "uint256"
        },
        {
          "internalType": "uint256",
          "name": "monthlyLimit",
          "type": "uint256"
        },
        {
          "internalType": "uint256",
          "name": "dailySpent",
          "type": "uint256"
        },
        {
          "internalType": "uint256",
          "name": "monthlySpent",
          "type": "uint256"
        },
        {
          "internalType": "uint256",
          "name": "guardiansCount",
          "type": "uint256"
        },
        {
          "internalType": "uint256",
          "name": "securityLevel",
          "type": "uint256"
        },
        {
          "internalType": "bool",
          "name": "isLocked",
          "type": "bool"
        }
      ],
      "stateMutability": "view",
      "type": "function"
    },
    {
      "inputs": [
        {
          "internalType": "bytes32",
          "name": "role",
          "type": "bytes32"
        },
        {
          "internalType": "address",
          "name": "account",
          "type": "address"
        }
      ],
      "name": "grantRole",
      "outputs": [],
      "stateMutability": "nonpayable",
      "type": "function"
    },
    {
      "inputs": [
        {
          "internalType": "bytes32",
          "name": "role",
          "type": "bytes32"
        },
        {
          "internalType": "address",
          "name": "account",
          "type": "address"
        }
      ],
      "name": "hasRole",
      "outputs": [
        {
          "internalType": "bool",
          "name": "",
          "type": "bool"
        }
      ],
      "stateMutability": "view",
      "type": "function"
    },
    {
      "inputs": [],
      "name": "initialize",
      "outputs": [],
      "stateMutability": "nonpayable",
      "type": "function"
    },
    {
      "inputs": [
        {
          "internalType": "address",
          "name": "wallet",
          "type": "address"
        },
        {
          "internalType": "address",
          "name": "newOwner",
          "type": "address"
        }
      ],
      "name": "initiateRecovery",
      "outputs": [],
      "stateMutability": "nonpayable",
      "type": "function"
    },
    {
      "inputs": [
        {
          "internalType": "address",
          "name": "wallet",
          "type": "address"
        },
        {
          "internalType": "bytes4",
          "name": "functionSelector",
          "type": "bytes4"
        }
      ],
      "name": "isFunctionPaused",
      "outputs": [
        {
          "internalType": "bool",
          "name": "",
          "type": "bool"
        }
      ],
      "stateMutability": "view",
      "type": "function"
    },
    {
      "inputs": [
        {
          "internalType": "address",
          "name": "wallet",
          "type": "address"
        },
        {
          "internalType": "address",
          "name": "guardian",
          "type": "address"
        }
      ],
      "name": "isGuardian",
      "outputs": [
        {
          "internalType": "bool",
          "name": "",
          "type": "bool"
        }
      ],
      "stateMutability": "view",
      "type": "function"
    },
    {
      "inputs": [
        {
          "internalType": "address",
          "name": "wallet",
          "type": "address"
        }
      ],
      "name": "lockWallet",
      "outputs": [],
      "stateMutability": "nonpayable",
      "type": "function"
    },
    {
      "inputs": [
        {
          "internalType": "address",
          "name": "wallet",
          "type": "address"
        },
        {
          "internalType": "bytes4",
          "name": "functionSelector",
          "type": "bytes4"
        }
      ],
      "name": "pauseFunction",
      "outputs": [],
      "stateMutability": "nonpayable",
      "type": "function"
    },
    {
      "inputs": [],
      "name": "paused",
      "outputs": [
        {
          "internalType": "bool",
          "name": "",
          "type": "bool"
        }
      ],
      "stateMutability": "view",
      "type": "function"
    },
    {
      "inputs": [],
      "name": "proxiableUUID",
      "outputs": [
        {
          "internalType": "bytes32",
          "name": "",
          "type": "bytes32"
        }
      ],
      "stateMutability": "view",
      "type": "function"
    },
    {
      "inputs": [
        {
          "internalType": "bytes32",
          "name": "",
          "type": "bytes32"
        }
      ],
      "name": "queuedTransactions",
      "outputs": [
        {
          "internalType": "address",
          "name": "from",
          "type": "address"
        },
        {
          "internalType": "address",
          "name": "to",
          "type": "address"
        },
        {
          "internalType": "uint256",
          "name": "amount",
          "type": "uint256"
        },
        {
          "internalType": "address",
          "name": "token",
          "type": "address"
        },
        {
          "internalType": "uint256",
          "name": "queuedAt",
          "type": "uint256"
        },
        {
          "internalType": "bool",
          "name": "executed",
          "type": "bool"
        },
        {
          "internalType": "bool",
          "name": "cancelled",
          "type": "bool"
        },
        {
          "internalType": "uint256",
          "name": "approvalsCount",
          "type": "uint256"
        },
        {
          "internalType": "bytes",
          "name": "data",
          "type": "bytes"
        }
      ],
      "stateMutability": "view",
      "type": "function"
    },
    {
      "inputs": [
        {
          "internalType": "address",
          "name": "",
          "type": "address"
        }
      ],
      "name": "recoveries",
      "outputs": [
        {
          "internalType": "address",
          "name": "newOwner",
          "type": "address"
        },
        {
          "internalType": "uint256",
          "name": "initiatedAt",
          "type": "uint256"
        },
        {
          "internalType": "uint256",
          "name": "approvalsCount",
          "type": "uint256"
        },
        {
          "internalType": "bool",
          "name": "executed",
          "type": "bool"
        },
        {
          "internalType": "bool",
          "name": "cancelled",
          "type": "bool"
        }
      ],
      "stateMutability": "view",
      "type": "function"
    },
    {
      "inputs": [
        {
          "internalType": "bytes32",
          "name": "role",
          "type": "bytes32"
        },
        {
          "internalType": "address",
          "name": "callerConfirmation",
          "type": "address"
        }
      ],
      "name": "renounceRole",
      "outputs": [],
      "stateMutability": "nonpayable",
      "type": "function"
    },
    {
      "inputs": [
        {
          "internalType": "bytes32",
          "name": "role",
          "type": "bytes32"
        },
        {
          "internalType": "address",
          "name": "account",
          "type": "address"
        }
      ],
      "name": "revokeRole",
      "outputs": [],
      "stateMutability": "nonpayable",
      "type": "function"
    },
    {
      "inputs": [
        {
          "internalType": "address",
          "name": "",
          "type": "address"
        }
      ],
      "name": "securityConfigs",
      "outputs": [
        {
          "internalType": "uint256",
          "name": "minGuardians",
          "type": "uint256"
        },
        {
          "internalType": "uint256",
          "name": "maxGuardians",
          "type": "uint256"
        },
        {
          "internalType": "uint256",
          "name": "recoveryDelay",
          "type": "uint256"
        },
        {
          "internalType": "uint256",
          "name": "largeTxDelay",
          "type": "uint256"
        },
        {
          "internalType": "uint256",
          "name": "rateLimitPeriod",
          "type": "uint256"
        },
        {
          "internalType": "uint256",
          "name": "maxTxPerPeriod",
          "type": "uint256"
        },
        {
          "internalType": "uint256",
          "name": "largeTxThreshold",
          "type": "uint256"
        },
        {
          "internalType": "uint256",
          "name": "minGuardianApprovals",
          "type": "uint256"
        }
      ],
      "stateMutability": "view",
      "type": "function"
    },
    {
      "inputs": [
        {
          "internalType": "bytes4",
          "name": "interfaceId",
          "type": "bytes4"
        }
      ],
      "name": "supportsInterface",
      "outputs": [
        {
          "internalType": "bool",
          "name": "",
          "type": "bool"
        }
      ],
      "stateMutability": "view",
      "type": "function"
    },
    {
      "inputs": [
        {
          "internalType": "address payable",
          "name": "to",
          "type": "address"
        },
        {
          "internalType": "bytes",
          "name": "signature",
          "type": "bytes"
        }
      ],
      "name": "transferNative",
      "outputs": [],
      "stateMutability": "payable",
      "type": "function"
    },
    {
      "inputs": [
        {
          "internalType": "address",
          "name": "token",
          "type": "address"
        },
        {
          "internalType": "address",
          "name": "to",
          "type": "address"
        },
        {
          "internalType": "uint256",
          "name": "amount",
          "type": "uint256"
        },
        {
          "internalType": "bytes",
          "name": "signature",
          "type": "bytes"
        }
      ],
      "name": "transferTokens",
      "outputs": [],
      "stateMutability": "nonpayable",
      "type": "function"
    },
    {
      "inputs": [
        {
          "internalType": "address",
          "name": "wallet",
          "type": "address"
        }
      ],
      "name": "unlockWallet",
      "outputs": [],
      "stateMutability": "nonpayable",
      "type": "function"
    },
    {
      "inputs": [
        {
          "internalType": "address",
          "name": "wallet",
          "type": "address"
        },
        {
          "internalType": "bytes4",
          "name": "functionSelector",
          "type": "bytes4"
        }
      ],
      "name": "unpauseFunction",
      "outputs": [],
      "stateMutability": "nonpayable",
      "type": "function"
    },
    {
      "inputs": [
        {
          "internalType": "uint256",
          "name": "newLevel",
          "type": "uint256"
        }
      ],
      "name": "updateSecurityLevel",
      "outputs": [],
      "stateMutability": "nonpayable",
      "type": "function"
    },
    {
      "inputs": [
        {
          "internalType": "address",
          "name": "newImplementation",
          "type": "address"
        },
        {
          "internalType": "bytes",
          "name": "data",
          "type": "bytes"
        }
      ],
      "name": "upgradeToAndCall",
      "outputs": [],
      "stateMutability": "payable",
      "type": "function"
    },
    {
      "inputs": [
        {
          "internalType": "bytes32",
          "name": "",
          "type": "bytes32"
        }
      ],
      "name": "usedSignatures",
      "outputs": [
        {
          "internalType": "bool",
          "name": "",
          "type": "bool"
        }
      ],
      "stateMutability": "view",
      "type": "function"
    },
    {
      "inputs": [
        {
          "internalType": "address",
          "name": "",
          "type": "address"
        }
      ],
      "name": "wallets",
      "outputs": [
        {
          "internalType": "bool",
          "name": "exists",
          "type": "bool"
        },
        {
          "internalType": "address",
          "name": "owner",
          "type": "address"
        },
        {
          "internalType": "uint256",
          "name": "dailyLimit",
          "type": "uint256"
        },
        {
          "internalType": "uint256",
          "name": "monthlyLimit",
          "type": "uint256"
        },
        {
          "internalType": "uint256",
          "name": "dailySpent",
          "type": "uint256"
        },
        {
          "internalType": "uint256",
          "name": "monthlySpent",
          "type": "uint256"
        },
        {
          "internalType": "uint256",
          "name": "lastDayReset",
          "type": "uint256"
        },
        {
          "internalType": "uint256",
          "name": "lastMonthReset",
          "type": "uint256"
        },
        {
          "internalType": "uint256",
          "name": "nonce",
          "type": "uint256"
        },
        {
          "internalType": "uint256",
          "name": "lastTxTimestamp",
          "type": "uint256"
        },
        {
          "internalType": "uint256",
          "name": "txCount",
          "type": "uint256"
        },
        {
          "internalType": "uint256",
          "name": "securityLevel",
          "type": "uint256"
        },
        {
          "internalType": "bool",
          "name": "isLocked",
          "type": "bool"
        },
        {
          "internalType": "uint256",
          "name": "guardiansCount",
          "type": "uint256"
        }
      ],
      "stateMutability": "view",
      "type": "function"
    },
    {
      "inputs": [
        {
          "internalType": "address",
          "name": "",
          "type": "address"
        }
      ],
      "name": "whitelistedTokens",
      "outputs": [
        {
          "internalType": "bool",
          "name": "",
          "type": "bool"
        }
      ],
      "stateMutability": "view",
      "type": "function"
    },
    {
      "stateMutability": "payable",
      "type": "receive"
    }
  ],
  "bytecode": "0x60a08060405234620000d157306080527ff0c57e16840df040f15088dc2f81fe391c3923bec73e23a9662efc9c229c6a009081549060ff8260401c16620000c257506001600160401b036002600160401b0319828216016200007c575b6040516138059081620000d782396080518181816119a40152611a5d0152f35b6001600160401b031990911681179091556040519081527fc7f505b2f371ae2175ee4913f4499e1f2633a7b5936321eed1cdaeb6115181d290602090a13880806200005c565b63f92ee8a960e01b8152600490fd5b600080fdfe60808060405260048036101561001f575b5050361561001d57600080fd5b005b60009182358060e01c91826301ffc9a7146121675750816310f4f7aa1461214a57816311a2b2b114610a3557816320df435914612121578163248a9ca3146120e757816324ea54f4146120ac57816329182941146120895781632cad193314611f145781632d0335ab14611ed85781632ed58ebb14611ebc5781632f2ff15d14611e7157816336568abe14611e2a57816339479a5314611d265781633e0f974c14611c845781634f1ef28614611a0b57816352d1902d1461198f57816355b9eddc146110ef5781635c975abb1461194d57816367cacfe81461193057816375b238fc146118f55781637d5c1914146118575781637e429e6e146117b75781638129fc1c146115dd57816386b237ef1461155057816389b08f11146114755781638bc0ab751461145757816391d1485414611400578163a217fddf146113e4578163a52d92cf146111a8578163ad3cb1cc14611139578163b3ad5c9c146110f4578163ba9ee5fb146110ef578163c18625a914610fec578163c90db44714610e1a578163cbc3b3c214610b64578163cd808d9414610abf578163cf0c137214610a35578163d012b85b14610992578163d476ed8814610909578163d4ee9734146108b7578163d547741f14610868578163d5749d4214610829578163d6f6364314610633578163daf9c210146105f4578163e958ae9114610598578163ed98d7ae1461057c578163ef6ff4df1461042d57508063f2b06537146102bf578063f5b541a6146102815763f978fd6103610010573461027d57602036600319011261027d57604060209260ff92358152600684522054166040519015158152f35b5080fd5b82346102bc57806003193601126102bc5760206040517f97667070c54ef182b0f5858b034beac1b6f3089aa2d3188bb1e8929f4fa9b9298152f35b80fd5b5090346102bc5760208060031936011261027d578235825260028152604082209160018060a01b03928381541690600185600183015416956002830154906003840154169088840154926005850154996008600787015496019160405198809380548c8160011c9560018316918215610423575b871082146104105750858d529081156103ec57506001146103b5575b505050509160ff939161036a886103b19a9b9c95038961229c565b6040519a8b9a610120988c528b015260408a015260608901526080880152818116151560a088015260081c16151560c086015260e08501528061010085015283019061232d565b0390f35b90809450528983205b8284106103d957505050860187018161036a886103b161034f565b8054848b018c0152928a019281016103be565b60ff19168c8e015250505050151560051b8701880190508161036a886103b161034f565b634e487b7160e01b855260229052602484fd5b96607f1696610333565b91905034610578576080366003190112610578576104496121d7565b916104526121ed565b604435906064359467ffffffffffffffff86116105745761047961054d9636908701612203565b95909461048461330d565b61048c612f67565b338952602090898252600e60408b20019063ffffffff60e01b168a5281526104bb60ff60408b20541615612474565b3389528881526104d160ff60408b2054166123b2565b33808a5289825260408a20546001600160a01b03916104f59160081c8316146123f6565b338a5289825261050f60ff600b60408d2001541615612435565b61052161051c873361334f565b6124b5565b61053261052d33613420565b612501565b841689525261054860ff60408920541615612543565b612b21565b60017f9b779b17422d0df92223018b32b4d1fa46e071723d6817e2486d003becc55f005580f35b8680fd5b8280fd5b83346102bc57806003193601126102bc57602060405160058152f35b83346102bc5760403660031901126102bc5760ff60406020926105b96121d7565b6105c16121bb565b6001600160a01b0390911682528185528282206001600160e01b03199091168252600e0184522054604051911615158152f35b83346102bc5760203660031901126102bc5760209060ff906040906001600160a01b0361061f6121d7565b168152600384522054166040519015158152f35b50503461027d57604036600319011261027d57803590602435610654612f67565b60018110158061081e575b6106689061236d565b3384528360205260ff6040852054166107e2573380855260208590526040852080546001600160a81b03191660089290921b610100600160a81b031691909117600117815560ff1990846001820155601e8502858104601e14861517156107cf5790600b91600282015542600582015542600682015586600782015586600882015586600982015583600a8201550190815416905533845260056020526040842090600382556005600183015562015180600283015561a8c06003830155610e10838301556005820190600a825560076006840193678ac7230489e800008555019060038255600281146000146107a3575050674563918244f40000925060059055555b604080513380825260208201939093527f4459976dae5d173eda0ac09c39b840bed814c9d1e490e8b9ba23148e4b19a8379190a280f35b9092906003146107b7575b5050505061076c565b6003670de0b6b3a764000092555555388080806107ae565b634e487b7160e01b875260118552602487fd5b60405162461bcd60e51b8152602081840152601560248201527457616c6c657420616c72656164792065786973747360581b6044820152606490fd5b50600381111561065f565b50503461027d57602036600319011261027d5760209160ff91604091906001600160a01b036108566121d7565b16825284522054166040519015158152f35b50503461027d57604036600319011261027d576108b390356108886121ed565b908084526000805160206137b08339815191526020526108ae600160408620015461300c565b61328a565b5080f35b83346102bc5760403660031901126102bc5760ff60406020926108d86121d7565b6108e06121ed565b6001600160a01b03918216835282865283832091168252600c0184522054604051911615158152f35b50503461027d57602036600319011261027d57610100916040906001600160a01b036109336121d7565b16815260056020522090815491600181015491600282015490600383015490830154906005840154926007600686015495015495604051978852602088015260408701526060860152608085015260a084015260c083015260e0820152f35b83346102bc5760403660031901126102bc576109ac6121d7565b6109b46121bb565b906109bd612fa4565b6001600160a01b0316808352602083905260408320546109df9060ff166123b2565b825281602052600e60408320019063ffffffff60e01b169081835260205260408220600160ff1982541617905533907f37cf9c7afb089036a9b0b180050ebd47f0fb1d71ed1e4e30271b667d420d66bc8380a380f35b50503461027d57602036600319011261027d576001600160a01b03916103b19060409084610a616121d7565b1681526001602052209283541660018401549260038501549401549060405194859460ff808560081c169416928693909594919260809360a086019760018060a01b0316865260208601526040850152151560608401521515910152565b83346102bc5760203660031901126102bc57610ad96121d7565b610ae1612fa4565b6001600160a01b031680825260208290526040822054610b039060ff166123b2565b815280602052600b6040822001600160ff19825416179055337feff0d91d47ab7a1364b5c80c43f6fcf9c52e6a3acc5dc538d95b250c6a3050fc7f7b6cff3ab2cee7380b2ca17867543cf4a11d4d3c8d332d4dd843dd01277aae5a8380a380f35b9190503461057857602080600319360112610e1657610b816121d7565b92610b8a612f67565b338552848252600e60408620019063ffffffff60e01b168552815260ff610bb78160408720541615612474565b6001600160a01b039384168086528583526040862054909290610bdb9083166123b2565b828652858152600c60408720013387528152610bfc826040882054166129bb565b8286526001908181526040872090610c18878354161515612a05565b610c368487840154610c2c82821615612a51565b60081c1615612a9d565b600282013389528082528460408a205416610ddf57610c72610c6a85850154888c5260058552600260408d200154906129f8565b421115612ae2565b33895281526003604089209260ff1993858582541617905501610c9581546126d6565b809155604051818152867f38f6835e133617134a3dec77dabbbf7e601b2a471d077ef5d72b4f8a7754c038843393a385895260058252600760408a2001541115610cdd578780f35b8281526040882095610cfa818801958654610c2c82821615612a51565b6003870154868a5260058352600760408b20015411610da457508790610d35610c6a85890154888552600584526002604086200154906129f8565b858252526040872080549554610100600160a81b03198716908816600881811b610100600160a81b031692909217909255909695901c909416938254161790557f39a93e422776c9b292c4617cb75d1f0bb8e528c2c06ea7cbc10cd233793a4f858480a4388080808080808780f35b6064916040519162461bcd60e51b83528201526016602482015275496e73756666696369656e7420617070726f76616c7360501b6044820152fd5b60405162461bcd60e51b8152808801839052601060248201526f105b1c9958591e48185c1c1c9bdd995960821b6044820152606490fd5b8380fd5b919050346105785760209081600319360112610e1657610e386121d7565b92610e41612f67565b338552848352600e60408620019063ffffffff60e01b168552825260ff90610e6f8260408720541615612474565b6001600160a01b039384168086528584526040862054909490610e939084166123b2565b84865285845260408620805460081c82163314908115610fd6575b508015610f9e575b15610f6957819085875260018552610ed660408820918254161515612a05565b0192835492610ee781851615612a51565b8360081c16610f2657505061ff00191661010017905533907f8506b00cd2df941a18335b7afb79ee5c531dc5cce3972b1b7bdf0211f96d711b8380a380f35b60405162461bcd60e51b815291820152601a60248201527f5265636f7665727920616c72656164792063616e63656c6c6564000000000000604482015260649150fd5b60405162461bcd60e51b8152808301859052600e60248201526d139bdd08185d5d1a1bdc9a5e995960921b6044820152606490fd5b5060008051602061379083398151915286526000805160206137b0833981519152845260408620338752845282604087205416610eb6565b338852600c018552506040862054831638610eae565b50503461027d57602036600319011261027d5760406101009261100d6121d7565b8160e0845161101b81612231565b82815282602082015282868201528260608201528260808201528260a08201528260c0820152015260018060a01b031681526005602052206040519061106082612231565b805492838352600182015490602084019182526002830154906040850191825260038401549060608601918252840154916080860192835260058501549360a0870194855260e0600760068801549760c08a01988952015497019687526040519788525160208801525160408701525160608601525160808501525160a08401525160c08301525160e0820152f35b612311565b83346102bc5760203660031901126102bc5760409081906001600160a01b0361111b6121d7565b16815280602052206008600982015491015482519182526020820152f35b8284346102bc57806003193601126102bc5760405190604082019082821067ffffffffffffffff831117611195576103b1838360405260058152640352e302e360dc1b602082015260405191829160208352602083019061232d565b634e487b7160e01b815260418452602490fd5b905034610578576040366003190112610578576111c36121d7565b916111cc6121ed565b926111d5612f67565b338552602092858452600e60408720019063ffffffff60e01b168652835261120460ff60408720541615612474565b6001600160a01b0390811680865285845260408620549094829161122a9060ff166123b2565b858752868552600c6040882001338852855261124c60ff6040892054166129bb565b169283156113ad5783865282815260ff60408720541661136a578486526001815260408620918254908116158015611348575b8015611338575b156112f45784906001600160601b0360a01b161782554260018301556001600383015533865260028201905260408520600160ff198254161790550161ffff19815416905533917f984ae6bb7fc6ec202143bd903c70af8408ed9b154ef3e4cfe78e47a90ebbe2e48480a480f35b60405162461bcd60e51b8152808501839052601c60248201527f5265636f7665727920616c726561647920696e2070726f6772657373000000006044820152606490fd5b5060ff8484015460081c16611286565b50611363600184015460058452600260408a200154906129f8565b421161127f565b826064916040519162461bcd60e51b8352820152601860248201527f4e6577206f776e657220697320626c61636b6c697374656400000000000000006044820152fd5b826064916040519162461bcd60e51b8352820152601160248201527024b73b30b634b2103732bb9037bbb732b960791b6044820152fd5b83346102bc57806003193601126102bc57602090604051908152f35b50503461027d57604036600319011261027d57604060209260ff926114236121ed565b903582526000805160206137b083398151915285528282206001600160a01b03909116825284522054604051911615158152f35b83346102bc57806003193601126102bc576020604051620151808152f35b50503461027d57602036600319011261027d576101c0916001600160a01b039190604090836114a26121d7565b16815280602052208054916001820154906002830154906003840154908401546005850154600686015490600787015492600888015494600989015496600a8a015498600d60ff600b8d0154169b01549b60206040519e8f9260ff81161515845260081c1691015260408d015260608c015260808b015260a08a015260c089015260e088015261010087015261012086015261014085015261016084015215156101808301526101a0820152f35b50503461027d57602036600319011261027d57604061010092823581526002602052209060ff60018060a01b039283815416938060018301541693600283015491600384015416908301549160076005850154940154956040519788526020880152604087015260608601526080850152818116151560a085015260081c16151560c083015260e0820152f35b50503461027d578160031936011261027d577ff0c57e16840df040f15088dc2f81fe391c3923bec73e23a9662efc9c229c6a0090815460ff8160401c16159167ffffffffffffffff8216801590816117af575b60011490816117a5575b15908161179c575b5061178d575067ffffffffffffffff19811660011783558161176e575b5061166861357a565b61167061357a565b61167861357a565b60017f9b779b17422d0df92223018b32b4d1fa46e071723d6817e2486d003becc55f00556116a461357a565b6116ac61357a565b6116b53361303f565b506116bf336130cd565b506116c93361317d565b506116d2612f67565b7fcd5ed15c6e187e77e9aee88184c21f4f2182ab5827cb3b7e07fbedcd63f03300600160ff198254161790557f62e78cea01bee320cd4e420270b5ea74000d11b0c9f74754ebdbfc544b05a2586020604051338152a1611730575080f35b68ff00000000000000001981541690557fc7f505b2f371ae2175ee4913f4499e1f2633a7b5936321eed1cdaeb6115181d2602060405160018152a180f35b68ffffffffffffffffff1916680100000000000000011782553861165f565b60405163f92ee8a960e01b8152fd5b90501538611642565b303b15915061163a565b849150611630565b83346102bc5760403660031901126102bc576117d16121d7565b6117d96121bb565b906117e2612fa4565b6001600160a01b0316808352602083905260408320546118049060ff166123b2565b825281602052600e60408320019063ffffffff60e01b16908183526020526040822060ff19815416905533907f1a1b94b44f657b334b61a599f62cdf62aeae8e61435e97db3fd4e78ba458cba68380a380f35b50503461027d57602036600319011261027d57610120916001600160a01b0390604090826118836121d7565b168152806020522080549260018201549060028301549060038401549084015491600d8501549360ff600b600a88015497015416966040519860ff811615158a5260081c16602089015260408801526060870152608086015260a085015260c084015260e08301521515610100820152f35b83346102bc57806003193601126102bc5760206040517fa49807205ce4d355092ef5a8a18f56e8913cf4a201fbe287825b095693c217758152f35b83346102bc57806003193601126102bc57602060405161a8c08152f35b83346102bc57806003193601126102bc57602060ff7fcd5ed15c6e187e77e9aee88184c21f4f2182ab5827cb3b7e07fbedcd63f0330054166040519015158152f35b8284346102bc57806003193601126102bc57507f00000000000000000000000000000000000000000000000000000000000000006001600160a01b031630036119fc5760206040517f360894a13ba1a3210667c828492db98dca3e2076cc3735a920a3ca505d382bbc8152f35b60405163703e46dd60e11b8152fd5b5050604036600319011261027d57611a216121d7565b602492833567ffffffffffffffff811161027d573660238201121561027d57611a52903690868187013591016122da565b6001600160a01b03927f00000000000000000000000000000000000000000000000000000000000000008416308114908115611c56575b50611c45577fa49807205ce4d355092ef5a8a18f56e8913cf4a201fbe287825b095693c21775938484526020946000805160206137b0833981519152865260408520338652865260ff60408620541615611c2757508116936040516352d1902d60e01b815281818881895afa859181611bf4575b50611b1957604051634c9c8ce360e01b81528088018790528890fd5b858791897f360894a13ba1a3210667c828492db98dca3e2076cc3735a920a3ca505d382bbc91828103611bde5750853b15611bc9575080546001600160a01b03191682179055604051869392917fbc7cd75a20ee27fd9adebab32041f755214dbc6bffa90cc0225b39da2e5c2d3b8580a2855115611bad57505083516108b394839201845af4611ba76126fb565b9161370c565b93509350505034611bbd57505080f35b63b398979f60e01b8152fd5b604051634c9c8ce360e01b8152808501849052fd5b604051632a87526960e21b815280860191909152fd5b9091508281813d8311611c20575b611c0c818361229c565b81010312611c1c57519038611afd565b8580fd5b503d611c02565b60405163e2517d3f60e01b8152338189015280890191909152604490fd5b60405163703e46dd60e11b81528590fd5b9050847f360894a13ba1a3210667c828492db98dca3e2076cc3735a920a3ca505d382bbc5416141538611a89565b83346102bc5760203660031901126102bc57611c9e6121d7565b611ca6612fa4565b6001600160a01b031680825260208290526040822054611cc89060ff166123b2565b815280602052600b604082200160ff198154169055337fb0498f1147c123e999f1fec023c01a747779b950a72ba776727a587352988a617f7b6cff3ab2cee7380b2ca17867543cf4a11d4d3c8d332d4dd843dd01277aae5a8380a380f35b90506040366003190112610578576001600160a01b03823581811693848203611c1c576024359367ffffffffffffffff85116105745761054d95611d70611dde9636908501612203565b969095611d7b61330d565b611d83612f67565b338a526020938a8552600e60408c20019063ffffffff60e01b168b528452611db260ff60408c20541615612474565b338a52898452611dc860ff60408c2054166123b2565b338a5289845260408a205460081c1633146123f6565b338852878252611df860ff600b60408b2001541615612435565b611e0561051c343361334f565b611e1161052d33613420565b875252611e2560ff60408720541615612543565b61272b565b8284346102bc5760403660031901126102bc57611e456121ed565b336001600160a01b03821603611e60576108b391923561328a565b60405163334bd91960e11b81528390fd5b50503461027d57604036600319011261027d576108b39035611e916121ed565b908084526000805160206137b0833981519152602052611eb7600160408620015461300c565b613215565b83346102bc57806003193601126102bc576020604051600a8152f35b83346102bc5760203660031901126102bc576020906007906040906001600160a01b03611f036121d7565b168152808452200154604051908152f35b50503461027d576020908160031936011261057857803590611f34612f67565b60018210158061207e575b611f489061236d565b338452838352611f5e60ff6040862054166123b2565b338452838352611f7e60018060a01b03604086205460081c1633146123f6565b338452838352611f9860ff600b6040872001541615612435565b338452838352600a60408520018054831061203a57829055338452600583526040842090600283036120095750600681600580674563918244f4000094015501555b6040519081527fce4916f563203d1b5f663eeb71b8baa670271368602e2a2b235ce8cf732bc08f33923392a380f35b906003831461201a575b5050611fda565b60036005820155670de0b6b3a76400006006820155600701553880612013565b60405162461bcd60e51b8152808301859052601e60248201527f43616e6e6f74206465637265617365207365637572697479206c6576656c00006044820152606490fd5b506003821115611f3f565b83346102bc57806003193601126102bc576020604051678ac7230489e800008152f35b83346102bc57806003193601126102bc5760206040517f55435dd261a4b9b3364963f7738a7a662ad9c84396d64be3365284bb7f0a50418152f35b50503461027d57602036600319011261027d5760406020926001923581526000805160206137b08339815191528452200154604051908152f35b83346102bc57806003193601126102bc5760206040516000805160206137908339815191528152f35b83346102bc57806003193601126102bc576020604051610e108152f35b84908434610578576020366003190112610578573563ffffffff60e01b81168091036105785760209250637965db0b60e01b81149081156121aa575b5015158152f35b6301ffc9a760e01b149050836121a3565b602435906001600160e01b0319821682036121d257565b600080fd5b600435906001600160a01b03821682036121d257565b602435906001600160a01b03821682036121d257565b9181601f840112156121d25782359167ffffffffffffffff83116121d257602083818601950101116121d257565b610100810190811067ffffffffffffffff82111761224e57604052565b634e487b7160e01b600052604160045260246000fd5b60c0810190811067ffffffffffffffff82111761224e57604052565b60a0810190811067ffffffffffffffff82111761224e57604052565b90601f8019910116810190811067ffffffffffffffff82111761224e57604052565b67ffffffffffffffff811161224e57601f01601f191660200190565b9291926122e6826122be565b916122f4604051938461229c565b8294818452818301116121d2578281602093846000960137010152565b346121d25760003660031901126121d257602060405160038152f35b919082519283825260005b848110612359575050826000602080949584010152601f8019910116010190565b602081830181015184830182015201612338565b1561237457565b60405162461bcd60e51b8152602060048201526016602482015275125b9d985b1a59081cd958dd5c9a5d1e481b195d995b60521b6044820152606490fd5b156123b957565b60405162461bcd60e51b815260206004820152601560248201527415d85b1b195d08191bd95cc81b9bdd08195e1a5cdd605a1b6044820152606490fd5b156123fd57565b60405162461bcd60e51b815260206004820152601060248201526f2737ba103bb0b63632ba1037bbb732b960811b6044820152606490fd5b1561243c57565b60405162461bcd60e51b815260206004820152601060248201526f15d85b1b195d081a5cc81b1bd8dad95960821b6044820152606490fd5b1561247b57565b60405162461bcd60e51b8152602060048201526012602482015271119d5b98dd1a5bdb881a5cc81c185d5cd95960721b6044820152606490fd5b156124bc57565b60405162461bcd60e51b815260206004820152601a60248201527f5472616e73616374696f6e2065786365656473206c696d6974730000000000006044820152606490fd5b1561250857565b60405162461bcd60e51b815260206004820152601360248201527214985d19481b1a5b5a5d08195e18d959591959606a1b6044820152606490fd5b1561254a57565b60405162461bcd60e51b81526020600482015260166024820152751059191c995cdcc81a5cc8189b1858dadb1a5cdd195960521b6044820152606490fd5b1561258f57565b60405162461bcd60e51b8152602060048201526011602482015270125b9d985b1a59081c9958da5c1a595b9d607a1b6044820152606490fd5b156125cf57565b60405162461bcd60e51b815260206004820152601b60248201527f43616e6e6f74207472616e7366657220746f20636f6e747261637400000000006044820152606490fd5b1561261b57565b60405162461bcd60e51b815260206004820152600e60248201526d125b9d985b1a5908185b5bdd5b9d60921b6044820152606490fd5b1561265857565b60405162461bcd60e51b8152602060048201526011602482015270496e76616c6964207369676e617475726560781b6044820152606490fd5b1561269857565b60405162461bcd60e51b815260206004820152601660248201527514da59db985d1d5c9948185b1c9958591e481d5cd95960521b6044820152606490fd5b60001981146126e55760010190565b634e487b7160e01b600052601160045260246000fd5b3d15612726573d9061270c826122be565b9161271a604051938461229c565b82523d6000602084013e565b606090565b90916001600160a01b03821691612743831515612588565b61274f308414156125c8565b61275a341515612614565b344710612976576000338152602092818452604092600784842001546127d96127d48651946127ce8987013360601b978882526001600160601b0319809860601b16968760348301523460488301526068820152426088820152608881526127c181612264565b5190209b339236916122da565b8b61346f565b612651565b878452600686526127f060ff868620541615612691565b87845260068652848420600160ff1982541617905533845283865260078585200161281b81546126d6565b905533845260058652600685852001543410156128be5750505080808034875af16128446126fb565b5015612889577f2afbc32c0f8931ebe0bbc14c3727827dd4caac5bf2b0e300ec33e851fd236e7b9061287634336134ec565b61287f33613524565b51913483523392a4565b60649250519062461bcd60e51b82526004820152600f60248201526e151c985b9cd9995c8819985a5b1959608a1b6044820152fd5b847fb94138ce96ff9fa4ff8c7dfbcd39be21b6a5d8d463e395165827ebc50b22053d959496979850519187830193168352603482015234604882015284606882015242607c820152607c815261291381612280565b51902092838152600285528060078382206001600160601b0360a01b3381835416178255600182018a82825416179055346002830155600382019081541690554260048201556005810161ffff19815416905501558151943486528501523393a4565b60405162461bcd60e51b815260206004820152601d60248201527f496e73756666696369656e7420636f6e74726163742062616c616e63650000006044820152606490fd5b156129c257565b60405162461bcd60e51b815260206004820152600e60248201526d2737ba10309033bab0b93234b0b760911b6044820152606490fd5b919082018092116126e557565b15612a0c57565b60405162461bcd60e51b815260206004820152601760248201527f4e6f207265636f7665727920696e2070726f67726573730000000000000000006044820152606490fd5b15612a5857565b60405162461bcd60e51b815260206004820152601960248201527f5265636f7665727920616c7265616479206578656375746564000000000000006044820152606490fd5b15612aa457565b60405162461bcd60e51b8152602060048201526016602482015275149958dbdd995c9e481dd85cc818d85b98d95b1b195960521b6044820152606490fd5b15612ae957565b60405162461bcd60e51b815260206004820152601060248201526f149958dbdd995c9e48195e1c1a5c995960821b6044820152606490fd5b919060018060a01b0390818416906000918083526020916003835260409460ff868620541615612f2b57811697612b59891515612588565b612b65308a14156125c8565b612b70871515612614565b8551916370a0823160e01b835260049233848201528581602481885afa908115612eb6579089918891612efa575b5010612ec0578651636eb1769f60e11b815233848201523060248201528581604481885afa908115612eb6579089918891612e85575b5010612e49578890338752868652878720600701548851938785013360601b958682526001600160601b031980809760601b169586603484015260601b16938460488301528d605c830152607c82015242609c820152609c8152612c3781612264565b5190209d8e9133913690612c4a926122da565b612c539261346f565b612c5c90612651565b8c8852600687528888205460ff1615612c7490612691565b8c88526006875288882060ff1981541660011790553388528787528888206007018054612ca0906126d6565b905533885260058752888820600601548a1015612d8e575050505091809160648594875195869384926323b872dd60e01b845233908401528c60248401528a60448401525af18015612d8457612d51575b50505081612d4c91612d247f273378c673154fda85ed67946799ff87fb4a4ff39ab756a754530336d7b73dcc94336134ec565b612d2d33613524565b516001600160a01b039094168452602084015233929081906040820190565b0390a4565b81813d8311612d7d575b612d65818361229c565b8101031261027d5751801515036102bc578080612cf1565b503d612d5b565b84513d85823e3d90fd5b7fb94138ce96ff9fa4ff8c7dfbcd39be21b6a5d8d463e395165827ebc50b22053d999b9c506007949a508897959751928784019416845260348301528a6048830152606882015242607c820152607c8152612de881612280565b5190209687835260028452858320906001600160601b0360a01b3381845416178355600183018c828254161790558a600284015586600384019182541617905542908201556005810161ffff198154169055015582519586528501523393a4565b865162461bcd60e51b81528084018690526016602482015275496e73756666696369656e7420616c6c6f77616e636560501b6044820152606490fd5b809250878092503d8311612eaf575b612e9e818361229c565b810103126105745788905138612bd4565b503d612e94565b88513d89823e3d90fd5b865162461bcd60e51b81528084018690526014602482015273496e73756666696369656e742062616c616e636560601b6044820152606490fd5b809250878092503d8311612f24575b612f13818361229c565b810103126105745788905138612b9e565b503d612f09565b855162461bcd60e51b8152600481018590526015602482015274151bdad95b881b9bdd081dda1a5d195b1a5cdd1959605a1b6044820152606490fd5b60ff7fcd5ed15c6e187e77e9aee88184c21f4f2182ab5827cb3b7e07fbedcd63f033005416612f9257565b60405163d93c066560e01b8152600490fd5b3360009081527f762c7c328dd70a077c65c77b60e4c38eed3d2f6aa056d4d0fa114aeff8234b5660205260409020546000805160206137908339815191529060ff1615612fee5750565b6044906040519063e2517d3f60e01b82523360048301526024820152fd5b806000526000805160206137b083398151915260205260406000203360005260205260ff6040600020541615612fee5750565b6001600160a01b031660008181527fb7db2dd08fcb62d0c9e08c51941cae53c267786a0b75803fb7960902fc8ef97d60205260408120549091906000805160206137b08339815191529060ff166130c8578280526020526040822081835260205260408220600160ff1982541617905533916000805160206137708339815191528180a4600190565b505090565b6001600160a01b031660008181527fb16e88c42fd4e48df2dd6a2eabd6bc9aec654ec170056b470819f8892cc6431c60205260408120549091907fa49807205ce4d355092ef5a8a18f56e8913cf4a201fbe287825b095693c21775906000805160206137b08339815191529060ff16613177578184526020526040832082845260205260408320600160ff19825416179055600080516020613770833981519152339380a4600190565b50505090565b6001600160a01b031660008181527f762c7c328dd70a077c65c77b60e4c38eed3d2f6aa056d4d0fa114aeff8234b566020526040812054909190600080516020613790833981519152906000805160206137b08339815191529060ff16613177578184526020526040832082845260205260408320600160ff19825416179055600080516020613770833981519152339380a4600190565b906000918083526000805160206137b083398151915280602052604084209260018060a01b03169283855260205260ff60408520541615600014613177578184526020526040832082845260205260408320600160ff19825416179055600080516020613770833981519152339380a4600190565b906000918083526000805160206137b083398151915280602052604084209260018060a01b03169283855260205260ff60408520541660001461317757818452602052604083208284526020526040832060ff1981541690557ff6391f5c32d9c69d2a47ea670b442974b53935d1edc7fd64eb21e047a839171b339380a4600190565b7f9b779b17422d0df92223018b32b4d1fa46e071723d6817e2486d003becc55f00600281541461333d5760029055565b604051633ee5aeb560e01b8152600490fd5b60009060018060a01b0316815280602052604081209060058201805462015180810180911161340c574210156133fd575b506006820190815462278d0081018091116133e9574210156133da575b50506133ad8260038301546129f8565b6001820154101591826133bf57505090565b8192506133d290600460029301546129f8565b910154101590565b6004830155429055388061339d565b634e487b7160e01b82526011600452602482fd5b81600384015542905538613380565b634e487b7160e01b83526011600452602483fd5b60018060a01b031660005260006020526040600020600560205260406000209061345360088201546004840154906129f8565b42101561346857600960059101549101541190565b5050600190565b9190916040519260208401917f19457468657265756d205369676e6564204d6573736167653a0a3332000000008352603c850152603c8452606084019184831067ffffffffffffffff84111761224e576134db946134d2936040525190206135bb565b909391936135f7565b6001600160a01b0391821691161490565b60018060a01b0316600052600060205261352060046040600020600381016135158582546129f8565b9055019182546129f8565b9055565b60018060a01b0316600052600060205260406000206005602052604060002090613559600882019260048454910154906129f8565b421061356b5760096001910155429055565b600991500161352081546126d6565b60ff7ff0c57e16840df040f15088dc2f81fe391c3923bec73e23a9662efc9c229c6a005460401c16156135a957565b604051631afcd79f60e31b8152600490fd5b81519190604183036135ec576135e592506020820151906060604084015193015160001a9061367c565b9192909190565b505060009160029190565b60048110156136665780613609575050565b600181036136235760405163f645eedf60e01b8152600490fd5b600281036136445760405163fce698f760e01b815260048101839052602490fd5b60031461364e5750565b602490604051906335e2f38360e21b82526004820152fd5b634e487b7160e01b600052602160045260246000fd5b91907f7fffffffffffffffffffffffffffffff5d576e7357a4501ddfe92f46681b20a0841161370057926020929160ff608095604051948552168484015260408301526060820152600092839182805260015afa156136f45780516001600160a01b038116156136eb57918190565b50809160019190565b604051903d90823e3d90fd5b50505060009160039190565b90613733575080511561372157602081519101fd5b60405163d6bda27560e01b8152600490fd5b81511580613766575b613744575090565b604051639996b31560e01b81526001600160a01b039091166004820152602490fd5b50803b1561373c56fe2f8788117e7eff1d82e926ec794901d17c78024a50270940304540a733656f0dbf233dd2aafeb4d50879c4aa5c81e96d92f6e6945c906a58f9f2d1c1631b4b2602dd7bc7dec4dceedda775e58dd541e08a116c6c53815c0bd028192f7b626800a2646970667358221220607840e8e3c1c976a4149c54f8ae8ec742c5e94104da8a817ccb0d890a7a653c64736f6c63430008160033",
  "linkReferences": {},
  "deployedLinkReferences": {}
}